{
  "address": "0x6ED3E6551Bb396091C15a9621aACa6DdB1C01992",
  "abi": [
    {
      "inputs": [
        {
          "internalType": "address",
          "name": "_admin",
          "type": "address"
        }
      ],
      "stateMutability": "nonpayable",
      "type": "constructor"
    },
    {
      "anonymous": false,
      "inputs": [
        {
          "indexed": true,
          "internalType": "address",
          "name": "oldAdmin",
          "type": "address"
        },
        {
          "indexed": true,
          "internalType": "address",
          "name": "newAdmin",
          "type": "address"
        }
      ],
      "name": "AdminChanged",
      "type": "event"
    },
    {
      "anonymous": false,
      "inputs": [
        {
          "indexed": true,
          "internalType": "address",
          "name": "tokenA",
          "type": "address"
        },
        {
          "indexed": true,
          "internalType": "address",
          "name": "tokenB",
          "type": "address"
        },
        {
          "indexed": true,
          "internalType": "address",
          "name": "bootstrap",
          "type": "address"
        }
      ],
      "name": "BootstrapSetted",
      "type": "event"
    },
    {
      "anonymous": false,
      "inputs": [
        {
          "indexed": true,
          "internalType": "address",
          "name": "newAdmin",
          "type": "address"
        }
      ],
      "name": "Candidate",
      "type": "event"
    },
    {
      "anonymous": false,
      "inputs": [
        {
          "indexed": false,
          "internalType": "uint8",
          "name": "basePoint",
          "type": "uint8"
        }
      ],
      "name": "FeeBasePointUpdated",
      "type": "event"
    },
    {
      "anonymous": false,
      "inputs": [
        {
          "indexed": true,
          "internalType": "address",
          "name": "feeto",
          "type": "address"
        }
      ],
      "name": "FeetoUpdated",
      "type": "event"
    },
    {
      "anonymous": false,
      "inputs": [
        {
          "indexed": true,
          "internalType": "address",
          "name": "caller",
          "type": "address"
        }
      ],
      "name": "PairCreateLocked",
      "type": "event"
    },
    {
      "anonymous": false,
      "inputs": [
        {
          "indexed": true,
          "internalType": "address",
          "name": "caller",
          "type": "address"
        }
      ],
      "name": "PairCreateUnlocked",
      "type": "event"
    },
    {
      "anonymous": false,
      "inputs": [
        {
          "indexed": true,
          "internalType": "address",
          "name": "token0",
          "type": "address"
        },
        {
          "indexed": true,
          "internalType": "address",
          "name": "token1",
          "type": "address"
        },
        {
          "indexed": false,
          "internalType": "address",
          "name": "pair",
          "type": "address"
        },
        {
          "indexed": false,
          "internalType": "uint256",
          "name": "",
          "type": "uint256"
        }
      ],
      "name": "PairCreated",
      "type": "event"
    },
    {
      "inputs": [],
      "name": "admin",
      "outputs": [
        {
          "internalType": "address",
          "name": "",
          "type": "address"
        }
      ],
      "stateMutability": "view",
      "type": "function"
    },
    {
      "inputs": [],
      "name": "adminCandidate",
      "outputs": [
        {
          "internalType": "address",
          "name": "",
          "type": "address"
        }
      ],
      "stateMutability": "view",
      "type": "function"
    },
    {
      "inputs": [
        {
          "internalType": "uint256",
          "name": "",
          "type": "uint256"
        }
      ],
      "name": "allPairs",
      "outputs": [
        {
          "internalType": "address",
          "name": "",
          "type": "address"
        }
      ],
      "stateMutability": "view",
      "type": "function"
    },
    {
      "inputs": [],
      "name": "allPairsLength",
      "outputs": [
        {
          "internalType": "uint256",
          "name": "",
          "type": "uint256"
        }
      ],
      "stateMutability": "view",
      "type": "function"
    },
    {
      "inputs": [],
      "name": "candidateConfirm",
      "outputs": [],
      "stateMutability": "nonpayable",
      "type": "function"
    },
    {
      "inputs": [
        {
          "internalType": "address",
          "name": "tokenA",
          "type": "address"
        },
        {
          "internalType": "address",
          "name": "tokenB",
          "type": "address"
        }
      ],
      "name": "createPair",
      "outputs": [
        {
          "internalType": "address",
          "name": "pair",
          "type": "address"
        }
      ],
      "stateMutability": "nonpayable",
      "type": "function"
    },
    {
      "inputs": [],
      "name": "feeBasePoint",
      "outputs": [
        {
          "internalType": "uint8",
          "name": "",
          "type": "uint8"
        }
      ],
      "stateMutability": "view",
      "type": "function"
    },
    {
      "inputs": [],
      "name": "feeto",
      "outputs": [
        {
          "internalType": "address",
          "name": "",
          "type": "address"
        }
      ],
      "stateMutability": "view",
      "type": "function"
    },
    {
      "inputs": [
        {
          "internalType": "address",
          "name": "",
          "type": "address"
        },
        {
          "internalType": "address",
          "name": "",
          "type": "address"
        }
      ],
      "name": "getBootstrap",
      "outputs": [
        {
          "internalType": "address",
          "name": "",
          "type": "address"
        }
      ],
      "stateMutability": "view",
      "type": "function"
    },
    {
      "inputs": [
        {
          "internalType": "address",
          "name": "",
          "type": "address"
        },
        {
          "internalType": "address",
          "name": "",
          "type": "address"
        }
      ],
      "name": "getPair",
      "outputs": [
        {
          "internalType": "address",
          "name": "",
          "type": "address"
        }
      ],
      "stateMutability": "view",
      "type": "function"
    },
    {
      "inputs": [],
      "name": "lockForPairCreate",
      "outputs": [
        {
          "internalType": "bool",
          "name": "",
          "type": "bool"
        }
      ],
      "stateMutability": "view",
      "type": "function"
    },
    {
      "inputs": [],
      "name": "lockPairCreate",
      "outputs": [],
      "stateMutability": "nonpayable",
      "type": "function"
    },
    {
      "inputs": [],
      "name": "pairCodeHash",
      "outputs": [
        {
          "internalType": "bytes32",
          "name": "",
          "type": "bytes32"
        }
      ],
      "stateMutability": "pure",
      "type": "function"
    },
    {
      "inputs": [
        {
          "internalType": "address",
          "name": "_candidate",
          "type": "address"
        }
      ],
      "name": "setAdminCandidate",
      "outputs": [],
      "stateMutability": "nonpayable",
      "type": "function"
    },
    {
      "inputs": [
        {
          "internalType": "address",
          "name": "tokenA",
          "type": "address"
        },
        {
          "internalType": "address",
          "name": "tokenB",
          "type": "address"
        },
        {
          "internalType": "address",
          "name": "bootstrap",
          "type": "address"
        }
      ],
      "name": "setBootstrap",
      "outputs": [],
      "stateMutability": "nonpayable",
      "type": "function"
    },
    {
      "inputs": [
        {
          "internalType": "uint8",
          "name": "_basePoint",
          "type": "uint8"
        }
      ],
      "name": "setFeeBasePoint",
      "outputs": [],
      "stateMutability": "nonpayable",
      "type": "function"
    },
    {
      "inputs": [
        {
          "internalType": "address",
          "name": "_feeto",
          "type": "address"
        }
      ],
      "name": "setFeeto",
      "outputs": [],
      "stateMutability": "nonpayable",
      "type": "function"
    },
    {
      "inputs": [],
      "name": "unlockPairCreate",
      "outputs": [],
      "stateMutability": "nonpayable",
      "type": "function"
    }
  ],
  "transactionHash": "0xbee4183303fe6de7a62ec41b02f0fda0320685306b0017ac7fa638fb0d477147",
  "args": [
    "0x0597EB296eFbb84CA64C843a7F80d7F8Bff7d17d"
  ],
  "numDeployments": 1,
  "solcInputHash": "007aa94c81b3bc67ae48537a63ee475f",
  "bytecode": "0x608060405234801561001057600080fd5b506040516139e23803806139e283398101604081905261002f916100d0565b6100388161005d565b600280546001600160a01b0319166001600160a01b0392909216919091179055610100565b6000546001600160a01b0316156100ae5760405162461bcd60e51b815260206004820152601160248201527018591b5a5b88185b1c9958591e481cd95d607a1b604482015260640160405180910390fd5b600080546001600160a01b0319166001600160a01b0392909216919091179055565b6000602082840312156100e257600080fd5b81516001600160a01b03811681146100f957600080fd5b9392505050565b6138d38061010f6000396000f3fe60806040523480156200001157600080fd5b50600436106200012d5760003560e01c8063574f2ba311620000af578063ae3f1f2c116200007a578063ae3f1f2c1462000281578063c9c653961462000295578063e316227414620002ac578063e6a4390514620002c3578063f851a44014620002fa57600080fd5b8063574f2ba31462000243578063798ad169146200025657806396de7aa014620002605780639aab9248146200027757600080fd5b806325095b1811620000fc57806325095b1814620001b15780633accfa6c14620001e85780633f02323014620001fc578063405d31e014620002065780634812d2cf146200022c57600080fd5b80630406bd3f14620001325780631e3dd18b146200013e5780631ef414f7146200017257806324f0b189146200019a575b600080fd5b6200013c6200030e565b005b620001556200014f36600462000ca4565b6200037e565b6040516001600160a01b0390911681526020015b60405180910390f35b6002546200018790600160a01b900460ff1681565b60405160ff909116815260200162000169565b6200013c620001ab36600462000cbe565b620003a9565b62000155620001c236600462000c22565b60046020908152600092835260408084209091529082529020546001600160a01b031681565b60015462000155906001600160a01b031681565b6200013c6200046c565b6002546200021b90600160a81b900460ff1681565b604051901515815260200162000169565b6200013c6200023d36600462000c5a565b6200051c565b6005545b60405190815260200162000169565b6200013c6200063c565b6200013c6200027136600462000bfd565b620006a9565b6200024762000720565b60025462000155906001600160a01b031681565b62000155620002a636600462000c22565b62000754565b6200013c620002bd36600462000bfd565b62000b5b565b62000155620002d436600462000c22565b60036020908152600092835260408084209091529082529020546001600160a01b031681565b60005462000155906001600160a01b031681565b6000546001600160a01b03163314620003445760405162461bcd60e51b81526004016200033b9062000ce3565b60405180910390fd5b6002805460ff60a81b1916905560405133907fac45e0df4d004774ac0f710c9a0c240c354961a2f45e65cdd916c3974168c66090600090a2565b600581815481106200038f57600080fd5b6000918252602090912001546001600160a01b0316905081565b6000546001600160a01b03163314620003d65760405162461bcd60e51b81526004016200033b9062000ce3565b601e8160ff161115620004185760405162461bcd60e51b81526020600482015260096024820152682327a92124a22222a760b91b60448201526064016200033b565b6002805460ff60a01b1916600160a01b60ff8416908102919091179091556040519081527fcea85db5939aa6fa66ddd5c784e7284a46f4fba4e44f1e3d690f32d9acec167d9060200160405180910390a150565b6001546001600160a01b03163314620004b85760405162461bcd60e51b815260206004820152600d60248201526c6e6f742043616e64696461746560981b60448201526064016200033b565b600154600080546040516001600160a01b0393841693909116917f7e644d79422f17c01e4894b5f4f588d331ebfa28653d42ae832dc59e38c9798f91a360018054600080546001600160a01b03199081166001600160a01b03841617909155169055565b6000546001600160a01b03163314620005495760405162461bcd60e51b81526004016200033b9062000ce3565b6001600160a01b03838116600090815260036020908152604080832086851684529091529020541615620005b75760405162461bcd60e51b8152602060048201526014602482015273466163746f72793a20504149525f45584953545360601b60448201526064016200033b565b6001600160a01b03808416600081815260046020818152604080842088871680865290835281852080549789166001600160a01b03199889168117909155938352818520868652909252808420805490961683179095559351909392917f8fbdc74091620b8104c8c6e08d389b29cefbb460df289e035349571f5a18781491a4505050565b6000546001600160a01b03163314620006695760405162461bcd60e51b81526004016200033b9062000ce3565b6002805460ff60a81b1916600160a81b17905560405133907fc1524b448adbef1e113beb21fe1c291939668b9561ac836d3555e8c95963d4b090600090a2565b6000546001600160a01b03163314620006d65760405162461bcd60e51b81526004016200033b9062000ce3565b600180546001600160a01b0319166001600160a01b0383169081179091556040517f8cc40b9abca4a505a92028908f9d913d621d18112c69412806506f02333f26b490600090a250565b600060405180602001620007349062000bd2565b6020820181038252601f19601f8201166040525080519060200120905090565b600254600090600160a81b900460ff161580620007905750600254600160a81b900460ff1680156200079057506000546001600160a01b031633145b620007d35760405162461bcd60e51b815260206004820152601260248201527110d49150551157d410525497d313d0d2d15160721b60448201526064016200033b565b816001600160a01b0316836001600160a01b031614156200082d5760405162461bcd60e51b81526020600482015260136024820152724944454e544943414c5f41444452455353455360681b60448201526064016200033b565b600080836001600160a01b0316856001600160a01b0316106200085257838562000855565b84845b90925090506001600160a01b038216620008a15760405162461bcd60e51b815260206004820152600c60248201526b5a45524f5f4144445245535360a01b60448201526064016200033b565b6001600160a01b038281166000908152600360209081526040808320858516845290915290205416156200090f5760405162461bcd60e51b8152602060048201526014602482015273466163746f72793a20504149525f45584953545360601b60448201526064016200033b565b6001600160a01b03828116600090815260046020908152604080832085851684529091529020541615620009ab576001600160a01b0382811660009081526004602090815260408083208585168452909152902054163314620009ab5760405162461bcd60e51b81526020600482015260136024820152722727aa2fa127a7aa29aa2920a82fa7aba722a960691b60448201526064016200033b565b600060405180602001620009bf9062000bd2565b601f1982820381018352601f9091011660408190526bffffffffffffffffffffffff19606086811b8216602084015285901b166034820152909150600090604801604051602081830303815290604052805190602001209050808251602084016000f560405163485cc95560e01b81526001600160a01b03868116600483015285811660248301529196509086169063485cc95590604401600060405180830381600087803b15801562000a7257600080fd5b505af115801562000a87573d6000803e3d6000fd5b505050506001600160a01b0384811660008181526003602081815260408084208987168086529083528185208054978d166001600160a01b031998891681179091559383528185208686528352818520805488168517905560058054600181018255958190527f036b6384b5eca791c62761152d0c79bb0604c104a5fb6f4eb0703f3154bb3db09095018054909716841790965592548351928352908201527f0d3648bd0f6ba80134a33ba9275ac585d9d315f0ad8355cddefde31afa28d0e9910160405180910390a35050505092915050565b6000546001600160a01b0316331462000b885760405162461bcd60e51b81526004016200033b9062000ce3565b600280546001600160a01b0319166001600160a01b0383169081179091556040517f4d7837711202d0d7574a0e818fc3ab5ad3bcb1bf388b35ce649fefcb1f46a47c90600090a250565b612b978062000d0783390190565b80356001600160a01b038116811462000bf857600080fd5b919050565b60006020828403121562000c1057600080fd5b62000c1b8262000be0565b9392505050565b6000806040838503121562000c3657600080fd5b62000c418362000be0565b915062000c516020840162000be0565b90509250929050565b60008060006060848603121562000c7057600080fd5b62000c7b8462000be0565b925062000c8b6020850162000be0565b915062000c9b6040850162000be0565b90509250925092565b60006020828403121562000cb757600080fd5b5035919050565b60006020828403121562000cd157600080fd5b813560ff8116811462000c1b57600080fd5b6020808252600990820152683737ba1030b236b4b760b91b60408201526060019056fe6080604052600e805460ff191660011790553480156200001e57600080fd5b50604080518082018252601081526f2d32b73634b735902628102a37b5b2b760811b60208083019182528351808501909452600684526505a4c4b2d4c560d41b9084015281519192916200007591600391620001ee565b5080516200008b906004906020840190620001ee565b504691507f8b73c3c69bb8fe3d512ecc4cf759cc79239f7b179b0ffacaa9a75d522b39400f9050620000bc62000154565b805160209182012060408051808201825260018152603160f81b90840152805192830193909352918101919091527fc89efdaa54c0f20c7adf612882df0950f5a951637e0307cdcb4c672f298b8bc66060820152608081018290523060a082015260c00160408051601f19818403018152919052805160209091012060055550600780546001600160a01b03191633179055620002d1565b606060038054620001659062000294565b80601f0160208091040260200160405190810160405280929190818152602001828054620001939062000294565b8015620001e45780601f10620001b857610100808354040283529160200191620001e4565b820191906000526020600020905b815481529060010190602001808311620001c657829003601f168201915b5050505050905090565b828054620001fc9062000294565b90600052602060002090601f0160209004810192826200022057600085556200026b565b82601f106200023b57805160ff19168380011785556200026b565b828001600101855582156200026b579182015b828111156200026b5782518255916020019190600101906200024e565b50620002799291506200027d565b5090565b5b808211156200027957600081556001016200027e565b600181811c90821680620002a957607f821691505b60208210811415620002cb57634e487b7160e01b600052602260045260246000fd5b50919050565b6128b680620002e16000396000f3fe608060405234801561001057600080fd5b50600436106101cf5760003560e01c80636a62784211610104578063a9059cbb116100a2578063d21220a711610071578063d21220a71461040f578063d505accf14610422578063dd62ed3e14610435578063fff6cae91461044857600080fd5b8063a9059cbb146103cd578063ba9a7a56146103e0578063bc25cf77146103e9578063c45a0155146103fc57600080fd5b80637ecebe00116100de5780637ecebe001461036a57806389afcb441461038a57806395d89b41146103b2578063a457c2d7146103ba57600080fd5b80636a6278421461032557806370a08231146103385780637464fc3d1461036157600080fd5b806330adf81f11610171578063395093511161014b57806339509351146102ed578063485cc955146103005780635909c0d5146103135780635a3d54931461031c57600080fd5b806330adf81f146102ae578063313ce567146102d55780633644e515146102e457600080fd5b8063095ea7b3116101ad578063095ea7b31461023b5780630dfe16811461025e57806318160ddd1461028957806323b872dd1461029b57600080fd5b8063022c0d9f146101d457806306fdde03146101e95780630902f1ac14610207575b600080fd5b6101e76101e2366004612530565b610450565b005b6101f1610949565b6040516101fe919061264b565b60405180910390f35b61020f6109db565b604080516001600160701b03948516815293909216602084015263ffffffff16908201526060016101fe565b61024e6102493660046124c9565b610a05565b60405190151581526020016101fe565b600854610271906001600160a01b031681565b6040516001600160a01b0390911681526020016101fe565b6002545b6040519081526020016101fe565b61024e6102a9366004612417565b610a1f565b61028d7f6e71edae12b1b97f4d1f60370fef10105fa2faae0126114a169c64845d6126c981565b604051601281526020016101fe565b61028d60055481565b61024e6102fb3660046124c9565b610a43565b6101e761030e3660046123de565b610a65565b61028d600b5481565b61028d600c5481565b61028d6103333660046123a4565b610ae6565b61028d6103463660046123a4565b6001600160a01b031660009081526020819052604090205490565b61028d600d5481565b61028d6103783660046123a4565b60066020526000908152604090205481565b61039d6103983660046123a4565b610e54565b604080519283526020830191909152016101fe565b6101f1611204565b61024e6103c83660046124c9565b611213565b61024e6103db3660046124c9565b61128e565b61028d6103e881565b6101e76103f73660046123a4565b61129c565b600754610271906001600160a01b031681565b600954610271906001600160a01b031681565b6101e7610430366004612458565b6113cf565b61028d6104433660046123de565b6115cc565b6101e76115f7565b600e5460ff1660011461047e5760405162461bcd60e51b81526004016104759061267e565b60405180910390fd5b600e805460ff19169055841515806104965750600084115b6104e25760405162461bcd60e51b815260206004820152601a60248201527f494e53554646494349454e545f4f55545055545f414d4f554e540000000000006044820152606401610475565b6000806104ed6109db565b5091509150816001600160701b0316871080156105125750806001600160701b031686105b6105575760405162461bcd60e51b8152602060048201526016602482015275494e53554646494349454e545f4c495155494449545960501b6044820152606401610475565b60085460095460009182916001600160a01b039182169190811690891682148015906105955750806001600160a01b0316896001600160a01b031614155b6105ce5760405162461bcd60e51b815260206004820152600a602482015269494e56414c49445f544f60b01b6044820152606401610475565b8a156105df576105df828a8d611749565b89156105f0576105f0818a8c611749565b861561065d57604051630c919dcf60e41b81526001600160a01b038a169063c919dcf09061062a9033908f908f908e908e906004016125ff565b600060405180830381600087803b15801561064457600080fd5b505af1158015610658573d6000803e3d6000fd5b505050505b6040516370a0823160e01b81523060048201526001600160a01b038316906370a082319060240160206040518083038186803b15801561069c57600080fd5b505afa1580156106b0573d6000803e3d6000fd5b505050506040513d601f19601f820116820180604052508101906106d49190612517565b6040516370a0823160e01b81523060048201529094506001600160a01b038216906370a082319060240160206040518083038186803b15801561071657600080fd5b505afa15801561072a573d6000803e3d6000fd5b505050506040513d601f19601f8201168201806040525081019061074e9190612517565b92505050600089856001600160701b0316610769919061273e565b8311610776576000610793565b6107898a6001600160701b03871661273e565b610793908461273e565b905060006107aa8a6001600160701b03871661273e565b83116107b75760006107d4565b6107ca8a6001600160701b03871661273e565b6107d4908461273e565b905060008211806107e55750600081115b6108315760405162461bcd60e51b815260206004820152601a60248201527f20494e53554646494349454e545f494e5055545f414d4f554e540000000000006044820152606401610475565b6000610853610841846003611886565b61084d876103e8611886565b906118ed565b90506000610865610841846003611886565b905061088a620f42406108846001600160701b038b8116908b16611886565b90611886565b6108948383611886565b10156108cc5760405162461bcd60e51b8152602060048201526007602482015266506169723a204b60c81b6044820152606401610475565b50506108da84848888611943565b60408051838152602081018390529081018c9052606081018b90526001600160a01b038a169033907fd78ad95fa46c994b6551d0da85fc275fe613ce37657fb8d5e3d130840159d8229060800160405180910390a35050600e805460ff19166001179055505050505050505050565b606060038054610958906127c9565b80601f0160208091040260200160405190810160405280929190818152602001828054610984906127c9565b80156109d15780601f106109a6576101008083540402835291602001916109d1565b820191906000526020600020905b8154815290600101906020018083116109b457829003601f168201915b5050505050905090565b600a546001600160701b0380821692600160701b830490911691600160e01b900463ffffffff1690565b600033610a13818585611b24565b60019150505b92915050565b600033610a2d858285611c49565b610a38858585611cc3565b506001949350505050565b600033610a13818585610a5683836115cc565b610a60919061269e565b611b24565b6007546001600160a01b03163314610ab85760405162461bcd60e51b81526020600482015260166024820152754f6e6c792063616c6c656420627920666163746f727960501b6044820152606401610475565b600880546001600160a01b039384166001600160a01b03199182161790915560098054929093169116179055565b600e5460009060ff16600114610b0e5760405162461bcd60e51b81526004016104759061267e565b600e805460ff19169055600080610b236109db565b506008546040516370a0823160e01b81523060048201529294509092506000916001600160a01b03909116906370a082319060240160206040518083038186803b158015610b7057600080fd5b505afa158015610b84573d6000803e3d6000fd5b505050506040513d601f19601f82011682018060405250810190610ba89190612517565b6009546040516370a0823160e01b81523060048201529192506000916001600160a01b03909116906370a082319060240160206040518083038186803b158015610bf157600080fd5b505afa158015610c05573d6000803e3d6000fd5b505050506040513d601f19601f82011682018060405250810190610c299190612517565b90506000610c40836001600160701b0387166118ed565b90506000610c57836001600160701b0387166118ed565b90506000610c658787611e91565b90506000610c7260025490565b905080610d245760075460408051632b8fc7cb60e21b815290516000926001600160a01b03169163ae3f1f2c916004808301926020929190829003018186803b158015610cbe57600080fd5b505afa158015610cd2573d6000803e3d6000fd5b505050506040513d601f19601f82011682018060405250810190610cf691906123c1565b9050610d106103e861084d610d0b8888611886565b612074565b9950610d1e816103e86120e4565b50610d6b565b610d686001600160701b038916610d3b8684611886565b610d4591906126dc565b6001600160701b038916610d598685611886565b610d6391906126dc565b6121c3565b98505b60008911610dbb5760405162461bcd60e51b815260206004820152601d60248201527f494e53554646494349454e545f4c49515549444954595f4d494e5445440000006044820152606401610475565b610dc58a8a6120e4565b610dd186868a8a611943565b60ff821615610dfe57600a54610dfa906001600160701b0380821691600160701b900416611886565b600d555b604080518581526020810185905233917f4c209b5fc8ad50758f13e2e1088ba56a560dff690a1c6fef26394f4c03821c4f910160405180910390a25050600e805460ff1916600117905550949695505050505050565b600e54600090819060ff16600114610e7e5760405162461bcd60e51b81526004016104759061267e565b600e805460ff19169055600080610e936109db565b506008546009546040516370a0823160e01b81523060048201529395509193506001600160a01b039081169291169060009083906370a082319060240160206040518083038186803b158015610ee857600080fd5b505afa158015610efc573d6000803e3d6000fd5b505050506040513d601f19601f82011682018060405250810190610f209190612517565b6040516370a0823160e01b81523060048201529091506000906001600160a01b038416906370a082319060240160206040518083038186803b158015610f6557600080fd5b505afa158015610f79573d6000803e3d6000fd5b505050506040513d601f19601f82011682018060405250810190610f9d9190612517565b30600090815260208190526040812054919250610fba8888611e91565b90506000610fc760025490565b905080610fd48487611886565b610fde91906126dc565b9a5080610feb8486611886565b610ff591906126dc565b995060008b118015611007575060008a115b6110535760405162461bcd60e51b815260206004820152601d60248201527f494e53554646494349454e545f4c49515549444954595f4255524e45440000006044820152606401610475565b61105d30846121db565b611068878d8d611749565b611073868d8c611749565b6040516370a0823160e01b81523060048201526001600160a01b038816906370a082319060240160206040518083038186803b1580156110b257600080fd5b505afa1580156110c6573d6000803e3d6000fd5b505050506040513d601f19601f820116820180604052508101906110ea9190612517565b6040516370a0823160e01b81523060048201529095506001600160a01b038716906370a082319060240160206040518083038186803b15801561112c57600080fd5b505afa158015611140573d6000803e3d6000fd5b505050506040513d601f19601f820116820180604052508101906111649190612517565b935061117285858b8b611943565b60ff82161561119f57600a5461119b906001600160701b0380821691600160701b900416611886565b600d555b604080518c8152602081018c90526001600160a01b038e169133917fdccd412f0b1252819cb1fd330b93224ca42612892bb3f4f789976e6d81936496910160405180910390a35050600e805460ff191660011790555096989597509495505050505050565b606060048054610958906127c9565b6000338161122182866115cc565b9050838110156112815760405162461bcd60e51b815260206004820152602560248201527f45524332303a2064656372656173656420616c6c6f77616e63652062656c6f77604482015264207a65726f60d81b6064820152608401610475565b610a388286868403611b24565b600033610a13818585611cc3565b600e5460ff166001146112c15760405162461bcd60e51b81526004016104759061267e565b600e805460ff19169055600854600954600a546040516370a0823160e01b81523060048201526001600160a01b039384169390921691611370918491869161136b916001600160701b039091169084906370a08231906024015b60206040518083038186803b15801561133357600080fd5b505afa158015611347573d6000803e3d6000fd5b505050506040513d601f19601f8201168201806040525081019061084d9190612517565b611749565b600a546040516370a0823160e01b81523060048201526113bd918391869161136b91600160701b9091046001600160701b0316906001600160a01b038516906370a082319060240161131b565b5050600e805460ff1916600117905550565b428410156114095760405162461bcd60e51b81526020600482015260076024820152661156141254915160ca1b6044820152606401610475565b6005546001600160a01b038816600090815260066020526040812080549192917f6e71edae12b1b97f4d1f60370fef10105fa2faae0126114a169c64845d6126c9918b918b918b91908761145c836127fe565b909155506040805160208101969096526001600160a01b0394851690860152929091166060840152608083015260a082015260c0810187905260e001604051602081830303815290604052805190602001206040516020016114d592919061190160f01b81526002810192909252602282015260420190565b60408051601f198184030181528282528051602091820120600080855291840180845281905260ff88169284019290925260608301869052608083018590529092509060019060a0016020604051602081039080840390855afa158015611540573d6000803e3d6000fd5b5050604051601f1901519150506001600160a01b038116158015906115765750886001600160a01b0316816001600160a01b0316145b6115b65760405162461bcd60e51b8152602060048201526011602482015270494e56414c49445f5349474e415455524560781b6044820152606401610475565b6115c1898989611b24565b505050505050505050565b6001600160a01b03918216600090815260016020908152604080832093909416825291909152205490565b600e5460ff1660011461161c5760405162461bcd60e51b81526004016104759061267e565b600e805460ff191690556008546040516370a0823160e01b815230600482015261173a916001600160a01b0316906370a082319060240160206040518083038186803b15801561166b57600080fd5b505afa15801561167f573d6000803e3d6000fd5b505050506040513d601f19601f820116820180604052508101906116a39190612517565b6009546040516370a0823160e01b81523060048201526001600160a01b03909116906370a082319060240160206040518083038186803b1580156116e657600080fd5b505afa1580156116fa573d6000803e3d6000fd5b505050506040513d601f19601f8201168201806040525081019061171e9190612517565b600a546001600160701b0380821691600160701b900416611943565b600e805460ff19166001179055565b604080518082018252601981527f7472616e7366657228616464726573732c75696e74323536290000000000000060209182015281516001600160a01b0385811660248301526044808301869052845180840390910181526064909201845291810180516001600160e01b031663a9059cbb60e01b179052915160009283928716916117d591906125e3565b6000604051808303816000865af19150503d8060008114611812576040519150601f19603f3d011682016040523d82523d6000602084013e611817565b606091505b509150915081801561184157508051158061184157508080602001905181019061184191906124f5565b61187f5760405162461bcd60e51b815260206004820152600f60248201526e1514905394d1915497d19052531151608a1b6044820152606401610475565b5050505050565b60008115806118aa5750828261189c818361271f565b92506118a890836126dc565b145b610a195760405162461bcd60e51b815260206004820152601460248201527364732d6d6174682d6d756c2d6f766572666c6f7760601b6044820152606401610475565b6000826118fa838261273e565b9150811115610a195760405162461bcd60e51b815260206004820152601560248201527464732d6d6174682d7375622d756e646572666c6f7760581b6044820152606401610475565b6001600160701b03841180159061196157506001600160701b038311155b6119985760405162461bcd60e51b81526020600482015260086024820152674f564552464c4f5760c01b6044820152606401610475565b60006119a964010000000042612819565b600a549091506000906119c990600160e01b900463ffffffff1683612755565b905060008163ffffffff161180156119e957506001600160701b03841615155b80156119fd57506001600160701b03831615155b15611a8c578063ffffffff16611a2585611a1686612321565b6001600160e01b03169061233a565b6001600160e01b0316611a38919061271f565b600b6000828254611a49919061269e565b909155505063ffffffff8116611a6284611a1687612321565b6001600160e01b0316611a75919061271f565b600c6000828254611a86919061269e565b90915550505b600a805463ffffffff8416600160e01b026001600160e01b036001600160701b03898116600160701b9081026001600160e01b03199095168c83161794909417918216831794859055604080519382169282169290921783529290930490911660208201527f1c411e9a96e071241c2f21f7726b17ae89e3cab4c78be50e062b03a9fffbbad1910160405180910390a1505050505050565b6001600160a01b038316611b865760405162461bcd60e51b8152602060048201526024808201527f45524332303a20617070726f76652066726f6d20746865207a65726f206164646044820152637265737360e01b6064820152608401610475565b6001600160a01b038216611be75760405162461bcd60e51b815260206004820152602260248201527f45524332303a20617070726f766520746f20746865207a65726f206164647265604482015261737360f01b6064820152608401610475565b6001600160a01b0383811660008181526001602090815260408083209487168084529482529182902085905590518481527f8c5be1e5ebec7d5bd14f71427d1e84f3dd0314c0f7b2291e5b200ac8c7c3b92591015b60405180910390a3505050565b6000611c5584846115cc565b90506000198114611cbd5781811015611cb05760405162461bcd60e51b815260206004820152601d60248201527f45524332303a20696e73756666696369656e7420616c6c6f77616e63650000006044820152606401610475565b611cbd8484848403611b24565b50505050565b6001600160a01b038316611d275760405162461bcd60e51b815260206004820152602560248201527f45524332303a207472616e736665722066726f6d20746865207a65726f206164604482015264647265737360d81b6064820152608401610475565b6001600160a01b038216611d895760405162461bcd60e51b815260206004820152602360248201527f45524332303a207472616e7366657220746f20746865207a65726f206164647260448201526265737360e81b6064820152608401610475565b6001600160a01b03831660009081526020819052604090205481811015611e015760405162461bcd60e51b815260206004820152602660248201527f45524332303a207472616e7366657220616d6f756e7420657863656564732062604482015265616c616e636560d01b6064820152608401610475565b6001600160a01b03808516600090815260208190526040808220858503905591851681529081208054849290611e3890849061269e565b92505081905550826001600160a01b0316846001600160a01b03167fddf252ad1be2c89b69c2b068fc378daa952ba7f163c4a11628f55a4df523b3ef84604051611e8491815260200190565b60405180910390a3611cbd565b600080600760009054906101000a90046001600160a01b03166001600160a01b031663ae3f1f2c6040518163ffffffff1660e01b815260040160206040518083038186803b158015611ee257600080fd5b505afa158015611ef6573d6000803e3d6000fd5b505050506040513d601f19601f82011682018060405250810190611f1a91906123c1565b9050600760009054906101000a90046001600160a01b03166001600160a01b0316631ef414f76040518163ffffffff1660e01b815260040160206040518083038186803b158015611f6a57600080fd5b505afa158015611f7e573d6000803e3d6000fd5b505050506040513d601f19601f82011682018060405250810190611fa291906125c6565b600d5490925060ff83161561206057801561205b576000611fd2610d0b6001600160701b03888116908816611886565b90506000611fdf83612074565b905080821115612058576000612000611ff884846118ed565b600254610884565b905060006120348360ff891661202461201a8b601e61277a565b889060ff16611886565b61202e91906126dc565b9061234f565b9050600061204282846126dc565b905080156120545761205487826120e4565b5050505b50505b61206c565b801561206c576000600d555b505092915050565b600060038211156120d5575080600061208e6002836126dc565b61209990600161269e565b90505b818110156120cf579050806002816120b481866126dc565b6120be919061269e565b6120c891906126dc565b905061209c565b50919050565b81156120df575060015b919050565b6001600160a01b03821661213a5760405162461bcd60e51b815260206004820152601f60248201527f45524332303a206d696e7420746f20746865207a65726f2061646472657373006044820152606401610475565b806002600082825461214c919061269e565b90915550506001600160a01b0382166000908152602081905260408120805483929061217990849061269e565b90915550506040518181526001600160a01b038316906000907fddf252ad1be2c89b69c2b068fc378daa952ba7f163c4a11628f55a4df523b3ef9060200160405180910390a35050565b60008183106121d257816121d4565b825b9392505050565b6001600160a01b03821661223b5760405162461bcd60e51b815260206004820152602160248201527f45524332303a206275726e2066726f6d20746865207a65726f206164647265736044820152607360f81b6064820152608401610475565b6001600160a01b038216600090815260208190526040902054818110156122af5760405162461bcd60e51b815260206004820152602260248201527f45524332303a206275726e20616d6f756e7420657863656564732062616c616e604482015261636560f01b6064820152608401610475565b6001600160a01b03831660009081526020819052604081208383039055600280548492906122de90849061273e565b90915550506040518281526000906001600160a01b038516907fddf252ad1be2c89b69c2b068fc378daa952ba7f163c4a11628f55a4df523b3ef90602001611c3c565b6000610a19600160701b6001600160701b0384166126f0565b60006121d46001600160701b038316846126b6565b60008261235c838261269e565b9150811015610a195760405162461bcd60e51b815260206004820152601460248201527364732d6d6174682d6164642d6f766572666c6f7760601b6044820152606401610475565b6000602082840312156123b657600080fd5b81356121d481612859565b6000602082840312156123d357600080fd5b81516121d481612859565b600080604083850312156123f157600080fd5b82356123fc81612859565b9150602083013561240c81612859565b809150509250929050565b60008060006060848603121561242c57600080fd5b833561243781612859565b9250602084013561244781612859565b929592945050506040919091013590565b600080600080600080600060e0888a03121561247357600080fd5b873561247e81612859565b9650602088013561248e81612859565b9550604088013594506060880135935060808801356124ac81612871565b9699959850939692959460a0840135945060c09093013592915050565b600080604083850312156124dc57600080fd5b82356124e781612859565b946020939093013593505050565b60006020828403121561250757600080fd5b815180151581146121d457600080fd5b60006020828403121561252957600080fd5b5051919050565b60008060008060006080868803121561254857600080fd5b8535945060208601359350604086013561256181612859565b9250606086013567ffffffffffffffff8082111561257e57600080fd5b818801915088601f83011261259257600080fd5b8135818111156125a157600080fd5b8960208285010111156125b357600080fd5b9699959850939650602001949392505050565b6000602082840312156125d857600080fd5b81516121d481612871565b600082516125f581846020870161279d565b9190910192915050565b60018060a01b038616815284602082015283604082015260806060820152816080820152818360a0830137600081830160a090810191909152601f909201601f19160101949350505050565b602081526000825180602084015261266a81604085016020870161279d565b601f01601f19169190910160400192915050565b6020808252600690820152651313d0d2d15160d21b604082015260600190565b600082198211156126b1576126b161282d565b500190565b60006001600160e01b03838116806126d0576126d0612843565b92169190910492915050565b6000826126eb576126eb612843565b500490565b60006001600160e01b03828116848216811515828404821116156127165761271661282d565b02949350505050565b60008160001904831182151516156127395761273961282d565b500290565b6000828210156127505761275061282d565b500390565b600063ffffffff838116908316818110156127725761277261282d565b039392505050565b600060ff821660ff8416808210156127945761279461282d565b90039392505050565b60005b838110156127b85781810151838201526020016127a0565b83811115611cbd5750506000910152565b600181811c908216806127dd57607f821691505b602082108114156120cf57634e487b7160e01b600052602260045260246000fd5b60006000198214156128125761281261282d565b5060010190565b60008261282857612828612843565b500690565b634e487b7160e01b600052601160045260246000fd5b634e487b7160e01b600052601260045260246000fd5b6001600160a01b038116811461286e57600080fd5b50565b60ff8116811461286e57600080fdfea26469706673582212204e264fc9783fe50e23220066108668d5ea2af2ea15910939991f73d1dc42cbb964736f6c63430008070033a2646970667358221220c3f8660612ba92e69babd70c79d2703cc36203b78bee7fdc53fb1827474da1e864736f6c63430008070033",
  "devdoc": {
    "kind": "dev",
    "methods": {},
    "version": 1
  },
  "userdoc": {
    "kind": "user",
    "methods": {},
    "version": 1
  },
  "storageLayout": {
    "storage": [
      {
        "astId": 7604,
        "contract": "contracts/core/Factory.sol:Factory",
        "label": "admin",
        "offset": 0,
        "slot": "0",
        "type": "t_address"
      },
      {
        "astId": 7606,
        "contract": "contracts/core/Factory.sol:Factory",
        "label": "adminCandidate",
        "offset": 0,
        "slot": "1",
        "type": "t_address"
      },
      {
        "astId": 4137,
        "contract": "contracts/core/Factory.sol:Factory",
        "label": "feeto",
        "offset": 0,
        "slot": "2",
        "type": "t_address"
      },
      {
        "astId": 4140,
        "contract": "contracts/core/Factory.sol:Factory",
        "label": "feeBasePoint",
        "offset": 20,
        "slot": "2",
        "type": "t_uint8"
      },
      {
        "astId": 4143,
        "contract": "contracts/core/Factory.sol:Factory",
        "label": "lockForPairCreate",
        "offset": 21,
        "slot": "2",
        "type": "t_bool"
      },
      {
        "astId": 4150,
        "contract": "contracts/core/Factory.sol:Factory",
        "label": "getPair",
        "offset": 0,
        "slot": "3",
        "type": "t_mapping(t_address,t_mapping(t_address,t_address))"
      },
      {
        "astId": 4157,
        "contract": "contracts/core/Factory.sol:Factory",
        "label": "getBootstrap",
        "offset": 0,
        "slot": "4",
        "type": "t_mapping(t_address,t_mapping(t_address,t_address))"
      },
      {
        "astId": 4161,
        "contract": "contracts/core/Factory.sol:Factory",
        "label": "allPairs",
        "offset": 0,
        "slot": "5",
        "type": "t_array(t_address)dyn_storage"
      }
    ],
    "types": {
      "t_address": {
        "encoding": "inplace",
        "label": "address",
        "numberOfBytes": "20"
      },
      "t_array(t_address)dyn_storage": {
        "base": "t_address",
        "encoding": "dynamic_array",
        "label": "address[]",
        "numberOfBytes": "32"
      },
      "t_bool": {
        "encoding": "inplace",
        "label": "bool",
        "numberOfBytes": "1"
      },
      "t_mapping(t_address,t_address)": {
        "encoding": "mapping",
        "key": "t_address",
        "label": "mapping(address => address)",
        "numberOfBytes": "32",
        "value": "t_address"
      },
      "t_mapping(t_address,t_mapping(t_address,t_address))": {
        "encoding": "mapping",
        "key": "t_address",
        "label": "mapping(address => mapping(address => address))",
        "numberOfBytes": "32",
        "value": "t_mapping(t_address,t_address)"
      },
      "t_uint8": {
        "encoding": "inplace",
        "label": "uint8",
        "numberOfBytes": "1"
      }
    }
  }
}