{
  "address": "0x36aa49803aF6c5b2b2Fe8488D78AbB334de52320",
  "abi": [
    {
      "inputs": [],
      "stateMutability": "nonpayable",
      "type": "constructor"
    },
    {
      "anonymous": false,
      "inputs": [
        {
          "indexed": true,
          "internalType": "address",
          "name": "provider",
          "type": "address"
        },
        {
          "indexed": false,
          "internalType": "uint256[]",
          "name": "tokenAmounts",
          "type": "uint256[]"
        },
        {
          "indexed": false,
          "internalType": "uint256[]",
          "name": "fees",
          "type": "uint256[]"
        },
        {
          "indexed": false,
          "internalType": "uint256",
          "name": "invariant",
          "type": "uint256"
        },
        {
          "indexed": false,
          "internalType": "uint256",
          "name": "tokenSupply",
          "type": "uint256"
        }
      ],
      "name": "AddLiquidity",
      "type": "event"
    },
    {
      "anonymous": false,
      "inputs": [
        {
          "indexed": true,
          "internalType": "address",
          "name": "oldAdmin",
          "type": "address"
        },
        {
          "indexed": true,
          "internalType": "address",
          "name": "newAdmin",
          "type": "address"
        }
      ],
      "name": "AdminChanged",
      "type": "event"
    },
    {
      "anonymous": false,
      "inputs": [
        {
          "indexed": true,
          "internalType": "address",
          "name": "newAdmin",
          "type": "address"
        }
      ],
      "name": "Candidate",
      "type": "event"
    },
    {
      "anonymous": false,
      "inputs": [
        {
          "indexed": false,
          "internalType": "address",
          "name": "token",
          "type": "address"
        },
        {
          "indexed": false,
          "internalType": "uint256",
          "name": "amount",
          "type": "uint256"
        }
      ],
      "name": "CollectProtocolFee",
      "type": "event"
    },
    {
      "anonymous": false,
      "inputs": [
        {
          "indexed": false,
          "internalType": "address",
          "name": "newController",
          "type": "address"
        }
      ],
      "name": "FeeControllerChanged",
      "type": "event"
    },
    {
      "anonymous": false,
      "inputs": [
        {
          "indexed": false,
          "internalType": "address",
          "name": "newController",
          "type": "address"
        }
      ],
      "name": "FeeDistributorChanged",
      "type": "event"
    },
    {
      "anonymous": false,
      "inputs": [
        {
          "indexed": true,
          "internalType": "address",
          "name": "caller",
          "type": "address"
        },
        {
          "indexed": true,
          "internalType": "address",
          "name": "receiver",
          "type": "address"
        },
        {
          "indexed": false,
          "internalType": "uint256[]",
          "name": "amounts_out",
          "type": "uint256[]"
        }
      ],
      "name": "FlashLoan",
      "type": "event"
    },
    {
      "anonymous": false,
      "inputs": [
        {
          "indexed": false,
          "internalType": "uint8",
          "name": "version",
          "type": "uint8"
        }
      ],
      "name": "Initialized",
      "type": "event"
    },
    {
      "anonymous": false,
      "inputs": [
        {
          "indexed": false,
          "internalType": "uint256",
          "name": "fee",
          "type": "uint256"
        },
        {
          "indexed": false,
          "internalType": "uint256",
          "name": "adminFee",
          "type": "uint256"
        }
      ],
      "name": "NewFee",
      "type": "event"
    },
    {
      "anonymous": false,
      "inputs": [
        {
          "indexed": false,
          "internalType": "address",
          "name": "account",
          "type": "address"
        }
      ],
      "name": "Paused",
      "type": "event"
    },
    {
      "anonymous": false,
      "inputs": [
        {
          "indexed": false,
          "internalType": "uint256",
          "name": "oldA",
          "type": "uint256"
        },
        {
          "indexed": false,
          "internalType": "uint256",
          "name": "newA",
          "type": "uint256"
        },
        {
          "indexed": false,
          "internalType": "uint256",
          "name": "initialTime",
          "type": "uint256"
        },
        {
          "indexed": false,
          "internalType": "uint256",
          "name": "futureTime",
          "type": "uint256"
        }
      ],
      "name": "RampA",
      "type": "event"
    },
    {
      "anonymous": false,
      "inputs": [
        {
          "indexed": true,
          "internalType": "address",
          "name": "provider",
          "type": "address"
        },
        {
          "indexed": false,
          "internalType": "uint256[]",
          "name": "tokenAmounts",
          "type": "uint256[]"
        },
        {
          "indexed": false,
          "internalType": "uint256[]",
          "name": "fees",
          "type": "uint256[]"
        },
        {
          "indexed": false,
          "internalType": "uint256",
          "name": "tokenSupply",
          "type": "uint256"
        }
      ],
      "name": "RemoveLiquidity",
      "type": "event"
    },
    {
      "anonymous": false,
      "inputs": [
        {
          "indexed": true,
          "internalType": "address",
          "name": "provider",
          "type": "address"
        },
        {
          "indexed": false,
          "internalType": "uint256[]",
          "name": "tokenAmounts",
          "type": "uint256[]"
        },
        {
          "indexed": false,
          "internalType": "uint256[]",
          "name": "fees",
          "type": "uint256[]"
        },
        {
          "indexed": false,
          "internalType": "uint256",
          "name": "invariant",
          "type": "uint256"
        },
        {
          "indexed": false,
          "internalType": "uint256",
          "name": "tokenSupply",
          "type": "uint256"
        }
      ],
      "name": "RemoveLiquidityImbalance",
      "type": "event"
    },
    {
      "anonymous": false,
      "inputs": [
        {
          "indexed": true,
          "internalType": "address",
          "name": "provider",
          "type": "address"
        },
        {
          "indexed": false,
          "internalType": "uint256",
          "name": "tokenIndex",
          "type": "uint256"
        },
        {
          "indexed": false,
          "internalType": "uint256",
          "name": "tokenAmount",
          "type": "uint256"
        },
        {
          "indexed": false,
          "internalType": "uint256",
          "name": "coinAmount",
          "type": "uint256"
        }
      ],
      "name": "RemoveLiquidityOne",
      "type": "event"
    },
    {
      "anonymous": false,
      "inputs": [
        {
          "indexed": false,
          "internalType": "uint256",
          "name": "A",
          "type": "uint256"
        },
        {
          "indexed": false,
          "internalType": "uint256",
          "name": "timestamp",
          "type": "uint256"
        }
      ],
      "name": "StopRampA",
      "type": "event"
    },
    {
      "anonymous": false,
      "inputs": [
        {
          "indexed": true,
          "internalType": "address",
          "name": "buyer",
          "type": "address"
        },
        {
          "indexed": false,
          "internalType": "uint256",
          "name": "soldId",
          "type": "uint256"
        },
        {
          "indexed": false,
          "internalType": "uint256",
          "name": "tokensSold",
          "type": "uint256"
        },
        {
          "indexed": false,
          "internalType": "uint256",
          "name": "boughtId",
          "type": "uint256"
        },
        {
          "indexed": false,
          "internalType": "uint256",
          "name": "tokensBought",
          "type": "uint256"
        }
      ],
      "name": "TokenExchange",
      "type": "event"
    },
    {
      "anonymous": false,
      "inputs": [
        {
          "indexed": false,
          "internalType": "address",
          "name": "account",
          "type": "address"
        }
      ],
      "name": "Unpaused",
      "type": "event"
    },
    {
      "inputs": [],
      "name": "MAX_A",
      "outputs": [
        {
          "internalType": "uint256",
          "name": "",
          "type": "uint256"
        }
      ],
      "stateMutability": "view",
      "type": "function"
    },
    {
      "inputs": [],
      "name": "MAX_ADMIN_FEE",
      "outputs": [
        {
          "internalType": "uint256",
          "name": "",
          "type": "uint256"
        }
      ],
      "stateMutability": "view",
      "type": "function"
    },
    {
      "inputs": [],
      "name": "MAX_A_CHANGE",
      "outputs": [
        {
          "internalType": "uint256",
          "name": "",
          "type": "uint256"
        }
      ],
      "stateMutability": "view",
      "type": "function"
    },
    {
      "inputs": [],
      "name": "MAX_SWAP_FEE",
      "outputs": [
        {
          "internalType": "uint256",
          "name": "",
          "type": "uint256"
        }
      ],
      "stateMutability": "view",
      "type": "function"
    },
    {
      "inputs": [],
      "name": "MIN_RAMP_TIME",
      "outputs": [
        {
          "internalType": "uint256",
          "name": "",
          "type": "uint256"
        }
      ],
      "stateMutability": "view",
      "type": "function"
    },
    {
      "inputs": [
        {
          "internalType": "uint256[]",
          "name": "amounts",
          "type": "uint256[]"
        },
        {
          "internalType": "uint256",
          "name": "minMintAmount",
          "type": "uint256"
        },
        {
          "internalType": "uint256",
          "name": "deadline",
          "type": "uint256"
        }
      ],
      "name": "addLiquidity",
      "outputs": [
        {
          "internalType": "uint256",
          "name": "",
          "type": "uint256"
        }
      ],
      "stateMutability": "nonpayable",
      "type": "function"
    },
    {
      "inputs": [],
      "name": "admin",
      "outputs": [
        {
          "internalType": "address",
          "name": "",
          "type": "address"
        }
      ],
      "stateMutability": "view",
      "type": "function"
    },
    {
      "inputs": [],
      "name": "adminCandidate",
      "outputs": [
        {
          "internalType": "address",
          "name": "",
          "type": "address"
        }
      ],
      "stateMutability": "view",
      "type": "function"
    },
    {
      "inputs": [
        {
          "internalType": "uint256",
          "name": "amount",
          "type": "uint256"
        }
      ],
      "name": "calculateRemoveLiquidity",
      "outputs": [
        {
          "internalType": "uint256[]",
          "name": "",
          "type": "uint256[]"
        }
      ],
      "stateMutability": "view",
      "type": "function"
    },
    {
      "inputs": [
        {
          "internalType": "uint256",
          "name": "amount",
          "type": "uint256"
        },
        {
          "internalType": "uint8",
          "name": "index",
          "type": "uint8"
        }
      ],
      "name": "calculateRemoveLiquidityOneToken",
      "outputs": [
        {
          "internalType": "uint256",
          "name": "",
          "type": "uint256"
        }
      ],
      "stateMutability": "view",
      "type": "function"
    },
    {
      "inputs": [
        {
          "internalType": "uint8",
          "name": "inIndex",
          "type": "uint8"
        },
        {
          "internalType": "uint8",
          "name": "outIndex",
          "type": "uint8"
        },
        {
          "internalType": "uint256",
          "name": "inAmount",
          "type": "uint256"
        }
      ],
      "name": "calculateSwap",
      "outputs": [
        {
          "internalType": "uint256",
          "name": "",
          "type": "uint256"
        }
      ],
      "stateMutability": "view",
      "type": "function"
    },
    {
      "inputs": [
        {
          "internalType": "uint256[]",
          "name": "amounts",
          "type": "uint256[]"
        },
        {
          "internalType": "bool",
          "name": "deposit",
          "type": "bool"
        }
      ],
      "name": "calculateTokenAmount",
      "outputs": [
        {
          "internalType": "uint256",
          "name": "",
          "type": "uint256"
        }
      ],
      "stateMutability": "view",
      "type": "function"
    },
    {
      "inputs": [],
      "name": "candidateConfirm",
      "outputs": [],
      "stateMutability": "nonpayable",
      "type": "function"
    },
    {
      "inputs": [],
      "name": "feeController",
      "outputs": [
        {
          "internalType": "address",
          "name": "",
          "type": "address"
        }
      ],
      "stateMutability": "view",
      "type": "function"
    },
    {
      "inputs": [],
      "name": "feeDistributor",
      "outputs": [
        {
          "internalType": "address",
          "name": "",
          "type": "address"
        }
      ],
      "stateMutability": "view",
      "type": "function"
    },
    {
      "inputs": [
        {
          "internalType": "uint256[]",
          "name": "amountsOut",
          "type": "uint256[]"
        },
        {
          "internalType": "address",
          "name": "to",
          "type": "address"
        },
        {
          "internalType": "bytes",
          "name": "data",
          "type": "bytes"
        },
        {
          "internalType": "uint256",
          "name": "deadline",
          "type": "uint256"
        }
      ],
      "name": "flashLoan",
      "outputs": [],
      "stateMutability": "nonpayable",
      "type": "function"
    },
    {
      "inputs": [],
      "name": "getA",
      "outputs": [
        {
          "internalType": "uint256",
          "name": "",
          "type": "uint256"
        }
      ],
      "stateMutability": "view",
      "type": "function"
    },
    {
      "inputs": [],
      "name": "getAPrecise",
      "outputs": [
        {
          "internalType": "uint256",
          "name": "",
          "type": "uint256"
        }
      ],
      "stateMutability": "view",
      "type": "function"
    },
    {
      "inputs": [
        {
          "internalType": "uint8",
          "name": "index",
          "type": "uint8"
        }
      ],
      "name": "getAdminBalance",
      "outputs": [
        {
          "internalType": "uint256",
          "name": "",
          "type": "uint256"
        }
      ],
      "stateMutability": "view",
      "type": "function"
    },
    {
      "inputs": [],
      "name": "getAdminBalances",
      "outputs": [
        {
          "internalType": "uint256[]",
          "name": "adminBalances",
          "type": "uint256[]"
        }
      ],
      "stateMutability": "view",
      "type": "function"
    },
    {
      "inputs": [],
      "name": "getLpToken",
      "outputs": [
        {
          "internalType": "contract IERC20",
          "name": "",
          "type": "address"
        }
      ],
      "stateMutability": "view",
      "type": "function"
    },
    {
      "inputs": [],
      "name": "getNumberOfTokens",
      "outputs": [
        {
          "internalType": "uint256",
          "name": "",
          "type": "uint256"
        }
      ],
      "stateMutability": "view",
      "type": "function"
    },
    {
      "inputs": [
        {
          "internalType": "uint8",
          "name": "index",
          "type": "uint8"
        }
      ],
      "name": "getToken",
      "outputs": [
        {
          "internalType": "contract IERC20",
          "name": "",
          "type": "address"
        }
      ],
      "stateMutability": "view",
      "type": "function"
    },
    {
      "inputs": [
        {
          "internalType": "uint8",
          "name": "index",
          "type": "uint8"
        }
      ],
      "name": "getTokenBalance",
      "outputs": [
        {
          "internalType": "uint256",
          "name": "",
          "type": "uint256"
        }
      ],
      "stateMutability": "view",
      "type": "function"
    },
    {
      "inputs": [],
      "name": "getTokenBalances",
      "outputs": [
        {
          "internalType": "uint256[]",
          "name": "",
          "type": "uint256[]"
        }
      ],
      "stateMutability": "view",
      "type": "function"
    },
    {
      "inputs": [
        {
          "internalType": "address",
          "name": "token",
          "type": "address"
        }
      ],
      "name": "getTokenIndex",
      "outputs": [
        {
          "internalType": "uint8",
          "name": "index",
          "type": "uint8"
        }
      ],
      "stateMutability": "view",
      "type": "function"
    },
    {
      "inputs": [],
      "name": "getTokenPrecisionMultipliers",
      "outputs": [
        {
          "internalType": "uint256[]",
          "name": "",
          "type": "uint256[]"
        }
      ],
      "stateMutability": "view",
      "type": "function"
    },
    {
      "inputs": [],
      "name": "getTokens",
      "outputs": [
        {
          "internalType": "contract IERC20[]",
          "name": "",
          "type": "address[]"
        }
      ],
      "stateMutability": "view",
      "type": "function"
    },
    {
      "inputs": [],
      "name": "getVirtualPrice",
      "outputs": [
        {
          "internalType": "uint256",
          "name": "",
          "type": "uint256"
        }
      ],
      "stateMutability": "view",
      "type": "function"
    },
    {
      "inputs": [
        {
          "internalType": "address[]",
          "name": "_coins",
          "type": "address[]"
        },
        {
          "internalType": "uint8[]",
          "name": "_decimals",
          "type": "uint8[]"
        },
        {
          "internalType": "string",
          "name": "lpTokenName",
          "type": "string"
        },
        {
          "internalType": "string",
          "name": "lpTokenSymbol",
          "type": "string"
        },
        {
          "internalType": "uint256",
          "name": "_A",
          "type": "uint256"
        },
        {
          "internalType": "uint256",
          "name": "_fee",
          "type": "uint256"
        },
        {
          "internalType": "uint256",
          "name": "_adminFee",
          "type": "uint256"
        },
        {
          "internalType": "address",
          "name": "_feeDistributor",
          "type": "address"
        }
      ],
      "name": "initialize",
      "outputs": [],
      "stateMutability": "nonpayable",
      "type": "function"
    },
    {
      "inputs": [],
      "name": "pause",
      "outputs": [],
      "stateMutability": "nonpayable",
      "type": "function"
    },
    {
      "inputs": [],
      "name": "paused",
      "outputs": [
        {
          "internalType": "bool",
          "name": "",
          "type": "bool"
        }
      ],
      "stateMutability": "view",
      "type": "function"
    },
    {
      "inputs": [
        {
          "internalType": "uint256",
          "name": "futureA",
          "type": "uint256"
        },
        {
          "internalType": "uint256",
          "name": "futureATime",
          "type": "uint256"
        }
      ],
      "name": "rampA",
      "outputs": [],
      "stateMutability": "nonpayable",
      "type": "function"
    },
    {
      "inputs": [
        {
          "internalType": "uint256",
          "name": "lpAmount",
          "type": "uint256"
        },
        {
          "internalType": "uint256[]",
          "name": "minAmounts",
          "type": "uint256[]"
        },
        {
          "internalType": "uint256",
          "name": "deadline",
          "type": "uint256"
        }
      ],
      "name": "removeLiquidity",
      "outputs": [
        {
          "internalType": "uint256[]",
          "name": "",
          "type": "uint256[]"
        }
      ],
      "stateMutability": "nonpayable",
      "type": "function"
    },
    {
      "inputs": [
        {
          "internalType": "uint256[]",
          "name": "amounts",
          "type": "uint256[]"
        },
        {
          "internalType": "uint256",
          "name": "maxBurnAmount",
          "type": "uint256"
        },
        {
          "internalType": "uint256",
          "name": "deadline",
          "type": "uint256"
        }
      ],
      "name": "removeLiquidityImbalance",
      "outputs": [
        {
          "internalType": "uint256",
          "name": "",
          "type": "uint256"
        }
      ],
      "stateMutability": "nonpayable",
      "type": "function"
    },
    {
      "inputs": [
        {
          "internalType": "uint256",
          "name": "lpAmount",
          "type": "uint256"
        },
        {
          "internalType": "uint8",
          "name": "index",
          "type": "uint8"
        },
        {
          "internalType": "uint256",
          "name": "minAmount",
          "type": "uint256"
        },
        {
          "internalType": "uint256",
          "name": "deadline",
          "type": "uint256"
        }
      ],
      "name": "removeLiquidityOneToken",
      "outputs": [
        {
          "internalType": "uint256",
          "name": "",
          "type": "uint256"
        }
      ],
      "stateMutability": "nonpayable",
      "type": "function"
    },
    {
      "inputs": [
        {
          "internalType": "address",
          "name": "_candidate",
          "type": "address"
        }
      ],
      "name": "setAdminCandidate",
      "outputs": [],
      "stateMutability": "nonpayable",
      "type": "function"
    },
    {
      "inputs": [
        {
          "internalType": "uint256",
          "name": "newSwapFee",
          "type": "uint256"
        },
        {
          "internalType": "uint256",
          "name": "newAdminFee",
          "type": "uint256"
        }
      ],
      "name": "setFee",
      "outputs": [],
      "stateMutability": "nonpayable",
      "type": "function"
    },
    {
      "inputs": [
        {
          "internalType": "address",
          "name": "_feeController",
          "type": "address"
        }
      ],
      "name": "setFeeController",
      "outputs": [],
      "stateMutability": "nonpayable",
      "type": "function"
    },
    {
      "inputs": [
        {
          "internalType": "address",
          "name": "_feeDistributor",
          "type": "address"
        }
      ],
      "name": "setFeeDistributor",
      "outputs": [],
      "stateMutability": "nonpayable",
      "type": "function"
    },
    {
      "inputs": [],
      "name": "stopRampA",
      "outputs": [],
      "stateMutability": "nonpayable",
      "type": "function"
    },
    {
      "inputs": [
        {
          "internalType": "uint8",
          "name": "fromIndex",
          "type": "uint8"
        },
        {
          "internalType": "uint8",
          "name": "toIndex",
          "type": "uint8"
        },
        {
          "internalType": "uint256",
          "name": "inAmount",
          "type": "uint256"
        },
        {
          "internalType": "uint256",
          "name": "minOutAmount",
          "type": "uint256"
        },
        {
          "internalType": "uint256",
          "name": "deadline",
          "type": "uint256"
        }
      ],
      "name": "swap",
      "outputs": [
        {
          "internalType": "uint256",
          "name": "",
          "type": "uint256"
        }
      ],
      "stateMutability": "nonpayable",
      "type": "function"
    },
    {
      "inputs": [],
      "name": "swapStorage",
      "outputs": [
        {
          "internalType": "contract LPToken",
          "name": "lpToken",
          "type": "address"
        },
        {
          "internalType": "uint256",
          "name": "fee",
          "type": "uint256"
        },
        {
          "internalType": "uint256",
          "name": "adminFee",
          "type": "uint256"
        },
        {
          "internalType": "uint256",
          "name": "initialA",
          "type": "uint256"
        },
        {
          "internalType": "uint256",
          "name": "futureA",
          "type": "uint256"
        },
        {
          "internalType": "uint256",
          "name": "initialATime",
          "type": "uint256"
        },
        {
          "internalType": "uint256",
          "name": "futureATime",
          "type": "uint256"
        }
      ],
      "stateMutability": "view",
      "type": "function"
    },
    {
      "inputs": [
        {
          "internalType": "address",
          "name": "",
          "type": "address"
        }
      ],
      "name": "tokenIndexes",
      "outputs": [
        {
          "internalType": "uint8",
          "name": "",
          "type": "uint8"
        }
      ],
      "stateMutability": "view",
      "type": "function"
    },
    {
      "inputs": [],
      "name": "unpause",
      "outputs": [],
      "stateMutability": "nonpayable",
      "type": "function"
    },
    {
      "inputs": [],
      "name": "withdrawAdminFee",
      "outputs": [],
      "stateMutability": "nonpayable",
      "type": "function"
    }
  ],
  "transactionHash": "0x96d13e162a978f9603f8868533211941fb2873fa280e49df7603bfaad606ab1f",
  "args": [],
  "numDeployments": 1,
  "solcInputHash": "007aa94c81b3bc67ae48537a63ee475f",
  "bytecode": "0x60806040523480156200001157600080fd5b506000805460ff1916905560016002556200002c3362000032565b620000b1565b60005461010090046001600160a01b031615620000895760405162461bcd60e51b815260206004820152601160248201527018591b5a5b88185b1c9958591e481cd95d607a1b604482015260640160405180910390fd5b600080546001600160a01b0390921661010002610100600160a81b0319909216919091179055565b61452880620000c16000396000f3fe60806040523480156200001157600080fd5b5060043610620002c15760003560e01c80638456cb591162000179578063b28cb6dc11620000df578063e6ab28061162000092578063e6ab28061462000653578063efeecb51146200066a578063f2fad2b61462000673578063f3de0362146200068a578063f851a4401462000697578063fe49abe314620006b057600080fd5b8063b28cb6dc14620005fd578063c4db7fa01462000614578063ccfc2e8d146200061e578063d41f65681462000635578063d46300fd146200063f578063e25aa5fa146200064957600080fd5b806396de7aa0116200013857806396de7aa01462000597578063a1dc903114620005ae578063a95b089f14620005b8578063aa6ca80814620005cf578063ab3d854414620005e8578063ab5ac06114620005f457600080fd5b80638456cb59146200053157806384cdd9bc146200053b5780638554a7d4146200055257806391695586146200056957806391ceb3eb146200058057600080fd5b80633ed4c678116200022b5780635c975abb11620001de5780635c975abb146200045a5780635fd65f0f146200047157806366c0bd2414620004dd5780636999b37714620004f45780638214f5a4146200050857806382b86600146200051a57600080fd5b80633ed4c67814620003ea5780633f02323014620004015780633f4ba83a146200040b5780634d49e87d146200041557806352f7c988146200042c578063593d132c146200044357600080fd5b806318f52ce2116200028457806318f52ce2146200036d57806331cd52b01462000386578063342a87a1146200039d5780633969841514620003b45780633accfa6c14620003bf5780633e3a156014620003d357600080fd5b806304bc3b1c14620002c657806306e9481c14620003035780630ba81959146200031d5780630d43e8ad14620003275780630e0807f61462000354575b600080fd5b620002ec620002d736600462002a16565b60106020526000908152604090205460ff1681565b60405160ff90911681526020015b60405180910390f35b6200030e6201518081565b604051908152602001620002fa565b6200030e620006ba565b600e546200033b906001600160a01b031681565b6040516001600160a01b039091168152602001620002fa565b6200036b6200036536600462002c49565b62000749565b005b6200037762000829565b604051620002fa91906200300d565b620003776200039736600462002da1565b6200094a565b6200030e620003ae36600462002e17565b62000a3c565b6200030e620f424081565b6001546200033b906001600160a01b031681565b6200030e620003e436600462002e46565b62000ade565b6200036b620003fb36600462002a16565b62000be3565b6200036b62000cb0565b6200036b62000d71565b6200030e6200042636600462002cfc565b62000daf565b6200036b6200043d36600462002df4565b62000e99565b6200036b6200045436600462002df4565b62000f9e565b60005460ff166040519015158152602001620002fa565b600554600854600954600a54600b54600c54600d546200049d966001600160a01b031695949392919087565b604080516001600160a01b0390981688526020880196909652948601939093526060850191909152608084015260a083015260c082015260e001620002fa565b620002ec620004ee36600462002a16565b62001264565b600f546200033b906001600160a01b031681565b6005546001600160a01b03166200033b565b6200033b6200052b36600462002e84565b620012f4565b6200036b6200132d565b6200030e6200054c36600462002cfc565b62001369565b6200030e6200056336600462002e84565b620013ff565b6200030e6200057a36600462002ee3565b62001491565b6200030e6200059136600462002e84565b6200159f565b6200036b620005a836600462002a16565b620015cf565b620003776200164b565b6200030e620005c936600462002ea2565b620016a8565b620005d962001754565b604051620002fa919062002fbe565b6200030e6305f5e10081565b6200030e600a81565b6200036b6200060e36600462002a34565b620017ba565b6200036b62001e39565b6200036b6200062f36600462002a16565b62001f88565b620003776200204f565b6200030e620020aa565b6200030e620020e5565b6200030e6200066436600462002b1d565b62002120565b6004546200030e565b620003776200068436600462002d6d565b62002162565b6200030e6402540be40081565b6000546200033b9061010090046001600160a01b031681565b6200036b620021f6565b604051637461cf1b60e01b815260048082015260009073ca81CAdf309B4fd90CA13Fba676bdB9e69685dA690637461cf1b906024015b60206040518083038186803b1580156200070957600080fd5b505af41580156200071e573d6000803e3d6000fd5b505050506040513d601f19601f8201168201806040525081019062000744919062002d87565b905090565b62000753620023d4565b600280541415620007815760405162461bcd60e51b81526004016200077890620030d2565b60405180910390fd5b600280558042811015620007a95760405162461bcd60e51b81526004016200077890620030b1565b60405163a5416c7b60e01b815273ca81CAdf309B4fd90CA13Fba676bdB9e69685dA69063a5416c7b90620007ea906004908a908a908a908a9085016200315b565b60006040518083038186803b1580156200080357600080fd5b505af415801562000818573d6000803e3d6000fd5b505060016002555050505050505050565b600454606090806001600160401b038111156200084a576200084a62003438565b60405190808252806020026020018201604052801562000874578160200160208202803683370190505b50915060005b818110156200094557604051630a1368cd60e01b81526004808201526024810182905273ca81CAdf309B4fd90CA13Fba676bdB9e69685dA690630a1368cd9060440160206040518083038186803b158015620008d557600080fd5b505af4158015620008ea573d6000803e3d6000fd5b505050506040513d601f19601f8201168201806040525081019062000910919062002d87565b83828151811062000925576200092562003422565b6020908102919091010152806200093c81620033ee565b9150506200087a565b505090565b6060600280541415620009715760405162461bcd60e51b81526004016200077890620030d2565b600280558142811015620009995760405162461bcd60e51b81526004016200077890620030b1565b60405163d0b1a00560e01b815273ca81CAdf309B4fd90CA13Fba676bdB9e69685dA69063d0b1a00590620009d690600490899089908301620031e5565b60006040518083038186803b158015620009ef57600080fd5b505af415801562000a04573d6000803e3d6000fd5b505050506040513d6000823e601f3d908101601f1916820160405262000a2e919081019062002ba9565b600160025595945050505050565b6040516309bba52360e31b81526004808201526024810183905260ff8216604482015260009073ca81CAdf309B4fd90CA13Fba676bdB9e69685dA690634ddd29189060640160206040518083038186803b15801562000a9a57600080fd5b505af415801562000aaf573d6000803e3d6000fd5b505050506040513d601f19601f8201168201806040525081019062000ad5919062002d87565b90505b92915050565b600060028054141562000b055760405162461bcd60e51b81526004016200077890620030d2565b6002805562000b13620023d4565b818042111562000b375760405162461bcd60e51b81526004016200077890620030b1565b6040516346732ec760e11b81526004808201526024810187905260ff861660448201526064810185905273ca81CAdf309B4fd90CA13Fba676bdB9e69685dA690638ce65d8e9060840160206040518083038186803b15801562000b9957600080fd5b505af415801562000bae573d6000803e3d6000fd5b505050506040513d601f19601f8201168201806040525081019062000bd4919062002d87565b60016002559695505050505050565b60005461010090046001600160a01b0316331462000c155760405162461bcd60e51b815260040162000778906200308e565b6001600160a01b03811662000c5b5760405162461bcd60e51b815260206004820152600b60248201526a7a65726f4164647265737360a81b604482015260640162000778565b600f80546001600160a01b0319166001600160a01b0383169081179091556040519081527f4c3f3b9852ccceadd50f16518f348e2624c8f0240acdd5bc81911c0fba83ec67906020015b60405180910390a150565b6001546001600160a01b0316331462000cfc5760405162461bcd60e51b815260206004820152600d60248201526c6e6f742043616e64696461746560981b604482015260640162000778565b600154600080546040516001600160a01b0393841693610100909204909116917f7e644d79422f17c01e4894b5f4f588d331ebfa28653d42ae832dc59e38c9798f91a36001805460008054610100600160a81b0319166101006001600160a01b038416021790556001600160a01b0319169055565b60005461010090046001600160a01b0316331462000da35760405162461bcd60e51b815260040162000778906200308e565b62000dad6200241c565b565b600062000dbb620023d4565b60028054141562000de05760405162461bcd60e51b81526004016200077890620030d2565b60028055814281101562000e085760405162461bcd60e51b81526004016200077890620030b1565b604051637217bafd60e11b815273ca81CAdf309B4fd90CA13Fba676bdB9e69685dA69063e42f75fa9062000e4590600490899089908301620031ba565b60206040518083038186803b15801562000e5e57600080fd5b505af415801562000e73573d6000803e3d6000fd5b505050506040513d601f19601f8201168201806040525081019062000a2e919062002d87565b60005461010090046001600160a01b0316331462000ecb5760405162461bcd60e51b815260040162000778906200308e565b6305f5e10082111562000f105760405162461bcd60e51b815260206004820152600c60248201526b3e206d61785377617046656560a01b604482015260640162000778565b6402540be40081111562000f575760405162461bcd60e51b815260206004820152600d60248201526c3e206d617841646d696e46656560981b604482015260640162000778565b6009819055600882905560408051838152602081018390527fbe12859b636aed607d5230b2cc2711f68d70e51060e6cca1f575ef5d2fcc95d1910160405180910390a15050565b60005461010090046001600160a01b0316331462000fd05760405162461bcd60e51b815260040162000778906200308e565b600c5462000fe290620151806200325f565b421015620010215760405162461bcd60e51b815260206004820152600b60248201526a3c2072616d7044656c617960a81b604482015260640162000778565b6200103062015180426200325f565b811015620010715760405162461bcd60e51b815260206004820152600d60248201526c3c206d696e52616d7054696d6560981b604482015260640162000778565b816000108015620010845750620f424082105b620010bf5760405162461bcd60e51b815260206004820152600a6024820152696f75744f6652616e676560b01b604482015260640162000778565b604051637461cf1b60e01b815260048082015260009073ca81CAdf309B4fd90CA13Fba676bdB9e69685dA690637461cf1b9060240160206040518083038186803b1580156200110d57600080fd5b505af415801562001122573d6000803e3d6000fd5b505050506040513d601f19601f8201168201806040525081019062001148919062002d87565b90506000620011596064856200337f565b905081811015620011b6578162001172600a836200337f565b1015620011b05760405162461bcd60e51b815260206004820152600b60248201526a3e206d61784368616e676560a81b604482015260640162000778565b62001202565b620011c3600a836200337f565b811115620012025760405162461bcd60e51b815260206004820152600b60248201526a3e206d61784368616e676560a81b604482015260640162000778565b600a829055600b81905542600c819055600d84905560408051848152602081018490528082019290925260608201859052517fa2b71ec6df949300b59aab36b55e189697b750119dd349fcfa8c0f779e83c2549181900360800190a150505050565b6001600160a01b0381166000818152601060205260409020546004805460ff9092169291839081106200129b576200129b62003422565b6000918252602090912001546001600160a01b031614620012ef5760405162461bcd60e51b815260206004820152600d60248201526c1d1bdad95b939bdd119bdd5b99609a1b604482015260640162000778565b919050565b600060046000018260ff168154811062001312576200131262003422565b6000918252602090912001546001600160a01b031692915050565b60005461010090046001600160a01b031633146200135f5760405162461bcd60e51b815260040162000778906200308e565b62000dad62002470565b6000600280541415620013905760405162461bcd60e51b81526004016200077890620030d2565b600280556200139e620023d4565b8180421115620013c25760405162461bcd60e51b81526004016200077890620030b1565b60405163576b973560e01b815273ca81CAdf309B4fd90CA13Fba676bdB9e69685dA69063576b97359062000e4590600490899089908301620031ba565b604051630a1368cd60e01b815260048082015260ff8216602482015260009073ca81CAdf309B4fd90CA13Fba676bdB9e69685dA690630a1368cd9060440160206040518083038186803b1580156200145657600080fd5b505af41580156200146b573d6000803e3d6000fd5b505050506040513d601f19601f8201168201806040525081019062000ad8919062002d87565b60006200149d620023d4565b600280541415620014c25760405162461bcd60e51b81526004016200077890620030d2565b600280558142811015620014ea5760405162461bcd60e51b81526004016200077890620030b1565b604051633a8d10bd60e01b815260048082015260ff808916602483015287166044820152606481018690526084810185905273ca81CAdf309B4fd90CA13Fba676bdB9e69685dA690633a8d10bd9060a40160206040518083038186803b1580156200155457600080fd5b505af415801562001569573d6000803e3d6000fd5b505050506040513d601f19601f820116820180604052508101906200158f919062002d87565b6001600255979650505050505050565b600060046003018260ff1681548110620015bd57620015bd62003422565b90600052602060002001549050919050565b60005461010090046001600160a01b03163314620016015760405162461bcd60e51b815260040162000778906200308e565b600180546001600160a01b0319166001600160a01b0383169081179091556040517f8cc40b9abca4a505a92028908f9d913d621d18112c69412806506f02333f26b490600090a250565b606060046003018054806020026020016040519081016040528092919081815260200182805480156200169e57602002820191906000526020600020905b81548152602001906001019080831162001689575b5050505050905090565b6040516376311d0f60e11b815260048082015260ff8085166024830152831660448201526064810182905260009073ca81CAdf309B4fd90CA13Fba676bdB9e69685dA69063ec623a1e906084015b60206040518083038186803b1580156200170f57600080fd5b505af415801562001724573d6000803e3d6000fd5b505050506040513d601f19601f820116820180604052508101906200174a919062002d87565b90505b9392505050565b606060046000018054806020026020016040519081016040528092919081815260200182805480156200169e57602002820191906000526020600020905b81546001600160a01b0316815260019091019060200180831162001792575050505050905090565b60005461010090046001600160a01b03163314620017ec5760405162461bcd60e51b815260040162000778906200308e565b600354610100900460ff16158080156200180d5750600354600160ff909116105b80620018295750303b15801562001829575060035460ff166001145b6200188e5760405162461bcd60e51b815260206004820152602e60248201527f496e697469616c697a61626c653a20636f6e747261637420697320616c72656160448201526d191e481a5b9a5d1a585b1a5e995960921b606482015260840162000778565b6003805460ff191660011790558015620018b2576003805461ff0019166101001790555b8751895114620019055760405162461bcd60e51b815260206004820152601d60248201527f636f696e734c656e67746820213d20646563696d616c734c656e677468000000604482015260640162000778565b6001600160a01b038216620019565760405162461bcd60e51b81526020600482015260166024820152756665654469737472696275746f72203d20656d70747960501b604482015260640162000778565b88516000816001600160401b0381111562001975576200197562003438565b6040519080825280602002602001820160405280156200199f578160200160208202803683370190505b5090506000826001600160401b03811115620019bf57620019bf62003438565b604051908082528060200260200182016040528015620019e9578160200160208202803683370190505b50905060005b8381101562001bf15760006001600160a01b03168d828151811062001a185762001a1862003422565b60200260200101516001600160a01b0316141562001a6f5760405162461bcd60e51b8152602060048201526013602482015272696e76616c6964546f6b656e4164647265737360681b604482015260640162000778565b60128c828151811062001a865762001a8662003422565b602002602001015160ff16111562001ad35760405162461bcd60e51b815260206004820152600f60248201526e696e76616c6964446563696d616c7360881b604482015260640162000778565b8b818151811062001ae85762001ae862003422565b602002602001015160ff16601262001b019190620033a1565b62001b0e90600a620032c3565b83828151811062001b235762001b2362003422565b6020026020010181815250508c818151811062001b445762001b4462003422565b602002602001015182828151811062001b615762001b6162003422565b60200260200101906001600160a01b031690816001600160a01b031681525050806010600084848151811062001b9b5762001b9b62003422565b60200260200101516001600160a01b03166001600160a01b0316815260200190815260200160002060006101000a81548160ff021916908360ff160217905550808062001be890620033ee565b915050620019ef565b50620f4240881062001c2f5760405162461bcd60e51b81526020600482015260066024820152653e206d61784160d01b604482015260640162000778565b6305f5e10087111562001c745760405162461bcd60e51b815260206004820152600c60248201526b3e206d61785377617046656560a01b604482015260640162000778565b6402540be40086111562001cbb5760405162461bcd60e51b815260206004820152600d60248201526c3e206d617841646d696e46656560981b604482015260640162000778565b898960405162001ccb906200274f565b62001cd89291906200305c565b604051809103906000f08015801562001cf5573d6000803e3d6000fd5b50600580546001600160a01b0319166001600160a01b0392909216919091179055826001600160401b0381111562001d315762001d3162003438565b60405190808252806020026020018201604052801562001d5b578160200160208202803683370190505b50805162001d72916007916020909101906200275d565b50815162001d889060069060208501906200275d565b50805162001d9e906004906020840190620027ad565b5062001dac6064896200337f565b600a5562001dbc6064896200337f565b600b5550505060088490556009839055600e80546001600160a01b0319166001600160a01b038416179055801562001e2e576003805461ff0019169055604051600181527f7f26b83ff96e1f2b6a682f133852f6798a09c465da95921460cefb38474024989060200160405180910390a15b505050505050505050565b60005461010090046001600160a01b0316331462001e6b5760405162461bcd60e51b815260040162000778906200308e565b600d54421062001eaf5760405162461bcd60e51b815260206004820152600e60248201526d185b1c9958591e54dd1bdc1c195960921b604482015260640162000778565b604051637461cf1b60e01b815260048082015260009073ca81CAdf309B4fd90CA13Fba676bdB9e69685dA690637461cf1b9060240160206040518083038186803b15801562001efd57600080fd5b505af415801562001f12573d6000803e3d6000fd5b505050506040513d601f19601f8201168201806040525081019062001f38919062002d87565b600a819055600b81905542600c819055600d8190556040519192507f46e22fb3709ad289f62ce63d469248536dbc78d82b84a3d7e74ad606dc2019389162000ca591848252602082015260400190565b60005461010090046001600160a01b0316331462001fba5760405162461bcd60e51b815260040162000778906200308e565b6001600160a01b038116620020005760405162461bcd60e51b815260206004820152600b60248201526a7a65726f4164647265737360a81b604482015260640162000778565b600e80546001600160a01b0319166001600160a01b0383169081179091556040519081527fae5a12c29e496b092467a620746b9eaf4e0e231a631a4370c233b1fac38e8e269060200162000ca5565b606060046002018054806020026020016040519081016040528092919081815260200182805480156200169e576020028201919060005260206000209081548152602001906001019080831162001689575050505050905090565b60405163172a21f960e31b815260048082015260009073ca81CAdf309B4fd90CA13Fba676bdB9e69685dA69063b9510fc890602401620006f0565b604051631bd62df560e11b815260048082015260009073ca81CAdf309B4fd90CA13Fba676bdB9e69685dA6906337ac5bea90602401620006f0565b6040516345b69ab760e01b815260009073ca81CAdf309B4fd90CA13Fba676bdB9e69685dA6906345b69ab790620016f690600490889088908890840162003109565b60405163f94eed8760e01b81526004808201526024810182905260609073ca81CAdf309B4fd90CA13Fba676bdB9e69685dA69063f94eed879060440160006040518083038186803b158015620021b757600080fd5b505af4158015620021cc573d6000803e3d6000fd5b505050506040513d6000823e601f3d908101601f1916820160405262000ad8919081019062002ba9565b600f546001600160a01b03163314806200221f575060005461010090046001600160a01b031633145b620022655760405162461bcd60e51b815260206004820152601560248201527410b332b2a1b7b73a3937b63632b927b927bbb732b960591b604482015260640162000778565b60005b600454811015620023d1576000600460000182815481106200228e576200228e62003422565b6000918252602082200154600780546001600160a01b0390921693509084908110620022be57620022be62003422565b6000918252602090912001546040516370a0823160e01b81523060048201526001600160a01b038416906370a082319060240160206040518083038186803b1580156200230a57600080fd5b505afa1580156200231f573d6000803e3d6000fd5b505050506040513d601f19601f8201168201806040525081019062002345919062002d87565b620023519190620033a1565b90508015620023b957600e5462002376906001600160a01b03848116911683620024b0565b604080516001600160a01b0384168152602081018390527fee3859efa95e525bc2bcb149b51b60a8bb4e89c647392d9d4112e03c3e73bdd6910160405180910390a15b50508080620023c890620033ee565b91505062002268565b50565b60005460ff161562000dad5760405162461bcd60e51b815260206004820152601060248201526f14185d5cd8589b194e881c185d5cd95960821b604482015260640162000778565b6200242662002509565b6000805460ff191690557f5db9ee0a495bf2e6ff9c91a7834c1ba4fdd244a5e8aa4e537bd38aeae4b073aa335b6040516001600160a01b03909116815260200160405180910390a1565b6200247a620023d4565b6000805460ff191660011790557f62e78cea01bee320cd4e420270b5ea74000d11b0c9f74754ebdbfc544b05a258620024533390565b604080516001600160a01b038416602482015260448082018490528251808303909101815260649091019091526020810180516001600160e01b031663a9059cbb60e01b1790526200250490849062002554565b505050565b60005460ff1662000dad5760405162461bcd60e51b815260206004820152601460248201527314185d5cd8589b194e881b9bdd081c185d5cd95960621b604482015260640162000778565b6000620025ab826040518060400160405280602081526020017f5361666545524332303a206c6f772d6c6576656c2063616c6c206661696c6564815250856001600160a01b03166200262d9092919063ffffffff16565b805190915015620025045780806020019051810190620025cc919062002d4d565b620025045760405162461bcd60e51b815260206004820152602a60248201527f5361666545524332303a204552433230206f7065726174696f6e20646964206e6044820152691bdd081cdd58d8d9595960b21b606482015260840162000778565b60606200174a8484600085856001600160a01b0385163b620026925760405162461bcd60e51b815260206004820152601d60248201527f416464726573733a2063616c6c20746f206e6f6e2d636f6e7472616374000000604482015260640162000778565b600080866001600160a01b03168587604051620026b0919062002fa0565b60006040518083038185875af1925050503d8060008114620026ef576040519150601f19603f3d011682016040523d82523d6000602084013e620026f4565b606091505b50915091506200270682828662002711565b979650505050505050565b60608315620027225750816200174d565b825115620027335782518084602001fd5b8160405162461bcd60e51b815260040162000778919062003047565b611095806200345e83390190565b8280548282559060005260206000209081019282156200279b579160200282015b828111156200279b5782518255916020019190600101906200277e565b50620027a992915062002805565b5090565b8280548282559060005260206000209081019282156200279b579160200282015b828111156200279b57825182546001600160a01b0319166001600160a01b03909116178255602090920191600190910190620027ce565b5b80821115620027a9576000815560010162002806565b80356001600160a01b0381168114620012ef57600080fd5b600082601f8301126200284657600080fd5b813560206200285f620028598362003239565b62003206565b80838252828201915082860187848660051b89010111156200288057600080fd5b60005b85811015620028aa5762002897826200281c565b8452928401929084019060010162002883565b5090979650505050505050565b600082601f830112620028c957600080fd5b81356020620028dc620028598362003239565b80838252828201915082860187848660051b8901011115620028fd57600080fd5b60005b85811015620028aa5781358452928401929084019060010162002900565b600082601f8301126200293057600080fd5b8135602062002943620028598362003239565b80838252828201915082860187848660051b89010111156200296457600080fd5b60005b85811015620028aa576200297b8262002a04565b8452928401929084019060010162002967565b600082601f830112620029a057600080fd5b81356001600160401b03811115620029bc57620029bc62003438565b620029d1601f8201601f191660200162003206565b818152846020838601011115620029e757600080fd5b816020850160208301376000918101602001919091529392505050565b803560ff81168114620012ef57600080fd5b60006020828403121562002a2957600080fd5b62000ad5826200281c565b600080600080600080600080610100898b03121562002a5257600080fd5b88356001600160401b038082111562002a6a57600080fd5b62002a788c838d0162002834565b995060208b013591508082111562002a8f57600080fd5b62002a9d8c838d016200291e565b985060408b013591508082111562002ab457600080fd5b62002ac28c838d016200298e565b975060608b013591508082111562002ad957600080fd5b5062002ae88b828c016200298e565b9550506080890135935060a0890135925060c0890135915062002b0e60e08a016200281c565b90509295985092959890939650565b60008060006040848603121562002b3357600080fd5b83356001600160401b038082111562002b4b57600080fd5b818601915086601f83011262002b6057600080fd5b81358181111562002b7057600080fd5b8760208260051b850101111562002b8657600080fd5b6020928301955093505084013562002b9e816200344e565b809150509250925092565b6000602080838503121562002bbd57600080fd5b82516001600160401b0381111562002bd457600080fd5b8301601f8101851362002be657600080fd5b805162002bf7620028598262003239565b80828252848201915084840188868560051b870101111562002c1857600080fd5b600094505b8385101562002c3d57805183526001949094019391850191850162002c1d565b50979650505050505050565b60008060008060006080868803121562002c6257600080fd5b85356001600160401b038082111562002c7a57600080fd5b62002c8889838a01620028b7565b965062002c98602089016200281c565b9550604088013591508082111562002caf57600080fd5b818801915088601f83011262002cc457600080fd5b81358181111562002cd457600080fd5b89602082850101111562002ce757600080fd5b96999598505060200195606001359392505050565b60008060006060848603121562002d1257600080fd5b83356001600160401b0381111562002d2957600080fd5b62002d3786828701620028b7565b9660208601359650604090950135949350505050565b60006020828403121562002d6057600080fd5b81516200174d816200344e565b60006020828403121562002d8057600080fd5b5035919050565b60006020828403121562002d9a57600080fd5b5051919050565b60008060006060848603121562002db757600080fd5b8335925060208401356001600160401b0381111562002dd557600080fd5b62002de386828701620028b7565b925050604084013590509250925092565b6000806040838503121562002e0857600080fd5b50508035926020909101359150565b6000806040838503121562002e2b57600080fd5b8235915062002e3d6020840162002a04565b90509250929050565b6000806000806080858703121562002e5d57600080fd5b8435935062002e6f6020860162002a04565b93969395505050506040820135916060013590565b60006020828403121562002e9757600080fd5b62000ad58262002a04565b60008060006060848603121562002eb857600080fd5b62002ec38462002a04565b925062002ed36020850162002a04565b9150604084013590509250925092565b600080600080600060a0868803121562002efc57600080fd5b62002f078662002a04565b945062002f176020870162002a04565b94979496505050506040830135926060810135926080909101359150565b600081518084526020808501945080840160005b8381101562002f675781518752958201959082019060010162002f49565b509495945050505050565b6000815180845262002f8c816020860160208601620033bb565b601f01601f19169290920160200192915050565b6000825162002fb4818460208701620033bb565b9190910192915050565b6020808252825182820181905260009190848201906040850190845b81811015620030015783516001600160a01b03168352928401929184019160010162002fda565b50909695505050505050565b6020808252825182820181905260009190848201906040850190845b81811015620030015783518352928401929184019160010162003029565b60208152600062000ad5602083018462002f72565b60408152600062003071604083018562002f72565b828103602084015262003085818562002f72565b95945050505050565b6020808252600990820152683737ba1030b236b4b760b91b604082015260600190565b6020808252600790820152661d1a5b595bdd5d60ca1b604082015260600190565b6020808252601f908201527f5265656e7472616e637947756172643a207265656e7472616e742063616c6c00604082015260600190565b848152606060208201819052810183905260006001600160fb1b038411156200313157600080fd5b8360051b808660808501376000908301608001908152921515604090920191909152509392505050565b85815260806020820152600062003176608083018762002f35565b6001600160a01b03861660408401528281036060840152838152838560208301376000602085830101526020601f19601f8601168201019150509695505050505050565b838152606060208201526000620031d5606083018562002f35565b9050826040830152949350505050565b83815282602082015260606040820152600062003085606083018462002f35565b604051601f8201601f191681016001600160401b038111828210171562003231576200323162003438565b604052919050565b60006001600160401b0382111562003255576200325562003438565b5060051b60200190565b600082198211156200327557620032756200340c565b500190565b600181815b80851115620032bb5781600019048211156200329f576200329f6200340c565b80851615620032ad57918102915b93841c93908002906200327f565b509250929050565b600062000ad58383600082620032dc5750600162000ad8565b81620032eb5750600062000ad8565b81600181146200330457600281146200330f576200332f565b600191505062000ad8565b60ff8411156200332357620033236200340c565b50506001821b62000ad8565b5060208310610133831016604e8410600b841016171562003354575081810a62000ad8565b6200336083836200327a565b80600019048211156200337757620033776200340c565b029392505050565b60008160001904831182151516156200339c576200339c6200340c565b500290565b600082821015620033b657620033b66200340c565b500390565b60005b83811015620033d8578181015183820152602001620033be565b83811115620033e8576000848401525b50505050565b60006000198214156200340557620034056200340c565b5060010190565b634e487b7160e01b600052601160045260246000fd5b634e487b7160e01b600052603260045260246000fd5b634e487b7160e01b600052604160045260246000fd5b8015158114620023d157600080fdfe60806040523480156200001157600080fd5b506040516200109538038062001095833981016040819052620000349162000237565b818162000041336200008a565b815162000056906004906020850190620000da565b5080516200006c906005906020840190620000da565b5050600680546001600160a01b0319163317905550620002f4915050565b600080546001600160a01b038381166001600160a01b0319831681178455604051919092169283917f8be0079c531659141344cd1fd0a4f28419497f9722a3daafe3b4186f6b6457e09190a35050565b828054620000e890620002a1565b90600052602060002090601f0160209004810192826200010c576000855562000157565b82601f106200012757805160ff191683800117855562000157565b8280016001018555821562000157579182015b82811115620001575782518255916020019190600101906200013a565b506200016592915062000169565b5090565b5b808211156200016557600081556001016200016a565b600082601f8301126200019257600080fd5b81516001600160401b0380821115620001af57620001af620002de565b604051601f8301601f19908116603f01168101908282118183101715620001da57620001da620002de565b81604052838152602092508683858801011115620001f757600080fd5b600091505b838210156200021b5785820183015181830184015290820190620001fc565b838211156200022d5760008385830101525b9695505050505050565b600080604083850312156200024b57600080fd5b82516001600160401b03808211156200026357600080fd5b620002718683870162000180565b935060208501519150808211156200028857600080fd5b50620002978582860162000180565b9150509250929050565b600181811c90821680620002b657607f821691505b60208210811415620002d857634e487b7160e01b600052602260045260246000fd5b50919050565b634e487b7160e01b600052604160045260246000fd5b610d9180620003046000396000f3fe608060405234801561001057600080fd5b50600436106101165760003560e01c8063715018a6116100a257806395d89b411161007157806395d89b411461024b578063a457c2d714610253578063a9059cbb14610266578063dd62ed3e14610279578063f2fde38b1461028c57600080fd5b8063715018a6146101f457806379cc6790146101fc5780638119c0651461020f5780638da5cb5b1461023a57600080fd5b8063313ce567116100e9578063313ce56714610181578063395093511461019057806340c10f19146101a357806342966c68146101b857806370a08231146101cb57600080fd5b806306fdde031461011b578063095ea7b31461013957806318160ddd1461015c57806323b872dd1461016e575b600080fd5b61012361029f565b6040516101309190610c86565b60405180910390f35b61014c610147366004610c43565b610331565b6040519015158152602001610130565b6003545b604051908152602001610130565b61014c61017c366004610c07565b610349565b60405160128152602001610130565b61014c61019e366004610c43565b61036d565b6101b66101b1366004610c43565b61038f565b005b6101b66101c6366004610c6d565b6103eb565b6101606101d9366004610bb2565b6001600160a01b031660009081526001602052604090205490565b6101b66103f8565b6101b661020a366004610c43565b61040c565b600654610222906001600160a01b031681565b6040516001600160a01b039091168152602001610130565b6000546001600160a01b0316610222565b610123610421565b61014c610261366004610c43565b610430565b61014c610274366004610c43565b6104ab565b610160610287366004610bd4565b6104b9565b6101b661029a366004610bb2565b6104e4565b6060600480546102ae90610d0a565b80601f01602080910402602001604051908101604052809291908181526020018280546102da90610d0a565b80156103275780601f106102fc57610100808354040283529160200191610327565b820191906000526020600020905b81548152906001019060200180831161030a57829003601f168201915b5050505050905090565b60003361033f81858561055a565b5060019392505050565b60003361035785828561067f565b6103628585856106f9565b506001949350505050565b60003361033f81858561038083836104b9565b61038a9190610cdb565b61055a565b6103976108c7565b600081116103dd5760405162461bcd60e51b815260206004820152600e60248201526d1e995c9bd35a5b9d105b5bdd5b9d60921b60448201526064015b60405180910390fd5b6103e78282610921565b5050565b6103f53382610a00565b50565b6104006108c7565b61040a6000610b46565b565b61041782338361067f565b6103e78282610a00565b6060600580546102ae90610d0a565b6000338161043e82866104b9565b90508381101561049e5760405162461bcd60e51b815260206004820152602560248201527f45524332303a2064656372656173656420616c6c6f77616e63652062656c6f77604482015264207a65726f60d81b60648201526084016103d4565b610362828686840361055a565b60003361033f8185856106f9565b6001600160a01b03918216600090815260026020908152604080832093909416825291909152205490565b6104ec6108c7565b6001600160a01b0381166105515760405162461bcd60e51b815260206004820152602660248201527f4f776e61626c653a206e6577206f776e657220697320746865207a65726f206160448201526564647265737360d01b60648201526084016103d4565b6103f581610b46565b6001600160a01b0383166105bc5760405162461bcd60e51b8152602060048201526024808201527f45524332303a20617070726f76652066726f6d20746865207a65726f206164646044820152637265737360e01b60648201526084016103d4565b6001600160a01b03821661061d5760405162461bcd60e51b815260206004820152602260248201527f45524332303a20617070726f766520746f20746865207a65726f206164647265604482015261737360f01b60648201526084016103d4565b6001600160a01b0383811660008181526002602090815260408083209487168084529482529182902085905590518481527f8c5be1e5ebec7d5bd14f71427d1e84f3dd0314c0f7b2291e5b200ac8c7c3b92591015b60405180910390a3505050565b600061068b84846104b9565b905060001981146106f357818110156106e65760405162461bcd60e51b815260206004820152601d60248201527f45524332303a20696e73756666696369656e7420616c6c6f77616e636500000060448201526064016103d4565b6106f3848484840361055a565b50505050565b6001600160a01b03831661075d5760405162461bcd60e51b815260206004820152602560248201527f45524332303a207472616e736665722066726f6d20746865207a65726f206164604482015264647265737360d81b60648201526084016103d4565b6001600160a01b0382166107bf5760405162461bcd60e51b815260206004820152602360248201527f45524332303a207472616e7366657220746f20746865207a65726f206164647260448201526265737360e81b60648201526084016103d4565b6001600160a01b038316600090815260016020526040902054818110156108375760405162461bcd60e51b815260206004820152602660248201527f45524332303a207472616e7366657220616d6f756e7420657863656564732062604482015265616c616e636560d01b60648201526084016103d4565b6001600160a01b0380851660009081526001602052604080822085850390559185168152908120805484929061086e908490610cdb565b92505081905550826001600160a01b0316846001600160a01b03167fddf252ad1be2c89b69c2b068fc378daa952ba7f163c4a11628f55a4df523b3ef846040516108ba91815260200190565b60405180910390a36106f3565b6000546001600160a01b0316331461040a5760405162461bcd60e51b815260206004820181905260248201527f4f776e61626c653a2063616c6c6572206973206e6f7420746865206f776e657260448201526064016103d4565b6001600160a01b0382166109775760405162461bcd60e51b815260206004820152601f60248201527f45524332303a206d696e7420746f20746865207a65726f20616464726573730060448201526064016103d4565b80600360008282546109899190610cdb565b90915550506001600160a01b038216600090815260016020526040812080548392906109b6908490610cdb565b90915550506040518181526001600160a01b038316906000907fddf252ad1be2c89b69c2b068fc378daa952ba7f163c4a11628f55a4df523b3ef9060200160405180910390a35050565b6001600160a01b038216610a605760405162461bcd60e51b815260206004820152602160248201527f45524332303a206275726e2066726f6d20746865207a65726f206164647265736044820152607360f81b60648201526084016103d4565b6001600160a01b03821660009081526001602052604090205481811015610ad45760405162461bcd60e51b815260206004820152602260248201527f45524332303a206275726e20616d6f756e7420657863656564732062616c616e604482015261636560f01b60648201526084016103d4565b6001600160a01b0383166000908152600160205260408120838303905560038054849290610b03908490610cf3565b90915550506040518281526000906001600160a01b038516907fddf252ad1be2c89b69c2b068fc378daa952ba7f163c4a11628f55a4df523b3ef90602001610672565b600080546001600160a01b038381166001600160a01b0319831681178455604051919092169283917f8be0079c531659141344cd1fd0a4f28419497f9722a3daafe3b4186f6b6457e09190a35050565b80356001600160a01b0381168114610bad57600080fd5b919050565b600060208284031215610bc457600080fd5b610bcd82610b96565b9392505050565b60008060408385031215610be757600080fd5b610bf083610b96565b9150610bfe60208401610b96565b90509250929050565b600080600060608486031215610c1c57600080fd5b610c2584610b96565b9250610c3360208501610b96565b9150604084013590509250925092565b60008060408385031215610c5657600080fd5b610c5f83610b96565b946020939093013593505050565b600060208284031215610c7f57600080fd5b5035919050565b600060208083528351808285015260005b81811015610cb357858101830151858201604001528201610c97565b81811115610cc5576000604083870101525b50601f01601f1916929092016040019392505050565b60008219821115610cee57610cee610d45565b500190565b600082821015610d0557610d05610d45565b500390565b600181811c90821680610d1e57607f821691505b60208210811415610d3f57634e487b7160e01b600052602260045260246000fd5b50919050565b634e487b7160e01b600052601160045260246000fdfea2646970667358221220736faaf4ad5c50e4f16832a2a0eb0f938136d3f29b77e40d5311fe21b50aa43d64736f6c63430008070033a264697066735822122078cd2fdd8bd9836ce46551b7fcb0fc9aaeaf028fb4bcebd43592ce37c2490bff64736f6c63430008070033",
  "deployedBytecode": "0x60806040523480156200001157600080fd5b5060043610620002c15760003560e01c80638456cb591162000179578063b28cb6dc11620000df578063e6ab28061162000092578063e6ab28061462000653578063efeecb51146200066a578063f2fad2b61462000673578063f3de0362146200068a578063f851a4401462000697578063fe49abe314620006b057600080fd5b8063b28cb6dc14620005fd578063c4db7fa01462000614578063ccfc2e8d146200061e578063d41f65681462000635578063d46300fd146200063f578063e25aa5fa146200064957600080fd5b806396de7aa0116200013857806396de7aa01462000597578063a1dc903114620005ae578063a95b089f14620005b8578063aa6ca80814620005cf578063ab3d854414620005e8578063ab5ac06114620005f457600080fd5b80638456cb59146200053157806384cdd9bc146200053b5780638554a7d4146200055257806391695586146200056957806391ceb3eb146200058057600080fd5b80633ed4c678116200022b5780635c975abb11620001de5780635c975abb146200045a5780635fd65f0f146200047157806366c0bd2414620004dd5780636999b37714620004f45780638214f5a4146200050857806382b86600146200051a57600080fd5b80633ed4c67814620003ea5780633f02323014620004015780633f4ba83a146200040b5780634d49e87d146200041557806352f7c988146200042c578063593d132c146200044357600080fd5b806318f52ce2116200028457806318f52ce2146200036d57806331cd52b01462000386578063342a87a1146200039d5780633969841514620003b45780633accfa6c14620003bf5780633e3a156014620003d357600080fd5b806304bc3b1c14620002c657806306e9481c14620003035780630ba81959146200031d5780630d43e8ad14620003275780630e0807f61462000354575b600080fd5b620002ec620002d736600462002a16565b60106020526000908152604090205460ff1681565b60405160ff90911681526020015b60405180910390f35b6200030e6201518081565b604051908152602001620002fa565b6200030e620006ba565b600e546200033b906001600160a01b031681565b6040516001600160a01b039091168152602001620002fa565b6200036b6200036536600462002c49565b62000749565b005b6200037762000829565b604051620002fa91906200300d565b620003776200039736600462002da1565b6200094a565b6200030e620003ae36600462002e17565b62000a3c565b6200030e620f424081565b6001546200033b906001600160a01b031681565b6200030e620003e436600462002e46565b62000ade565b6200036b620003fb36600462002a16565b62000be3565b6200036b62000cb0565b6200036b62000d71565b6200030e6200042636600462002cfc565b62000daf565b6200036b6200043d36600462002df4565b62000e99565b6200036b6200045436600462002df4565b62000f9e565b60005460ff166040519015158152602001620002fa565b600554600854600954600a54600b54600c54600d546200049d966001600160a01b031695949392919087565b604080516001600160a01b0390981688526020880196909652948601939093526060850191909152608084015260a083015260c082015260e001620002fa565b620002ec620004ee36600462002a16565b62001264565b600f546200033b906001600160a01b031681565b6005546001600160a01b03166200033b565b6200033b6200052b36600462002e84565b620012f4565b6200036b6200132d565b6200030e6200054c36600462002cfc565b62001369565b6200030e6200056336600462002e84565b620013ff565b6200030e6200057a36600462002ee3565b62001491565b6200030e6200059136600462002e84565b6200159f565b6200036b620005a836600462002a16565b620015cf565b620003776200164b565b6200030e620005c936600462002ea2565b620016a8565b620005d962001754565b604051620002fa919062002fbe565b6200030e6305f5e10081565b6200030e600a81565b6200036b6200060e36600462002a34565b620017ba565b6200036b62001e39565b6200036b6200062f36600462002a16565b62001f88565b620003776200204f565b6200030e620020aa565b6200030e620020e5565b6200030e6200066436600462002b1d565b62002120565b6004546200030e565b620003776200068436600462002d6d565b62002162565b6200030e6402540be40081565b6000546200033b9061010090046001600160a01b031681565b6200036b620021f6565b604051637461cf1b60e01b815260048082015260009073__$7cc55797c499de4fb3bba1e07e89d0e3e2$__90637461cf1b906024015b60206040518083038186803b1580156200070957600080fd5b505af41580156200071e573d6000803e3d6000fd5b505050506040513d601f19601f8201168201806040525081019062000744919062002d87565b905090565b62000753620023d4565b600280541415620007815760405162461bcd60e51b81526004016200077890620030d2565b60405180910390fd5b600280558042811015620007a95760405162461bcd60e51b81526004016200077890620030b1565b60405163a5416c7b60e01b815273__$7cc55797c499de4fb3bba1e07e89d0e3e2$__9063a5416c7b90620007ea906004908a908a908a908a9085016200315b565b60006040518083038186803b1580156200080357600080fd5b505af415801562000818573d6000803e3d6000fd5b505060016002555050505050505050565b600454606090806001600160401b038111156200084a576200084a62003438565b60405190808252806020026020018201604052801562000874578160200160208202803683370190505b50915060005b818110156200094557604051630a1368cd60e01b81526004808201526024810182905273__$7cc55797c499de4fb3bba1e07e89d0e3e2$__90630a1368cd9060440160206040518083038186803b158015620008d557600080fd5b505af4158015620008ea573d6000803e3d6000fd5b505050506040513d601f19601f8201168201806040525081019062000910919062002d87565b83828151811062000925576200092562003422565b6020908102919091010152806200093c81620033ee565b9150506200087a565b505090565b6060600280541415620009715760405162461bcd60e51b81526004016200077890620030d2565b600280558142811015620009995760405162461bcd60e51b81526004016200077890620030b1565b60405163d0b1a00560e01b815273__$7cc55797c499de4fb3bba1e07e89d0e3e2$__9063d0b1a00590620009d690600490899089908301620031e5565b60006040518083038186803b158015620009ef57600080fd5b505af415801562000a04573d6000803e3d6000fd5b505050506040513d6000823e601f3d908101601f1916820160405262000a2e919081019062002ba9565b600160025595945050505050565b6040516309bba52360e31b81526004808201526024810183905260ff8216604482015260009073__$7cc55797c499de4fb3bba1e07e89d0e3e2$__90634ddd29189060640160206040518083038186803b15801562000a9a57600080fd5b505af415801562000aaf573d6000803e3d6000fd5b505050506040513d601f19601f8201168201806040525081019062000ad5919062002d87565b90505b92915050565b600060028054141562000b055760405162461bcd60e51b81526004016200077890620030d2565b6002805562000b13620023d4565b818042111562000b375760405162461bcd60e51b81526004016200077890620030b1565b6040516346732ec760e11b81526004808201526024810187905260ff861660448201526064810185905273__$7cc55797c499de4fb3bba1e07e89d0e3e2$__90638ce65d8e9060840160206040518083038186803b15801562000b9957600080fd5b505af415801562000bae573d6000803e3d6000fd5b505050506040513d601f19601f8201168201806040525081019062000bd4919062002d87565b60016002559695505050505050565b60005461010090046001600160a01b0316331462000c155760405162461bcd60e51b815260040162000778906200308e565b6001600160a01b03811662000c5b5760405162461bcd60e51b815260206004820152600b60248201526a7a65726f4164647265737360a81b604482015260640162000778565b600f80546001600160a01b0319166001600160a01b0383169081179091556040519081527f4c3f3b9852ccceadd50f16518f348e2624c8f0240acdd5bc81911c0fba83ec67906020015b60405180910390a150565b6001546001600160a01b0316331462000cfc5760405162461bcd60e51b815260206004820152600d60248201526c6e6f742043616e64696461746560981b604482015260640162000778565b600154600080546040516001600160a01b0393841693610100909204909116917f7e644d79422f17c01e4894b5f4f588d331ebfa28653d42ae832dc59e38c9798f91a36001805460008054610100600160a81b0319166101006001600160a01b038416021790556001600160a01b0319169055565b60005461010090046001600160a01b0316331462000da35760405162461bcd60e51b815260040162000778906200308e565b62000dad6200241c565b565b600062000dbb620023d4565b60028054141562000de05760405162461bcd60e51b81526004016200077890620030d2565b60028055814281101562000e085760405162461bcd60e51b81526004016200077890620030b1565b604051637217bafd60e11b815273__$7cc55797c499de4fb3bba1e07e89d0e3e2$__9063e42f75fa9062000e4590600490899089908301620031ba565b60206040518083038186803b15801562000e5e57600080fd5b505af415801562000e73573d6000803e3d6000fd5b505050506040513d601f19601f8201168201806040525081019062000a2e919062002d87565b60005461010090046001600160a01b0316331462000ecb5760405162461bcd60e51b815260040162000778906200308e565b6305f5e10082111562000f105760405162461bcd60e51b815260206004820152600c60248201526b3e206d61785377617046656560a01b604482015260640162000778565b6402540be40081111562000f575760405162461bcd60e51b815260206004820152600d60248201526c3e206d617841646d696e46656560981b604482015260640162000778565b6009819055600882905560408051838152602081018390527fbe12859b636aed607d5230b2cc2711f68d70e51060e6cca1f575ef5d2fcc95d1910160405180910390a15050565b60005461010090046001600160a01b0316331462000fd05760405162461bcd60e51b815260040162000778906200308e565b600c5462000fe290620151806200325f565b421015620010215760405162461bcd60e51b815260206004820152600b60248201526a3c2072616d7044656c617960a81b604482015260640162000778565b6200103062015180426200325f565b811015620010715760405162461bcd60e51b815260206004820152600d60248201526c3c206d696e52616d7054696d6560981b604482015260640162000778565b816000108015620010845750620f424082105b620010bf5760405162461bcd60e51b815260206004820152600a6024820152696f75744f6652616e676560b01b604482015260640162000778565b604051637461cf1b60e01b815260048082015260009073__$7cc55797c499de4fb3bba1e07e89d0e3e2$__90637461cf1b9060240160206040518083038186803b1580156200110d57600080fd5b505af415801562001122573d6000803e3d6000fd5b505050506040513d601f19601f8201168201806040525081019062001148919062002d87565b90506000620011596064856200337f565b905081811015620011b6578162001172600a836200337f565b1015620011b05760405162461bcd60e51b815260206004820152600b60248201526a3e206d61784368616e676560a81b604482015260640162000778565b62001202565b620011c3600a836200337f565b811115620012025760405162461bcd60e51b815260206004820152600b60248201526a3e206d61784368616e676560a81b604482015260640162000778565b600a829055600b81905542600c819055600d84905560408051848152602081018490528082019290925260608201859052517fa2b71ec6df949300b59aab36b55e189697b750119dd349fcfa8c0f779e83c2549181900360800190a150505050565b6001600160a01b0381166000818152601060205260409020546004805460ff9092169291839081106200129b576200129b62003422565b6000918252602090912001546001600160a01b031614620012ef5760405162461bcd60e51b815260206004820152600d60248201526c1d1bdad95b939bdd119bdd5b99609a1b604482015260640162000778565b919050565b600060046000018260ff168154811062001312576200131262003422565b6000918252602090912001546001600160a01b031692915050565b60005461010090046001600160a01b031633146200135f5760405162461bcd60e51b815260040162000778906200308e565b62000dad62002470565b6000600280541415620013905760405162461bcd60e51b81526004016200077890620030d2565b600280556200139e620023d4565b8180421115620013c25760405162461bcd60e51b81526004016200077890620030b1565b60405163576b973560e01b815273__$7cc55797c499de4fb3bba1e07e89d0e3e2$__9063576b97359062000e4590600490899089908301620031ba565b604051630a1368cd60e01b815260048082015260ff8216602482015260009073__$7cc55797c499de4fb3bba1e07e89d0e3e2$__90630a1368cd9060440160206040518083038186803b1580156200145657600080fd5b505af41580156200146b573d6000803e3d6000fd5b505050506040513d601f19601f8201168201806040525081019062000ad8919062002d87565b60006200149d620023d4565b600280541415620014c25760405162461bcd60e51b81526004016200077890620030d2565b600280558142811015620014ea5760405162461bcd60e51b81526004016200077890620030b1565b604051633a8d10bd60e01b815260048082015260ff808916602483015287166044820152606481018690526084810185905273__$7cc55797c499de4fb3bba1e07e89d0e3e2$__90633a8d10bd9060a40160206040518083038186803b1580156200155457600080fd5b505af415801562001569573d6000803e3d6000fd5b505050506040513d601f19601f820116820180604052508101906200158f919062002d87565b6001600255979650505050505050565b600060046003018260ff1681548110620015bd57620015bd62003422565b90600052602060002001549050919050565b60005461010090046001600160a01b03163314620016015760405162461bcd60e51b815260040162000778906200308e565b600180546001600160a01b0319166001600160a01b0383169081179091556040517f8cc40b9abca4a505a92028908f9d913d621d18112c69412806506f02333f26b490600090a250565b606060046003018054806020026020016040519081016040528092919081815260200182805480156200169e57602002820191906000526020600020905b81548152602001906001019080831162001689575b5050505050905090565b6040516376311d0f60e11b815260048082015260ff8085166024830152831660448201526064810182905260009073__$7cc55797c499de4fb3bba1e07e89d0e3e2$__9063ec623a1e906084015b60206040518083038186803b1580156200170f57600080fd5b505af415801562001724573d6000803e3d6000fd5b505050506040513d601f19601f820116820180604052508101906200174a919062002d87565b90505b9392505050565b606060046000018054806020026020016040519081016040528092919081815260200182805480156200169e57602002820191906000526020600020905b81546001600160a01b0316815260019091019060200180831162001792575050505050905090565b60005461010090046001600160a01b03163314620017ec5760405162461bcd60e51b815260040162000778906200308e565b600354610100900460ff16158080156200180d5750600354600160ff909116105b80620018295750303b15801562001829575060035460ff166001145b6200188e5760405162461bcd60e51b815260206004820152602e60248201527f496e697469616c697a61626c653a20636f6e747261637420697320616c72656160448201526d191e481a5b9a5d1a585b1a5e995960921b606482015260840162000778565b6003805460ff191660011790558015620018b2576003805461ff0019166101001790555b8751895114620019055760405162461bcd60e51b815260206004820152601d60248201527f636f696e734c656e67746820213d20646563696d616c734c656e677468000000604482015260640162000778565b6001600160a01b038216620019565760405162461bcd60e51b81526020600482015260166024820152756665654469737472696275746f72203d20656d70747960501b604482015260640162000778565b88516000816001600160401b0381111562001975576200197562003438565b6040519080825280602002602001820160405280156200199f578160200160208202803683370190505b5090506000826001600160401b03811115620019bf57620019bf62003438565b604051908082528060200260200182016040528015620019e9578160200160208202803683370190505b50905060005b8381101562001bf15760006001600160a01b03168d828151811062001a185762001a1862003422565b60200260200101516001600160a01b0316141562001a6f5760405162461bcd60e51b8152602060048201526013602482015272696e76616c6964546f6b656e4164647265737360681b604482015260640162000778565b60128c828151811062001a865762001a8662003422565b602002602001015160ff16111562001ad35760405162461bcd60e51b815260206004820152600f60248201526e696e76616c6964446563696d616c7360881b604482015260640162000778565b8b818151811062001ae85762001ae862003422565b602002602001015160ff16601262001b019190620033a1565b62001b0e90600a620032c3565b83828151811062001b235762001b2362003422565b6020026020010181815250508c818151811062001b445762001b4462003422565b602002602001015182828151811062001b615762001b6162003422565b60200260200101906001600160a01b031690816001600160a01b031681525050806010600084848151811062001b9b5762001b9b62003422565b60200260200101516001600160a01b03166001600160a01b0316815260200190815260200160002060006101000a81548160ff021916908360ff160217905550808062001be890620033ee565b915050620019ef565b50620f4240881062001c2f5760405162461bcd60e51b81526020600482015260066024820152653e206d61784160d01b604482015260640162000778565b6305f5e10087111562001c745760405162461bcd60e51b815260206004820152600c60248201526b3e206d61785377617046656560a01b604482015260640162000778565b6402540be40086111562001cbb5760405162461bcd60e51b815260206004820152600d60248201526c3e206d617841646d696e46656560981b604482015260640162000778565b898960405162001ccb906200274f565b62001cd89291906200305c565b604051809103906000f08015801562001cf5573d6000803e3d6000fd5b50600580546001600160a01b0319166001600160a01b0392909216919091179055826001600160401b0381111562001d315762001d3162003438565b60405190808252806020026020018201604052801562001d5b578160200160208202803683370190505b50805162001d72916007916020909101906200275d565b50815162001d889060069060208501906200275d565b50805162001d9e906004906020840190620027ad565b5062001dac6064896200337f565b600a5562001dbc6064896200337f565b600b5550505060088490556009839055600e80546001600160a01b0319166001600160a01b038416179055801562001e2e576003805461ff0019169055604051600181527f7f26b83ff96e1f2b6a682f133852f6798a09c465da95921460cefb38474024989060200160405180910390a15b505050505050505050565b60005461010090046001600160a01b0316331462001e6b5760405162461bcd60e51b815260040162000778906200308e565b600d54421062001eaf5760405162461bcd60e51b815260206004820152600e60248201526d185b1c9958591e54dd1bdc1c195960921b604482015260640162000778565b604051637461cf1b60e01b815260048082015260009073__$7cc55797c499de4fb3bba1e07e89d0e3e2$__90637461cf1b9060240160206040518083038186803b15801562001efd57600080fd5b505af415801562001f12573d6000803e3d6000fd5b505050506040513d601f19601f8201168201806040525081019062001f38919062002d87565b600a819055600b81905542600c819055600d8190556040519192507f46e22fb3709ad289f62ce63d469248536dbc78d82b84a3d7e74ad606dc2019389162000ca591848252602082015260400190565b60005461010090046001600160a01b0316331462001fba5760405162461bcd60e51b815260040162000778906200308e565b6001600160a01b038116620020005760405162461bcd60e51b815260206004820152600b60248201526a7a65726f4164647265737360a81b604482015260640162000778565b600e80546001600160a01b0319166001600160a01b0383169081179091556040519081527fae5a12c29e496b092467a620746b9eaf4e0e231a631a4370c233b1fac38e8e269060200162000ca5565b606060046002018054806020026020016040519081016040528092919081815260200182805480156200169e576020028201919060005260206000209081548152602001906001019080831162001689575050505050905090565b60405163172a21f960e31b815260048082015260009073__$7cc55797c499de4fb3bba1e07e89d0e3e2$__9063b9510fc890602401620006f0565b604051631bd62df560e11b815260048082015260009073__$7cc55797c499de4fb3bba1e07e89d0e3e2$__906337ac5bea90602401620006f0565b6040516345b69ab760e01b815260009073__$7cc55797c499de4fb3bba1e07e89d0e3e2$__906345b69ab790620016f690600490889088908890840162003109565b60405163f94eed8760e01b81526004808201526024810182905260609073__$7cc55797c499de4fb3bba1e07e89d0e3e2$__9063f94eed879060440160006040518083038186803b158015620021b757600080fd5b505af4158015620021cc573d6000803e3d6000fd5b505050506040513d6000823e601f3d908101601f1916820160405262000ad8919081019062002ba9565b600f546001600160a01b03163314806200221f575060005461010090046001600160a01b031633145b620022655760405162461bcd60e51b815260206004820152601560248201527410b332b2a1b7b73a3937b63632b927b927bbb732b960591b604482015260640162000778565b60005b600454811015620023d1576000600460000182815481106200228e576200228e62003422565b6000918252602082200154600780546001600160a01b0390921693509084908110620022be57620022be62003422565b6000918252602090912001546040516370a0823160e01b81523060048201526001600160a01b038416906370a082319060240160206040518083038186803b1580156200230a57600080fd5b505afa1580156200231f573d6000803e3d6000fd5b505050506040513d601f19601f8201168201806040525081019062002345919062002d87565b620023519190620033a1565b90508015620023b957600e5462002376906001600160a01b03848116911683620024b0565b604080516001600160a01b0384168152602081018390527fee3859efa95e525bc2bcb149b51b60a8bb4e89c647392d9d4112e03c3e73bdd6910160405180910390a15b50508080620023c890620033ee565b91505062002268565b50565b60005460ff161562000dad5760405162461bcd60e51b815260206004820152601060248201526f14185d5cd8589b194e881c185d5cd95960821b604482015260640162000778565b6200242662002509565b6000805460ff191690557f5db9ee0a495bf2e6ff9c91a7834c1ba4fdd244a5e8aa4e537bd38aeae4b073aa335b6040516001600160a01b03909116815260200160405180910390a1565b6200247a620023d4565b6000805460ff191660011790557f62e78cea01bee320cd4e420270b5ea74000d11b0c9f74754ebdbfc544b05a258620024533390565b604080516001600160a01b038416602482015260448082018490528251808303909101815260649091019091526020810180516001600160e01b031663a9059cbb60e01b1790526200250490849062002554565b505050565b60005460ff1662000dad5760405162461bcd60e51b815260206004820152601460248201527314185d5cd8589b194e881b9bdd081c185d5cd95960621b604482015260640162000778565b6000620025ab826040518060400160405280602081526020017f5361666545524332303a206c6f772d6c6576656c2063616c6c206661696c6564815250856001600160a01b03166200262d9092919063ffffffff16565b805190915015620025045780806020019051810190620025cc919062002d4d565b620025045760405162461bcd60e51b815260206004820152602a60248201527f5361666545524332303a204552433230206f7065726174696f6e20646964206e6044820152691bdd081cdd58d8d9595960b21b606482015260840162000778565b60606200174a8484600085856001600160a01b0385163b620026925760405162461bcd60e51b815260206004820152601d60248201527f416464726573733a2063616c6c20746f206e6f6e2d636f6e7472616374000000604482015260640162000778565b600080866001600160a01b03168587604051620026b0919062002fa0565b60006040518083038185875af1925050503d8060008114620026ef576040519150601f19603f3d011682016040523d82523d6000602084013e620026f4565b606091505b50915091506200270682828662002711565b979650505050505050565b60608315620027225750816200174d565b825115620027335782518084602001fd5b8160405162461bcd60e51b815260040162000778919062003047565b611095806200345e83390190565b8280548282559060005260206000209081019282156200279b579160200282015b828111156200279b5782518255916020019190600101906200277e565b50620027a992915062002805565b5090565b8280548282559060005260206000209081019282156200279b579160200282015b828111156200279b57825182546001600160a01b0319166001600160a01b03909116178255602090920191600190910190620027ce565b5b80821115620027a9576000815560010162002806565b80356001600160a01b0381168114620012ef57600080fd5b600082601f8301126200284657600080fd5b813560206200285f620028598362003239565b62003206565b80838252828201915082860187848660051b89010111156200288057600080fd5b60005b85811015620028aa5762002897826200281c565b8452928401929084019060010162002883565b5090979650505050505050565b600082601f830112620028c957600080fd5b81356020620028dc620028598362003239565b80838252828201915082860187848660051b8901011115620028fd57600080fd5b60005b85811015620028aa5781358452928401929084019060010162002900565b600082601f8301126200293057600080fd5b8135602062002943620028598362003239565b80838252828201915082860187848660051b89010111156200296457600080fd5b60005b85811015620028aa576200297b8262002a04565b8452928401929084019060010162002967565b600082601f830112620029a057600080fd5b81356001600160401b03811115620029bc57620029bc62003438565b620029d1601f8201601f191660200162003206565b818152846020838601011115620029e757600080fd5b816020850160208301376000918101602001919091529392505050565b803560ff81168114620012ef57600080fd5b60006020828403121562002a2957600080fd5b62000ad5826200281c565b600080600080600080600080610100898b03121562002a5257600080fd5b88356001600160401b038082111562002a6a57600080fd5b62002a788c838d0162002834565b995060208b013591508082111562002a8f57600080fd5b62002a9d8c838d016200291e565b985060408b013591508082111562002ab457600080fd5b62002ac28c838d016200298e565b975060608b013591508082111562002ad957600080fd5b5062002ae88b828c016200298e565b9550506080890135935060a0890135925060c0890135915062002b0e60e08a016200281c565b90509295985092959890939650565b60008060006040848603121562002b3357600080fd5b83356001600160401b038082111562002b4b57600080fd5b818601915086601f83011262002b6057600080fd5b81358181111562002b7057600080fd5b8760208260051b850101111562002b8657600080fd5b6020928301955093505084013562002b9e816200344e565b809150509250925092565b6000602080838503121562002bbd57600080fd5b82516001600160401b0381111562002bd457600080fd5b8301601f8101851362002be657600080fd5b805162002bf7620028598262003239565b80828252848201915084840188868560051b870101111562002c1857600080fd5b600094505b8385101562002c3d57805183526001949094019391850191850162002c1d565b50979650505050505050565b60008060008060006080868803121562002c6257600080fd5b85356001600160401b038082111562002c7a57600080fd5b62002c8889838a01620028b7565b965062002c98602089016200281c565b9550604088013591508082111562002caf57600080fd5b818801915088601f83011262002cc457600080fd5b81358181111562002cd457600080fd5b89602082850101111562002ce757600080fd5b96999598505060200195606001359392505050565b60008060006060848603121562002d1257600080fd5b83356001600160401b0381111562002d2957600080fd5b62002d3786828701620028b7565b9660208601359650604090950135949350505050565b60006020828403121562002d6057600080fd5b81516200174d816200344e565b60006020828403121562002d8057600080fd5b5035919050565b60006020828403121562002d9a57600080fd5b5051919050565b60008060006060848603121562002db757600080fd5b8335925060208401356001600160401b0381111562002dd557600080fd5b62002de386828701620028b7565b925050604084013590509250925092565b6000806040838503121562002e0857600080fd5b50508035926020909101359150565b6000806040838503121562002e2b57600080fd5b8235915062002e3d6020840162002a04565b90509250929050565b6000806000806080858703121562002e5d57600080fd5b8435935062002e6f6020860162002a04565b93969395505050506040820135916060013590565b60006020828403121562002e9757600080fd5b62000ad58262002a04565b60008060006060848603121562002eb857600080fd5b62002ec38462002a04565b925062002ed36020850162002a04565b9150604084013590509250925092565b600080600080600060a0868803121562002efc57600080fd5b62002f078662002a04565b945062002f176020870162002a04565b94979496505050506040830135926060810135926080909101359150565b600081518084526020808501945080840160005b8381101562002f675781518752958201959082019060010162002f49565b509495945050505050565b6000815180845262002f8c816020860160208601620033bb565b601f01601f19169290920160200192915050565b6000825162002fb4818460208701620033bb565b9190910192915050565b6020808252825182820181905260009190848201906040850190845b81811015620030015783516001600160a01b03168352928401929184019160010162002fda565b50909695505050505050565b6020808252825182820181905260009190848201906040850190845b81811015620030015783518352928401929184019160010162003029565b60208152600062000ad5602083018462002f72565b60408152600062003071604083018562002f72565b828103602084015262003085818562002f72565b95945050505050565b6020808252600990820152683737ba1030b236b4b760b91b604082015260600190565b6020808252600790820152661d1a5b595bdd5d60ca1b604082015260600190565b6020808252601f908201527f5265656e7472616e637947756172643a207265656e7472616e742063616c6c00604082015260600190565b848152606060208201819052810183905260006001600160fb1b038411156200313157600080fd5b8360051b808660808501376000908301608001908152921515604090920191909152509392505050565b85815260806020820152600062003176608083018762002f35565b6001600160a01b03861660408401528281036060840152838152838560208301376000602085830101526020601f19601f8601168201019150509695505050505050565b838152606060208201526000620031d5606083018562002f35565b9050826040830152949350505050565b83815282602082015260606040820152600062003085606083018462002f35565b604051601f8201601f191681016001600160401b038111828210171562003231576200323162003438565b604052919050565b60006001600160401b0382111562003255576200325562003438565b5060051b60200190565b600082198211156200327557620032756200340c565b500190565b600181815b80851115620032bb5781600019048211156200329f576200329f6200340c565b80851615620032ad57918102915b93841c93908002906200327f565b509250929050565b600062000ad58383600082620032dc5750600162000ad8565b81620032eb5750600062000ad8565b81600181146200330457600281146200330f576200332f565b600191505062000ad8565b60ff8411156200332357620033236200340c565b50506001821b62000ad8565b5060208310610133831016604e8410600b841016171562003354575081810a62000ad8565b6200336083836200327a565b80600019048211156200337757620033776200340c565b029392505050565b60008160001904831182151516156200339c576200339c6200340c565b500290565b600082821015620033b657620033b66200340c565b500390565b60005b83811015620033d8578181015183820152602001620033be565b83811115620033e8576000848401525b50505050565b60006000198214156200340557620034056200340c565b5060010190565b634e487b7160e01b600052601160045260246000fd5b634e487b7160e01b600052603260045260246000fd5b634e487b7160e01b600052604160045260246000fd5b8015158114620023d157600080fdfe60806040523480156200001157600080fd5b506040516200109538038062001095833981016040819052620000349162000237565b818162000041336200008a565b815162000056906004906020850190620000da565b5080516200006c906005906020840190620000da565b5050600680546001600160a01b0319163317905550620002f4915050565b600080546001600160a01b038381166001600160a01b0319831681178455604051919092169283917f8be0079c531659141344cd1fd0a4f28419497f9722a3daafe3b4186f6b6457e09190a35050565b828054620000e890620002a1565b90600052602060002090601f0160209004810192826200010c576000855562000157565b82601f106200012757805160ff191683800117855562000157565b8280016001018555821562000157579182015b82811115620001575782518255916020019190600101906200013a565b506200016592915062000169565b5090565b5b808211156200016557600081556001016200016a565b600082601f8301126200019257600080fd5b81516001600160401b0380821115620001af57620001af620002de565b604051601f8301601f19908116603f01168101908282118183101715620001da57620001da620002de565b81604052838152602092508683858801011115620001f757600080fd5b600091505b838210156200021b5785820183015181830184015290820190620001fc565b838211156200022d5760008385830101525b9695505050505050565b600080604083850312156200024b57600080fd5b82516001600160401b03808211156200026357600080fd5b620002718683870162000180565b935060208501519150808211156200028857600080fd5b50620002978582860162000180565b9150509250929050565b600181811c90821680620002b657607f821691505b60208210811415620002d857634e487b7160e01b600052602260045260246000fd5b50919050565b634e487b7160e01b600052604160045260246000fd5b610d9180620003046000396000f3fe608060405234801561001057600080fd5b50600436106101165760003560e01c8063715018a6116100a257806395d89b411161007157806395d89b411461024b578063a457c2d714610253578063a9059cbb14610266578063dd62ed3e14610279578063f2fde38b1461028c57600080fd5b8063715018a6146101f457806379cc6790146101fc5780638119c0651461020f5780638da5cb5b1461023a57600080fd5b8063313ce567116100e9578063313ce56714610181578063395093511461019057806340c10f19146101a357806342966c68146101b857806370a08231146101cb57600080fd5b806306fdde031461011b578063095ea7b31461013957806318160ddd1461015c57806323b872dd1461016e575b600080fd5b61012361029f565b6040516101309190610c86565b60405180910390f35b61014c610147366004610c43565b610331565b6040519015158152602001610130565b6003545b604051908152602001610130565b61014c61017c366004610c07565b610349565b60405160128152602001610130565b61014c61019e366004610c43565b61036d565b6101b66101b1366004610c43565b61038f565b005b6101b66101c6366004610c6d565b6103eb565b6101606101d9366004610bb2565b6001600160a01b031660009081526001602052604090205490565b6101b66103f8565b6101b661020a366004610c43565b61040c565b600654610222906001600160a01b031681565b6040516001600160a01b039091168152602001610130565b6000546001600160a01b0316610222565b610123610421565b61014c610261366004610c43565b610430565b61014c610274366004610c43565b6104ab565b610160610287366004610bd4565b6104b9565b6101b661029a366004610bb2565b6104e4565b6060600480546102ae90610d0a565b80601f01602080910402602001604051908101604052809291908181526020018280546102da90610d0a565b80156103275780601f106102fc57610100808354040283529160200191610327565b820191906000526020600020905b81548152906001019060200180831161030a57829003601f168201915b5050505050905090565b60003361033f81858561055a565b5060019392505050565b60003361035785828561067f565b6103628585856106f9565b506001949350505050565b60003361033f81858561038083836104b9565b61038a9190610cdb565b61055a565b6103976108c7565b600081116103dd5760405162461bcd60e51b815260206004820152600e60248201526d1e995c9bd35a5b9d105b5bdd5b9d60921b60448201526064015b60405180910390fd5b6103e78282610921565b5050565b6103f53382610a00565b50565b6104006108c7565b61040a6000610b46565b565b61041782338361067f565b6103e78282610a00565b6060600580546102ae90610d0a565b6000338161043e82866104b9565b90508381101561049e5760405162461bcd60e51b815260206004820152602560248201527f45524332303a2064656372656173656420616c6c6f77616e63652062656c6f77604482015264207a65726f60d81b60648201526084016103d4565b610362828686840361055a565b60003361033f8185856106f9565b6001600160a01b03918216600090815260026020908152604080832093909416825291909152205490565b6104ec6108c7565b6001600160a01b0381166105515760405162461bcd60e51b815260206004820152602660248201527f4f776e61626c653a206e6577206f776e657220697320746865207a65726f206160448201526564647265737360d01b60648201526084016103d4565b6103f581610b46565b6001600160a01b0383166105bc5760405162461bcd60e51b8152602060048201526024808201527f45524332303a20617070726f76652066726f6d20746865207a65726f206164646044820152637265737360e01b60648201526084016103d4565b6001600160a01b03821661061d5760405162461bcd60e51b815260206004820152602260248201527f45524332303a20617070726f766520746f20746865207a65726f206164647265604482015261737360f01b60648201526084016103d4565b6001600160a01b0383811660008181526002602090815260408083209487168084529482529182902085905590518481527f8c5be1e5ebec7d5bd14f71427d1e84f3dd0314c0f7b2291e5b200ac8c7c3b92591015b60405180910390a3505050565b600061068b84846104b9565b905060001981146106f357818110156106e65760405162461bcd60e51b815260206004820152601d60248201527f45524332303a20696e73756666696369656e7420616c6c6f77616e636500000060448201526064016103d4565b6106f3848484840361055a565b50505050565b6001600160a01b03831661075d5760405162461bcd60e51b815260206004820152602560248201527f45524332303a207472616e736665722066726f6d20746865207a65726f206164604482015264647265737360d81b60648201526084016103d4565b6001600160a01b0382166107bf5760405162461bcd60e51b815260206004820152602360248201527f45524332303a207472616e7366657220746f20746865207a65726f206164647260448201526265737360e81b60648201526084016103d4565b6001600160a01b038316600090815260016020526040902054818110156108375760405162461bcd60e51b815260206004820152602660248201527f45524332303a207472616e7366657220616d6f756e7420657863656564732062604482015265616c616e636560d01b60648201526084016103d4565b6001600160a01b0380851660009081526001602052604080822085850390559185168152908120805484929061086e908490610cdb565b92505081905550826001600160a01b0316846001600160a01b03167fddf252ad1be2c89b69c2b068fc378daa952ba7f163c4a11628f55a4df523b3ef846040516108ba91815260200190565b60405180910390a36106f3565b6000546001600160a01b0316331461040a5760405162461bcd60e51b815260206004820181905260248201527f4f776e61626c653a2063616c6c6572206973206e6f7420746865206f776e657260448201526064016103d4565b6001600160a01b0382166109775760405162461bcd60e51b815260206004820152601f60248201527f45524332303a206d696e7420746f20746865207a65726f20616464726573730060448201526064016103d4565b80600360008282546109899190610cdb565b90915550506001600160a01b038216600090815260016020526040812080548392906109b6908490610cdb565b90915550506040518181526001600160a01b038316906000907fddf252ad1be2c89b69c2b068fc378daa952ba7f163c4a11628f55a4df523b3ef9060200160405180910390a35050565b6001600160a01b038216610a605760405162461bcd60e51b815260206004820152602160248201527f45524332303a206275726e2066726f6d20746865207a65726f206164647265736044820152607360f81b60648201526084016103d4565b6001600160a01b03821660009081526001602052604090205481811015610ad45760405162461bcd60e51b815260206004820152602260248201527f45524332303a206275726e20616d6f756e7420657863656564732062616c616e604482015261636560f01b60648201526084016103d4565b6001600160a01b0383166000908152600160205260408120838303905560038054849290610b03908490610cf3565b90915550506040518281526000906001600160a01b038516907fddf252ad1be2c89b69c2b068fc378daa952ba7f163c4a11628f55a4df523b3ef90602001610672565b600080546001600160a01b038381166001600160a01b0319831681178455604051919092169283917f8be0079c531659141344cd1fd0a4f28419497f9722a3daafe3b4186f6b6457e09190a35050565b80356001600160a01b0381168114610bad57600080fd5b919050565b600060208284031215610bc457600080fd5b610bcd82610b96565b9392505050565b60008060408385031215610be757600080fd5b610bf083610b96565b9150610bfe60208401610b96565b90509250929050565b600080600060608486031215610c1c57600080fd5b610c2584610b96565b9250610c3360208501610b96565b9150604084013590509250925092565b60008060408385031215610c5657600080fd5b610c5f83610b96565b946020939093013593505050565b600060208284031215610c7f57600080fd5b5035919050565b600060208083528351808285015260005b81811015610cb357858101830151858201604001528201610c97565b81811115610cc5576000604083870101525b50601f01601f1916929092016040019392505050565b60008219821115610cee57610cee610d45565b500190565b600082821015610d0557610d05610d45565b500390565b600181811c90821680610d1e57607f821691505b60208210811415610d3f57634e487b7160e01b600052602260045260246000fd5b50919050565b634e487b7160e01b600052601160045260246000fdfea2646970667358221220736faaf4ad5c50e4f16832a2a0eb0f938136d3f29b77e40d5311fe21b50aa43d64736f6c63430008070033a264697066735822122078cd2fdd8bd9836ce46551b7fcb0fc9aaeaf028fb4bcebd43592ce37c2490bff64736f6c63430008070033",
  "libraries": {
    "StableSwapStorage": "0xca81CAdf309B4fd90CA13Fba676bdB9e69685dA6"
  },
  "devdoc": {
    "kind": "dev",
    "methods": {
      "paused()": {
        "details": "Returns true if the contract is paused, and false otherwise."
      },
      "rampA(uint256,uint256)": {
        "params": {
          "futureA": "the new A to ramp towards",
          "futureATime": "timestamp when the new A should be reached"
        }
      },
      "setFee(uint256,uint256)": {
        "details": "adminFee cannot be higher than 100% of the swap fee swap fee cannot be higher than 1% of each swap",
        "params": {
          "newAdminFee": "new admin fee to be applied on future transactions",
          "newSwapFee": "new swap fee to be applied on future transactions"
        }
      }
    },
    "version": 1
  },
  "userdoc": {
    "events": {
      "AddLiquidity(address,uint256[],uint256[],uint256,uint256)": {
        "notice": "EVENTS"
      }
    },
    "kind": "user",
    "methods": {
      "MIN_RAMP_TIME()": {
        "notice": "constants"
      },
      "addLiquidity(uint256[],uint256,uint256)": {
        "notice": "PUBLIC FUNCTIONS"
      },
      "getVirtualPrice()": {
        "notice": "VIEW FUNCTIONS"
      },
      "rampA(uint256,uint256)": {
        "notice": "Start ramping up or down A parameter towards given futureA_ and futureTime_ Checks if the change is too rapid, and commits the new A value only when it falls under the limit range."
      },
      "setFee(uint256,uint256)": {
        "notice": "Sets the admin fee"
      },
      "swapStorage()": {
        "notice": "STATE VARS"
      }
    },
    "version": 1
  },
  "storageLayout": {
    "storage": [
      {
        "astId": 449,
        "contract": "contracts/stableswap/StableSwap.sol:StableSwap",
        "label": "_paused",
        "offset": 0,
        "slot": "0",
        "type": "t_bool"
      },
      {
        "astId": 7604,
        "contract": "contracts/stableswap/StableSwap.sol:StableSwap",
        "label": "admin",
        "offset": 1,
        "slot": "0",
        "type": "t_address"
      },
      {
        "astId": 7606,
        "contract": "contracts/stableswap/StableSwap.sol:StableSwap",
        "label": "adminCandidate",
        "offset": 0,
        "slot": "1",
        "type": "t_address"
      },
      {
        "astId": 550,
        "contract": "contracts/stableswap/StableSwap.sol:StableSwap",
        "label": "_status",
        "offset": 0,
        "slot": "2",
        "type": "t_uint256"
      },
      {
        "astId": 287,
        "contract": "contracts/stableswap/StableSwap.sol:StableSwap",
        "label": "_initialized",
        "offset": 0,
        "slot": "3",
        "type": "t_uint8"
      },
      {
        "astId": 290,
        "contract": "contracts/stableswap/StableSwap.sol:StableSwap",
        "label": "_initializing",
        "offset": 1,
        "slot": "3",
        "type": "t_bool"
      },
      {
        "astId": 25014,
        "contract": "contracts/stableswap/StableSwap.sol:StableSwap",
        "label": "swapStorage",
        "offset": 0,
        "slot": "4",
        "type": "t_struct(SwapStorage)26192_storage"
      },
      {
        "astId": 25016,
        "contract": "contracts/stableswap/StableSwap.sol:StableSwap",
        "label": "feeDistributor",
        "offset": 0,
        "slot": "14",
        "type": "t_address"
      },
      {
        "astId": 25018,
        "contract": "contracts/stableswap/StableSwap.sol:StableSwap",
        "label": "feeController",
        "offset": 0,
        "slot": "15",
        "type": "t_address"
      },
      {
        "astId": 25022,
        "contract": "contracts/stableswap/StableSwap.sol:StableSwap",
        "label": "tokenIndexes",
        "offset": 0,
        "slot": "16",
        "type": "t_mapping(t_address,t_uint8)"
      }
    ],
    "types": {
      "t_address": {
        "encoding": "inplace",
        "label": "address",
        "numberOfBytes": "20"
      },
      "t_array(t_contract(IERC20)1243)dyn_storage": {
        "base": "t_contract(IERC20)1243",
        "encoding": "dynamic_array",
        "label": "contract IERC20[]",
        "numberOfBytes": "32"
      },
      "t_array(t_uint256)dyn_storage": {
        "base": "t_uint256",
        "encoding": "dynamic_array",
        "label": "uint256[]",
        "numberOfBytes": "32"
      },
      "t_bool": {
        "encoding": "inplace",
        "label": "bool",
        "numberOfBytes": "1"
      },
      "t_contract(IERC20)1243": {
        "encoding": "inplace",
        "label": "contract IERC20",
        "numberOfBytes": "20"
      },
      "t_contract(LPToken)20202": {
        "encoding": "inplace",
        "label": "contract LPToken",
        "numberOfBytes": "20"
      },
      "t_mapping(t_address,t_uint8)": {
        "encoding": "mapping",
        "key": "t_address",
        "label": "mapping(address => uint8)",
        "numberOfBytes": "32",
        "value": "t_uint8"
      },
      "t_struct(SwapStorage)26192_storage": {
        "encoding": "inplace",
        "label": "struct StableSwapStorage.SwapStorage",
        "members": [
          {
            "astId": 26170,
            "contract": "contracts/stableswap/StableSwap.sol:StableSwap",
            "label": "pooledTokens",
            "offset": 0,
            "slot": "0",
            "type": "t_array(t_contract(IERC20)1243)dyn_storage"
          },
          {
            "astId": 26173,
            "contract": "contracts/stableswap/StableSwap.sol:StableSwap",
            "label": "lpToken",
            "offset": 0,
            "slot": "1",
            "type": "t_contract(LPToken)20202"
          },
          {
            "astId": 26176,
            "contract": "contracts/stableswap/StableSwap.sol:StableSwap",
            "label": "tokenMultipliers",
            "offset": 0,
            "slot": "2",
            "type": "t_array(t_uint256)dyn_storage"
          },
          {
            "astId": 26179,
            "contract": "contracts/stableswap/StableSwap.sol:StableSwap",
            "label": "balances",
            "offset": 0,
            "slot": "3",
            "type": "t_array(t_uint256)dyn_storage"
          },
          {
            "astId": 26181,
            "contract": "contracts/stableswap/StableSwap.sol:StableSwap",
            "label": "fee",
            "offset": 0,
            "slot": "4",
            "type": "t_uint256"
          },
          {
            "astId": 26183,
            "contract": "contracts/stableswap/StableSwap.sol:StableSwap",
            "label": "adminFee",
            "offset": 0,
            "slot": "5",
            "type": "t_uint256"
          },
          {
            "astId": 26185,
            "contract": "contracts/stableswap/StableSwap.sol:StableSwap",
            "label": "initialA",
            "offset": 0,
            "slot": "6",
            "type": "t_uint256"
          },
          {
            "astId": 26187,
            "contract": "contracts/stableswap/StableSwap.sol:StableSwap",
            "label": "futureA",
            "offset": 0,
            "slot": "7",
            "type": "t_uint256"
          },
          {
            "astId": 26189,
            "contract": "contracts/stableswap/StableSwap.sol:StableSwap",
            "label": "initialATime",
            "offset": 0,
            "slot": "8",
            "type": "t_uint256"
          },
          {
            "astId": 26191,
            "contract": "contracts/stableswap/StableSwap.sol:StableSwap",
            "label": "futureATime",
            "offset": 0,
            "slot": "9",
            "type": "t_uint256"
          }
        ],
        "numberOfBytes": "320"
      },
      "t_uint256": {
        "encoding": "inplace",
        "label": "uint256",
        "numberOfBytes": "32"
      },
      "t_uint8": {
        "encoding": "inplace",
        "label": "uint8",
        "numberOfBytes": "1"
      }
    }
  }
}