{
  "address": "0xca81CAdf309B4fd90CA13Fba676bdB9e69685dA6",
  "abi": [
    {
      "anonymous": false,
      "inputs": [
        {
          "indexed": true,
          "internalType": "address",
          "name": "provider",
          "type": "address"
        },
        {
          "indexed": false,
          "internalType": "uint256[]",
          "name": "token_amounts",
          "type": "uint256[]"
        },
        {
          "indexed": false,
          "internalType": "uint256[]",
          "name": "fees",
          "type": "uint256[]"
        },
        {
          "indexed": false,
          "internalType": "uint256",
          "name": "invariant",
          "type": "uint256"
        },
        {
          "indexed": false,
          "internalType": "uint256",
          "name": "token_supply",
          "type": "uint256"
        }
      ],
      "name": "AddLiquidity",
      "type": "event"
    },
    {
      "anonymous": false,
      "inputs": [
        {
          "indexed": true,
          "internalType": "address",
          "name": "caller",
          "type": "address"
        },
        {
          "indexed": true,
          "internalType": "address",
          "name": "receiver",
          "type": "address"
        },
        {
          "indexed": false,
          "internalType": "uint256[]",
          "name": "amounts_out",
          "type": "uint256[]"
        }
      ],
      "name": "FlashLoan",
      "type": "event"
    },
    {
      "anonymous": false,
      "inputs": [
        {
          "indexed": true,
          "internalType": "address",
          "name": "provider",
          "type": "address"
        },
        {
          "indexed": false,
          "internalType": "uint256[]",
          "name": "token_amounts",
          "type": "uint256[]"
        },
        {
          "indexed": false,
          "internalType": "uint256[]",
          "name": "fees",
          "type": "uint256[]"
        },
        {
          "indexed": false,
          "internalType": "uint256",
          "name": "token_supply",
          "type": "uint256"
        }
      ],
      "name": "RemoveLiquidity",
      "type": "event"
    },
    {
      "anonymous": false,
      "inputs": [
        {
          "indexed": true,
          "internalType": "address",
          "name": "provider",
          "type": "address"
        },
        {
          "indexed": false,
          "internalType": "uint256[]",
          "name": "token_amounts",
          "type": "uint256[]"
        },
        {
          "indexed": false,
          "internalType": "uint256[]",
          "name": "fees",
          "type": "uint256[]"
        },
        {
          "indexed": false,
          "internalType": "uint256",
          "name": "invariant",
          "type": "uint256"
        },
        {
          "indexed": false,
          "internalType": "uint256",
          "name": "token_supply",
          "type": "uint256"
        }
      ],
      "name": "RemoveLiquidityImbalance",
      "type": "event"
    },
    {
      "anonymous": false,
      "inputs": [
        {
          "indexed": true,
          "internalType": "address",
          "name": "provider",
          "type": "address"
        },
        {
          "indexed": false,
          "internalType": "uint256",
          "name": "index",
          "type": "uint256"
        },
        {
          "indexed": false,
          "internalType": "uint256",
          "name": "token_amount",
          "type": "uint256"
        },
        {
          "indexed": false,
          "internalType": "uint256",
          "name": "coin_amount",
          "type": "uint256"
        }
      ],
      "name": "RemoveLiquidityOne",
      "type": "event"
    },
    {
      "anonymous": false,
      "inputs": [
        {
          "indexed": true,
          "internalType": "address",
          "name": "buyer",
          "type": "address"
        },
        {
          "indexed": false,
          "internalType": "uint256",
          "name": "sold_id",
          "type": "uint256"
        },
        {
          "indexed": false,
          "internalType": "uint256",
          "name": "tokens_sold",
          "type": "uint256"
        },
        {
          "indexed": false,
          "internalType": "uint256",
          "name": "bought_id",
          "type": "uint256"
        },
        {
          "indexed": false,
          "internalType": "uint256",
          "name": "tokens_bought",
          "type": "uint256"
        }
      ],
      "name": "TokenExchange",
      "type": "event"
    },
    {
      "inputs": [],
      "name": "A_PRECISION",
      "outputs": [
        {
          "internalType": "uint256",
          "name": "",
          "type": "uint256"
        }
      ],
      "stateMutability": "view",
      "type": "function"
    },
    {
      "inputs": [],
      "name": "FEE_DENOMINATOR",
      "outputs": [
        {
          "internalType": "uint256",
          "name": "",
          "type": "uint256"
        }
      ],
      "stateMutability": "view",
      "type": "function"
    },
    {
      "inputs": [],
      "name": "POOL_TOKEN_COMMON_DECIMALS",
      "outputs": [
        {
          "internalType": "uint256",
          "name": "",
          "type": "uint256"
        }
      ],
      "stateMutability": "view",
      "type": "function"
    }
  ],
  "transactionHash": "0x0b79b3ef2682bf04fa6c061cdbcfe56d845123a75b74d33adb22b6fad07cd97e",
  "args": [],
  "numDeployments": 1,
  "solcInputHash": "007aa94c81b3bc67ae48537a63ee475f",
  "bytecode": "0x613dce61003a600b82828239805160001a60731461002d57634e487b7160e01b600052600060045260246000fd5b30600052607381538281f3fe73000000000000000000000000000000000000000030146080604052600436106101155760003560e01c8063a5416c7b116100ac578063d0b1a0051161007b578063d0b1a00514610231578063d73792a91461025e578063e42f75fa1461026a578063ec623a1e1461028a578063f94eed871461029d57600080fd5b8063a5416c7b146101ec578063b9510fc81461020e578063c20aace814610221578063d011f9181461022957600080fd5b80634ddd2918116100e85780634ddd291814610186578063576b9735146101995780637461cf1b146101b95780638ce65d8e146101cc57600080fd5b80630a1368cd1461011a57806337ac5bea146101405780633a8d10bd1461015357806345b69ab714610173575b600080fd5b61012d6101283660046137d7565b6102b0565b6040519081526020015b60405180910390f35b61012d61014e366004613654565b6103a8565b81801561015f57600080fd5b5061012d61016e3660046138a7565b61048c565b61012d61018136600461372c565b61073b565b61012d610194366004613849565b610a62565b8180156101a557600080fd5b5061012d6101b4366004613787565b610a78565b61012d6101c7366004613654565b61105e565b8180156101d857600080fd5b5061012d6101e7366004613875565b611069565b8180156101f857600080fd5b5061020c61020736600461366d565b6113cf565b005b61012d61021c366004613654565b611ad8565b61012d601281565b61012d606481565b81801561023d57600080fd5b5061025161024c3660046137f9565b611aef565b6040516101379190613a19565b61012d6402540be40081565b81801561027657600080fd5b5061012d610285366004613787565b611da2565b61012d610298366004613875565b612400565b6102516102ab3660046137d7565b61250d565b815460009082106102dc5760405162461bcd60e51b81526004016102d390613b12565b60405180910390fd5b8260030182815481106102f1576102f1613d5b565b906000526020600020015483600001838154811061031157610311613d5b565b6000918252602090912001546040516370a0823160e01b81523060048201526001600160a01b03909116906370a082319060240160206040518083038186803b15801561035d57600080fd5b505afa158015610371573d6000803e3d6000fd5b505050506040513d601f19601f8201168201806040525081019061039591906138e2565b61039f9190613cd1565b90505b92915050565b6000806103c56103b784612519565b6103c0856125c7565b6126a0565b905060008360010160009054906101000a90046001600160a01b03166001600160a01b03166318160ddd6040518163ffffffff1660e01b815260040160206040518083038186803b15801561041957600080fd5b505afa15801561042d573d6000803e3d6000fd5b505050506040513d601f19601f8201168201806040525081019061045191906138e2565b9050801561048257806104666012600a613c0a565b6104709084613cb2565b61047a9190613ba5565b949350505050565b5060009392505050565b6000808660000186815481106104a4576104a4613d5b565b60009182526020822001546001600160a01b031691506104c388612519565b90506104cf828661283c565b945060008860020188815481106104e8576104e8613d5b565b9060005260206000200154866104fe9190613cb2565b82898151811061051057610510613d5b565b60200260200101516105229190613b8d565b905060006105338a8a8a8587612952565b90506000600182858b8151811061054c5761054c613d5b565b602002602001015161055e9190613cd1565b6105689190613cd1565b905060006402540be4008c60040154836105829190613cb2565b61058c9190613ba5565b90508b6002018a815481106105a3576105a3613d5b565b906000526020600020015481836105ba9190613cd1565b6105c49190613ba5565b9150878210156105e65760405162461bcd60e51b81526004016102d390613b69565b60008c6002018b815481106105fd576105fd613d5b565b90600052602060002001546402540be4008e600501548461061e9190613cb2565b6106289190613ba5565b6106329190613ba5565b9050898d6003018d8154811061064a5761064a613d5b565b9060005260206000200160008282546106639190613b8d565b9091555061067390508184613b8d565b8d6003018c8154811061068857610688613d5b565b9060005260206000200160008282546106a19190613cd1565b925050819055506106de33848f6000018e815481106106c2576106c2613d5b565b6000918252602090912001546001600160a01b03169190612b84565b604080518d8152602081018c90529081018c90526060810184905233907fb2e76ae99761dc136e598d4a629bb347eccb9532a5f8bbd72e18467c3c34cc989060800160405180910390a25090955050505050505b95945050505050565b825482516000919081146107615760405162461bcd60e51b81526004016102d390613b3b565b600061076c866125c7565b9050600061078261077c88612519565b836126a0565b90506000876003018054806020026020016040519081016040528092919081815260200182805480156107d457602002820191906000526020600020905b8154815260200190600101908083116107c0575b5050505050905060005b8481101561088a578615610834578781815181106107fe576107fe613d5b565b602002602001015182828151811061081857610818613d5b565b6020026020010181815161082c9190613b8d565b905250610878565b87818151811061084657610846613d5b565b602002602001015182828151811061086057610860613d5b565b602002602001018181516108749190613cd1565b9052505b8061088281613d14565b9150506107de565b5060006108f26108ec838b6002018054806020026020016040519081016040528092919081815260200182805480156108e257602002820191906000526020600020905b8154815260200190600101908083116108ce575b5050505050612bec565b856126a0565b905060008960010160009054906101000a90046001600160a01b03166001600160a01b03166318160ddd6040518163ffffffff1660e01b815260040160206040518083038186803b15801561094657600080fd5b505afa15801561095a573d6000803e3d6000fd5b505050506040513d601f19601f8201168201806040525081019061097e91906138e2565b90508061099257509450610a5b9350505050565b6000886109a8576109a38386613cd1565b6109b2565b6109b28584613cd1565b9050848b60010160009054906101000a90046001600160a01b03166001600160a01b03166318160ddd6040518163ffffffff1660e01b815260040160206040518083038186803b158015610a0557600080fd5b505afa158015610a19573d6000803e3d6000fd5b505050506040513d601f19601f82011682018060405250810190610a3d91906138e2565b610a479083613cb2565b610a519190613ba5565b9750505050505050505b9392505050565b6000610a6f848484612c6f565b50949350505050565b82548251600091908114610a9e5760405162461bcd60e51b81526004016102d390613b3b565b6001850154604080516318160ddd60e01b815290516000926001600160a01b0316916318160ddd916004808301926020929190829003018186803b158015610ae557600080fd5b505afa158015610af9573d6000803e3d6000fd5b505050506040513d601f19601f82011682018060405250810190610b1d91906138e2565b905080610b5e5760405162461bcd60e51b815260206004820152600f60248201526e0746f74616c537570706c79203d203608c1b60448201526064016102d3565b6000610b6987612f63565b90506000610b76886125c7565b9050600088600301805480602002602001604051908101604052809291908181526020018280548015610bc857602002820191906000526020600020905b815481526020019060010190808311610bb4575b505050505090506000610be3610bdd8b612519565b846126a0565b905060005b86811015610c4557898181518110610c0257610c02613d5b565b6020026020010151838281518110610c1c57610c1c613d5b565b60200260200101818151610c309190613cd1565b90525080610c3d81613d14565b915050610be8565b506000610ca56108ec848d6002018054806020026020016040519081016040528092919081815260200182805480156108e257602002820191906000526020600020908154815260200190600101908083116108ce575050505050612bec565b905060008767ffffffffffffffff811115610cc257610cc2613d71565b604051908082528060200260200182016040528015610ceb578160200160208202803683370190505b50905060005b88811015610e6b576000848e6003018381548110610d1157610d11613d5b565b906000526020600020015485610d279190613cb2565b610d319190613ba5565b90506000610d58878481518110610d4a57610d4a613d5b565b602002602001015183612f98565b90506402540be400610d6a828b613cb2565b610d749190613ba5565b848481518110610d8657610d86613d5b565b6020026020010181815250506402540be4008f60050154858581518110610daf57610daf613d5b565b6020026020010151610dc19190613cb2565b610dcb9190613ba5565b878481518110610ddd57610ddd613d5b565b6020026020010151610def9190613cd1565b8f6003018481548110610e0457610e04613d5b565b9060005260206000200181905550838381518110610e2457610e24613d5b565b6020026020010151878481518110610e3e57610e3e613d5b565b60200260200101818151610e529190613cd1565b905250829150610e63905081613d14565b915050610cf1565b50610ecf610ec9858e6002018054806020026020016040519081016040528092919081815260200182805480156108e257602002820191906000526020600020908154815260200190600101908083116108ce575050505050612bec565b866126a0565b91508287610edd8483613cd1565b610ee79190613cb2565b610ef19190613ba5565b985060008911610f0357610f03613d2f565b610f0e60018a613b8d565b985089891115610f305760405162461bcd60e51b81526004016102d390613b69565b60018c015460405163079cc67960e41b8152336004820152602481018b90526001600160a01b03909116906379cc679090604401600060405180830381600087803b158015610f7e57600080fd5b505af1158015610f92573d6000803e3d6000fd5b5050505060005b88811015611007578b8181518110610fb357610fb3613d5b565b6020026020010151600014610ff557610ff5338d8381518110610fd857610fd8613d5b565b60200260200101518f60000184815481106106c2576106c2613d5b565b80610fff81613d14565b915050610f99565b50337f3631c28b1f9dd213e0319fb167b554d76b6c283a41143eb400a0d1adb1af17558c83856110378e8d613cd1565b6040516110479493929190613aa6565b60405180910390a250505050505050509392505050565b60006103a2826125c7565b6000808560010160009054906101000a90046001600160a01b03166001600160a01b03166318160ddd6040518163ffffffff1660e01b815260040160206040518083038186803b1580156110bc57600080fd5b505afa1580156110d0573d6000803e3d6000fd5b505050506040513d601f19601f820116820180604052508101906110f491906138e2565b9050600081116111385760405162461bcd60e51b815260206004820152600f60248201526e0746f74616c537570706c79203d203608c1b60448201526064016102d3565b855460018701546040516370a0823160e01b81523360048201526001600160a01b03909116906370a082319060240160206040518083038186803b15801561117f57600080fd5b505afa158015611193573d6000803e3d6000fd5b505050506040513d601f19601f820116820180604052508101906111b791906138e2565b8611156111f25760405162461bcd60e51b81526020600482015260096024820152683e2062616c616e636560b81b60448201526064016102d3565b818611156112325760405162461bcd60e51b815260206004820152600d60248201526c3e20746f74616c537570706c7960981b60448201526064016102d3565b8085106112715760405162461bcd60e51b815260206004820152600d60248201526c1d1bdad95b939bdd119bdd5b99609a1b60448201526064016102d3565b60008061127f898989612c6f565b92509050858110156112a35760405162461bcd60e51b81526004016102d390613b69565b6402540be4008960050154836112b99190613cb2565b6112c39190613ba5565b6112cd9082613b8d565b8960030188815481106112e2576112e2613d5b565b9060005260206000200160008282546112fb9190613cd1565b9091555050600189015460405163079cc67960e41b8152336004820152602481018a90526001600160a01b03909116906379cc679090604401600060405180830381600087803b15801561134e57600080fd5b505af1158015611362573d6000803e3d6000fd5b5050505061138033828b6000018a815481106106c2576106c2613d5b565b60408051888152602081018a905290810182905233907f5ad056f2e28a8cec232015406b843668c1e36cda598127ec3b8c59b8c72773a09060600160405180910390a298975050505050505050565b8454845181146113f15760405162461bcd60e51b81526004016102d390613b3b565b6001860154604080516318160ddd60e01b815290516000926001600160a01b0316916318160ddd916004808301926020929190829003018186803b15801561143857600080fd5b505afa15801561144c573d6000803e3d6000fd5b505050506040513d601f19601f8201168201806040525081019061147091906138e2565b9050600081116114ba5760405162461bcd60e51b8152602060048201526015602482015274696e73756666696369656e744c697175696469747960581b60448201526064016102d3565b5060008167ffffffffffffffff8111156114d6576114d6613d71565b6040519080825280602002602001820160405280156114ff578160200160208202803683370190505b509050600061150d88612f63565b9050600061151a896125c7565b905060006115cd61077c8b60030180548060200260200160405190810160405280929190818152602001828054801561157257602002820191906000526020600020905b81548152602001906001019080831161155e575b50505050508c6002018054806020026020016040519081016040528092919081815260200182805480156108e257602002820191906000526020600020908154815260200190600101908083116108ce575050505050612bec565b905060005b858110156117115760008a82815181106115ee576115ee613d5b565b602002602001015111156116ff578a600301818154811061161157611611613d5b565b90600052602060002001548a828151811061162e5761162e613d5b565b6020026020010151106116795760405162461bcd60e51b8152602060048201526013602482015272696e73756666696369656e7442616c616e636560681b60448201526064016102d3565b6402540be4008a828151811061169157611691613d5b565b6020026020010151856116a49190613cb2565b6116ae9190613ba5565b8582815181106116c0576116c0613d5b565b6020026020010181815250506116ff898b83815181106116e2576116e2613d5b565b60200260200101518d60000184815481106106c2576106c2613d5b565b8061170981613d14565b9150506115d2565b508515611781576040516366f9eaab60e01b81526001600160a01b038916906366f9eaab9061174e9033908e908e908a908e908e9060040161397b565b600060405180830381600087803b15801561176857600080fd5b505af115801561177c573d6000803e3d6000fd5b505050505b60008a6003018054806020026020016040519081016040528092919081815260200182805480156117d157602002820191906000526020600020905b8154815260200190600101908083116117bd575b5050505050905060005b868110156118de5760008b82815181106117f7576117f7613d5b565b602002602001015111156118cc578a818151811061181757611817613d5b565b60200260200101516118988d600001838154811061183757611837613d5b565b9060005260206000200160009054906101000a90046001600160a01b031688848151811061186757611867613d5b565b60200260200101518e858151811061188157611881613d5b565b60200260200101516118939190613b8d565b61283c565b6118a29190613cd1565b8282815181106118b4576118b4613d5b565b602002602001018181516118c89190613b8d565b9052505b806118d681613d14565b9150506117db565b50600061193e6108ec838e6002018054806020026020016040519081016040528092919081815260200182805480156108e257602002820191906000526020600020908154815260200190600101908083116108ce575050505050612bec565b905082811161194f5761194f613d2f565b6000805b88811015611a7d576119b3858f600301838154811061197457611974613d5b565b90600052602060002001548561198a9190613cb2565b6119949190613ba5565b8583815181106119a6576119a6613d5b565b6020026020010151612f98565b91506402540be4006119c58389613cb2565b6119cf9190613ba5565b8882815181106119e1576119e1613d5b565b6020026020010181815250506402540be4008e60050154898381518110611a0a57611a0a613d5b565b6020026020010151611a1c9190613cb2565b611a269190613ba5565b848281518110611a3857611a38613d5b565b6020026020010151611a4a9190613cd1565b8e6003018281548110611a5f57611a5f613d5b565b60009182526020909120015580611a7581613d14565b915050611953565b508a6001600160a01b0316336001600160a01b03167f1e659566d9cc1f93351027d53422a1ec429f52c34bc45ee462dd91e99bdd26bb8e604051611ac19190613a5d565b60405180910390a350505050505050505050505050565b60006064611ae5836125c7565b6103a29190613ba5565b606060008460010160009054906101000a90046001600160a01b03166001600160a01b03166318160ddd6040518163ffffffff1660e01b815260040160206040518083038186803b158015611b4357600080fd5b505afa158015611b57573d6000803e3d6000fd5b505050506040513d601f19601f82011682018060405250810190611b7b91906138e2565b905080841115611b8a57600080fd5b845460008167ffffffffffffffff811115611ba757611ba7613d71565b604051908082528060200260200182016040528015611bd0578160200160208202803683370190505b509050611bdd8787612fba565b935060005b8451811015611ce957858181518110611bfd57611bfd613d5b565b6020026020010151858281518110611c1757611c17613d5b565b60200260200101511015611c3d5760405162461bcd60e51b81526004016102d390613b69565b848181518110611c4f57611c4f613d5b565b6020026020010151886003018281548110611c6c57611c6c613d5b565b9060005260206000200154611c819190613cd1565b886003018281548110611c9657611c96613d5b565b9060005260206000200181905550611cd733868381518110611cba57611cba613d5b565b60200260200101518a60000184815481106106c2576106c2613d5b565b80611ce181613d14565b915050611be2565b50600187015460405163079cc67960e41b8152336004820152602481018890526001600160a01b03909116906379cc679090604401600060405180830381600087803b158015611d3857600080fd5b505af1158015611d4c573d6000803e3d6000fd5b503392507f347ad828e58cbe534d8f6b67985d791360756b18f0d95fd9f197a66cc46480ea915086905083611d818a88613cd1565b604051611d9093929190613a70565b60405180910390a25050509392505050565b82548251600091908114611dc85760405162461bcd60e51b81526004016102d390613b3b565b60008167ffffffffffffffff811115611de357611de3613d71565b604051908082528060200260200182016040528015611e0c578160200160208202803683370190505b5090506000611e1a87612f63565b905060008760010160009054906101000a90046001600160a01b03166001600160a01b03166318160ddd6040518163ffffffff1660e01b815260040160206040518083038186803b158015611e6e57600080fd5b505afa158015611e82573d6000803e3d6000fd5b505050506040513d601f19601f82011682018060405250810190611ea691906138e2565b90506000611eb3896125c7565b905060008215611f6d57611f6a61077c8b600301805480602002602001604051908101604052809291908181526020018280548015611572576020028201919060005260206000209081548152602001906001019080831161155e5750505050508c6002018054806020026020016040519081016040528092919081815260200182805480156108e257602002820191906000526020600020908154815260200190600101908083116108ce575050505050612bec565b90505b60008a600301805480602002602001604051908101604052809291908181526020018280548015611fbd57602002820191906000526020600020905b815481526020019060010190808311611fa9575b5050505050905060005b878110156120f0578461203d5760008b8281518110611fe857611fe8613d5b565b60200260200101511161203d5760405162461bcd60e51b815260206004820152601e60248201527f696e697469616c4465706f73697452657175697265416c6c546f6b656e73000060448201526064016102d3565b60008b828151811061205157612051613d5b565b602002602001015111156120de576120b48c600001828154811061207757612077613d5b565b9060005260206000200160009054906101000a90046001600160a01b03168c83815181106120a7576120a7613d5b565b602002602001015161283c565b8282815181106120c6576120c6613d5b565b602002602001018181516120da9190613b8d565b9052505b806120e881613d14565b915050611fc7565b5060006121506108ec838e6002018054806020026020016040519081016040528092919081815260200182805480156108e257602002820191906000526020600020908154815260200190600101908083116108ce575050505050612bec565b905082811161216157612161613d2f565b8461218457815161217b9060038e01906020850190613536565b5080985061233b565b6000805b898110156122b8576121a9858f600301838154811061197457611974613d5b565b91506402540be4006121bb838a613cb2565b6121c59190613ba5565b8982815181106121d7576121d7613d5b565b6020026020010181815250506402540be4008e600501548a838151811061220057612200613d5b565b60200260200101516122129190613cb2565b61221c9190613ba5565b84828151811061222e5761222e613d5b565b60200260200101516122409190613cd1565b8e600301828154811061225557612255613d5b565b906000526020600020018190555088818151811061227557612275613d5b565b602002602001015184828151811061228f5761228f613d5b565b602002602001018181516122a39190613cd1565b905250806122b081613d14565b915050612188565b50612316610ec9848f6002018054806020026020016040519081016040528092919081815260200182805480156108e257602002820191906000526020600020908154815260200190600101908083116108ce575050505050612bec565b9150836123238184613cd1565b61232d9088613cb2565b6123379190613ba5565b9950505b8989101561235b5760405162461bcd60e51b81526004016102d390613b69565b60018c01546040516340c10f1960e01b8152336004820152602481018b90526001600160a01b03909116906340c10f1990604401600060405180830381600087803b1580156123a957600080fd5b505af11580156123bd573d6000803e3d6000fd5b50505050336001600160a01b03167f189c623b666b1b45b83d7178f39b8c087cb09774317ca2f53c2d3c3726f222a28c89848d6040516110479493929190613aa6565b60008061240c86612519565b9050600086600201868154811061242557612425613d5b565b90600052602060002001548461243b9190613cb2565b82878151811061244d5761244d613d5b565b602002602001015161245f9190613b8d565b905060006124708888888587612952565b9050600088600201878154811061248957612489613d5b565b9060005260206000200154600183868a815181106124a9576124a9613d5b565b60200260200101516124bb9190613cd1565b6124c59190613cd1565b6124cf9190613ba5565b905060006402540be400828b600401546124e99190613cb2565b6124f39190613ba5565b90506124ff8183613cd1565b9a9950505050505050505050565b606061039f8383612fba565b60606103a28260030180548060200260200160405190810160405280929190818152602001828054801561256c57602002820191906000526020600020905b815481526020019060010190808311612558575b5050505050836002018054806020026020016040519081016040528092919081815260200182805480156108e257602002820191906000526020600020908154815260200190600101908083116108ce575050505050612bec565b6000816009015442106125dc57506007015490565b81600601548260070154111561264657816008015482600901546126009190613cd1565b600883015461260f9042613cd1565b836006015484600701546126239190613cd1565b61262d9190613cb2565b6126379190613ba5565b82600601546103a29190613b8d565b8160080154826009015461265a9190613cd1565b60088301546126699042613cd1565b8360070154846006015461267d9190613cd1565b6126879190613cb2565b6126919190613ba5565b82600601546103a29190613cd1565b8151600090816126af85613152565b9050806126c1576000925050506103a2565b600081816126cf8588613cb2565b905060005b6101008110156127f3578260005b8a5181101561273857878b82815181106126fe576126fe613d5b565b60200260200101516127109190613cb2565b61271a8684613cb2565b6127249190613ba5565b91508061273081613d14565b9150506126e2565b508394508087600161274a9190613b8d565b6127549190613cb2565b6064856127618287613cd1565b61276b9190613cb2565b6127759190613ba5565b61277f9190613b8d565b8461278a8984613cb2565b60646127968a88613cb2565b6127a09190613ba5565b6127aa9190613b8d565b6127b49190613cb2565b6127be9190613ba5565b935060016127cc8587612f98565b116127e057839750505050505050506103a2565b50806127eb81613d14565b9150506126d4565b5060405162461bcd60e51b815260206004820152601a60248201527f696e76617269616e7443616c63756c6174696f6e4661696c656400000000000060448201526064016102d3565b6040516370a0823160e01b815230600482015260009081906001600160a01b038516906370a082319060240160206040518083038186803b15801561288057600080fd5b505afa158015612894573d6000803e3d6000fd5b505050506040513d601f19601f820116820180604052508101906128b891906138e2565b90506128cf6001600160a01b03851633308661319e565b6040516370a0823160e01b815230600482015281906001600160a01b038616906370a082319060240160206040518083038186803b15801561291057600080fd5b505afa158015612924573d6000803e3d6000fd5b505050506040513d601f19601f8201168201806040525081019061294891906138e2565b61047a9190613cd1565b6000838514156129905760405162461bcd60e51b815260206004820152600960248201526839b0b6b2aa37b5b2b760b91b60448201526064016102d3565b855480861080156129a057508085105b6129bc5760405162461bcd60e51b81526004016102d390613b12565b60006129c7886125c7565b905060006129d58383613cb2565b905060006129e386846126a0565b9050600081815b86811015612a6b578a8114156129ff57612a59565b60008c8214612a2757898281518110612a1a57612a1a613d5b565b6020026020010151612a29565b8a5b9050612a358185613b8d565b9350612a418882613cb2565b612a4b8685613cb2565b612a559190613ba5565b9250505b80612a6381613d14565b9150506129ea565b50612a768685613cb2565b6064612a828584613cb2565b612a8c9190613cb2565b612a969190613ba5565b9050600084612aa6606486613cb2565b612ab09190613ba5565b612aba9084613b8d565b9050600084815b610100811015612b46578192508684836002612add9190613cb2565b612ae79190613b8d565b612af19190613cd1565b85612afc8480613cb2565b612b069190613b8d565b612b109190613ba5565b91506001612b1e8484612f98565b11612b3457509850610732975050505050505050565b80612b3e81613d14565b915050612ac1565b5060405162461bcd60e51b81526020600482015260126024820152711e50d85b18dd5b185d1a5bdb91985a5b195960721b60448201526064016102d3565b6040516001600160a01b038316602482015260448101829052612be790849063a9059cbb60e01b906064015b60408051601f198184030181529190526020810180516001600160e01b03166001600160e01b0319909316929092179091526131dc565b505050565b606060005b8351811015612c6757838181518110612c0c57612c0c613d5b565b6020026020010151838281518110612c2657612c26613d5b565b6020026020010151612c389190613cb2565b838281518110612c4a57612c4a613d5b565b602090810291909101015280612c5f81613d14565b915050612bf1565b509092915050565b825460009081908310612c945760405162461bcd60e51b81526004016102d390613b12565b6000612c9f866125c7565b90506000612cac87612519565b90506000612cba82846126a0565b905060008860010160009054906101000a90046001600160a01b03166001600160a01b03166318160ddd6040518163ffffffff1660e01b815260040160206040518083038186803b158015612d0e57600080fd5b505afa158015612d22573d6000803e3d6000fd5b505050506040513d601f19601f82011682018060405250810190612d4691906138e2565b612d50838a613cb2565b612d5a9190613ba5565b612d649083613cd1565b90506000612d758a868a87866132ae565b9050836000612d838c612f63565b905060005b8c54811015612e8b5760008b821415612ddd578487878a8581518110612db057612db0613d5b565b6020026020010151612dc29190613cb2565b612dcc9190613ba5565b612dd69190613cd1565b9050612e34565b8686898481518110612df157612df1613d5b565b6020026020010151612e039190613cb2565b612e0d9190613ba5565b888381518110612e1f57612e1f613d5b565b6020026020010151612e319190613cd1565b90505b6402540be400612e448285613cb2565b612e4e9190613ba5565b848381518110612e6057612e60613d5b565b60200260200101818151612e749190613cd1565b905250819050612e8381613d14565b915050612d88565b50612e998c888c85886132ae565b828b81518110612eab57612eab613d5b565b6020026020010151612ebd9190613cd1565b98508b6002018a81548110612ed457612ed4613d5b565b906000526020600020015460018a612eec9190613cd1565b612ef69190613ba5565b9850888c6002018b81548110612f0e57612f0e613d5b565b906000526020600020015484888d81518110612f2c57612f2c613d5b565b6020026020010151612f3e9190613cd1565b612f489190613ba5565b612f529190613cd1565b975050505050505050935093915050565b8054600090612f73600182613cd1565b612f7e906004613cb2565b818460040154612f8e9190613cb2565b610a5b9190613ba5565b6000818311612fb057612fab8383613cd1565b61039f565b61039f8284613cd1565b606060008360010160009054906101000a90046001600160a01b03166001600160a01b03166318160ddd6040518163ffffffff1660e01b815260040160206040518083038186803b15801561300e57600080fd5b505afa158015613022573d6000803e3d6000fd5b505050506040513d601f19601f8201168201806040525081019061304691906138e2565b9050808311156130985760405162461bcd60e51b815260206004820152601a60248201527f43616e6e6f742065786365656420746f74616c20737570706c7900000000000060448201526064016102d3565b835460009067ffffffffffffffff8111156130b5576130b5613d71565b6040519080825280602002602001820160405280156130de578160200160208202803683370190505b50905060005b8554811015610a6f57828587600301838154811061310457613104613d5b565b90600052602060002001546131199190613cb2565b6131239190613ba5565b82828151811061313557613135613d5b565b60209081029190910101528061314a81613d14565b9150506130e4565b6000805b82518110156131985782818151811061317157613171613d5b565b6020026020010151826131849190613b8d565b91508061319081613d14565b915050613156565b50919050565b6040516001600160a01b03808516602483015283166044820152606481018290526131d69085906323b872dd60e01b90608401612bb0565b50505050565b6000613231826040518060400160405280602081526020017f5361666545524332303a206c6f772d6c6576656c2063616c6c206661696c6564815250856001600160a01b03166134229092919063ffffffff16565b805190915015612be7578080602001905181019061324f9190613637565b612be75760405162461bcd60e51b815260206004820152602a60248201527f5361666545524332303a204552433230206f7065726174696f6e20646964206e6044820152691bdd081cdd58d8d9595960b21b60648201526084016102d3565b84546000908085106132c2576132c2613d2f565b60006132ce8288613cb2565b90508360008080805b86811015613349578a8114156132ec57613337565b8981815181106132fe576132fe613d5b565b6020026020010151925082846133149190613b8d565b93506133208784613cb2565b61332a8a87613cb2565b6133349190613ba5565b94505b8061334181613d14565b9150506132d7565b506133548686613cb2565b60646133608a87613cb2565b61336a9190613cb2565b6133749190613ba5565b935060008561338460648b613cb2565b61338e9190613ba5565b6133989085613b8d565b90508860005b6101008110156127f3578193508a838360026133ba9190613cb2565b6133c49190613b8d565b6133ce9190613cd1565b876133d98480613cb2565b6133e39190613b8d565b6133ed9190613ba5565b915060016133fb8584612f98565b11613410575097506107329650505050505050565b8061341a81613d14565b91505061339e565b606061047a8484600085856001600160a01b0385163b6134845760405162461bcd60e51b815260206004820152601d60248201527f416464726573733a2063616c6c20746f206e6f6e2d636f6e747261637400000060448201526064016102d3565b600080866001600160a01b031685876040516134a0919061395f565b60006040518083038185875af1925050503d80600081146134dd576040519150601f19603f3d011682016040523d82523d6000602084013e6134e2565b606091505b50915091506134f28282866134fd565b979650505050505050565b6060831561350c575081610a5b565b82511561351c5782518084602001fd5b8160405162461bcd60e51b81526004016102d39190613adf565b828054828255906000526020600020908101928215613571579160200282015b82811115613571578251825591602001919060010190613556565b5061357d929150613581565b5090565b5b8082111561357d5760008155600101613582565b600082601f8301126135a757600080fd5b8135602067ffffffffffffffff808311156135c4576135c4613d71565b8260051b604051601f19603f830116810181811084821117156135e9576135e9613d71565b6040528481528381019250868401828801850189101561360857600080fd5b600092505b8583101561362b57803584529284019260019290920191840161360d565b50979650505050505050565b60006020828403121561364957600080fd5b8151610a5b81613d87565b60006020828403121561366657600080fd5b5035919050565b60008060008060006080868803121561368557600080fd5b85359450602086013567ffffffffffffffff808211156136a457600080fd5b6136b089838a01613596565b9550604088013591506001600160a01b03821682146136ce57600080fd5b909350606087013590808211156136e457600080fd5b818801915088601f8301126136f857600080fd5b81358181111561370757600080fd5b89602082850101111561371957600080fd5b9699959850939650602001949392505050565b60008060006060848603121561374157600080fd5b83359250602084013567ffffffffffffffff81111561375f57600080fd5b61376b86828701613596565b925050604084013561377c81613d87565b809150509250925092565b60008060006060848603121561379c57600080fd5b83359250602084013567ffffffffffffffff8111156137ba57600080fd5b6137c686828701613596565b925050604084013590509250925092565b600080604083850312156137ea57600080fd5b50508035926020909101359150565b60008060006060848603121561380e57600080fd5b8335925060208401359150604084013567ffffffffffffffff81111561383357600080fd5b61383f86828701613596565b9150509250925092565b60008060006060848603121561385e57600080fd5b505081359360208301359350604090920135919050565b6000806000806080858703121561388b57600080fd5b5050823594602084013594506040840135936060013592509050565b600080600080600060a086880312156138bf57600080fd5b505083359560208501359550604085013594606081013594506080013592509050565b6000602082840312156138f457600080fd5b5051919050565b600081518084526020808501945080840160005b8381101561392b5781518752958201959082019060010161390f565b509495945050505050565b81835281816020850137506000828201602090810191909152601f909101601f19169091010190565b60008251613971818460208701613ce8565b9190910192915050565b600060a0820160018060a01b03808a168452602060a081860152828a5480855260c0870191508b60005282600020945060005b818110156139cc5785548516835260019586019592840192016139ae565b505085810360408701526139e0818b6138fb565b935050505082810360608401526139f781876138fb565b90508281036080840152613a0c818587613936565b9998505050505050505050565b6020808252825182820181905260009190848201906040850190845b81811015613a5157835183529284019291840191600101613a35565b50909695505050505050565b60208152600061039f60208301846138fb565b606081526000613a8360608301866138fb565b8281036020840152613a9581866138fb565b915050826040830152949350505050565b608081526000613ab960808301876138fb565b8281036020840152613acb81876138fb565b604084019590955250506060015292915050565b6020815260008251806020840152613afe816040850160208701613ce8565b601f01601f19169190910160400192915050565b6020808252600f908201526e696e6465784f75744f6652616e676560881b604082015260600190565b6020808252601490820152730d2dcecc2d8d2c882dadeeadce8e698cadccee8d60631b604082015260600190565b6020808252600a90820152693e20736c69707061676560b01b604082015260600190565b60008219821115613ba057613ba0613d45565b500190565b600082613bc257634e487b7160e01b600052601260045260246000fd5b500490565b600181815b80851115613c02578160001904821115613be857613be8613d45565b80851615613bf557918102915b93841c9390800290613bcc565b509250929050565b600061039f8383600082613c20575060016103a2565b81613c2d575060006103a2565b8160018114613c435760028114613c4d57613c69565b60019150506103a2565b60ff841115613c5e57613c5e613d45565b50506001821b6103a2565b5060208310610133831016604e8410600b8410161715613c8c575081810a6103a2565b613c968383613bc7565b8060001904821115613caa57613caa613d45565b029392505050565b6000816000190483118215151615613ccc57613ccc613d45565b500290565b600082821015613ce357613ce3613d45565b500390565b60005b83811015613d03578181015183820152602001613ceb565b838111156131d65750506000910152565b6000600019821415613d2857613d28613d45565b5060010190565b634e487b7160e01b600052600160045260246000fd5b634e487b7160e01b600052601160045260246000fd5b634e487b7160e01b600052603260045260246000fd5b634e487b7160e01b600052604160045260246000fd5b8015158114613d9557600080fd5b5056fea26469706673582212209b1e52aec30bf63ef74679141e8adade544a71d45a0a5eef2c9fbbfe4cdc77c464736f6c63430008070033",
  "devdoc": {
    "kind": "dev",
    "methods": {
      "addLiquidity(StableSwapStorage.SwapStorage storage,uint256[],uint256)": {
        "params": {
          "amounts": "List of amounts of coins to deposit",
          "minMintAmount": "Minimum amount of LP tokens to mint from the deposit"
        },
        "returns": {
          "mintAmount": "Amount of LP tokens received by depositing"
        }
      }
    },
    "stateVariables": {
      "A_PRECISION": {
        "details": "protect from division loss when run approximation loop. We cannot divide at the end because of overflow, so we add some (small) PRECISION when divide in each iteration"
      },
      "MAX_ITERATION": {
        "details": "max iteration of converge calculate"
      }
    },
    "version": 1
  },
  "userdoc": {
    "kind": "user",
    "methods": {
      "addLiquidity(StableSwapStorage.SwapStorage storage,uint256[],uint256)": {
        "notice": "Deposit coins into the pool"
      },
      "calculateTokenAmount(StableSwapStorage.SwapStorage storage,uint256[],bool)": {
        "notice": "Estimate amount of LP token minted or burned at deposit or withdrawal without taking fees into account"
      },
      "getAPrecise(StableSwapStorage.SwapStorage storage)": {
        "notice": "VIEW FUNCTIONS"
      },
      "getVirtualPrice(StableSwapStorage.SwapStorage storage)": {
        "notice": "Returns portfolio virtual price (for calculating profit) scaled up by 1e18"
      }
    },
    "notice": "StableSwap main algorithm",
    "version": 1
  },
  "storageLayout": {
    "storage": [],
    "types": null
  }
}