{
  "address": "0x17D5AfeC3C4D2484CCAD927a45F16344B389cEbA",
  "abi": [
    {
      "inputs": [
        {
          "internalType": "contract IStableSwap",
          "name": "pool",
          "type": "address"
        },
        {
          "internalType": "contract IStableSwap",
          "name": "basePool",
          "type": "address"
        },
        {
          "internalType": "uint256[]",
          "name": "meta_amounts",
          "type": "uint256[]"
        },
        {
          "internalType": "uint256[]",
          "name": "base_amounts",
          "type": "uint256[]"
        },
        {
          "internalType": "uint256",
          "name": "minToMint",
          "type": "uint256"
        },
        {
          "internalType": "address",
          "name": "to",
          "type": "address"
        },
        {
          "internalType": "uint256",
          "name": "deadline",
          "type": "uint256"
        }
      ],
      "name": "addPoolAndBaseLiquidity",
      "outputs": [
        {
          "internalType": "uint256",
          "name": "",
          "type": "uint256"
        }
      ],
      "stateMutability": "nonpayable",
      "type": "function"
    },
    {
      "inputs": [
        {
          "internalType": "contract IStableSwap",
          "name": "pool",
          "type": "address"
        },
        {
          "internalType": "uint256[]",
          "name": "amounts",
          "type": "uint256[]"
        },
        {
          "internalType": "uint256",
          "name": "minMintAmount",
          "type": "uint256"
        },
        {
          "internalType": "address",
          "name": "to",
          "type": "address"
        },
        {
          "internalType": "uint256",
          "name": "deadline",
          "type": "uint256"
        }
      ],
      "name": "addPoolLiquidity",
      "outputs": [
        {
          "internalType": "uint256",
          "name": "",
          "type": "uint256"
        }
      ],
      "stateMutability": "nonpayable",
      "type": "function"
    },
    {
      "inputs": [
        {
          "internalType": "contract IStableSwap",
          "name": "fromPool",
          "type": "address"
        },
        {
          "internalType": "contract IStableSwap",
          "name": "toPool",
          "type": "address"
        },
        {
          "internalType": "uint256",
          "name": "amount",
          "type": "uint256"
        }
      ],
      "name": "calculateConvert",
      "outputs": [
        {
          "internalType": "uint256",
          "name": "",
          "type": "uint256"
        }
      ],
      "stateMutability": "view",
      "type": "function"
    },
    {
      "inputs": [
        {
          "internalType": "contract IStableSwap",
          "name": "pool",
          "type": "address"
        },
        {
          "internalType": "contract IStableSwap",
          "name": "basePool",
          "type": "address"
        },
        {
          "internalType": "uint256",
          "name": "_token_amount",
          "type": "uint256"
        },
        {
          "internalType": "uint8",
          "name": "iBase",
          "type": "uint8"
        }
      ],
      "name": "calculateRemoveBaseLiquidityOneToken",
      "outputs": [
        {
          "internalType": "uint256",
          "name": "availableTokenAmount",
          "type": "uint256"
        }
      ],
      "stateMutability": "view",
      "type": "function"
    },
    {
      "inputs": [
        {
          "internalType": "contract IStableSwap",
          "name": "pool",
          "type": "address"
        },
        {
          "internalType": "contract IStableSwap",
          "name": "basePool",
          "type": "address"
        },
        {
          "internalType": "uint256",
          "name": "amount",
          "type": "uint256"
        }
      ],
      "name": "calculateRemoveLiquidity",
      "outputs": [
        {
          "internalType": "uint256[]",
          "name": "meta_amounts",
          "type": "uint256[]"
        },
        {
          "internalType": "uint256[]",
          "name": "base_amounts",
          "type": "uint256[]"
        }
      ],
      "stateMutability": "view",
      "type": "function"
    },
    {
      "inputs": [
        {
          "internalType": "contract IStableSwap",
          "name": "pool",
          "type": "address"
        },
        {
          "internalType": "uint8",
          "name": "fromIndex",
          "type": "uint8"
        },
        {
          "internalType": "uint8",
          "name": "toIndex",
          "type": "uint8"
        },
        {
          "internalType": "uint256",
          "name": "inAmount",
          "type": "uint256"
        }
      ],
      "name": "calculateSwap",
      "outputs": [
        {
          "internalType": "uint256",
          "name": "",
          "type": "uint256"
        }
      ],
      "stateMutability": "view",
      "type": "function"
    },
    {
      "inputs": [
        {
          "internalType": "contract IStableSwap",
          "name": "pool",
          "type": "address"
        },
        {
          "internalType": "contract IStableSwap",
          "name": "basePool",
          "type": "address"
        },
        {
          "internalType": "uint8",
          "name": "tokenIndexFrom",
          "type": "uint8"
        },
        {
          "internalType": "uint8",
          "name": "tokenIndexTo",
          "type": "uint8"
        },
        {
          "internalType": "uint256",
          "name": "dx",
          "type": "uint256"
        }
      ],
      "name": "calculateSwapFromBase",
      "outputs": [
        {
          "internalType": "uint256",
          "name": "",
          "type": "uint256"
        }
      ],
      "stateMutability": "view",
      "type": "function"
    },
    {
      "inputs": [
        {
          "internalType": "contract IStableSwap",
          "name": "pool",
          "type": "address"
        },
        {
          "internalType": "contract IStableSwap",
          "name": "basePool",
          "type": "address"
        },
        {
          "internalType": "uint8",
          "name": "tokenIndexFrom",
          "type": "uint8"
        },
        {
          "internalType": "uint8",
          "name": "tokenIndexTo",
          "type": "uint8"
        },
        {
          "internalType": "uint256",
          "name": "dx",
          "type": "uint256"
        }
      ],
      "name": "calculateSwapToBase",
      "outputs": [
        {
          "internalType": "uint256",
          "name": "",
          "type": "uint256"
        }
      ],
      "stateMutability": "view",
      "type": "function"
    },
    {
      "inputs": [
        {
          "internalType": "contract IStableSwap",
          "name": "pool",
          "type": "address"
        },
        {
          "internalType": "contract IStableSwap",
          "name": "basePool",
          "type": "address"
        },
        {
          "internalType": "uint256[]",
          "name": "meta_amounts",
          "type": "uint256[]"
        },
        {
          "internalType": "uint256[]",
          "name": "base_amounts",
          "type": "uint256[]"
        },
        {
          "internalType": "bool",
          "name": "is_deposit",
          "type": "bool"
        }
      ],
      "name": "calculateTokenAmount",
      "outputs": [
        {
          "internalType": "uint256",
          "name": "",
          "type": "uint256"
        }
      ],
      "stateMutability": "view",
      "type": "function"
    },
    {
      "inputs": [
        {
          "internalType": "contract IStableSwap",
          "name": "fromPool",
          "type": "address"
        },
        {
          "internalType": "contract IStableSwap",
          "name": "toPool",
          "type": "address"
        },
        {
          "internalType": "uint256",
          "name": "amount",
          "type": "uint256"
        },
        {
          "internalType": "uint256",
          "name": "minToMint",
          "type": "uint256"
        },
        {
          "internalType": "address",
          "name": "to",
          "type": "address"
        },
        {
          "internalType": "uint256",
          "name": "deadline",
          "type": "uint256"
        }
      ],
      "name": "convert",
      "outputs": [
        {
          "internalType": "uint256",
          "name": "",
          "type": "uint256"
        }
      ],
      "stateMutability": "nonpayable",
      "type": "function"
    },
    {
      "inputs": [
        {
          "internalType": "contract IStableSwap",
          "name": "pool",
          "type": "address"
        },
        {
          "internalType": "contract IStableSwap",
          "name": "basePool",
          "type": "address"
        },
        {
          "internalType": "uint256",
          "name": "_amount",
          "type": "uint256"
        },
        {
          "internalType": "uint256[]",
          "name": "min_amounts_meta",
          "type": "uint256[]"
        },
        {
          "internalType": "uint256[]",
          "name": "min_amounts_base",
          "type": "uint256[]"
        },
        {
          "internalType": "address",
          "name": "to",
          "type": "address"
        },
        {
          "internalType": "uint256",
          "name": "deadline",
          "type": "uint256"
        }
      ],
      "name": "removePoolAndBaseLiquidity",
      "outputs": [
        {
          "internalType": "uint256[]",
          "name": "amounts",
          "type": "uint256[]"
        },
        {
          "internalType": "uint256[]",
          "name": "base_amounts",
          "type": "uint256[]"
        }
      ],
      "stateMutability": "nonpayable",
      "type": "function"
    },
    {
      "inputs": [
        {
          "internalType": "contract IStableSwap",
          "name": "pool",
          "type": "address"
        },
        {
          "internalType": "contract IStableSwap",
          "name": "basePool",
          "type": "address"
        },
        {
          "internalType": "uint256",
          "name": "_token_amount",
          "type": "uint256"
        },
        {
          "internalType": "uint8",
          "name": "i",
          "type": "uint8"
        },
        {
          "internalType": "uint256",
          "name": "_min_amount",
          "type": "uint256"
        },
        {
          "internalType": "address",
          "name": "to",
          "type": "address"
        },
        {
          "internalType": "uint256",
          "name": "deadline",
          "type": "uint256"
        }
      ],
      "name": "removePoolAndBaseLiquidityOneToken",
      "outputs": [
        {
          "internalType": "uint256",
          "name": "",
          "type": "uint256"
        }
      ],
      "stateMutability": "nonpayable",
      "type": "function"
    },
    {
      "inputs": [
        {
          "internalType": "contract IStableSwap",
          "name": "pool",
          "type": "address"
        },
        {
          "internalType": "uint256",
          "name": "lpAmount",
          "type": "uint256"
        },
        {
          "internalType": "uint256[]",
          "name": "minAmounts",
          "type": "uint256[]"
        },
        {
          "internalType": "address",
          "name": "to",
          "type": "address"
        },
        {
          "internalType": "uint256",
          "name": "deadline",
          "type": "uint256"
        }
      ],
      "name": "removePoolLiquidity",
      "outputs": [
        {
          "internalType": "uint256[]",
          "name": "amounts",
          "type": "uint256[]"
        }
      ],
      "stateMutability": "nonpayable",
      "type": "function"
    },
    {
      "inputs": [
        {
          "internalType": "contract IStableSwap",
          "name": "pool",
          "type": "address"
        },
        {
          "internalType": "uint256",
          "name": "lpAmount",
          "type": "uint256"
        },
        {
          "internalType": "uint8",
          "name": "index",
          "type": "uint8"
        },
        {
          "internalType": "uint256",
          "name": "minAmount",
          "type": "uint256"
        },
        {
          "internalType": "address",
          "name": "to",
          "type": "address"
        },
        {
          "internalType": "uint256",
          "name": "deadline",
          "type": "uint256"
        }
      ],
      "name": "removePoolLiquidityOneToken",
      "outputs": [
        {
          "internalType": "uint256",
          "name": "",
          "type": "uint256"
        }
      ],
      "stateMutability": "nonpayable",
      "type": "function"
    },
    {
      "inputs": [
        {
          "internalType": "contract IStableSwap",
          "name": "pool",
          "type": "address"
        },
        {
          "internalType": "uint8",
          "name": "fromIndex",
          "type": "uint8"
        },
        {
          "internalType": "uint8",
          "name": "toIndex",
          "type": "uint8"
        },
        {
          "internalType": "uint256",
          "name": "inAmount",
          "type": "uint256"
        },
        {
          "internalType": "uint256",
          "name": "minOutAmount",
          "type": "uint256"
        },
        {
          "internalType": "address",
          "name": "to",
          "type": "address"
        },
        {
          "internalType": "uint256",
          "name": "deadline",
          "type": "uint256"
        }
      ],
      "name": "swapPool",
      "outputs": [
        {
          "internalType": "uint256",
          "name": "",
          "type": "uint256"
        }
      ],
      "stateMutability": "nonpayable",
      "type": "function"
    },
    {
      "inputs": [
        {
          "internalType": "contract IStableSwap",
          "name": "pool",
          "type": "address"
        },
        {
          "internalType": "contract IStableSwap",
          "name": "basePool",
          "type": "address"
        },
        {
          "internalType": "uint8",
          "name": "tokenIndexFrom",
          "type": "uint8"
        },
        {
          "internalType": "uint8",
          "name": "tokenIndexTo",
          "type": "uint8"
        },
        {
          "internalType": "uint256",
          "name": "dx",
          "type": "uint256"
        },
        {
          "internalType": "uint256",
          "name": "minDy",
          "type": "uint256"
        },
        {
          "internalType": "address",
          "name": "to",
          "type": "address"
        },
        {
          "internalType": "uint256",
          "name": "deadline",
          "type": "uint256"
        }
      ],
      "name": "swapPoolFromBase",
      "outputs": [
        {
          "internalType": "uint256",
          "name": "",
          "type": "uint256"
        }
      ],
      "stateMutability": "nonpayable",
      "type": "function"
    },
    {
      "inputs": [
        {
          "internalType": "contract IStableSwap",
          "name": "pool",
          "type": "address"
        },
        {
          "internalType": "contract IStableSwap",
          "name": "basePool",
          "type": "address"
        },
        {
          "internalType": "uint8",
          "name": "tokenIndexFrom",
          "type": "uint8"
        },
        {
          "internalType": "uint8",
          "name": "tokenIndexTo",
          "type": "uint8"
        },
        {
          "internalType": "uint256",
          "name": "dx",
          "type": "uint256"
        },
        {
          "internalType": "uint256",
          "name": "minDy",
          "type": "uint256"
        },
        {
          "internalType": "address",
          "name": "to",
          "type": "address"
        },
        {
          "internalType": "uint256",
          "name": "deadline",
          "type": "uint256"
        }
      ],
      "name": "swapPoolToBase",
      "outputs": [
        {
          "internalType": "uint256",
          "name": "",
          "type": "uint256"
        }
      ],
      "stateMutability": "nonpayable",
      "type": "function"
    }
  ],
  "transactionHash": "0xa57d06c54504a51919155f6ae21275255318a91387c983e418ec62e83ad2ad14",
  "args": [],
  "numDeployments": 1,
  "solcInputHash": "007aa94c81b3bc67ae48537a63ee475f",
  "bytecode": "0x608060405234801561001057600080fd5b506150f3806100206000396000f3fe608060405234801561001057600080fd5b506004361061010b5760003560e01c8063643abb86116100a2578063b404d95911610071578063b404d95914610222578063b56527bd14610235578063b61f8d0514610248578063d3f051351461025b578063d74fff4e1461026e57600080fd5b8063643abb86146101d657806377269e29146101e9578063798af720146101fc5780638a311c571461020f57600080fd5b8063357b32f0116100de578063357b32f01461017d5780634d7602441461019057806354681c41146101b057806357c9ee3e146101c357600080fd5b806304b70f0a1461011057806305023d2c146101365780630c8b2216146101495780633214b8c91461016a575b600080fd5b61012361011e3660046148ad565b610281565b6040519081526020015b60405180910390f35b61012361014436600461479d565b610a5c565b61015c61015736600461495d565b610d13565b60405161012d929190614e60565b610123610178366004614b76565b610f55565b61012361018b366004614d5c565b611173565b6101a361019e366004614c57565b6113d3565b60405161012d9190614e4d565b6101236101be366004614abf565b6117c0565b6101236101d1366004614a58565b6119ca565b6101236101e436600461495d565b61210f565b6101236101f7366004614810565b612438565b61012361020a366004614d0b565b612625565b61012361021d366004614b76565b6126b1565b61015c61023036600461499e565b6129a3565b610123610243366004614bc9565b6131b8565b610123610256366004614cb9565b61369b565b610123610269366004614b12565b6138db565b61012361027c366004614bc9565b613d31565b600080886001600160a01b0316638214f5a46040518163ffffffff1660e01b815260040160206040518083038186803b1580156102bd57600080fd5b505afa1580156102d1573d6000803e3d6000fd5b505050506040513d601f19601f820116820180604052508101906102f59190614780565b90506000886001600160a01b0316638214f5a46040518163ffffffff1660e01b815260040160206040518083038186803b15801561033257600080fd5b505afa158015610346573d6000803e3d6000fd5b505050506040513d601f19601f8201168201806040525081019061036a9190614780565b9050886001600160a01b031663efeecb516040518163ffffffff1660e01b815260040160206040518083038186803b1580156103a557600080fd5b505afa1580156103b9573d6000803e3d6000fd5b505050506040513d601f19601f820116820180604052508101906103dd9190614dc0565b8751146104315760405162461bcd60e51b815260206004820152601860248201527f696e76616c696442617365416d6f756e74734c656e677468000000000000000060448201526064015b60405180910390fd5b896001600160a01b031663efeecb516040518163ffffffff1660e01b815260040160206040518083038186803b15801561046a57600080fd5b505afa15801561047e573d6000803e3d6000fd5b505050506040513d601f19601f820116820180604052508101906104a29190614dc0565b8851146104f15760405162461bcd60e51b815260206004820152601860248201527f696e76616c69644d657461416d6f756e74734c656e67746800000000000000006044820152606401610428565b6000805b88518160ff161015610608576000898260ff16815181106105185761051861505c565b6020026020010151905060008111156105f55760405162415c3360e91b815260ff83166004820152600193506000906001600160a01b038e16906382b866009060240160206040518083038186803b15801561057357600080fd5b505afa158015610587573d6000803e3d6000fd5b505050506040513d601f19601f820116820180604052508101906105ab9190614780565b905060006105ba82338561413f565b90506105d06001600160a01b0383168f83614255565b808c8560ff16815181106105e6576105e661505c565b60200260200101818152505050505b508061060081615026565b9150506104f5565b506000811561069757604051634d49e87d60e01b81526001600160a01b038c1690634d49e87d90610642908c906000908b90600401614ea9565b602060405180830381600087803b15801561065c57600080fd5b505af1158015610670573d6000803e3d6000fd5b505050506040513d601f19601f820116820180604052508101906106949190614dc0565b90505b60005b8a518160ff1610156107f05760405162415c3360e91b815260ff821660048201526000906001600160a01b038f16906382b866009060240160206040518083038186803b1580156106ea57600080fd5b505afa1580156106fe573d6000803e3d6000fd5b505050506040513d601f19601f820116820180604052508101906107229190614780565b90506000856001600160a01b0316826001600160a01b03161415610747575082610796565b60008d8460ff168151811061075e5761075e61505c565b602002602001015111156107965761079382338f8660ff16815181106107865761078661505c565b602002602001015161413f565b90505b808d8460ff16815181106107ac576107ac61505c565b602090810291909101015280156107db576107db8f82846001600160a01b03166142559092919063ffffffff16565b505080806107e890615026565b91505061069a565b506040516370a0823160e01b81523060048201526000906001600160a01b038516906370a082319060240160206040518083038186803b15801561083357600080fd5b505afa158015610847573d6000803e3d6000fd5b505050506040513d601f19601f8201168201806040525081019061086b9190614dc0565b604051634d49e87d60e01b81529091506001600160a01b038e1690634d49e87d9061089e908e908d908c90600401614ea9565b602060405180830381600087803b1580156108b857600080fd5b505af11580156108cc573d6000803e3d6000fd5b505050506040513d601f19601f820116820180604052508101906108f09190614dc0565b5082156109bb576040516370a0823160e01b8152306004820152819083906001600160a01b038716906370a082319060240160206040518083038186803b15801561093a57600080fd5b505afa15801561094e573d6000803e3d6000fd5b505050506040513d601f19601f820116820180604052508101906109729190614dc0565b61097c9190614fcb565b146109bb5760405162461bcd60e51b815260206004820152600f60248201526e1a5b9d985b1a5910985cd9541bdbdb608a1b6044820152606401610428565b6040516370a0823160e01b81523060048201526000906001600160a01b038716906370a082319060240160206040518083038186803b1580156109fd57600080fd5b505afa158015610a11573d6000803e3d6000fd5b505050506040513d601f19601f82011682018060405250810190610a359190614dc0565b9050610a4b6001600160a01b0387168a8361434f565b9d9c50505050505050505050505050565b600080866001600160a01b0316638214f5a46040518163ffffffff1660e01b815260040160206040518083038186803b158015610a9857600080fd5b505afa158015610aac573d6000803e3d6000fd5b505050506040513d601f19601f82011682018060405250810190610ad09190614780565b905060005b86518160ff161015610bf25760405162415c3360e91b815260ff821660048201526000906001600160a01b038a16906382b866009060240160206040518083038186803b158015610b2557600080fd5b505afa158015610b39573d6000803e3d6000fd5b505050506040513d601f19601f82011682018060405250810190610b5d9190614780565b9050600080898460ff1681518110610b7757610b7761505c565b60200260200101511115610ba257610b9f82338b8660ff16815181106107865761078661505c565b90505b80898460ff1681518110610bb857610bb861505c565b60209081029190910101528015610bdd57610bdd6001600160a01b0383168b83614255565b50508080610bea90615026565b915050610ad5565b50604051634d49e87d60e01b81526001600160a01b03881690634d49e87d90610c2390899089908890600401614ea9565b602060405180830381600087803b158015610c3d57600080fd5b505af1158015610c51573d6000803e3d6000fd5b505050506040513d601f19601f82011682018060405250810190610c759190614dc0565b506040516370a0823160e01b81523060048201526000906001600160a01b038316906370a082319060240160206040518083038186803b158015610cb857600080fd5b505afa158015610ccc573d6000803e3d6000fd5b505050506040513d601f19601f82011682018060405250810190610cf09190614dc0565b9050610d066001600160a01b038316868361434f565b9150505b95945050505050565b6060806000846001600160a01b0316638214f5a46040518163ffffffff1660e01b815260040160206040518083038186803b158015610d5157600080fd5b505afa158015610d65573d6000803e3d6000fd5b505050506040513d601f19601f82011682018060405250810190610d899190614780565b6040516319b02f4960e21b81526001600160a01b0380831660048301529192506000918816906366c0bd249060240160206040518083038186803b158015610dd057600080fd5b505afa158015610de4573d6000803e3d6000fd5b505050506040513d601f19601f82011682018060405250810190610e089190614dd9565b60405163797d695b60e11b8152600481018790529091506001600160a01b0388169063f2fad2b69060240160006040518083038186803b158015610e4b57600080fd5b505afa158015610e5f573d6000803e3d6000fd5b505050506040513d6000823e601f3d908101601f19168201604052610e8791908101906146cc565b93506000848260ff1681518110610ea057610ea061505c565b602002602001015190506000858360ff1681518110610ec157610ec161505c565b602090810291909101015260405163797d695b60e11b8152600481018290526001600160a01b0388169063f2fad2b69060240160006040518083038186803b158015610f0c57600080fd5b505afa158015610f20573d6000803e3d6000fd5b505050506040513d6000823e601f3d908101601f19168201604052610f4891908101906146cc565b9350505050935093915050565b600080856001600160a01b0316638214f5a46040518163ffffffff1660e01b815260040160206040518083038186803b158015610f9157600080fd5b505afa158015610fa5573d6000803e3d6000fd5b505050506040513d601f19601f82011682018060405250810190610fc99190614780565b6040516319b02f4960e21b81526001600160a01b0380831660048301529192506000918916906366c0bd249060240160206040518083038186803b15801561101057600080fd5b505afa158015611024573d6000803e3d6000fd5b505050506040513d601f19601f820116820180604052508101906110489190614dd9565b90508360ff808316908816146110e45760405163a95b089f60e01b815260ff808916600483015283166024820152604481018690526001600160a01b038a169063a95b089f9060640160206040518083038186803b1580156110a957600080fd5b505afa1580156110bd573d6000803e3d6000fd5b505050506040513d601f19601f820116820180604052508101906110e19190614dc0565b90505b60405163342a87a160e01b81526004810182905260ff871660248201526001600160a01b0389169063342a87a1906044015b60206040518083038186803b15801561112e57600080fd5b505afa158015611142573d6000803e3d6000fd5b505050506040513d601f19601f820116820180604052508101906111669190614dc0565b9998505050505050505050565b60405162415c3360e91b815260ff8716600482015260009081906001600160a01b038a16906382b866009060240160206040518083038186803b1580156111b957600080fd5b505afa1580156111cd573d6000803e3d6000fd5b505050506040513d601f19601f820116820180604052508101906111f19190614780565b90506112086001600160a01b038216333089614384565b61121c6001600160a01b0382168a88614255565b6040516348b4aac360e11b815260ff808a166004830152881660248201526044810187905260648101869052608481018490526001600160a01b038a169063916955869060a401602060405180830381600087803b15801561127d57600080fd5b505af1158015611291573d6000803e3d6000fd5b505050506040513d601f19601f820116820180604052508101906112b59190614dc0565b5060405162415c3360e91b815260ff881660048201526000906001600160a01b038b16906382b866009060240160206040518083038186803b1580156112fa57600080fd5b505afa15801561130e573d6000803e3d6000fd5b505050506040513d601f19601f820116820180604052508101906113329190614780565b6040516370a0823160e01b81523060048201529091506000906001600160a01b038316906370a082319060240160206040518083038186803b15801561137757600080fd5b505afa15801561138b573d6000803e3d6000fd5b505050506040513d601f19601f820116820180604052508101906113af9190614dc0565b90506113c56001600160a01b038316878361434f565b9a9950505050505050505050565b60606000866001600160a01b0316638214f5a46040518163ffffffff1660e01b815260040160206040518083038186803b15801561141057600080fd5b505afa158015611424573d6000803e3d6000fd5b505050506040513d601f19601f820116820180604052508101906114489190614780565b905061145f6001600160a01b038216333089614384565b6114736001600160a01b0382168888614255565b60405163031cd52b60e41b81526001600160a01b038816906331cd52b0906114a390899089908890600401614f4f565b600060405180830381600087803b1580156114bd57600080fd5b505af11580156114d1573d6000803e3d6000fd5b505050506040513d6000823e601f3d908101601f191682016040526114f991908101906146cc565b50866001600160a01b031663efeecb516040518163ffffffff1660e01b815260040160206040518083038186803b15801561153357600080fd5b505afa158015611547573d6000803e3d6000fd5b505050506040513d601f19601f8201168201806040525081019061156b9190614dc0565b6001600160401b0381111561158257611582615072565b6040519080825280602002602001820160405280156115ab578160200160208202803683370190505b50915060005b876001600160a01b031663efeecb516040518163ffffffff1660e01b815260040160206040518083038186803b1580156115ea57600080fd5b505afa1580156115fe573d6000803e3d6000fd5b505050506040513d601f19601f820116820180604052508101906116229190614dc0565b8160ff1610156117b55760405162415c3360e91b815260ff821660048201526000906001600160a01b038a16906382b866009060240160206040518083038186803b15801561167057600080fd5b505afa158015611684573d6000803e3d6000fd5b505050506040513d601f19601f820116820180604052508101906116a89190614780565b6040516370a0823160e01b81523060048201529091506001600160a01b038216906370a082319060240160206040518083038186803b1580156116ea57600080fd5b505afa1580156116fe573d6000803e3d6000fd5b505050506040513d601f19601f820116820180604052508101906117229190614dc0565b848360ff16815181106117375761173761505c565b6020026020010181815250506000848360ff168151811061175a5761175a61505c565b602002602001015111156117a2576117a286858460ff16815181106117815761178161505c565b6020026020010151836001600160a01b031661434f9092919063ffffffff16565b50806117ad81615026565b9150506115b1565b505095945050505050565b600080846001600160a01b0316638214f5a46040518163ffffffff1660e01b815260040160206040518083038186803b1580156117fc57600080fd5b505afa158015611810573d6000803e3d6000fd5b505050506040513d601f19601f820116820180604052508101906118349190614780565b6040516319b02f4960e21b81526001600160a01b0380831660048301529192506000918816906366c0bd249060240160206040518083038186803b15801561187b57600080fd5b505afa15801561188f573d6000803e3d6000fd5b505050506040513d601f19601f820116820180604052508101906118b39190614dd9565b60405163342a87a160e01b81526004810187905260ff821660248201529091506000906001600160a01b0389169063342a87a19060440160206040518083038186803b15801561190257600080fd5b505afa158015611916573d6000803e3d6000fd5b505050506040513d601f19601f8201168201806040525081019061193a9190614dc0565b60405163342a87a160e01b81526004810182905260ff871660248201529091506001600160a01b0388169063342a87a19060440160206040518083038186803b15801561198657600080fd5b505afa15801561199a573d6000803e3d6000fd5b505050506040513d601f19601f820116820180604052508101906119be9190614dc0565b98975050505050505050565b600080876001600160a01b031663efeecb516040518163ffffffff1660e01b815260040160206040518083038186803b158015611a0657600080fd5b505afa158015611a1a573d6000803e3d6000fd5b505050506040513d601f19601f82011682018060405250810190611a3e9190614dc0565b90506000876001600160a01b031663efeecb516040518163ffffffff1660e01b815260040160206040518083038186803b158015611a7b57600080fd5b505afa158015611a8f573d6000803e3d6000fd5b505050506040513d601f19601f82011682018060405250810190611ab39190614dc0565b9050876001600160a01b0316896001600160a01b03161415611b0b5760405162461bcd60e51b8152602060048201526011602482015270199c9bdb541bdbdb080f481d1bd41bdbdb607a1b6044820152606401610428565b808214611b5a5760405162461bcd60e51b815260206004820152601960248201527f706f6f6c546f6b656e734c656e6774684d6973736d61746368000000000000006044820152606401610428565b6000896001600160a01b0316638214f5a46040518163ffffffff1660e01b815260040160206040518083038186803b158015611b9557600080fd5b505afa158015611ba9573d6000803e3d6000fd5b505050506040513d601f19601f82011682018060405250810190611bcd9190614780565b90506000896001600160a01b0316638214f5a46040518163ffffffff1660e01b815260040160206040518083038186803b158015611c0a57600080fd5b505afa158015611c1e573d6000803e3d6000fd5b505050506040513d601f19601f82011682018060405250810190611c429190614780565b90506000846001600160401b03811115611c5e57611c5e615072565b604051908082528060200260200182016040528015611c87578160200160208202803683370190505b50905060005b858160ff161015611da65760405162415c3360e91b815260ff821660048201526000906001600160a01b038f16906382b866009060240160206040518083038186803b158015611cdc57600080fd5b505afa158015611cf0573d6000803e3d6000fd5b505050506040513d601f19601f82011682018060405250810190611d149190614780565b6040516319b02f4960e21b81526001600160a01b038083166004830152919250908e16906366c0bd249060240160206040518083038186803b158015611d5957600080fd5b505afa158015611d6d573d6000803e3d6000fd5b505050506040513d601f19601f82011682018060405250810190611d919190614dd9565b50508080611d9e90615026565b915050611c8d565b50611dbc6001600160a01b03841633308d614384565b611dd06001600160a01b0384168d8c614255565b60405163031cd52b60e41b81526001600160a01b038d16906331cd52b090611e00908d9085908c90600401614f4f565b600060405180830381600087803b158015611e1a57600080fd5b505af1158015611e2e573d6000803e3d6000fd5b505050506040513d6000823e601f3d908101601f19168201604052611e5691908101906146cc565b506000846001600160401b03811115611e7157611e71615072565b604051908082528060200260200182016040528015611e9a578160200160208202803683370190505b50905060005b858160ff161015611ffb5760405162415c3360e91b815260ff821660048201526000906001600160a01b038f16906382b866009060240160206040518083038186803b158015611eef57600080fd5b505afa158015611f03573d6000803e3d6000fd5b505050506040513d601f19601f82011682018060405250810190611f279190614780565b6040516370a0823160e01b81523060048201529091506000906001600160a01b038316906370a082319060240160206040518083038186803b158015611f6c57600080fd5b505afa158015611f80573d6000803e3d6000fd5b505050506040513d601f19601f82011682018060405250810190611fa49190614dc0565b9050611fc48f82846001600160a01b03166142559092919063ffffffff16565b80848460ff1681518110611fda57611fda61505c565b60200260200101818152505050508080611ff390615026565b915050611ea0565b50604051634d49e87d60e01b81526001600160a01b038d1690634d49e87d9061202c9084908e908d90600401614ea9565b602060405180830381600087803b15801561204657600080fd5b505af115801561205a573d6000803e3d6000fd5b505050506040513d601f19601f8201168201806040525081019061207e9190614dc0565b506040516370a0823160e01b81523060048201526000906001600160a01b038516906370a082319060240160206040518083038186803b1580156120c157600080fd5b505afa1580156120d5573d6000803e3d6000fd5b505050506040513d601f19601f820116820180604052508101906120f99190614dc0565b9050610a4b6001600160a01b0385168b8361434f565b600080846001600160a01b031663efeecb516040518163ffffffff1660e01b815260040160206040518083038186803b15801561214b57600080fd5b505afa15801561215f573d6000803e3d6000fd5b505050506040513d601f19601f820116820180604052508101906121839190614dc0565b60405163797d695b60e11b8152600481018590529091506000906001600160a01b0387169063f2fad2b69060240160006040518083038186803b1580156121c957600080fd5b505afa1580156121dd573d6000803e3d6000fd5b505050506040513d6000823e601f3d908101601f1916820160405261220591908101906146cc565b90506000826001600160401b0381111561222157612221615072565b60405190808252806020026020018201604052801561224a578160200160208202803683370190505b50905060005b838160ff1610156123ab5760405162415c3360e91b815260ff821660048201526000906001600160a01b038a16906382b866009060240160206040518083038186803b15801561229f57600080fd5b505afa1580156122b3573d6000803e3d6000fd5b505050506040513d601f19601f820116820180604052508101906122d79190614780565b6040516319b02f4960e21b81526001600160a01b0380831660048301529192506000918a16906366c0bd249060240160206040518083038186803b15801561231e57600080fd5b505afa158015612332573d6000803e3d6000fd5b505050506040513d601f19601f820116820180604052508101906123569190614dd9565b60ff169050848360ff16815181106123705761237061505c565b602002602001015184828151811061238a5761238a61505c565b602002602001018181525050505080806123a390615026565b915050612250565b50604051637355940360e11b81526001600160a01b0387169063e6ab2806906123db908490600190600401614e85565b60206040518083038186803b1580156123f357600080fd5b505afa158015612407573d6000803e3d6000fd5b505050506040513d601f19601f8201168201806040525081019061242b9190614dc0565b93505050505b9392505050565b600080856001600160a01b0316638214f5a46040518163ffffffff1660e01b815260040160206040518083038186803b15801561247457600080fd5b505afa158015612488573d6000803e3d6000fd5b505050506040513d601f19601f820116820180604052508101906124ac9190614780565b6040516319b02f4960e21b81526001600160a01b0380831660048301529192506000918916906366c0bd249060240160206040518083038186803b1580156124f357600080fd5b505afa158015612507573d6000803e3d6000fd5b505050506040513d601f19601f8201168201806040525081019061252b9190614dd9565b90506000876001600160a01b031663e6ab280687876040518363ffffffff1660e01b815260040161255d929190614e85565b60206040518083038186803b15801561257557600080fd5b505afa158015612589573d6000803e3d6000fd5b505050506040513d601f19601f820116820180604052508101906125ad9190614dc0565b905080878360ff16815181106125c5576125c561505c565b60200260200101516125d79190614fcb565b878360ff16815181106125ec576125ec61505c565b6020908102919091010152604051637355940360e11b81526001600160a01b038a169063e6ab280690611116908a908990600401614e85565b60405163a95b089f60e01b815260ff808516600483015283166024820152604481018290526000906001600160a01b0386169063a95b089f9060640160206040518083038186803b15801561267957600080fd5b505afa15801561268d573d6000803e3d6000fd5b505050506040513d601f19601f82011682018060405250810190610d0a9190614dc0565b600080856001600160a01b0316638214f5a46040518163ffffffff1660e01b815260040160206040518083038186803b1580156126ed57600080fd5b505afa158015612701573d6000803e3d6000fd5b505050506040513d601f19601f820116820180604052508101906127259190614780565b6040516319b02f4960e21b81526001600160a01b0380831660048301529192506000918916906366c0bd249060240160206040518083038186803b15801561276c57600080fd5b505afa158015612780573d6000803e3d6000fd5b505050506040513d601f19601f820116820180604052508101906127a49190614dd9565b90506000876001600160a01b031663efeecb516040518163ffffffff1660e01b815260040160206040518083038186803b1580156127e157600080fd5b505afa1580156127f5573d6000803e3d6000fd5b505050506040513d601f19601f820116820180604052508101906128199190614dc0565b6001600160401b0381111561283057612830615072565b604051908082528060200260200182016040528015612859578160200160208202803683370190505b50905084818860ff16815181106128725761287261505c565b6020908102919091010152604051637355940360e11b81526000906001600160a01b038a169063e6ab2806906128af908590600190600401614e85565b60206040518083038186803b1580156128c757600080fd5b505afa1580156128db573d6000803e3d6000fd5b505050506040513d601f19601f820116820180604052508101906128ff9190614dc0565b90508660ff168360ff16141561291a579350610d0a92505050565b60405163a95b089f60e01b815260ff808516600483015288166024820152604481018290526001600160a01b038b169063a95b089f9060640160206040518083038186803b15801561296b57600080fd5b505afa15801561297f573d6000803e3d6000fd5b505050506040513d601f19601f820116820180604052508101906113c59190614dc0565b60608060008b6001600160a01b0316638214f5a46040518163ffffffff1660e01b815260040160206040518083038186803b1580156129e157600080fd5b505afa1580156129f5573d6000803e3d6000fd5b505050506040513d601f19601f82011682018060405250810190612a199190614780565b905060008b6001600160a01b0316638214f5a46040518163ffffffff1660e01b815260040160206040518083038186803b158015612a5657600080fd5b505afa158015612a6a573d6000803e3d6000fd5b505050506040513d601f19601f82011682018060405250810190612a8e9190614780565b9050612aa56001600160a01b03831633308e614384565b612ab96001600160a01b0383168e8d614255565b60405163031cd52b60e41b81526001600160a01b038e16906331cd52b090612aeb908e908e908e908b90600401614f01565b600060405180830381600087803b158015612b0557600080fd5b505af1158015612b19573d6000803e3d6000fd5b505050506040513d6000823e601f3d908101601f19168201604052612b4191908101906146cc565b506040516370a0823160e01b81523060048201526000906001600160a01b038316906370a082319060240160206040518083038186803b158015612b8457600080fd5b505afa158015612b98573d6000803e3d6000fd5b505050506040513d601f19601f82011682018060405250810190612bbc9190614dc0565b9050612bd26001600160a01b0383168e83614255565b60405163031cd52b60e41b81526001600160a01b038e16906331cd52b090612c049084908d908d908c90600401614f01565b600060405180830381600087803b158015612c1e57600080fd5b505af1158015612c32573d6000803e3d6000fd5b505050506040513d6000823e601f3d908101601f19168201604052612c5a91908101906146cc565b508d6001600160a01b031663efeecb516040518163ffffffff1660e01b815260040160206040518083038186803b158015612c9457600080fd5b505afa158015612ca8573d6000803e3d6000fd5b505050506040513d601f19601f82011682018060405250810190612ccc9190614dc0565b6001600160401b03811115612ce357612ce3615072565b604051908082528060200260200182016040528015612d0c578160200160208202803683370190505b50945060005b8e6001600160a01b031663efeecb516040518163ffffffff1660e01b815260040160206040518083038186803b158015612d4b57600080fd5b505afa158015612d5f573d6000803e3d6000fd5b505050506040513d601f19601f82011682018060405250810190612d839190614dc0565b8160ff161015612f005760008f6001600160a01b03166382b86600836040518263ffffffff1660e01b8152600401612dc4919060ff91909116815260200190565b60206040518083038186803b158015612ddc57600080fd5b505afa158015612df0573d6000803e3d6000fd5b505050506040513d601f19601f82011682018060405250810190612e149190614780565b6040516370a0823160e01b81523060048201529091506001600160a01b038216906370a082319060240160206040518083038186803b158015612e5657600080fd5b505afa158015612e6a573d6000803e3d6000fd5b505050506040513d601f19601f82011682018060405250810190612e8e9190614dc0565b878360ff1681518110612ea357612ea361505c565b6020026020010181815250506000878360ff1681518110612ec657612ec661505c565b60200260200101511115612eed57612eed89888460ff16815181106117815761178161505c565b5080612ef881615026565b915050612d12565b508c6001600160a01b031663efeecb516040518163ffffffff1660e01b815260040160206040518083038186803b158015612f3a57600080fd5b505afa158015612f4e573d6000803e3d6000fd5b505050506040513d601f19601f82011682018060405250810190612f729190614dc0565b6001600160401b03811115612f8957612f89615072565b604051908082528060200260200182016040528015612fb2578160200160208202803683370190505b50935060005b8d6001600160a01b031663efeecb516040518163ffffffff1660e01b815260040160206040518083038186803b158015612ff157600080fd5b505afa158015613005573d6000803e3d6000fd5b505050506040513d601f19601f820116820180604052508101906130299190614dc0565b8160ff1610156131a65760008e6001600160a01b03166382b86600836040518263ffffffff1660e01b815260040161306a919060ff91909116815260200190565b60206040518083038186803b15801561308257600080fd5b505afa158015613096573d6000803e3d6000fd5b505050506040513d601f19601f820116820180604052508101906130ba9190614780565b6040516370a0823160e01b81523060048201529091506001600160a01b038216906370a082319060240160206040518083038186803b1580156130fc57600080fd5b505afa158015613110573d6000803e3d6000fd5b505050506040513d601f19601f820116820180604052508101906131349190614dc0565b868360ff16815181106131495761314961505c565b6020026020010181815250506000868360ff168151811061316c5761316c61505c565b602002602001015111156131935761319389878460ff16815181106117815761178161505c565b508061319e81615026565b915050612fb8565b50505050995099975050505050505050565b600080886001600160a01b0316638214f5a46040518163ffffffff1660e01b815260040160206040518083038186803b1580156131f457600080fd5b505afa158015613208573d6000803e3d6000fd5b505050506040513d601f19601f8201168201806040525081019061322c9190614780565b6040516319b02f4960e21b81526001600160a01b0380831660048301529192506000918c16906366c0bd249060240160206040518083038186803b15801561327357600080fd5b505afa158015613287573d6000803e3d6000fd5b505050506040513d601f19601f820116820180604052508101906132ab9190614dd9565b905060008a6001600160a01b031663efeecb516040518163ffffffff1660e01b815260040160206040518083038186803b1580156132e857600080fd5b505afa1580156132fc573d6000803e3d6000fd5b505050506040513d601f19601f820116820180604052508101906133209190614dc0565b6001600160401b0381111561333757613337615072565b604051908082528060200260200182016040528015613360578160200160208202803683370190505b50905087818b60ff16815181106133795761337961505c565b602090810291909101015260405162415c3360e91b815260ff8b1660048201526000906001600160a01b038d16906382b866009060240160206040518083038186803b1580156133c857600080fd5b505afa1580156133dc573d6000803e3d6000fd5b505050506040513d601f19601f820116820180604052508101906134009190614780565b90506134176001600160a01b03821633308c614384565b61342b6001600160a01b0382168d8b614255565b604051634d49e87d60e01b81526000906001600160a01b038e1690634d49e87d9061345e90869085908c90600401614ea9565b602060405180830381600087803b15801561347857600080fd5b505af115801561348c573d6000803e3d6000fd5b505050506040513d601f19601f820116820180604052508101906134b09190614dc0565b90508a60ff168460ff161461356e576134d36001600160a01b0386168f83614255565b6040516348b4aac360e11b815260ff80861660048301528c16602482015260448101829052606481018a9052608481018890526001600160a01b038f169063916955869060a401602060405180830381600087803b15801561353457600080fd5b505af1158015613548573d6000803e3d6000fd5b505050506040513d601f19601f8201168201806040525081019061356c9190614dc0565b505b60008e6001600160a01b03166382b866008d6040518263ffffffff1660e01b81526004016135a5919060ff91909116815260200190565b60206040518083038186803b1580156135bd57600080fd5b505afa1580156135d1573d6000803e3d6000fd5b505050506040513d601f19601f820116820180604052508101906135f59190614780565b6040516370a0823160e01b81523060048201529091506000906001600160a01b038316906370a082319060240160206040518083038186803b15801561363a57600080fd5b505afa15801561364e573d6000803e3d6000fd5b505050506040513d601f19601f820116820180604052508101906136729190614dc0565b90506136886001600160a01b0383168b8361434f565b9f9e505050505050505050505050505050565b600080876001600160a01b0316638214f5a46040518163ffffffff1660e01b815260040160206040518083038186803b1580156136d757600080fd5b505afa1580156136eb573d6000803e3d6000fd5b505050506040513d601f19601f8201168201806040525081019061370f9190614780565b90506137266001600160a01b03821633308a614384565b61373a6001600160a01b0382168989614255565b6040516301f1d0ab60e51b81526004810188905260ff8716602482015260448101869052606481018490526001600160a01b03891690633e3a156090608401602060405180830381600087803b15801561379357600080fd5b505af11580156137a7573d6000803e3d6000fd5b505050506040513d601f19601f820116820180604052508101906137cb9190614dc0565b5060405162415c3360e91b815260ff871660048201526000906001600160a01b038a16906382b866009060240160206040518083038186803b15801561381057600080fd5b505afa158015613824573d6000803e3d6000fd5b505050506040513d601f19601f820116820180604052508101906138489190614780565b6040516370a0823160e01b81523060048201529091506000906001600160a01b038316906370a082319060240160206040518083038186803b15801561388d57600080fd5b505afa1580156138a1573d6000803e3d6000fd5b505050506040513d601f19601f820116820180604052508101906138c59190614dc0565b90506111666001600160a01b038316878361434f565b600080886001600160a01b0316638214f5a46040518163ffffffff1660e01b815260040160206040518083038186803b15801561391757600080fd5b505afa15801561392b573d6000803e3d6000fd5b505050506040513d601f19601f8201168201806040525081019061394f9190614780565b90506000886001600160a01b0316638214f5a46040518163ffffffff1660e01b815260040160206040518083038186803b15801561398c57600080fd5b505afa1580156139a0573d6000803e3d6000fd5b505050506040513d601f19601f820116820180604052508101906139c49190614780565b6040516319b02f4960e21b81526001600160a01b0380831660048301529192506000918c16906366c0bd249060240160206040518083038186803b158015613a0b57600080fd5b505afa158015613a1f573d6000803e3d6000fd5b505050506040513d601f19601f82011682018060405250810190613a439190614dd9565b9050613a5a6001600160a01b03841633308c614384565b613a6e6001600160a01b0384168c8b614255565b6040516301f1d0ab60e51b8152600481018a905260ff8216602482015260006044820152606481018690526001600160a01b038c1690633e3a156090608401602060405180830381600087803b158015613ac757600080fd5b505af1158015613adb573d6000803e3d6000fd5b505050506040513d601f19601f82011682018060405250810190613aff9190614dc0565b506040516370a0823160e01b81523060048201526000906001600160a01b038416906370a082319060240160206040518083038186803b158015613b4257600080fd5b505afa158015613b56573d6000803e3d6000fd5b505050506040513d601f19601f82011682018060405250810190613b7a9190614dc0565b9050613b906001600160a01b0384168c83614255565b6040516301f1d0ab60e51b81526004810182905260ff8a16602482015260448101899052606481018790526001600160a01b038c1690633e3a156090608401602060405180830381600087803b158015613be957600080fd5b505af1158015613bfd573d6000803e3d6000fd5b505050506040513d601f19601f82011682018060405250810190613c219190614dc0565b5060405162415c3360e91b815260ff8a1660048201526000906001600160a01b038d16906382b866009060240160206040518083038186803b158015613c6657600080fd5b505afa158015613c7a573d6000803e3d6000fd5b505050506040513d601f19601f82011682018060405250810190613c9e9190614780565b6040516370a0823160e01b81523060048201529091506000906001600160a01b038316906370a082319060240160206040518083038186803b158015613ce357600080fd5b505afa158015613cf7573d6000803e3d6000fd5b505050506040513d601f19601f82011682018060405250810190613d1b9190614dc0565b9050610a4b6001600160a01b0383168a8361434f565b600080886001600160a01b0316638214f5a46040518163ffffffff1660e01b815260040160206040518083038186803b158015613d6d57600080fd5b505afa158015613d81573d6000803e3d6000fd5b505050506040513d601f19601f82011682018060405250810190613da59190614780565b6040516319b02f4960e21b81526001600160a01b0380831660048301529192506000918c16906366c0bd249060240160206040518083038186803b158015613dec57600080fd5b505afa158015613e00573d6000803e3d6000fd5b505050506040513d601f19601f82011682018060405250810190613e249190614dd9565b60405162415c3360e91b815260ff8b1660048201529091506000906001600160a01b038d16906382b866009060240160206040518083038186803b158015613e6b57600080fd5b505afa158015613e7f573d6000803e3d6000fd5b505050506040513d601f19601f82011682018060405250810190613ea39190614780565b9050613eba6001600160a01b03821633308b614384565b8760ff838116908c1614613f7857613edc6001600160a01b0383168e8b614255565b6040516348b4aac360e11b815260ff808d16600483015284166024820152604481018a905260006064820152608481018790526001600160a01b038e169063916955869060a401602060405180830381600087803b158015613f3d57600080fd5b505af1158015613f51573d6000803e3d6000fd5b505050506040513d601f19601f82011682018060405250810190613f759190614dc0565b90505b613f8c6001600160a01b0385168d83614255565b6040516301f1d0ab60e51b81526004810182905260ff8b16602482015260448101899052606481018790526001600160a01b038d1690633e3a156090608401602060405180830381600087803b158015613fe557600080fd5b505af1158015613ff9573d6000803e3d6000fd5b505050506040513d601f19601f8201168201806040525081019061401d9190614dc0565b5060405162415c3360e91b815260ff8b1660048201526000906001600160a01b038e16906382b866009060240160206040518083038186803b15801561406257600080fd5b505afa158015614076573d6000803e3d6000fd5b505050506040513d601f19601f8201168201806040525081019061409a9190614780565b6040516370a0823160e01b81523060048201529091506000906001600160a01b038316906370a082319060240160206040518083038186803b1580156140df57600080fd5b505afa1580156140f3573d6000803e3d6000fd5b505050506040513d601f19601f820116820180604052508101906141179190614dc0565b905061412d6001600160a01b0383168a8361434f565b9e9d5050505050505050505050505050565b6040516370a0823160e01b815230600482015260009081906001600160a01b038616906370a082319060240160206040518083038186803b15801561418357600080fd5b505afa158015614197573d6000803e3d6000fd5b505050506040513d601f19601f820116820180604052508101906141bb9190614dc0565b90506141d26001600160a01b038616853086614384565b6040516370a0823160e01b815230600482015281906001600160a01b038716906370a082319060240160206040518083038186803b15801561421357600080fd5b505afa158015614227573d6000803e3d6000fd5b505050506040513d601f19601f8201168201806040525081019061424b9190614dc0565b610d0a9190614fe3565b604051636eb1769f60e11b81523060048201526001600160a01b038381166024830152600091839186169063dd62ed3e9060440160206040518083038186803b1580156142a157600080fd5b505afa1580156142b5573d6000803e3d6000fd5b505050506040513d601f19601f820116820180604052508101906142d99190614dc0565b6142e39190614fcb565b6040516001600160a01b03851660248201526044810182905290915061434990859063095ea7b360e01b906064015b60408051601f198184030181529190526020810180516001600160e01b03166001600160e01b0319909316929092179091526143bc565b50505050565b6040516001600160a01b03831660248201526044810182905261437f90849063a9059cbb60e01b90606401614312565b505050565b6040516001600160a01b03808516602483015283166044820152606481018290526143499085906323b872dd60e01b90608401614312565b6000614411826040518060400160405280602081526020017f5361666545524332303a206c6f772d6c6576656c2063616c6c206661696c6564815250856001600160a01b031661448e9092919063ffffffff16565b80519091501561437f578080602001905181019061442f9190614763565b61437f5760405162461bcd60e51b815260206004820152602a60248201527f5361666545524332303a204552433230206f7065726174696f6e20646964206e6044820152691bdd081cdd58d8d9595960b21b6064820152608401610428565b606061449d84846000856144a5565b949350505050565b6060824710156145065760405162461bcd60e51b815260206004820152602660248201527f416464726573733a20696e73756666696369656e742062616c616e636520666f6044820152651c8818d85b1b60d21b6064820152608401610428565b6001600160a01b0385163b61455d5760405162461bcd60e51b815260206004820152601d60248201527f416464726573733a2063616c6c20746f206e6f6e2d636f6e74726163740000006044820152606401610428565b600080866001600160a01b031685876040516145799190614e31565b60006040518083038185875af1925050503d80600081146145b6576040519150601f19603f3d011682016040523d82523d6000602084013e6145bb565b606091505b50915091506145cb8282866145d6565b979650505050505050565b606083156145e5575081612431565b8251156145f55782518084602001fd5b8160405162461bcd60e51b81526004016104289190614ece565b60008083601f84011261462157600080fd5b5081356001600160401b0381111561463857600080fd5b6020830191508360208260051b850101111561465357600080fd5b9250929050565b600082601f83011261466b57600080fd5b8135602061468061467b83614fa8565b614f78565b80838252828201915082860187848660051b89010111156146a057600080fd5b60005b858110156146bf578135845292840192908401906001016146a3565b5090979650505050505050565b600060208083850312156146df57600080fd5b82516001600160401b038111156146f557600080fd5b8301601f8101851361470657600080fd5b805161471461467b82614fa8565b80828252848201915084840188868560051b870101111561473457600080fd5b600094505b83851015614757578051835260019490940193918501918501614739565b50979650505050505050565b60006020828403121561477557600080fd5b8151612431816150a0565b60006020828403121561479257600080fd5b815161243181615088565b600080600080600060a086880312156147b557600080fd5b85356147c081615088565b945060208601356001600160401b038111156147db57600080fd5b6147e78882890161465a565b9450506040860135925060608601356147ff81615088565b949793965091946080013592915050565b600080600080600060a0868803121561482857600080fd5b853561483381615088565b9450602086013561484381615088565b935060408601356001600160401b038082111561485f57600080fd5b61486b89838a0161465a565b9450606088013591508082111561488157600080fd5b5061488e8882890161465a565b925050608086013561489f816150a0565b809150509295509295909350565b600080600080600080600060e0888a0312156148c857600080fd5b87356148d381615088565b965060208801356148e381615088565b955060408801356001600160401b03808211156148ff57600080fd5b61490b8b838c0161465a565b965060608a013591508082111561492157600080fd5b5061492e8a828b0161465a565b9450506080880135925060a088013561494681615088565b8092505060c0880135905092959891949750929550565b60008060006060848603121561497257600080fd5b833561497d81615088565b9250602084013561498d81615088565b929592945050506040919091013590565b600080600080600080600080600060e08a8c0312156149bc57600080fd5b89356149c781615088565b985060208a01356149d781615088565b975060408a0135965060608a01356001600160401b03808211156149fa57600080fd5b614a068d838e0161460f565b909850965060808c0135915080821115614a1f57600080fd5b50614a2c8c828d0161460f565b90955093505060a08a0135614a4081615088565b8092505060c08a013590509295985092959850929598565b60008060008060008060c08789031215614a7157600080fd5b8635614a7c81615088565b95506020870135614a8c81615088565b945060408701359350606087013592506080870135614aaa81615088565b8092505060a087013590509295509295509295565b60008060008060808587031215614ad557600080fd5b8435614ae081615088565b93506020850135614af081615088565b9250604085013591506060850135614b07816150ae565b939692955090935050565b600080600080600080600060e0888a031215614b2d57600080fd5b8735614b3881615088565b96506020880135614b4881615088565b9550604088013594506060880135614b5f816150ae565b93506080880135925060a088013561494681615088565b600080600080600060a08688031215614b8e57600080fd5b8535614b9981615088565b94506020860135614ba981615088565b93506040860135614bb9816150ae565b925060608601356147ff816150ae565b600080600080600080600080610100898b031215614be657600080fd5b8835614bf181615088565b97506020890135614c0181615088565b96506040890135614c11816150ae565b95506060890135614c21816150ae565b94506080890135935060a0890135925060c0890135614c3f81615088565b8092505060e089013590509295985092959890939650565b600080600080600060a08688031215614c6f57600080fd5b8535614c7a81615088565b94506020860135935060408601356001600160401b03811115614c9c57600080fd5b614ca88882890161465a565b93505060608601356147ff81615088565b60008060008060008060c08789031215614cd257600080fd5b8635614cdd81615088565b9550602087013594506040870135614cf4816150ae565b9350606087013592506080870135614aaa81615088565b60008060008060808587031215614d2157600080fd5b8435614d2c81615088565b93506020850135614d3c816150ae565b92506040850135614d4c816150ae565b9396929550929360600135925050565b600080600080600080600060e0888a031215614d7757600080fd5b8735614d8281615088565b96506020880135614d92816150ae565b95506040880135614da2816150ae565b9450606088013593506080880135925060a088013561494681615088565b600060208284031215614dd257600080fd5b5051919050565b600060208284031215614deb57600080fd5b8151612431816150ae565b600081518084526020808501945080840160005b83811015614e2657815187529582019590820190600101614e0a565b509495945050505050565b60008251614e43818460208701614ffa565b9190910192915050565b6020815260006124316020830184614df6565b604081526000614e736040830185614df6565b8281036020840152610d0a8185614df6565b604081526000614e986040830185614df6565b905082151560208301529392505050565b606081526000614ebc6060830186614df6565b60208301949094525060400152919050565b6020815260008251806020840152614eed816040850160208701614ffa565b601f01601f19169190910160400192915050565b848152606060208201819052810183905260006001600160fb1b03841115614f2857600080fd5b8360051b808660808501376000908301608001908152604090920192909252949350505050565b838152606060208201526000614f686060830185614df6565b9050826040830152949350505050565b604051601f8201601f191681016001600160401b0381118282101715614fa057614fa0615072565b604052919050565b60006001600160401b03821115614fc157614fc1615072565b5060051b60200190565b60008219821115614fde57614fde615046565b500190565b600082821015614ff557614ff5615046565b500390565b60005b83811015615015578181015183820152602001614ffd565b838111156143495750506000910152565b600060ff821660ff81141561503d5761503d615046565b60010192915050565b634e487b7160e01b600052601160045260246000fd5b634e487b7160e01b600052603260045260246000fd5b634e487b7160e01b600052604160045260246000fd5b6001600160a01b038116811461509d57600080fd5b50565b801515811461509d57600080fd5b60ff8116811461509d57600080fdfea2646970667358221220ff0ef0ff03595fb70472d149848605f67b198c51218043136bde3e635dd9986564736f6c63430008070033",
  "devdoc": {
    "kind": "dev",
    "methods": {},
    "version": 1
  },
  "userdoc": {
    "kind": "user",
    "methods": {},
    "version": 1
  },
  "storageLayout": {
    "storage": [],
    "types": null
  }
}