{
  "address": "0xF135CFa32fE1843eB624587e15e66B469dC44e11",
  "abi": [
    {
      "inputs": [
        {
          "internalType": "address",
          "name": "_factory",
          "type": "address"
        },
        {
          "internalType": "address",
          "name": "_WNativeCurrency",
          "type": "address"
        }
      ],
      "stateMutability": "nonpayable",
      "type": "constructor"
    },
    {
      "inputs": [],
      "name": "WNativeCurrency",
      "outputs": [
        {
          "internalType": "address",
          "name": "",
          "type": "address"
        }
      ],
      "stateMutability": "view",
      "type": "function"
    },
    {
      "inputs": [
        {
          "internalType": "contract IStableSwap",
          "name": "pool",
          "type": "address"
        },
        {
          "internalType": "uint8",
          "name": "fromIndex",
          "type": "uint8"
        },
        {
          "internalType": "uint8",
          "name": "toIndex",
          "type": "uint8"
        },
        {
          "internalType": "uint256",
          "name": "inAmount",
          "type": "uint256"
        }
      ],
      "name": "calculateSwap",
      "outputs": [
        {
          "internalType": "uint256",
          "name": "",
          "type": "uint256"
        }
      ],
      "stateMutability": "view",
      "type": "function"
    },
    {
      "inputs": [
        {
          "internalType": "contract IStableSwap",
          "name": "pool",
          "type": "address"
        },
        {
          "internalType": "contract IStableSwap",
          "name": "basePool",
          "type": "address"
        },
        {
          "internalType": "uint8",
          "name": "tokenIndexFrom",
          "type": "uint8"
        },
        {
          "internalType": "uint8",
          "name": "tokenIndexTo",
          "type": "uint8"
        },
        {
          "internalType": "uint256",
          "name": "dx",
          "type": "uint256"
        }
      ],
      "name": "calculateSwapFromBase",
      "outputs": [
        {
          "internalType": "uint256",
          "name": "",
          "type": "uint256"
        }
      ],
      "stateMutability": "view",
      "type": "function"
    },
    {
      "inputs": [
        {
          "internalType": "contract IStableSwap",
          "name": "pool",
          "type": "address"
        },
        {
          "internalType": "contract IStableSwap",
          "name": "basePool",
          "type": "address"
        },
        {
          "internalType": "uint8",
          "name": "tokenIndexFrom",
          "type": "uint8"
        },
        {
          "internalType": "uint8",
          "name": "tokenIndexTo",
          "type": "uint8"
        },
        {
          "internalType": "uint256",
          "name": "dx",
          "type": "uint256"
        }
      ],
      "name": "calculateSwapToBase",
      "outputs": [
        {
          "internalType": "uint256",
          "name": "",
          "type": "uint256"
        }
      ],
      "stateMutability": "view",
      "type": "function"
    },
    {
      "inputs": [],
      "name": "factory",
      "outputs": [
        {
          "internalType": "address",
          "name": "",
          "type": "address"
        }
      ],
      "stateMutability": "view",
      "type": "function"
    },
    {
      "inputs": [
        {
          "internalType": "uint256",
          "name": "amountOut",
          "type": "uint256"
        },
        {
          "internalType": "uint256",
          "name": "reserveIn",
          "type": "uint256"
        },
        {
          "internalType": "uint256",
          "name": "reserveOut",
          "type": "uint256"
        }
      ],
      "name": "getAmountIn",
      "outputs": [
        {
          "internalType": "uint256",
          "name": "amountIn",
          "type": "uint256"
        }
      ],
      "stateMutability": "pure",
      "type": "function"
    },
    {
      "inputs": [
        {
          "internalType": "uint256",
          "name": "amountIn",
          "type": "uint256"
        },
        {
          "internalType": "uint256",
          "name": "reserveIn",
          "type": "uint256"
        },
        {
          "internalType": "uint256",
          "name": "reserveOut",
          "type": "uint256"
        }
      ],
      "name": "getAmountOut",
      "outputs": [
        {
          "internalType": "uint256",
          "name": "amountOut",
          "type": "uint256"
        }
      ],
      "stateMutability": "pure",
      "type": "function"
    },
    {
      "inputs": [
        {
          "internalType": "uint256",
          "name": "amountOut",
          "type": "uint256"
        },
        {
          "internalType": "address[]",
          "name": "path",
          "type": "address[]"
        }
      ],
      "name": "getAmountsIn",
      "outputs": [
        {
          "internalType": "uint256[]",
          "name": "amounts",
          "type": "uint256[]"
        }
      ],
      "stateMutability": "view",
      "type": "function"
    },
    {
      "inputs": [
        {
          "internalType": "uint256",
          "name": "amountIn",
          "type": "uint256"
        },
        {
          "internalType": "address[]",
          "name": "path",
          "type": "address[]"
        }
      ],
      "name": "getAmountsOut",
      "outputs": [
        {
          "internalType": "uint256[]",
          "name": "amounts",
          "type": "uint256[]"
        }
      ],
      "stateMutability": "view",
      "type": "function"
    },
    {
      "inputs": [
        {
          "internalType": "uint256",
          "name": "amountOutMin",
          "type": "uint256"
        },
        {
          "internalType": "address[]",
          "name": "path",
          "type": "address[]"
        },
        {
          "internalType": "address",
          "name": "to",
          "type": "address"
        },
        {
          "internalType": "uint256",
          "name": "deadline",
          "type": "uint256"
        }
      ],
      "name": "swapExactNativeCurrencyForTokens",
      "outputs": [
        {
          "internalType": "uint256[]",
          "name": "amounts",
          "type": "uint256[]"
        }
      ],
      "stateMutability": "payable",
      "type": "function"
    },
    {
      "inputs": [
        {
          "internalType": "uint256",
          "name": "amountOutMin",
          "type": "uint256"
        },
        {
          "components": [
            {
              "internalType": "bool",
              "name": "stable",
              "type": "bool"
            },
            {
              "internalType": "bytes",
              "name": "callData",
              "type": "bytes"
            }
          ],
          "internalType": "struct ISwapRouterV1.Route[]",
          "name": "routes",
          "type": "tuple[]"
        },
        {
          "internalType": "address",
          "name": "to",
          "type": "address"
        },
        {
          "internalType": "uint256",
          "name": "deadline",
          "type": "uint256"
        }
      ],
      "name": "swapExactNativeCurrencyForTokensThroughStablePool",
      "outputs": [
        {
          "internalType": "uint256",
          "name": "amountOut",
          "type": "uint256"
        }
      ],
      "stateMutability": "payable",
      "type": "function"
    },
    {
      "inputs": [
        {
          "internalType": "uint256",
          "name": "amountIn",
          "type": "uint256"
        },
        {
          "internalType": "uint256",
          "name": "amountOutMin",
          "type": "uint256"
        },
        {
          "internalType": "address[]",
          "name": "path",
          "type": "address[]"
        },
        {
          "internalType": "address",
          "name": "to",
          "type": "address"
        },
        {
          "internalType": "uint256",
          "name": "deadline",
          "type": "uint256"
        }
      ],
      "name": "swapExactTokensForNativeCurrency",
      "outputs": [
        {
          "internalType": "uint256[]",
          "name": "amounts",
          "type": "uint256[]"
        }
      ],
      "stateMutability": "nonpayable",
      "type": "function"
    },
    {
      "inputs": [
        {
          "internalType": "uint256",
          "name": "amountIn",
          "type": "uint256"
        },
        {
          "internalType": "uint256",
          "name": "amountOutMin",
          "type": "uint256"
        },
        {
          "components": [
            {
              "internalType": "bool",
              "name": "stable",
              "type": "bool"
            },
            {
              "internalType": "bytes",
              "name": "callData",
              "type": "bytes"
            }
          ],
          "internalType": "struct ISwapRouterV1.Route[]",
          "name": "routes",
          "type": "tuple[]"
        },
        {
          "internalType": "address",
          "name": "to",
          "type": "address"
        },
        {
          "internalType": "uint256",
          "name": "deadline",
          "type": "uint256"
        }
      ],
      "name": "swapExactTokensForNativeCurrencyThroughStablePool",
      "outputs": [
        {
          "internalType": "uint256",
          "name": "amountOut",
          "type": "uint256"
        }
      ],
      "stateMutability": "nonpayable",
      "type": "function"
    },
    {
      "inputs": [
        {
          "internalType": "uint256",
          "name": "amountIn",
          "type": "uint256"
        },
        {
          "internalType": "uint256",
          "name": "amountOutMin",
          "type": "uint256"
        },
        {
          "internalType": "address[]",
          "name": "path",
          "type": "address[]"
        },
        {
          "internalType": "address",
          "name": "to",
          "type": "address"
        },
        {
          "internalType": "uint256",
          "name": "deadline",
          "type": "uint256"
        }
      ],
      "name": "swapExactTokensForTokens",
      "outputs": [
        {
          "internalType": "uint256[]",
          "name": "amounts",
          "type": "uint256[]"
        }
      ],
      "stateMutability": "nonpayable",
      "type": "function"
    },
    {
      "inputs": [
        {
          "internalType": "uint256",
          "name": "amountIn",
          "type": "uint256"
        },
        {
          "internalType": "uint256",
          "name": "amountOutMin",
          "type": "uint256"
        },
        {
          "components": [
            {
              "internalType": "bool",
              "name": "stable",
              "type": "bool"
            },
            {
              "internalType": "bytes",
              "name": "callData",
              "type": "bytes"
            }
          ],
          "internalType": "struct ISwapRouterV1.Route[]",
          "name": "routes",
          "type": "tuple[]"
        },
        {
          "internalType": "address",
          "name": "to",
          "type": "address"
        },
        {
          "internalType": "uint256",
          "name": "deadline",
          "type": "uint256"
        }
      ],
      "name": "swapExactTokensForTokensThroughStablePool",
      "outputs": [
        {
          "internalType": "uint256",
          "name": "amountOut",
          "type": "uint256"
        }
      ],
      "stateMutability": "nonpayable",
      "type": "function"
    },
    {
      "inputs": [
        {
          "internalType": "uint256",
          "name": "amountOut",
          "type": "uint256"
        },
        {
          "internalType": "address[]",
          "name": "path",
          "type": "address[]"
        },
        {
          "internalType": "address",
          "name": "to",
          "type": "address"
        },
        {
          "internalType": "uint256",
          "name": "deadline",
          "type": "uint256"
        }
      ],
      "name": "swapNativeCurrencyForExactTokens",
      "outputs": [
        {
          "internalType": "uint256[]",
          "name": "amounts",
          "type": "uint256[]"
        }
      ],
      "stateMutability": "payable",
      "type": "function"
    },
    {
      "inputs": [
        {
          "internalType": "contract IStableSwap",
          "name": "pool",
          "type": "address"
        },
        {
          "internalType": "uint8",
          "name": "fromIndex",
          "type": "uint8"
        },
        {
          "internalType": "uint8",
          "name": "toIndex",
          "type": "uint8"
        },
        {
          "internalType": "uint256",
          "name": "inAmount",
          "type": "uint256"
        },
        {
          "internalType": "uint256",
          "name": "minOutAmount",
          "type": "uint256"
        },
        {
          "internalType": "address",
          "name": "to",
          "type": "address"
        },
        {
          "internalType": "uint256",
          "name": "deadline",
          "type": "uint256"
        }
      ],
      "name": "swapPool",
      "outputs": [
        {
          "internalType": "uint256",
          "name": "amountOut",
          "type": "uint256"
        }
      ],
      "stateMutability": "nonpayable",
      "type": "function"
    },
    {
      "inputs": [
        {
          "internalType": "contract IStableSwap",
          "name": "pool",
          "type": "address"
        },
        {
          "internalType": "contract IStableSwap",
          "name": "basePool",
          "type": "address"
        },
        {
          "internalType": "uint8",
          "name": "tokenIndexFrom",
          "type": "uint8"
        },
        {
          "internalType": "uint8",
          "name": "tokenIndexTo",
          "type": "uint8"
        },
        {
          "internalType": "uint256",
          "name": "dx",
          "type": "uint256"
        },
        {
          "internalType": "uint256",
          "name": "minDy",
          "type": "uint256"
        },
        {
          "internalType": "address",
          "name": "to",
          "type": "address"
        },
        {
          "internalType": "uint256",
          "name": "deadline",
          "type": "uint256"
        }
      ],
      "name": "swapPoolFromBase",
      "outputs": [
        {
          "internalType": "uint256",
          "name": "amountOut",
          "type": "uint256"
        }
      ],
      "stateMutability": "nonpayable",
      "type": "function"
    },
    {
      "inputs": [
        {
          "internalType": "contract IStableSwap",
          "name": "pool",
          "type": "address"
        },
        {
          "internalType": "contract IStableSwap",
          "name": "basePool",
          "type": "address"
        },
        {
          "internalType": "uint8",
          "name": "tokenIndexFrom",
          "type": "uint8"
        },
        {
          "internalType": "uint8",
          "name": "tokenIndexTo",
          "type": "uint8"
        },
        {
          "internalType": "uint256",
          "name": "dx",
          "type": "uint256"
        },
        {
          "internalType": "uint256",
          "name": "minDy",
          "type": "uint256"
        },
        {
          "internalType": "address",
          "name": "to",
          "type": "address"
        },
        {
          "internalType": "uint256",
          "name": "deadline",
          "type": "uint256"
        }
      ],
      "name": "swapPoolToBase",
      "outputs": [
        {
          "internalType": "uint256",
          "name": "amountOut",
          "type": "uint256"
        }
      ],
      "stateMutability": "nonpayable",
      "type": "function"
    },
    {
      "inputs": [
        {
          "internalType": "uint256",
          "name": "amountOut",
          "type": "uint256"
        },
        {
          "internalType": "uint256",
          "name": "amountInMax",
          "type": "uint256"
        },
        {
          "internalType": "address[]",
          "name": "path",
          "type": "address[]"
        },
        {
          "internalType": "address",
          "name": "to",
          "type": "address"
        },
        {
          "internalType": "uint256",
          "name": "deadline",
          "type": "uint256"
        }
      ],
      "name": "swapTokensForExactNativeCurrency",
      "outputs": [
        {
          "internalType": "uint256[]",
          "name": "amounts",
          "type": "uint256[]"
        }
      ],
      "stateMutability": "nonpayable",
      "type": "function"
    },
    {
      "inputs": [
        {
          "internalType": "uint256",
          "name": "amountOut",
          "type": "uint256"
        },
        {
          "internalType": "uint256",
          "name": "amountInMax",
          "type": "uint256"
        },
        {
          "internalType": "address[]",
          "name": "path",
          "type": "address[]"
        },
        {
          "internalType": "address",
          "name": "to",
          "type": "address"
        },
        {
          "internalType": "uint256",
          "name": "deadline",
          "type": "uint256"
        }
      ],
      "name": "swapTokensForExactTokens",
      "outputs": [
        {
          "internalType": "uint256[]",
          "name": "amounts",
          "type": "uint256[]"
        }
      ],
      "stateMutability": "nonpayable",
      "type": "function"
    },
    {
      "stateMutability": "payable",
      "type": "receive"
    }
  ],
  "transactionHash": "0xa3d3dcfe1ffc6ca5cba14625f8871d4da93127c2941319158d2346ba72de7f5d",
  "args": [
    "0x6ED3E6551Bb396091C15a9621aACa6DdB1C01992",
    "0x674421E9567653EE76e96fEEA3B2B2966d000Dbd"
  ],
  "numDeployments": 1,
  "solcInputHash": "007aa94c81b3bc67ae48537a63ee475f",
  "bytecode": "0x60806040523480156200001157600080fd5b506040516200467638038062004676833981016040819052620000349162000083565b600080546001600160a01b039384166001600160a01b03199182161790915560018054929093169116179055620000bb565b80516001600160a01b03811681146200007e57600080fd5b919050565b600080604083850312156200009757600080fd5b620000a28362000066565b9150620000b26020840162000066565b90509250929050565b6145ab80620000cb6000396000f3fe60806040526004361061012e5760003560e01c80638803dbee116100ab578063c45a01551161006f578063c45a01551461032f578063cd1bd0d91461034f578063d06ca61f14610362578063d74fff4e14610382578063dcff1b94146103a2578063f85b7c8b146103c257600080fd5b80638803dbee1461029c5780638a311c57146102bc5780639be7614d146102dc5780639d9270a8146102ef578063b56527bd1461030f57600080fd5b8063419591ed116100f2578063419591ed146102115780634b1d08ca146102495780636dc9c4981461025c578063798af7201461027c57806385f8c2591461015157600080fd5b8063054d50d4146101515780631f00ca74146101845780633214b8c9146101b1578063357b32f0146101d157806338ed1739146101f157600080fd5b3661014c576001546001600160a01b0316331461014a57600080fd5b005b600080fd5b34801561015d57600080fd5b5061017161016c3660046140ed565b6103e2565b6040519081526020015b60405180910390f35b34801561019057600080fd5b506101a461019f366004613fcd565b6103f9565b60405161017b91906141b9565b3480156101bd57600080fd5b506101716101cc366004613d3f565b61041c565b3480156101dd57600080fd5b506101716101ec366004613e82565b61063b565b3480156101fd57600080fd5b506101a461020c36600461407a565b6107ab565b34801561021d57600080fd5b50600154610231906001600160a01b031681565b6040516001600160a01b03909116815260200161017b565b610171610257366004613f66565b61095c565b34801561026857600080fd5b5061017161027736600461407a565b610b4a565b34801561028857600080fd5b50610171610297366004613e31565b610de0565b3480156102a857600080fd5b506101a46102b736600461407a565b610e6c565b3480156102c857600080fd5b506101716102d7366004613d3f565b610f15565b6101a46102ea366004613f66565b611216565b3480156102fb57600080fd5b5061017161030a36600461407a565b611526565b34801561031b57600080fd5b5061017161032a366004613da3565b611637565b34801561033b57600080fd5b50600054610231906001600160a01b031681565b6101a461035d366004613f66565b6117a1565b34801561036e57600080fd5b506101a461037d366004613fcd565b611a3a565b34801561038e57600080fd5b5061017161039d366004613da3565b611a54565b3480156103ae57600080fd5b506101a46103bd36600461407a565b611b4d565b3480156103ce57600080fd5b506101a46103dd36600461407a565b611d78565b60006103ef848484611e87565b90505b9392505050565b600054606090610413906001600160a01b03168484611f8b565b90505b92915050565b600080856001600160a01b0316638214f5a46040518163ffffffff1660e01b815260040160206040518083038186803b15801561045857600080fd5b505afa15801561046c573d6000803e3d6000fd5b505050506040513d601f19601f820116820180604052508101906104909190613bcd565b6040516319b02f4960e21b81526001600160a01b0380831660048301529192506000918916906366c0bd249060240160206040518083038186803b1580156104d757600080fd5b505afa1580156104eb573d6000803e3d6000fd5b505050506040513d601f19601f8201168201806040525081019061050f9190614119565b90508360ff808316908816146105ab5760405163a95b089f60e01b815260ff808916600483015283166024820152604481018690526001600160a01b038a169063a95b089f9060640160206040518083038186803b15801561057057600080fd5b505afa158015610584573d6000803e3d6000fd5b505050506040513d601f19601f820116820180604052508101906105a89190613f4d565b90505b60405163342a87a160e01b81526004810182905260ff871660248201526001600160a01b0389169063342a87a19060440160206040518083038186803b1580156105f457600080fd5b505afa158015610608573d6000803e3d6000fd5b505050506040513d601f19601f8201168201806040525081019061062c9190613f4d565b93505050505b95945050505050565b600081428110156106675760405162461bcd60e51b815260040161065e906142a7565b60405180910390fd5b60405162415c3360e91b815260ff891660048201526000906001600160a01b038b16906382b866009060240160206040518083038186803b1580156106ab57600080fd5b505afa1580156106bf573d6000803e3d6000fd5b505050506040513d601f19601f820116820180604052508101906106e39190613bcd565b90506106fa6001600160a01b03821633308a612118565b6107088a8a8a8a8a89612189565b60405162415c3360e91b815260ff8a1660048201529093506000906001600160a01b038c16906382b866009060240160206040518083038186803b15801561074f57600080fd5b505afa158015610763573d6000803e3d6000fd5b505050506040513d601f19601f820116820180604052508101906107879190613bcd565b905061079d6001600160a01b03821687866122c2565b505050979650505050505050565b606081428110156107ce5760405162461bcd60e51b815260040161065e906142a7565b6000546040805160208089028281018201909352888252610818936001600160a01b0316928c92918b918b918291908501908490808284376000920191909152506122f792505050565b915086826001845161082a9190614489565b8151811061083a5761083a614514565b602002602001015110156108605760405162461bcd60e51b815260040161065e9061425f565b6109128686600081811061087657610876614514565b905060200201602081019061088b9190613bb0565b6000805433916108f2916001600160a01b0316908b908b90816108b0576108b0614514565b90506020020160208101906108c59190613bb0565b8b8b60018181106108d8576108d8614514565b90506020020160208101906108ed9190613bb0565b612464565b8560008151811061090557610905614514565b60200260200101516124e9565b61095182878780806020026020016040519081016040528093929190818152602001838360200280828437600092019190915250899250612627915050565b509695505050505050565b6000814281101561097f5760405162461bcd60e51b815260040161065e906142a7565b8585600081811061099257610992614514565b90506020028101906109a491906143c5565b6109b2906020810190613c90565b156109cf5760405162461bcd60e51b815260040161065e906142d6565b6000610a41878760008181106109e7576109e7614514565b90506020028101906109f991906143c5565b610a0790602081019061437e565b8080601f01602080910402602001604051908101604052809392919081815260200183838082843760009201919091525061280292505050565b600081518110610a5357610a53614514565b60209081029190910101516001549091506001600160a01b03808316911614610a8e5760405162461bcd60e51b815260040161065e906142d6565b600160009054906101000a90046001600160a01b03166001600160a01b031663d0e30db0346040518263ffffffff1660e01b81526004016000604051808303818588803b158015610ade57600080fd5b505af1158015610af2573d6000803e3d6000fd5b50505050506000610b0682348a8a89612818565b9450905088841015610b2a5760405162461bcd60e51b815260040161065e9061425f565b610b3e6001600160a01b03821687866122c2565b50505095945050505050565b60008142811015610b6d5760405162461bcd60e51b815260040161065e906142a7565b8585610b7a600182614489565b818110610b8957610b89614514565b9050602002810190610b9b91906143c5565b610ba9906020810190613c90565b15610bc65760405162461bcd60e51b815260040161065e906142d6565b6000610be78787610bd8600182614489565b8181106109e7576109e7614514565b6001805482519293506001600160a01b0316918391610c0591614489565b81518110610c1557610c15614514565b60200260200101516001600160a01b031614610c435760405162461bcd60e51b815260040161065e906142d6565b600087876000818110610c5857610c58614514565b9050602002810190610c6a91906143c5565b610c78906020810190613c90565b15610cf857610ced88886000818110610c9357610c93614514565b9050602002810190610ca591906143c5565b610cb390602081019061437e565b8080601f0160208091040260200160405190810160405280939291908181526020018383808284376000920191909152506129cf92505050565b604001519050610d2b565b610d0e888860008181106109e7576109e7614514565b600081518110610d2057610d20614514565b602002602001015190505b610d378133308d6124e9565b6000610d46828c8b8b8a612818565b9550905089851015610d6a5760405162461bcd60e51b815260040161065e9061425f565b600154604051632e1a7d4d60e01b8152600481018790526001600160a01b0390911690632e1a7d4d90602401600060405180830381600087803b158015610db057600080fd5b505af1158015610dc4573d6000803e3d6000fd5b50505050610dd28786612a5a565b505050509695505050505050565b60405163a95b089f60e01b815260ff808516600483015283166024820152604481018290526000906001600160a01b0386169063a95b089f9060640160206040518083038186803b158015610e3457600080fd5b505afa158015610e48573d6000803e3d6000fd5b505050506040513d601f19601f820116820180604052508101906106329190613f4d565b60608142811015610e8f5760405162461bcd60e51b815260040161065e906142a7565b6000546040805160208089028281018201909352888252610ed9936001600160a01b0316928c92918b918b91829190850190849080828437600092019190915250611f8b92505050565b91508682600081518110610eef57610eef614514565b602002602001015111156108605760405162461bcd60e51b815260040161065e9061430d565b600080856001600160a01b0316638214f5a46040518163ffffffff1660e01b815260040160206040518083038186803b158015610f5157600080fd5b505afa158015610f65573d6000803e3d6000fd5b505050506040513d601f19601f82011682018060405250810190610f899190613bcd565b6040516319b02f4960e21b81526001600160a01b0380831660048301529192506000918916906366c0bd249060240160206040518083038186803b158015610fd057600080fd5b505afa158015610fe4573d6000803e3d6000fd5b505050506040513d601f19601f820116820180604052508101906110089190614119565b90506000876001600160a01b031663efeecb516040518163ffffffff1660e01b815260040160206040518083038186803b15801561104557600080fd5b505afa158015611059573d6000803e3d6000fd5b505050506040513d601f19601f8201168201806040525081019061107d9190613f4d565b67ffffffffffffffff8111156110955761109561452a565b6040519080825280602002602001820160405280156110be578160200160208202803683370190505b50905084818860ff16815181106110d7576110d7614514565b6020908102919091010152604051637355940360e11b81526000906001600160a01b038a169063e6ab2806906111149085906001906004016141cc565b60206040518083038186803b15801561112c57600080fd5b505afa158015611140573d6000803e3d6000fd5b505050506040513d601f19601f820116820180604052508101906111649190613f4d565b90508660ff168360ff16141561117f57935061063292505050565b60405163a95b089f60e01b815260ff808516600483015288166024820152604481018290526001600160a01b038b169063a95b089f9060640160206040518083038186803b1580156111d057600080fd5b505afa1580156111e4573d6000803e3d6000fd5b505050506040513d601f19601f820116820180604052508101906112089190613f4d565b9a9950505050505050505050565b606081428110156112395760405162461bcd60e51b815260040161065e906142a7565b6001546001600160a01b0316868660008161125657611256614514565b905060200201602081019061126b9190613bb0565b6001600160a01b0316146112915760405162461bcd60e51b815260040161065e90614228565b60005460408051602080890282810182019093528882526112db936001600160a01b0316928b92918b918b91829190850190849080828437600092019190915250611f8b92505050565b915034826000815181106112f1576112f1614514565b602002602001015111156113175760405162461bcd60e51b815260040161065e9061430d565b60015482516001600160a01b039091169063d0e30db090849060009061133f5761133f614514565b60200260200101516040518263ffffffff1660e01b81526004016000604051808303818588803b15801561137257600080fd5b505af1158015611386573d6000803e3d6000fd5b5050600154600080546001600160a01b03928316955063a9059cbb94506113e59350909116908a908a90816113bd576113bd614514565b90506020020160208101906113d29190613bb0565b8a8a60018181106108d8576108d8614514565b846000815181106113f8576113f8614514565b60200260200101516040518363ffffffff1660e01b81526004016114319291906001600160a01b03929092168252602082015260400190565b602060405180830381600087803b15801561144b57600080fd5b505af115801561145f573d6000803e3d6000fd5b505050506040513d601f19601f820116820180604052508101906114839190613cad565b61148c57600080fd5b6114cb82878780806020026020016040519081016040528093929190818152602001838360200280828437600092019190915250899250612627915050565b816000815181106114de576114de614514565b602002602001015134111561151c5761151c338360008151811061150457611504614514565b6020026020010151346115179190614489565b612a5a565b5095945050505050565b600081428110156115495760405162461bcd60e51b815260040161065e906142a7565b60008686600081811061155e5761155e614514565b905060200281019061157091906143c5565b61157e906020810190613c90565b156115a45761159987876000818110610c9357610c93614514565b6040015190506115d7565b6115ba878760008181106109e7576109e7614514565b6000815181106115cc576115cc614514565b602002602001015190505b6115e38133308c6124e9565b60006115f2828b8a8a89612818565b94509050888410156116165760405162461bcd60e51b815260040161065e9061425f565b61162a6001600160a01b03821687866122c2565b5050509695505050505050565b6000814281101561165a5760405162461bcd60e51b815260040161065e906142a7565b60405162415c3360e91b815260ff891660048201526000906001600160a01b038b16906382b866009060240160206040518083038186803b15801561169e57600080fd5b505afa1580156116b2573d6000803e3d6000fd5b505050506040513d601f19601f820116820180604052508101906116d69190613bcd565b90506116ed6001600160a01b03821633308a612118565b6116fc8b8b8b8b8b8b8a612b50565b60405162415c3360e91b815260ff8a1660048201529093506000906001600160a01b038d16906382b86600906024015b60206040518083038186803b15801561174457600080fd5b505afa158015611758573d6000803e3d6000fd5b505050506040513d601f19601f8201168201806040525081019061177c9190613bcd565b90506117926001600160a01b03821687866122c2565b50505098975050505050505050565b606081428110156117c45760405162461bcd60e51b815260040161065e906142a7565b6001546001600160a01b031686866000816117e1576117e1614514565b90506020020160208101906117f69190613bb0565b6001600160a01b03161461181c5760405162461bcd60e51b815260040161065e90614228565b6000546040805160208089028281018201909352888252611866936001600160a01b0316923492918b918b918291908501908490808284376000920191909152506122f792505050565b91508682600184516118789190614489565b8151811061188857611888614514565b602002602001015110156118ae5760405162461bcd60e51b815260040161065e9061425f565b60015482516001600160a01b039091169063d0e30db09084906000906118d6576118d6614514565b60200260200101516040518263ffffffff1660e01b81526004016000604051808303818588803b15801561190957600080fd5b505af115801561191d573d6000803e3d6000fd5b5050600154600080546001600160a01b03928316955063a9059cbb94506119549350909116908a908a90816113bd576113bd614514565b8460008151811061196757611967614514565b60200260200101516040518363ffffffff1660e01b81526004016119a09291906001600160a01b03929092168252602082015260400190565b602060405180830381600087803b1580156119ba57600080fd5b505af11580156119ce573d6000803e3d6000fd5b505050506040513d601f19601f820116820180604052508101906119f29190613cad565b6119fb57600080fd5b61151c82878780806020026020016040519081016040528093929190818152602001838360200280828437600092019190915250899250612627915050565b600054606090610413906001600160a01b031684846122f7565b60008142811015611a775760405162461bcd60e51b815260040161065e906142a7565b60405162415c3360e91b815260ff891660048201526000906001600160a01b038c16906382b866009060240160206040518083038186803b158015611abb57600080fd5b505afa158015611acf573d6000803e3d6000fd5b505050506040513d601f19601f82011682018060405250810190611af39190613bcd565b9050611b0a6001600160a01b03821633308a612118565b611b198b8b8b8b8b8b8a612e6c565b60405162415c3360e91b815260ff8a1660048201529093506000906001600160a01b038c16906382b866009060240161172c565b60608142811015611b705760405162461bcd60e51b815260040161065e906142a7565b600180546001600160a01b03169087908790611b8c9082614489565b818110611b9b57611b9b614514565b9050602002016020810190611bb09190613bb0565b6001600160a01b031614611bd65760405162461bcd60e51b815260040161065e90614228565b6000546040805160208089028281018201909352888252611c20936001600160a01b0316928c92918b918b918291908501908490808284376000920191909152506122f792505050565b9150868260018451611c329190614489565b81518110611c4257611c42614514565b60200260200101511015611c685760405162461bcd60e51b815260040161065e9061425f565b611c7e8686600081811061087657610876614514565b611cbd82878780806020026020016040519081016040528093929190818152602001838360200280828437600092019190915250309250612627915050565b6001805483516001600160a01b0390911691632e1a7d4d918591611ce091614489565b81518110611cf057611cf0614514565b60200260200101516040518263ffffffff1660e01b8152600401611d1691815260200190565b600060405180830381600087803b158015611d3057600080fd5b505af1158015611d44573d6000803e3d6000fd5b50505050610951848360018551611d5b9190614489565b81518110611d6b57611d6b614514565b6020026020010151612a5a565b60608142811015611d9b5760405162461bcd60e51b815260040161065e906142a7565b600180546001600160a01b03169087908790611db79082614489565b818110611dc657611dc6614514565b9050602002016020810190611ddb9190613bb0565b6001600160a01b031614611e015760405162461bcd60e51b815260040161065e90614228565b6000546040805160208089028281018201909352888252611e4b936001600160a01b0316928c92918b918b91829190850190849080828437600092019190915250611f8b92505050565b91508682600081518110611e6157611e61614514565b60200260200101511115611c685760405162461bcd60e51b815260040161065e9061430d565b6000808411611ee25760405162461bcd60e51b815260206004820152602160248201527f48656c7065723a20494e53554646494349454e545f494e5055545f414d4f554e6044820152601560fa1b606482015260840161065e565b600083118015611ef25750600082115b611f3e5760405162461bcd60e51b815260206004820152601e60248201527f48656c7065723a20494e53554646494349454e545f4c49515549444954590000604482015260640161065e565b6000611f4c856103e5613035565b90506000611f5a8285613035565b90506000611f7483611f6e886103e8613035565b9061309c565b9050611f808183614448565b979650505050505050565b6060600282511015611fd65760405162461bcd60e51b8152602060048201526014602482015273090cad8e0cae47440929cac82989288bea082a8960631b604482015260640161065e565b815167ffffffffffffffff811115611ff057611ff061452a565b604051908082528060200260200182016040528015612019578160200160208202803683370190505b50905082816001835161202c9190614489565b8151811061203c5761203c614514565b6020026020010181815250506000600183516120589190614489565b90505b8015612110576000806120ab8786612074600187614489565b8151811061208457612084614514565b602002602001015187868151811061209e5761209e614514565b60200260200101516130f1565b915091506120d38484815181106120c4576120c4614514565b602002602001015183836131ca565b846120df600186614489565b815181106120ef576120ef614514565b60200260200101818152505050508080612108906144cc565b91505061205b565b509392505050565b6040516001600160a01b03808516602483015283166044820152606481018290526121839085906323b872dd60e01b906084015b60408051601f198184030181529190526020810180516001600160e01b03166001600160e01b0319909316929092179091526132c9565b50505050565b60405162415c3360e91b815260ff8616600482015260009081906001600160a01b038916906382b866009060240160206040518083038186803b1580156121cf57600080fd5b505afa1580156121e3573d6000803e3d6000fd5b505050506040513d601f19601f820116820180604052508101906122079190613bcd565b905061221d6001600160a01b038216898761339b565b6040516348b4aac360e11b815260ff8089166004830152871660248201526044810186905260648101859052608481018490526001600160a01b0389169063916955869060a401602060405180830381600087803b15801561227e57600080fd5b505af1158015612292573d6000803e3d6000fd5b505050506040513d601f19601f820116820180604052508101906122b69190613f4d565b98975050505050505050565b6040516001600160a01b0383166024820152604481018290526122f290849063a9059cbb60e01b9060640161214c565b505050565b60606002825110156123425760405162461bcd60e51b8152602060048201526014602482015273090cad8e0cae47440929cac82989288bea082a8960631b604482015260640161065e565b815167ffffffffffffffff81111561235c5761235c61452a565b604051908082528060200260200182016040528015612385578160200160208202803683370190505b509050828160008151811061239c5761239c614514565b60200260200101818152505060005b600183516123b99190614489565b811015612110576000806123ff878685815181106123d9576123d9614514565b6020026020010151878660016123ef9190614430565b8151811061209e5761209e614514565b9150915061242784848151811061241857612418614514565b60200260200101518383611e87565b84612433856001614430565b8151811061244357612443614514565b6020026020010181815250505050808061245c906144e3565b9150506123ab565b60405163e6a4390560e01b81526001600160a01b03838116600483015282811660248301526000919085169063e6a439059060440160206040518083038186803b1580156124b157600080fd5b505afa1580156124c5573d6000803e3d6000fd5b505050506040513d601f19601f820116820180604052508101906103ef9190613bcd565b604080516001600160a01b0385811660248301528481166044830152606480830185905283518084039091018152608490920183526020820180516001600160e01b03166323b872dd60e01b179052915160009283929088169161254d919061419d565b6000604051808303816000865af19150503d806000811461258a576040519150601f19603f3d011682016040523d82523d6000602084013e61258f565b606091505b50915091508180156125b95750805115806125b95750808060200190518101906125b99190613cad565b61261f5760405162461bcd60e51b815260206004820152603160248201527f5472616e7366657248656c7065723a3a7472616e7366657246726f6d3a207472604482015270185b9cd9995c919c9bdb4819985a5b1959607a1b606482015260840161065e565b505050505050565b60005b600183516126389190614489565b8110156121835760008084838151811061265457612654614514565b60200260200101518584600161266a9190614430565b8151811061267a5761267a614514565b6020026020010151915091506000612692838361345c565b5090506000876126a3866001614430565b815181106126b3576126b3614514565b60200260200101519050600080836001600160a01b0316866001600160a01b0316146126e1578260006126e5565b6000835b91509150600060028a516126f99190614489565b8810612705578861273f565b60005461273f906001600160a01b0316878c6127228c6002614430565b8151811061273257612732614514565b6020026020010151612464565b600054909150612759906001600160a01b03168888612464565b6001600160a01b031663022c0d9f84848460006040519080825280601f01601f191660200182016040528015612796576020820181803683370190505b506040518563ffffffff1660e01b81526004016127b69493929190614351565b600060405180830381600087803b1580156127d057600080fd5b505af11580156127e4573d6000803e3d6000fd5b505050505050505050505080806127fa906144e3565b91505061262a565b6060818060200190518101906104169190613bea565b848460005b848110156129c45785858281811061283757612837614514565b905060200281019061284991906143c5565b612857906020810190613c90565b156128945761288a8287878481811061287257612872614514565b905060200281019061288491906143c5565b8661353d565b90935091506129b2565b60006128ab8787848181106109e7576109e7614514565b905080600182516128bc9190614489565b815181106128cc576128cc614514565b6020026020010151935060006128f660008054906101000a90046001600160a01b031685846122f7565b905061297b8260008151811061290e5761290e614514565b602002602001015161295b60008054906101000a90046001600160a01b03168560008151811061294057612940614514565b60200260200101518660018151811061273257612732614514565b8360008151811061296e5761296e614514565b60200260200101516138c4565b612986818330612627565b80600182516129959190614489565b815181106129a5576129a5614514565b6020026020010151935050505b806129bc816144e3565b91505061281d565b509550959350505050565b6040805160a081018252600080825260208201819052918101829052606081018290526080810191909152600080600080600086806020019051810190612a169190613cca565b6040805160a0810182526001600160a01b03968716815294861660208601529285169284019290925290921660608201529015156080820152979650505050505050565b604080516000808252602082019092526001600160a01b038416908390604051612a84919061419d565b60006040518083038185875af1925050503d8060008114612ac1576040519150601f19603f3d011682016040523d82523d6000602084013e612ac6565b606091505b50509050806122f25760405162461bcd60e51b815260206004820152604a60248201527f5472616e7366657248656c7065723a3a736166655472616e736665724e61746960448201527f766543757272656e63793a204e617469766543757272656e6379207472616e7360648201526919995c8819985a5b195960b21b608482015260a40161065e565b600080876001600160a01b0316638214f5a46040518163ffffffff1660e01b815260040160206040518083038186803b158015612b8c57600080fd5b505afa158015612ba0573d6000803e3d6000fd5b505050506040513d601f19601f82011682018060405250810190612bc49190613bcd565b6040516319b02f4960e21b81526001600160a01b0380831660048301529192506000918b16906366c0bd249060240160206040518083038186803b158015612c0b57600080fd5b505afa158015612c1f573d6000803e3d6000fd5b505050506040513d601f19601f82011682018060405250810190612c439190614119565b90506000896001600160a01b031663efeecb516040518163ffffffff1660e01b815260040160206040518083038186803b158015612c8057600080fd5b505afa158015612c94573d6000803e3d6000fd5b505050506040513d601f19601f82011682018060405250810190612cb89190613f4d565b67ffffffffffffffff811115612cd057612cd061452a565b604051908082528060200260200182016040528015612cf9578160200160208202803683370190505b50905086818a60ff1681518110612d1257612d12614514565b602090810291909101015260405162415c3360e91b815260ff8a1660048201526000906001600160a01b038c16906382b866009060240160206040518083038186803b158015612d6157600080fd5b505afa158015612d75573d6000803e3d6000fd5b505050506040513d601f19601f82011682018060405250810190612d999190613bcd565b9050612daf6001600160a01b0382168c8a61339b565b604051634d49e87d60e01b81526000906001600160a01b038d1690634d49e87d90612de290869085908c906004016141f0565b602060405180830381600087803b158015612dfc57600080fd5b505af1158015612e10573d6000803e3d6000fd5b505050506040513d601f19601f82011682018060405250810190612e349190613f4d565b90508960ff168460ff1614612e5857612e518d858c848c8c612189565b9550612e5c565b8095505b5050505050979650505050505050565b600080876001600160a01b0316638214f5a46040518163ffffffff1660e01b815260040160206040518083038186803b158015612ea857600080fd5b505afa158015612ebc573d6000803e3d6000fd5b505050506040513d601f19601f82011682018060405250810190612ee09190613bcd565b6040516319b02f4960e21b81526001600160a01b0380831660048301529192506000918b16906366c0bd249060240160206040518083038186803b158015612f2757600080fd5b505afa158015612f3b573d6000803e3d6000fd5b505050506040513d601f19601f82011682018060405250810190612f5f9190614119565b90508560ff808316908a1614612f8157612f7e8b8a848a60008a612189565b90505b612f956001600160a01b0384168b8361339b565b6040516301f1d0ab60e51b81526004810182905260ff8916602482015260448101879052606481018690526001600160a01b038b1690633e3a156090608401602060405180830381600087803b158015612fee57600080fd5b505af1158015613002573d6000803e3d6000fd5b505050506040513d601f19601f820116820180604052508101906130269190613f4d565b9b9a5050505050505050505050565b60008115806130595750828261304b818361446a565b92506130579083614448565b145b6104165760405162461bcd60e51b815260206004820152601460248201527364732d6d6174682d6d756c2d6f766572666c6f7760601b604482015260640161065e565b6000826130a98382614430565b91508110156104165760405162461bcd60e51b815260206004820152601460248201527364732d6d6174682d6164642d6f766572666c6f7760601b604482015260640161065e565b6000806000613100858561345c565b509050600080613111888888612464565b6001600160a01b0316630902f1ac6040518163ffffffff1660e01b815260040160606040518083038186803b15801561314957600080fd5b505afa15801561315d573d6000803e3d6000fd5b505050506040513d601f19601f820116820180604052508101906131819190613efd565b506001600160701b031691506001600160701b03169150826001600160a01b0316876001600160a01b0316146131b85780826131bb565b81815b90999098509650505050505050565b60008084116132265760405162461bcd60e51b815260206004820152602260248201527f48656c7065723a20494e53554646494349454e545f4f55545055545f414d4f55604482015261139560f21b606482015260840161065e565b6000831180156132365750600082115b6132825760405162461bcd60e51b815260206004820152601e60248201527f48656c7065723a20494e53554646494349454e545f4c49515549444954590000604482015260640161065e565b600061329a6103e86132948688613035565b90613035565b905060006132ae6103e561329486896139f5565b90506132bf6001611f6e8385614448565b9695505050505050565b600061331e826040518060400160405280602081526020017f5361666545524332303a206c6f772d6c6576656c2063616c6c206661696c6564815250856001600160a01b0316613a4b9092919063ffffffff16565b8051909150156122f2578080602001905181019061333c9190613cad565b6122f25760405162461bcd60e51b815260206004820152602a60248201527f5361666545524332303a204552433230206f7065726174696f6e20646964206e6044820152691bdd081cdd58d8d9595960b21b606482015260840161065e565b604051636eb1769f60e11b81523060048201526001600160a01b038381166024830152600091839186169063dd62ed3e9060440160206040518083038186803b1580156133e757600080fd5b505afa1580156133fb573d6000803e3d6000fd5b505050506040513d601f19601f8201168201806040525081019061341f9190613f4d565b6134299190614430565b6040516001600160a01b03851660248201526044810182905290915061218390859063095ea7b360e01b9060640161214c565b600080826001600160a01b0316846001600160a01b031614156134c15760405162461bcd60e51b815260206004820152601b60248201527f48656c7065723a204944454e544943414c5f4144445245535345530000000000604482015260640161065e565b826001600160a01b0316846001600160a01b0316106134e15782846134e4565b83835b90925090506001600160a01b0382166135365760405162461bcd60e51b815260206004820152601460248201527348656c7065723a205a45524f5f4144445245535360601b604482015260640161065e565b9250929050565b60008080613551610cb3602087018761437e565b606081015160208201519094509091506001600160a01b031661368357805160408083015190516319b02f4960e21b81526001600160a01b03918216600482015261367c92918216906366c0bd249060240160206040518083038186803b1580156135bb57600080fd5b505afa1580156135cf573d6000803e3d6000fd5b505050506040513d601f19601f820116820180604052508101906135f39190614119565b835160608501516040516319b02f4960e21b81526001600160a01b0391821660048201529116906366c0bd249060240160206040518083038186803b15801561363b57600080fd5b505afa15801561364f573d6000803e3d6000fd5b505050506040513d601f19601f820116820180604052508101906136739190614119565b89600089612189565b91506138bb565b8060800151156137a1578051602082015160408084015190516319b02f4960e21b81526001600160a01b03918216600482015261367c9392918216906366c0bd249060240160206040518083038186803b1580156136e057600080fd5b505afa1580156136f4573d6000803e3d6000fd5b505050506040513d601f19601f820116820180604052508101906137189190614119565b845160608601516040516319b02f4960e21b81526001600160a01b0391821660048201529116906366c0bd249060240160206040518083038186803b15801561376057600080fd5b505afa158015613774573d6000803e3d6000fd5b505050506040513d601f19601f820116820180604052508101906137989190614119565b8a60008a612b50565b8051602082015160408084015190516319b02f4960e21b81526001600160a01b0391821660048201526138b89392918316906366c0bd249060240160206040518083038186803b1580156137f457600080fd5b505afa158015613808573d6000803e3d6000fd5b505050506040513d601f19601f8201168201806040525081019061382c9190614119565b602085015160608601516040516319b02f4960e21b81526001600160a01b0391821660048201529116906366c0bd249060240160206040518083038186803b15801561387757600080fd5b505afa15801561388b573d6000803e3d6000fd5b505050506040513d601f19601f820116820180604052508101906138af9190614119565b8a60008a612e6c565b91505b50935093915050565b604080516001600160a01b038481166024830152604480830185905283518084039091018152606490920183526020820180516001600160e01b031663a9059cbb60e01b1790529151600092839290871691613920919061419d565b6000604051808303816000865af19150503d806000811461395d576040519150601f19603f3d011682016040523d82523d6000602084013e613962565b606091505b509150915081801561398c57508051158061398c57508080602001905181019061398c9190613cad565b6139ee5760405162461bcd60e51b815260206004820152602d60248201527f5472616e7366657248656c7065723a3a736166655472616e736665723a20747260448201526c185b9cd9995c8819985a5b1959609a1b606482015260840161065e565b5050505050565b600082613a028382614489565b91508111156104165760405162461bcd60e51b815260206004820152601560248201527464732d6d6174682d7375622d756e646572666c6f7760581b604482015260640161065e565b60606103ef8484600085856001600160a01b0385163b613aad5760405162461bcd60e51b815260206004820152601d60248201527f416464726573733a2063616c6c20746f206e6f6e2d636f6e7472616374000000604482015260640161065e565b600080866001600160a01b03168587604051613ac9919061419d565b60006040518083038185875af1925050503d8060008114613b06576040519150601f19603f3d011682016040523d82523d6000602084013e613b0b565b606091505b5091509150611f8082828660608315613b255750816103f2565b825115613b355782518084602001fd5b8160405162461bcd60e51b815260040161065e9190614215565b60008083601f840112613b6157600080fd5b50813567ffffffffffffffff811115613b7957600080fd5b6020830191508360208260051b850101111561353657600080fd5b80516001600160701b0381168114613bab57600080fd5b919050565b600060208284031215613bc257600080fd5b81356103f281614540565b600060208284031215613bdf57600080fd5b81516103f281614540565b60006020808385031215613bfd57600080fd5b825167ffffffffffffffff811115613c1457600080fd5b8301601f81018513613c2557600080fd5b8051613c38613c338261440c565b6143db565b80828252848201915084840188868560051b8701011115613c5857600080fd5b600094505b83851015613c84578051613c7081614540565b835260019490940193918501918501613c5d565b50979650505050505050565b600060208284031215613ca257600080fd5b81356103f281614558565b600060208284031215613cbf57600080fd5b81516103f281614558565b600080600080600060a08688031215613ce257600080fd5b8551613ced81614540565b6020870151909550613cfe81614540565b6040870151909450613d0f81614540565b6060870151909350613d2081614540565b6080870151909250613d3181614558565b809150509295509295909350565b600080600080600060a08688031215613d5757600080fd5b8535613d6281614540565b94506020860135613d7281614540565b93506040860135613d8281614566565b92506060860135613d9281614566565b949793965091946080013592915050565b600080600080600080600080610100898b031215613dc057600080fd5b8835613dcb81614540565b97506020890135613ddb81614540565b96506040890135613deb81614566565b95506060890135613dfb81614566565b94506080890135935060a0890135925060c0890135613e1981614540565b8092505060e089013590509295985092959890939650565b60008060008060808587031215613e4757600080fd5b8435613e5281614540565b93506020850135613e6281614566565b92506040850135613e7281614566565b9396929550929360600135925050565b600080600080600080600060e0888a031215613e9d57600080fd5b8735613ea881614540565b96506020880135613eb881614566565b95506040880135613ec881614566565b9450606088013593506080880135925060a0880135613ee681614540565b8092505060c0880135905092959891949750929550565b600080600060608486031215613f1257600080fd5b613f1b84613b94565b9250613f2960208501613b94565b9150604084015163ffffffff81168114613f4257600080fd5b809150509250925092565b600060208284031215613f5f57600080fd5b5051919050565b600080600080600060808688031215613f7e57600080fd5b85359450602086013567ffffffffffffffff811115613f9c57600080fd5b613fa888828901613b4f565b9095509350506040860135613fbc81614540565b949793965091946060013592915050565b60008060408385031215613fe057600080fd5b8235915060208084013567ffffffffffffffff811115613fff57600080fd5b8401601f8101861361401057600080fd5b803561401e613c338261440c565b80828252848201915084840189868560051b870101111561403e57600080fd5b600094505b8385101561406a57803561405681614540565b835260019490940193918501918501614043565b5080955050505050509250929050565b60008060008060008060a0878903121561409357600080fd5b8635955060208701359450604087013567ffffffffffffffff8111156140b857600080fd5b6140c489828a01613b4f565b90955093505060608701356140d881614540565b80925050608087013590509295509295509295565b60008060006060848603121561410257600080fd5b505081359360208301359350604090920135919050565b60006020828403121561412b57600080fd5b81516103f281614566565b600081518084526020808501945080840160005b838110156141665781518752958201959082019060010161414a565b509495945050505050565b600081518084526141898160208601602086016144a0565b601f01601f19169290920160200192915050565b600082516141af8184602087016144a0565b9190910192915050565b6020815260006104136020830184614136565b6040815260006141df6040830185614136565b905082151560208301529392505050565b6060815260006142036060830186614136565b60208301949094525060400152919050565b6020815260006104136020830184614171565b6020808252601a908201527f53776170526f7574657256313a20494e56414c49445f50415448000000000000604082015260600190565b60208082526028908201527f53776170526f7574657256313a20494e53554646494349454e545f4f555450556040820152671517d05353d5539560c21b606082015260800190565b60208082526015908201527414ddd85c149bdd5d195c958c4e8811561412549151605a1b604082015260600190565b6020808252601c908201527f53776170526f7574657256313a20494e56414c49445f524f5554455300000000604082015260600190565b60208082526024908201527f53776170526f7574657256313a204558434553534956455f494e5055545f414d60408201526313d5539560e21b606082015260800190565b84815283602082015260018060a01b03831660408201526080606082015260006132bf6080830184614171565b6000808335601e1984360301811261439557600080fd5b83018035915067ffffffffffffffff8211156143b057600080fd5b60200191503681900382131561353657600080fd5b60008235603e198336030181126141af57600080fd5b604051601f8201601f1916810167ffffffffffffffff811182821017156144045761440461452a565b604052919050565b600067ffffffffffffffff8211156144265761442661452a565b5060051b60200190565b60008219821115614443576144436144fe565b500190565b60008261446557634e487b7160e01b600052601260045260246000fd5b500490565b6000816000190483118215151615614484576144846144fe565b500290565b60008282101561449b5761449b6144fe565b500390565b60005b838110156144bb5781810151838201526020016144a3565b838111156121835750506000910152565b6000816144db576144db6144fe565b506000190190565b60006000198214156144f7576144f76144fe565b5060010190565b634e487b7160e01b600052601160045260246000fd5b634e487b7160e01b600052603260045260246000fd5b634e487b7160e01b600052604160045260246000fd5b6001600160a01b038116811461455557600080fd5b50565b801515811461455557600080fd5b60ff8116811461455557600080fdfea2646970667358221220434b266976e68a5e64ea5679f4937dcdadb69a23c4fee5e344e0f9871a96043264736f6c63430008070033",
  "devdoc": {
    "kind": "dev",
    "methods": {},
    "version": 1
  },
  "userdoc": {
    "kind": "user",
    "methods": {},
    "version": 1
  },
  "storageLayout": {
    "storage": [
      {
        "astId": 17131,
        "contract": "contracts/periphery/SwapRouterV1.sol:SwapRouterV1",
        "label": "factory",
        "offset": 0,
        "slot": "0",
        "type": "t_address"
      },
      {
        "astId": 17134,
        "contract": "contracts/periphery/SwapRouterV1.sol:SwapRouterV1",
        "label": "WNativeCurrency",
        "offset": 0,
        "slot": "1",
        "type": "t_address"
      }
    ],
    "types": {
      "t_address": {
        "encoding": "inplace",
        "label": "address",
        "numberOfBytes": "20"
      }
    }
  }
}