{
  "address": "0xb38188fEDff30bEc23aEf5C691AB647756771fF1",
  "abi": [
    {
      "inputs": [
        {
          "internalType": "contract IERC20Metadata",
          "name": "_zlk",
          "type": "address"
        },
        {
          "internalType": "string",
          "name": "_name",
          "type": "string"
        },
        {
          "internalType": "string",
          "name": "_symbol",
          "type": "string"
        }
      ],
      "stateMutability": "nonpayable",
      "type": "constructor"
    },
    {
      "anonymous": false,
      "inputs": [
        {
          "indexed": true,
          "internalType": "address",
          "name": "oldAdmin",
          "type": "address"
        },
        {
          "indexed": true,
          "internalType": "address",
          "name": "newAdmin",
          "type": "address"
        }
      ],
      "name": "AdminChanged",
      "type": "event"
    },
    {
      "anonymous": false,
      "inputs": [
        {
          "indexed": true,
          "internalType": "address",
          "name": "owner",
          "type": "address"
        },
        {
          "indexed": true,
          "internalType": "address",
          "name": "spender",
          "type": "address"
        },
        {
          "indexed": false,
          "internalType": "uint256",
          "name": "value",
          "type": "uint256"
        }
      ],
      "name": "Approval",
      "type": "event"
    },
    {
      "anonymous": false,
      "inputs": [
        {
          "indexed": true,
          "internalType": "address",
          "name": "newAdmin",
          "type": "address"
        }
      ],
      "name": "Candidate",
      "type": "event"
    },
    {
      "anonymous": false,
      "inputs": [
        {
          "indexed": true,
          "internalType": "address",
          "name": "caller",
          "type": "address"
        },
        {
          "indexed": true,
          "internalType": "address",
          "name": "owner",
          "type": "address"
        },
        {
          "indexed": false,
          "internalType": "uint256",
          "name": "assets",
          "type": "uint256"
        },
        {
          "indexed": false,
          "internalType": "uint256",
          "name": "shares",
          "type": "uint256"
        }
      ],
      "name": "Deposit",
      "type": "event"
    },
    {
      "anonymous": false,
      "inputs": [
        {
          "indexed": true,
          "internalType": "address",
          "name": "from",
          "type": "address"
        },
        {
          "indexed": true,
          "internalType": "address",
          "name": "to",
          "type": "address"
        },
        {
          "indexed": false,
          "internalType": "uint256",
          "name": "value",
          "type": "uint256"
        }
      ],
      "name": "Transfer",
      "type": "event"
    },
    {
      "anonymous": false,
      "inputs": [
        {
          "indexed": true,
          "internalType": "address",
          "name": "caller",
          "type": "address"
        },
        {
          "indexed": true,
          "internalType": "address",
          "name": "receiver",
          "type": "address"
        },
        {
          "indexed": true,
          "internalType": "address",
          "name": "owner",
          "type": "address"
        },
        {
          "indexed": false,
          "internalType": "uint256",
          "name": "assets",
          "type": "uint256"
        },
        {
          "indexed": false,
          "internalType": "uint256",
          "name": "shares",
          "type": "uint256"
        }
      ],
      "name": "Withdraw",
      "type": "event"
    },
    {
      "anonymous": false,
      "inputs": [
        {
          "indexed": true,
          "internalType": "address",
          "name": "caller",
          "type": "address"
        },
        {
          "indexed": true,
          "internalType": "address",
          "name": "receiver",
          "type": "address"
        },
        {
          "indexed": true,
          "internalType": "address",
          "name": "owner",
          "type": "address"
        },
        {
          "indexed": false,
          "internalType": "uint256",
          "name": "assets",
          "type": "uint256"
        },
        {
          "indexed": false,
          "internalType": "uint256",
          "name": "fee",
          "type": "uint256"
        },
        {
          "indexed": false,
          "internalType": "uint256",
          "name": "shares",
          "type": "uint256"
        }
      ],
      "name": "WithdrawVXZLK",
      "type": "event"
    },
    {
      "inputs": [],
      "name": "admin",
      "outputs": [
        {
          "internalType": "address",
          "name": "",
          "type": "address"
        }
      ],
      "stateMutability": "view",
      "type": "function"
    },
    {
      "inputs": [],
      "name": "adminCandidate",
      "outputs": [
        {
          "internalType": "address",
          "name": "",
          "type": "address"
        }
      ],
      "stateMutability": "view",
      "type": "function"
    },
    {
      "inputs": [
        {
          "internalType": "address",
          "name": "owner",
          "type": "address"
        },
        {
          "internalType": "address",
          "name": "spender",
          "type": "address"
        }
      ],
      "name": "allowance",
      "outputs": [
        {
          "internalType": "uint256",
          "name": "",
          "type": "uint256"
        }
      ],
      "stateMutability": "view",
      "type": "function"
    },
    {
      "inputs": [
        {
          "internalType": "address",
          "name": "spender",
          "type": "address"
        },
        {
          "internalType": "uint256",
          "name": "amount",
          "type": "uint256"
        }
      ],
      "name": "approve",
      "outputs": [
        {
          "internalType": "bool",
          "name": "",
          "type": "bool"
        }
      ],
      "stateMutability": "nonpayable",
      "type": "function"
    },
    {
      "inputs": [],
      "name": "asset",
      "outputs": [
        {
          "internalType": "address",
          "name": "",
          "type": "address"
        }
      ],
      "stateMutability": "view",
      "type": "function"
    },
    {
      "inputs": [
        {
          "internalType": "address",
          "name": "account",
          "type": "address"
        }
      ],
      "name": "balanceOf",
      "outputs": [
        {
          "internalType": "uint256",
          "name": "",
          "type": "uint256"
        }
      ],
      "stateMutability": "view",
      "type": "function"
    },
    {
      "inputs": [],
      "name": "candidateConfirm",
      "outputs": [],
      "stateMutability": "nonpayable",
      "type": "function"
    },
    {
      "inputs": [
        {
          "internalType": "uint256",
          "name": "shares",
          "type": "uint256"
        }
      ],
      "name": "convertToAssets",
      "outputs": [
        {
          "internalType": "uint256",
          "name": "assets",
          "type": "uint256"
        }
      ],
      "stateMutability": "view",
      "type": "function"
    },
    {
      "inputs": [
        {
          "internalType": "uint256",
          "name": "assets",
          "type": "uint256"
        }
      ],
      "name": "convertToShares",
      "outputs": [
        {
          "internalType": "uint256",
          "name": "shares",
          "type": "uint256"
        }
      ],
      "stateMutability": "view",
      "type": "function"
    },
    {
      "inputs": [],
      "name": "decimals",
      "outputs": [
        {
          "internalType": "uint8",
          "name": "",
          "type": "uint8"
        }
      ],
      "stateMutability": "view",
      "type": "function"
    },
    {
      "inputs": [
        {
          "internalType": "address",
          "name": "spender",
          "type": "address"
        },
        {
          "internalType": "uint256",
          "name": "subtractedValue",
          "type": "uint256"
        }
      ],
      "name": "decreaseAllowance",
      "outputs": [
        {
          "internalType": "bool",
          "name": "",
          "type": "bool"
        }
      ],
      "stateMutability": "nonpayable",
      "type": "function"
    },
    {
      "inputs": [
        {
          "internalType": "uint256",
          "name": "assets",
          "type": "uint256"
        },
        {
          "internalType": "address",
          "name": "receiver",
          "type": "address"
        }
      ],
      "name": "deposit",
      "outputs": [
        {
          "internalType": "uint256",
          "name": "",
          "type": "uint256"
        }
      ],
      "stateMutability": "nonpayable",
      "type": "function"
    },
    {
      "inputs": [
        {
          "internalType": "uint256",
          "name": "assets",
          "type": "uint256"
        }
      ],
      "name": "getWithdrawResult",
      "outputs": [
        {
          "internalType": "uint256",
          "name": "zlkReceive",
          "type": "uint256"
        },
        {
          "internalType": "uint256",
          "name": "withdrawFeeAmount",
          "type": "uint256"
        }
      ],
      "stateMutability": "view",
      "type": "function"
    },
    {
      "inputs": [],
      "name": "getZenlinkTokenWithdrawFeeRatio",
      "outputs": [
        {
          "internalType": "uint256",
          "name": "",
          "type": "uint256"
        }
      ],
      "stateMutability": "view",
      "type": "function"
    },
    {
      "inputs": [
        {
          "internalType": "address",
          "name": "spender",
          "type": "address"
        },
        {
          "internalType": "uint256",
          "name": "addedValue",
          "type": "uint256"
        }
      ],
      "name": "increaseAllowance",
      "outputs": [
        {
          "internalType": "bool",
          "name": "",
          "type": "bool"
        }
      ],
      "stateMutability": "nonpayable",
      "type": "function"
    },
    {
      "inputs": [],
      "name": "loyaltyCalculator",
      "outputs": [
        {
          "internalType": "address",
          "name": "",
          "type": "address"
        }
      ],
      "stateMutability": "view",
      "type": "function"
    },
    {
      "inputs": [
        {
          "internalType": "address",
          "name": "",
          "type": "address"
        }
      ],
      "name": "maxDeposit",
      "outputs": [
        {
          "internalType": "uint256",
          "name": "",
          "type": "uint256"
        }
      ],
      "stateMutability": "view",
      "type": "function"
    },
    {
      "inputs": [
        {
          "internalType": "address",
          "name": "",
          "type": "address"
        }
      ],
      "name": "maxMint",
      "outputs": [
        {
          "internalType": "uint256",
          "name": "",
          "type": "uint256"
        }
      ],
      "stateMutability": "view",
      "type": "function"
    },
    {
      "inputs": [
        {
          "internalType": "address",
          "name": "owner",
          "type": "address"
        }
      ],
      "name": "maxRedeem",
      "outputs": [
        {
          "internalType": "uint256",
          "name": "",
          "type": "uint256"
        }
      ],
      "stateMutability": "view",
      "type": "function"
    },
    {
      "inputs": [
        {
          "internalType": "address",
          "name": "owner",
          "type": "address"
        }
      ],
      "name": "maxWithdraw",
      "outputs": [
        {
          "internalType": "uint256",
          "name": "",
          "type": "uint256"
        }
      ],
      "stateMutability": "view",
      "type": "function"
    },
    {
      "inputs": [
        {
          "internalType": "uint256",
          "name": "shares",
          "type": "uint256"
        },
        {
          "internalType": "address",
          "name": "receiver",
          "type": "address"
        }
      ],
      "name": "mint",
      "outputs": [
        {
          "internalType": "uint256",
          "name": "",
          "type": "uint256"
        }
      ],
      "stateMutability": "nonpayable",
      "type": "function"
    },
    {
      "inputs": [],
      "name": "name",
      "outputs": [
        {
          "internalType": "string",
          "name": "",
          "type": "string"
        }
      ],
      "stateMutability": "view",
      "type": "function"
    },
    {
      "inputs": [
        {
          "internalType": "uint256",
          "name": "assets",
          "type": "uint256"
        }
      ],
      "name": "previewDeposit",
      "outputs": [
        {
          "internalType": "uint256",
          "name": "",
          "type": "uint256"
        }
      ],
      "stateMutability": "view",
      "type": "function"
    },
    {
      "inputs": [
        {
          "internalType": "uint256",
          "name": "shares",
          "type": "uint256"
        }
      ],
      "name": "previewMint",
      "outputs": [
        {
          "internalType": "uint256",
          "name": "",
          "type": "uint256"
        }
      ],
      "stateMutability": "view",
      "type": "function"
    },
    {
      "inputs": [
        {
          "internalType": "uint256",
          "name": "shares",
          "type": "uint256"
        }
      ],
      "name": "previewRedeem",
      "outputs": [
        {
          "internalType": "uint256",
          "name": "",
          "type": "uint256"
        }
      ],
      "stateMutability": "view",
      "type": "function"
    },
    {
      "inputs": [
        {
          "internalType": "uint256",
          "name": "assets",
          "type": "uint256"
        }
      ],
      "name": "previewWithdraw",
      "outputs": [
        {
          "internalType": "uint256",
          "name": "",
          "type": "uint256"
        }
      ],
      "stateMutability": "view",
      "type": "function"
    },
    {
      "inputs": [
        {
          "internalType": "uint256",
          "name": "shares",
          "type": "uint256"
        },
        {
          "internalType": "address",
          "name": "receiver",
          "type": "address"
        },
        {
          "internalType": "address",
          "name": "owner",
          "type": "address"
        }
      ],
      "name": "redeem",
      "outputs": [
        {
          "internalType": "uint256",
          "name": "",
          "type": "uint256"
        }
      ],
      "stateMutability": "nonpayable",
      "type": "function"
    },
    {
      "inputs": [
        {
          "internalType": "address",
          "name": "_candidate",
          "type": "address"
        }
      ],
      "name": "setAdminCandidate",
      "outputs": [],
      "stateMutability": "nonpayable",
      "type": "function"
    },
    {
      "inputs": [],
      "name": "symbol",
      "outputs": [
        {
          "internalType": "string",
          "name": "",
          "type": "string"
        }
      ],
      "stateMutability": "view",
      "type": "function"
    },
    {
      "inputs": [],
      "name": "totalAssets",
      "outputs": [
        {
          "internalType": "uint256",
          "name": "",
          "type": "uint256"
        }
      ],
      "stateMutability": "view",
      "type": "function"
    },
    {
      "inputs": [],
      "name": "totalSupply",
      "outputs": [
        {
          "internalType": "uint256",
          "name": "",
          "type": "uint256"
        }
      ],
      "stateMutability": "view",
      "type": "function"
    },
    {
      "inputs": [
        {
          "internalType": "address",
          "name": "to",
          "type": "address"
        },
        {
          "internalType": "uint256",
          "name": "amount",
          "type": "uint256"
        }
      ],
      "name": "transfer",
      "outputs": [
        {
          "internalType": "bool",
          "name": "",
          "type": "bool"
        }
      ],
      "stateMutability": "nonpayable",
      "type": "function"
    },
    {
      "inputs": [
        {
          "internalType": "address",
          "name": "from",
          "type": "address"
        },
        {
          "internalType": "address",
          "name": "to",
          "type": "address"
        },
        {
          "internalType": "uint256",
          "name": "amount",
          "type": "uint256"
        }
      ],
      "name": "transferFrom",
      "outputs": [
        {
          "internalType": "bool",
          "name": "",
          "type": "bool"
        }
      ],
      "stateMutability": "nonpayable",
      "type": "function"
    },
    {
      "inputs": [
        {
          "internalType": "address",
          "name": "calculator",
          "type": "address"
        }
      ],
      "name": "updateLoyaltyCaculator",
      "outputs": [],
      "stateMutability": "nonpayable",
      "type": "function"
    },
    {
      "inputs": [
        {
          "internalType": "uint256",
          "name": "assets",
          "type": "uint256"
        },
        {
          "internalType": "address",
          "name": "receiver",
          "type": "address"
        },
        {
          "internalType": "address",
          "name": "owner",
          "type": "address"
        }
      ],
      "name": "withdraw",
      "outputs": [
        {
          "internalType": "uint256",
          "name": "",
          "type": "uint256"
        }
      ],
      "stateMutability": "nonpayable",
      "type": "function"
    }
  ],
  "transactionHash": "0xfd6e6d1fd11ce5dfb28f4217bab00a5263113daa1dfab00016b86990e90d8cf8",
  "args": [
    "0xB5989e3Eb10bBe04b962586910C0bBC1238baD78",
    "Zenlink Vault Asset",
    "vxZLK"
  ],
  "numDeployments": 1,
  "solcInputHash": "007aa94c81b3bc67ae48537a63ee475f",
  "bytecode": "0x60a06040523480156200001157600080fd5b506040516200201f3803806200201f83398101604081905262000034916200025d565b82828281600390805190602001906200004f92919062000100565b5080516200006590600490602084019062000100565b50505060601b6001600160601b03191660805262000083336200008c565b5050506200033a565b6005546001600160a01b031615620000de5760405162461bcd60e51b815260206004820152601160248201527018591b5a5b88185b1c9958591e481cd95d607a1b604482015260640160405180910390fd5b600580546001600160a01b0319166001600160a01b0392909216919091179055565b8280546200010e90620002e7565b90600052602060002090601f0160209004810192826200013257600085556200017d565b82601f106200014d57805160ff19168380011785556200017d565b828001600101855582156200017d579182015b828111156200017d57825182559160200191906001019062000160565b506200018b9291506200018f565b5090565b5b808211156200018b576000815560010162000190565b600082601f830112620001b857600080fd5b81516001600160401b0380821115620001d557620001d562000324565b604051601f8301601f19908116603f0116810190828211818310171562000200576200020062000324565b816040528381526020925086838588010111156200021d57600080fd5b600091505b8382101562000241578582018301518183018401529082019062000222565b83821115620002535760008385830101525b9695505050505050565b6000806000606084860312156200027357600080fd5b83516001600160a01b03811681146200028b57600080fd5b60208501519093506001600160401b0380821115620002a957600080fd5b620002b787838801620001a6565b93506040860151915080821115620002ce57600080fd5b50620002dd86828701620001a6565b9150509250925092565b600181811c90821680620002fc57607f821691505b602082108114156200031e57634e487b7160e01b600052602260045260246000fd5b50919050565b634e487b7160e01b600052604160045260246000fd5b60805160601c611ca36200037c600039600081816102c3015281816104e101528181610c9801528181610eaf015281816111a501526112650152611ca36000f3fe608060405234801561001057600080fd5b50600436106102115760003560e01c806370a0823111610125578063bcb86052116100ad578063d905777e1161007c578063d905777e1461047d578063da463b2114610490578063dd62ed3e146104a3578063ef8b30f714610457578063f851a440146104b657600080fd5b8063bcb860521461041a578063c63d75b614610442578063c6e6f59214610457578063ce96cb771461046a57600080fd5b8063a457c2d7116100f4578063a457c2d7146103bb578063a9059cbb146103ce578063b3d7f6b9146103e1578063b460af94146103f4578063ba0876521461040757600080fd5b806370a082311461036457806394bf804d1461038d57806395d89b41146103a057806396de7aa0146103a857600080fd5b8063313ce567116101a85780633f023230116101775780633f02323014610321578063402d267d1461032b5780634cdad5061461024657806369c1f13d1461033e5780636e553f651461035157600080fd5b8063313ce567146102b257806338d52e0f146102c157806339509351146102fb5780633accfa6c1461030e57600080fd5b80630a28a477116101e45780630a28a4771461027c57806318160ddd1461028f5780631f5f2e381461029757806323b872dd1461029f57600080fd5b806301e1d1141461021657806306fdde031461023157806307a2d13a14610246578063095ea7b314610259575b600080fd5b61021e6104c9565b6040519081526020015b60405180910390f35b610239610568565b6040516102289190611a74565b61021e6102543660046119a4565b6105fa565b61026c610267366004611958565b61060d565b6040519015158152602001610228565b61021e61028a3660046119a4565b610625565b60025461021e565b61021e610632565b61026c6102ad36600461191c565b610677565b60405160128152602001610228565b7f00000000000000000000000000000000000000000000000000000000000000005b6040516001600160a01b039091168152602001610228565b61026c610309366004611958565b61069d565b6006546102e3906001600160a01b031681565b6103296106bf565b005b61021e6103393660046118ce565b610774565b61032961034c3660046118ce565b610792565b61021e61035f3660046119d6565b6107fa565b61021e6103723660046118ce565b6001600160a01b031660009081526020819052604090205490565b61021e61039b3660046119d6565b61086d565b610239610887565b6103296103b63660046118ce565b610896565b61026c6103c9366004611958565b610926565b61026c6103dc366004611958565b6109ac565b61021e6103ef3660046119a4565b6109ba565b61021e6104023660046119f9565b6109c7565b61021e6104153660046119f9565b610ac6565b61042d6104283660046119a4565b610bb6565b60408051928352602083019190915201610228565b61021e6104503660046118ce565b5060001990565b61021e6104653660046119a4565b610bec565b61021e6104783660046118ce565b610bf9565b61021e61048b3660046118ce565b610c1d565b6007546102e3906001600160a01b031681565b61021e6104b13660046118e9565b610c3b565b6005546102e3906001600160a01b031681565b6040516370a0823160e01b81523060048201526000907f00000000000000000000000000000000000000000000000000000000000000006001600160a01b0316906370a082319060240160206040518083038186803b15801561052b57600080fd5b505afa15801561053f573d6000803e3d6000fd5b505050506040513d601f19601f8201168201806040525081019061056391906119bd565b905090565b60606003805461057790611bf0565b80601f01602080910402602001604051908101604052809291908181526020018280546105a390611bf0565b80156105f05780601f106105c5576101008083540402835291602001916105f0565b820191906000526020600020905b8154815290600101906020018083116105d357829003601f168201915b5050505050905090565b6000610607826000610c66565b92915050565b60003361061b818585610d51565b5060019392505050565b6000610607826001610e75565b600754604080516303ebe5c760e31b815290516000926001600160a01b031691631f5f2e38916004808301926020929190829003018186803b15801561052b57600080fd5b600033610685858285610f3e565b610690858585610fb8565b60019150505b9392505050565b60003361061b8185856106b08383610c3b565b6106ba9190611aa7565b610d51565b6006546001600160a01b0316331461070e5760405162461bcd60e51b815260206004820152600d60248201526c6e6f742043616e64696461746560981b60448201526064015b60405180910390fd5b6006546005546040516001600160a01b0392831692909116907f7e644d79422f17c01e4894b5f4f588d331ebfa28653d42ae832dc59e38c9798f90600090a360068054600580546001600160a01b03199081166001600160a01b03841617909155169055565b600061077e611186565b610789576000610607565b60001992915050565b6005546001600160a01b031633146107d85760405162461bcd60e51b81526020600482015260096024820152683737ba1030b236b4b760b91b6044820152606401610705565b600780546001600160a01b0319166001600160a01b0392909216919091179055565b600061080582610774565b8311156108545760405162461bcd60e51b815260206004820152601e60248201527f455243343632363a206465706f736974206d6f7265207468616e206d617800006044820152606401610705565b600061085f84610bec565b9050610696338486846111a0565b600080610879846109ba565b9050610696338483876111a0565b60606004805461057790611bf0565b6005546001600160a01b031633146108dc5760405162461bcd60e51b81526020600482015260096024820152683737ba1030b236b4b760b91b6044820152606401610705565b600680546001600160a01b0319166001600160a01b0383169081179091556040517f8cc40b9abca4a505a92028908f9d913d621d18112c69412806506f02333f26b490600090a250565b600033816109348286610c3b565b9050838110156109945760405162461bcd60e51b815260206004820152602560248201527f45524332303a2064656372656173656420616c6c6f77616e63652062656c6f77604482015264207a65726f60d81b6064820152608401610705565b6109a18286868403610d51565b506001949350505050565b60003361061b818585610fb8565b6000610607826001610c66565b60006109d282610bf9565b841115610a215760405162461bcd60e51b815260206004820152601f60248201527f455243343632363a207769746864726177206d6f7265207468616e206d6178006044820152606401610705565b6000610a2c85610625565b9050600080610a3a87610bb6565b91509150610a51610a483390565b87878587611232565b846001600160a01b0316866001600160a01b0316610a6c3390565b60408051868152602081018690529081018790526001600160a01b0391909116907f99c2da677897ff87f4690335d3bb6bbd1a48b8fe06ad73ac271214046cd7bc9c906060015b60405180910390a4509095945050505050565b6000610ad182610c1d565b841115610b205760405162461bcd60e51b815260206004820152601d60248201527f455243343632363a2072656465656d206d6f7265207468616e206d61780000006044820152606401610705565b6000610b2b856105fa565b9050600080610b3983610bb6565b91509150610b50610b473390565b8787858b611232565b846001600160a01b0316866001600160a01b0316610b6b3390565b60408051868152602081018690529081018b90526001600160a01b0391909116907f99c2da677897ff87f4690335d3bb6bbd1a48b8fe06ad73ac271214046cd7bc9c90606001610ab3565b6000806000610bc3610632565b9050610bd88482670de0b6b3a76400006112f2565b9150610be48285611bad565b925050915091565b6000610607826000610e75565b6001600160a01b038116600090815260208190526040812054610607906000610c66565b6001600160a01b038116600090815260208190526040812054610607565b6001600160a01b03918216600090815260016020908152604080832093909416825291909152205490565b600080610c7260025490565b90508015610c9357610c8e610c856104c9565b859083866113a2565b610d49565b610d497f00000000000000000000000000000000000000000000000000000000000000006001600160a01b031663313ce5676040518163ffffffff1660e01b815260040160206040518083038186803b158015610cef57600080fd5b505afa158015610d03573d6000803e3d6000fd5b505050506040513d601f19601f82011682018060405250810190610d279190611a35565b610d3290600a611b02565b60125b610d4090600a611b02565b869190866113a2565b949350505050565b6001600160a01b038316610db35760405162461bcd60e51b8152602060048201526024808201527f45524332303a20617070726f76652066726f6d20746865207a65726f206164646044820152637265737360e01b6064820152608401610705565b6001600160a01b038216610e145760405162461bcd60e51b815260206004820152602260248201527f45524332303a20617070726f766520746f20746865207a65726f206164647265604482015261737360f01b6064820152608401610705565b6001600160a01b0383811660008181526001602090815260408083209487168084529482529182902085905590518481527f8c5be1e5ebec7d5bd14f71427d1e84f3dd0314c0f7b2291e5b200ac8c7c3b925910160405180910390a3505050565b600080610e8160025490565b9050831580610e8e575080155b610e9e57610c8e81610d406104c9565b610d49610ead6012600a611b02565b7f00000000000000000000000000000000000000000000000000000000000000006001600160a01b031663313ce5676040518163ffffffff1660e01b815260040160206040518083038186803b158015610f0657600080fd5b505afa158015610f1a573d6000803e3d6000fd5b505050506040513d601f19601f82011682018060405250810190610d359190611a35565b6000610f4a8484610c3b565b90506000198114610fb25781811015610fa55760405162461bcd60e51b815260206004820152601d60248201527f45524332303a20696e73756666696369656e7420616c6c6f77616e63650000006044820152606401610705565b610fb28484848403610d51565b50505050565b6001600160a01b03831661101c5760405162461bcd60e51b815260206004820152602560248201527f45524332303a207472616e736665722066726f6d20746865207a65726f206164604482015264647265737360d81b6064820152608401610705565b6001600160a01b03821661107e5760405162461bcd60e51b815260206004820152602360248201527f45524332303a207472616e7366657220746f20746865207a65726f206164647260448201526265737360e81b6064820152608401610705565b6001600160a01b038316600090815260208190526040902054818110156110f65760405162461bcd60e51b815260206004820152602660248201527f45524332303a207472616e7366657220616d6f756e7420657863656564732062604482015265616c616e636560d01b6064820152608401610705565b6001600160a01b0380851660009081526020819052604080822085850390559185168152908120805484929061112d908490611aa7565b92505081905550826001600160a01b0316846001600160a01b03167fddf252ad1be2c89b69c2b068fc378daa952ba7f163c4a11628f55a4df523b3ef8460405161117991815260200190565b60405180910390a3610fb2565b6000806111916104c9565b11806105635750506002541590565b6111cc7f0000000000000000000000000000000000000000000000000000000000000000853085611404565b6111d6838261146f565b826001600160a01b0316846001600160a01b03167fdcbc1c05240f31ff3ad067ef1ee35ce4997762752e3a095284754544f4c709d78484604051611224929190918252602082015260400190565b60405180910390a350505050565b826001600160a01b0316856001600160a01b03161461125657611256838683610f3e565b611260838261154e565b61128b7f0000000000000000000000000000000000000000000000000000000000000000858461169c565b826001600160a01b0316846001600160a01b0316866001600160a01b03167ffbde797d201c681b91056529119e0b02407c7bb96a4a2c75c01fc9667232c8db85856040516112e3929190918252602082015260400190565b60405180910390a45050505050565b60008080600019858709858702925082811083820303915050806000141561132d5783828161132357611323611c41565b0492505050610696565b80841161133957600080fd5b60008486880960026001871981018816978890046003810283188082028403028082028403028082028403028082028403028082028403029081029092039091026000889003889004909101858311909403939093029303949094049190911702949350505050565b6000806113b08686866112f2565b905060018360028111156113c6576113c6611c57565b1480156113e35750600084806113de576113de611c41565b868809115b156113f6576113f3600182611aa7565b90505b95945050505050565b505050565b6040516001600160a01b0380851660248301528316604482015260648101829052610fb29085906323b872dd60e01b906084015b60408051601f198184030181529190526020810180516001600160e01b03166001600160e01b0319909316929092179091526116cc565b6001600160a01b0382166114c55760405162461bcd60e51b815260206004820152601f60248201527f45524332303a206d696e7420746f20746865207a65726f2061646472657373006044820152606401610705565b80600260008282546114d79190611aa7565b90915550506001600160a01b03821660009081526020819052604081208054839290611504908490611aa7565b90915550506040518181526001600160a01b038316906000907fddf252ad1be2c89b69c2b068fc378daa952ba7f163c4a11628f55a4df523b3ef9060200160405180910390a35050565b6001600160a01b0382166115ae5760405162461bcd60e51b815260206004820152602160248201527f45524332303a206275726e2066726f6d20746865207a65726f206164647265736044820152607360f81b6064820152608401610705565b6001600160a01b038216600090815260208190526040902054818110156116225760405162461bcd60e51b815260206004820152602260248201527f45524332303a206275726e20616d6f756e7420657863656564732062616c616e604482015261636560f01b6064820152608401610705565b6001600160a01b0383166000908152602081905260408120838303905560028054849290611651908490611bad565b90915550506040518281526000906001600160a01b038516907fddf252ad1be2c89b69c2b068fc378daa952ba7f163c4a11628f55a4df523b3ef9060200160405180910390a3505050565b6040516001600160a01b0383166024820152604481018290526113ff90849063a9059cbb60e01b90606401611438565b6000611721826040518060400160405280602081526020017f5361666545524332303a206c6f772d6c6576656c2063616c6c206661696c6564815250856001600160a01b031661179e9092919063ffffffff16565b8051909150156113ff578080602001905181019061173f9190611982565b6113ff5760405162461bcd60e51b815260206004820152602a60248201527f5361666545524332303a204552433230206f7065726174696f6e20646964206e6044820152691bdd081cdd58d8d9595960b21b6064820152608401610705565b6060610d498484600085856001600160a01b0385163b6118005760405162461bcd60e51b815260206004820152601d60248201527f416464726573733a2063616c6c20746f206e6f6e2d636f6e74726163740000006044820152606401610705565b600080866001600160a01b0316858760405161181c9190611a58565b60006040518083038185875af1925050503d8060008114611859576040519150601f19603f3d011682016040523d82523d6000602084013e61185e565b606091505b509150915061186e828286611879565b979650505050505050565b60608315611888575081610696565b8251156118985782518084602001fd5b8160405162461bcd60e51b81526004016107059190611a74565b80356001600160a01b03811681146118c957600080fd5b919050565b6000602082840312156118e057600080fd5b610696826118b2565b600080604083850312156118fc57600080fd5b611905836118b2565b9150611913602084016118b2565b90509250929050565b60008060006060848603121561193157600080fd5b61193a846118b2565b9250611948602085016118b2565b9150604084013590509250925092565b6000806040838503121561196b57600080fd5b611974836118b2565b946020939093013593505050565b60006020828403121561199457600080fd5b8151801515811461069657600080fd5b6000602082840312156119b657600080fd5b5035919050565b6000602082840312156119cf57600080fd5b5051919050565b600080604083850312156119e957600080fd5b82359150611913602084016118b2565b600080600060608486031215611a0e57600080fd5b83359250611a1e602085016118b2565b9150611a2c604085016118b2565b90509250925092565b600060208284031215611a4757600080fd5b815160ff8116811461069657600080fd5b60008251611a6a818460208701611bc4565b9190910192915050565b6020815260008251806020840152611a93816040850160208701611bc4565b601f01601f19169190910160400192915050565b60008219821115611aba57611aba611c2b565b500190565b600181815b80851115611afa578160001904821115611ae057611ae0611c2b565b80851615611aed57918102915b93841c9390800290611ac4565b509250929050565b600061069660ff841683600082611b1b57506001610607565b81611b2857506000610607565b8160018114611b3e5760028114611b4857611b64565b6001915050610607565b60ff841115611b5957611b59611c2b565b50506001821b610607565b5060208310610133831016604e8410600b8410161715611b87575081810a610607565b611b918383611abf565b8060001904821115611ba557611ba5611c2b565b029392505050565b600082821015611bbf57611bbf611c2b565b500390565b60005b83811015611bdf578181015183820152602001611bc7565b83811115610fb25750506000910152565b600181811c90821680611c0457607f821691505b60208210811415611c2557634e487b7160e01b600052602260045260246000fd5b50919050565b634e487b7160e01b600052601160045260246000fd5b634e487b7160e01b600052601260045260246000fd5b634e487b7160e01b600052602160045260246000fdfea2646970667358221220f1ad9d17dfc003af932738661cbd6ebe1f63a14bc60b4fef16e78f6c528bdaca64736f6c63430008070033",
  "devdoc": {
    "kind": "dev",
    "methods": {
      "allowance(address,address)": {
        "details": "See {IERC20-allowance}."
      },
      "approve(address,uint256)": {
        "details": "See {IERC20-approve}. NOTE: If `amount` is the maximum `uint256`, the allowance is not updated on `transferFrom`. This is semantically equivalent to an infinite approval. Requirements: - `spender` cannot be the zero address."
      },
      "asset()": {
        "details": "See {IERC4262-asset}. "
      },
      "balanceOf(address)": {
        "details": "See {IERC20-balanceOf}."
      },
      "convertToAssets(uint256)": {
        "details": "See {IERC4262-convertToAssets}. "
      },
      "convertToShares(uint256)": {
        "details": "See {IERC4262-convertToShares}. "
      },
      "decimals()": {
        "details": "Returns the number of decimals used to get its user representation. For example, if `decimals` equals `2`, a balance of `505` tokens should be displayed to a user as `5.05` (`505 / 10 ** 2`). Tokens usually opt for a value of 18, imitating the relationship between Ether and Wei. This is the value {ERC20} uses, unless this function is overridden; NOTE: This information is only used for _display_ purposes: it in no way affects any of the arithmetic of the contract, including {IERC20-balanceOf} and {IERC20-transfer}."
      },
      "decreaseAllowance(address,uint256)": {
        "details": "Atomically decreases the allowance granted to `spender` by the caller. This is an alternative to {approve} that can be used as a mitigation for problems described in {IERC20-approve}. Emits an {Approval} event indicating the updated allowance. Requirements: - `spender` cannot be the zero address. - `spender` must have allowance for the caller of at least `subtractedValue`."
      },
      "deposit(uint256,address)": {
        "details": "See {IERC4262-deposit}. "
      },
      "increaseAllowance(address,uint256)": {
        "details": "Atomically increases the allowance granted to `spender` by the caller. This is an alternative to {approve} that can be used as a mitigation for problems described in {IERC20-approve}. Emits an {Approval} event indicating the updated allowance. Requirements: - `spender` cannot be the zero address."
      },
      "maxDeposit(address)": {
        "details": "See {IERC4262-maxDeposit}. "
      },
      "maxMint(address)": {
        "details": "See {IERC4262-maxMint}. "
      },
      "maxRedeem(address)": {
        "details": "See {IERC4262-maxRedeem}. "
      },
      "maxWithdraw(address)": {
        "details": "See {IERC4262-maxWithdraw}. "
      },
      "mint(uint256,address)": {
        "details": "See {IERC4262-mint}. "
      },
      "name()": {
        "details": "Returns the name of the token."
      },
      "previewDeposit(uint256)": {
        "details": "See {IERC4262-previewDeposit}. "
      },
      "previewMint(uint256)": {
        "details": "See {IERC4262-previewMint}. "
      },
      "previewRedeem(uint256)": {
        "details": "See {IERC4262-previewRedeem}. "
      },
      "previewWithdraw(uint256)": {
        "details": "See {IERC4262-previewWithdraw}. "
      },
      "redeem(uint256,address,address)": {
        "details": "See {IERC4262-redeem}. "
      },
      "symbol()": {
        "details": "Returns the symbol of the token, usually a shorter version of the name."
      },
      "totalAssets()": {
        "details": "See {IERC4262-totalAssets}. "
      },
      "totalSupply()": {
        "details": "See {IERC20-totalSupply}."
      },
      "transfer(address,uint256)": {
        "details": "See {IERC20-transfer}. Requirements: - `to` cannot be the zero address. - the caller must have a balance of at least `amount`."
      },
      "transferFrom(address,address,uint256)": {
        "details": "See {IERC20-transferFrom}. Emits an {Approval} event indicating the updated allowance. This is not required by the EIP. See the note at the beginning of {ERC20}. NOTE: Does not update the allowance if the current allowance is the maximum `uint256`. Requirements: - `from` and `to` cannot be the zero address. - `from` must have a balance of at least `amount`. - the caller must have allowance for ``from``'s tokens of at least `amount`."
      },
      "withdraw(uint256,address,address)": {
        "details": "See {IERC4262-withdraw}. "
      }
    },
    "version": 1
  },
  "userdoc": {
    "kind": "user",
    "methods": {},
    "version": 1
  },
  "storageLayout": {
    "storage": [
      {
        "astId": 595,
        "contract": "contracts/tokens/vxZenlinkToken.sol:vxZenlinkToken",
        "label": "_balances",
        "offset": 0,
        "slot": "0",
        "type": "t_mapping(t_address,t_uint256)"
      },
      {
        "astId": 601,
        "contract": "contracts/tokens/vxZenlinkToken.sol:vxZenlinkToken",
        "label": "_allowances",
        "offset": 0,
        "slot": "1",
        "type": "t_mapping(t_address,t_mapping(t_address,t_uint256))"
      },
      {
        "astId": 603,
        "contract": "contracts/tokens/vxZenlinkToken.sol:vxZenlinkToken",
        "label": "_totalSupply",
        "offset": 0,
        "slot": "2",
        "type": "t_uint256"
      },
      {
        "astId": 605,
        "contract": "contracts/tokens/vxZenlinkToken.sol:vxZenlinkToken",
        "label": "_name",
        "offset": 0,
        "slot": "3",
        "type": "t_string_storage"
      },
      {
        "astId": 607,
        "contract": "contracts/tokens/vxZenlinkToken.sol:vxZenlinkToken",
        "label": "_symbol",
        "offset": 0,
        "slot": "4",
        "type": "t_string_storage"
      },
      {
        "astId": 7604,
        "contract": "contracts/tokens/vxZenlinkToken.sol:vxZenlinkToken",
        "label": "admin",
        "offset": 0,
        "slot": "5",
        "type": "t_address"
      },
      {
        "astId": 7606,
        "contract": "contracts/tokens/vxZenlinkToken.sol:vxZenlinkToken",
        "label": "adminCandidate",
        "offset": 0,
        "slot": "6",
        "type": "t_address"
      },
      {
        "astId": 30158,
        "contract": "contracts/tokens/vxZenlinkToken.sol:vxZenlinkToken",
        "label": "loyaltyCalculator",
        "offset": 0,
        "slot": "7",
        "type": "t_address"
      }
    ],
    "types": {
      "t_address": {
        "encoding": "inplace",
        "label": "address",
        "numberOfBytes": "20"
      },
      "t_mapping(t_address,t_mapping(t_address,t_uint256))": {
        "encoding": "mapping",
        "key": "t_address",
        "label": "mapping(address => mapping(address => uint256))",
        "numberOfBytes": "32",
        "value": "t_mapping(t_address,t_uint256)"
      },
      "t_mapping(t_address,t_uint256)": {
        "encoding": "mapping",
        "key": "t_address",
        "label": "mapping(address => uint256)",
        "numberOfBytes": "32",
        "value": "t_uint256"
      },
      "t_string_storage": {
        "encoding": "bytes",
        "label": "string",
        "numberOfBytes": "32"
      },
      "t_uint256": {
        "encoding": "inplace",
        "label": "uint256",
        "numberOfBytes": "32"
      }
    }
  }
}