{
  "address": "0xaa3B362b0aE5c99C2E2DA11CC8F3A3fAbd5f6c2D",
  "abi": [
    {
      "inputs": [
        {
          "internalType": "contract IERC20",
          "name": "_token",
          "type": "address"
        },
        {
          "internalType": "address",
          "name": "_dest",
          "type": "address"
        }
      ],
      "stateMutability": "nonpayable",
      "type": "constructor"
    },
    {
      "anonymous": false,
      "inputs": [
        {
          "indexed": true,
          "internalType": "address",
          "name": "oldAdmin",
          "type": "address"
        },
        {
          "indexed": true,
          "internalType": "address",
          "name": "newAdmin",
          "type": "address"
        }
      ],
      "name": "AdminChanged",
      "type": "event"
    },
    {
      "anonymous": false,
      "inputs": [
        {
          "indexed": true,
          "internalType": "address",
          "name": "newAdmin",
          "type": "address"
        }
      ],
      "name": "Candidate",
      "type": "event"
    },
    {
      "anonymous": false,
      "inputs": [
        {
          "indexed": true,
          "internalType": "address",
          "name": "sender",
          "type": "address"
        },
        {
          "indexed": true,
          "internalType": "address",
          "name": "token",
          "type": "address"
        },
        {
          "indexed": false,
          "internalType": "uint256",
          "name": "amount",
          "type": "uint256"
        }
      ],
      "name": "Charged",
      "type": "event"
    },
    {
      "anonymous": false,
      "inputs": [
        {
          "indexed": true,
          "internalType": "address",
          "name": "dest",
          "type": "address"
        },
        {
          "indexed": true,
          "internalType": "address",
          "name": "token",
          "type": "address"
        },
        {
          "indexed": false,
          "internalType": "uint256",
          "name": "amount",
          "type": "uint256"
        }
      ],
      "name": "DispatchReward",
      "type": "event"
    },
    {
      "anonymous": false,
      "inputs": [
        {
          "indexed": false,
          "internalType": "uint256",
          "name": "rate",
          "type": "uint256"
        }
      ],
      "name": "UpdateRate",
      "type": "event"
    },
    {
      "anonymous": false,
      "inputs": [
        {
          "indexed": true,
          "internalType": "address",
          "name": "sender",
          "type": "address"
        },
        {
          "indexed": true,
          "internalType": "address",
          "name": "token",
          "type": "address"
        },
        {
          "indexed": false,
          "internalType": "uint256",
          "name": "amount",
          "type": "uint256"
        }
      ],
      "name": "WithdrawReward",
      "type": "event"
    },
    {
      "inputs": [],
      "name": "admin",
      "outputs": [
        {
          "internalType": "address",
          "name": "",
          "type": "address"
        }
      ],
      "stateMutability": "view",
      "type": "function"
    },
    {
      "inputs": [],
      "name": "adminCandidate",
      "outputs": [
        {
          "internalType": "address",
          "name": "",
          "type": "address"
        }
      ],
      "stateMutability": "view",
      "type": "function"
    },
    {
      "inputs": [],
      "name": "candidateConfirm",
      "outputs": [],
      "stateMutability": "nonpayable",
      "type": "function"
    },
    {
      "inputs": [],
      "name": "dest",
      "outputs": [
        {
          "internalType": "address",
          "name": "",
          "type": "address"
        }
      ],
      "stateMutability": "view",
      "type": "function"
    },
    {
      "inputs": [],
      "name": "dispatchReward",
      "outputs": [],
      "stateMutability": "nonpayable",
      "type": "function"
    },
    {
      "inputs": [],
      "name": "lastRecordBlock",
      "outputs": [
        {
          "internalType": "uint256",
          "name": "",
          "type": "uint256"
        }
      ],
      "stateMutability": "view",
      "type": "function"
    },
    {
      "inputs": [],
      "name": "rewardRate",
      "outputs": [
        {
          "internalType": "uint256",
          "name": "",
          "type": "uint256"
        }
      ],
      "stateMutability": "view",
      "type": "function"
    },
    {
      "inputs": [
        {
          "internalType": "address",
          "name": "_candidate",
          "type": "address"
        }
      ],
      "name": "setAdminCandidate",
      "outputs": [],
      "stateMutability": "nonpayable",
      "type": "function"
    },
    {
      "inputs": [],
      "name": "token",
      "outputs": [
        {
          "internalType": "contract IERC20",
          "name": "",
          "type": "address"
        }
      ],
      "stateMutability": "view",
      "type": "function"
    },
    {
      "inputs": [
        {
          "internalType": "uint256",
          "name": "rate",
          "type": "uint256"
        }
      ],
      "name": "updateRate",
      "outputs": [],
      "stateMutability": "nonpayable",
      "type": "function"
    },
    {
      "inputs": [
        {
          "internalType": "uint256",
          "name": "amount",
          "type": "uint256"
        }
      ],
      "name": "withdrawRewards",
      "outputs": [],
      "stateMutability": "nonpayable",
      "type": "function"
    }
  ],
  "transactionHash": "0xc9209eb3783c4666d354700617feb8b672b57232585e55092c616de667326d5b",
  "args": [
    "0xB5989e3Eb10bBe04b962586910C0bBC1238baD78",
    "0xb38188fEDff30bEc23aEf5C691AB647756771fF1"
  ],
  "numDeployments": 1,
  "solcInputHash": "aac942c2d95275ad78854945531a3719",
  "bytecode": "0x60c060405234801561001057600080fd5b50604051610a74380380610a7483398101604081905261002f916100cc565b6001600160601b0319606083811b821660805282901b1660a05261005233610059565b505061011e565b6000546001600160a01b0316156100aa5760405162461bcd60e51b815260206004820152601160248201527018591b5a5b88185b1c9958591e481cd95d607a1b604482015260640160405180910390fd5b600080546001600160a01b0319166001600160a01b0392909216919091179055565b600080604083850312156100df57600080fd5b82516100ea81610106565b60208401519092506100fb81610106565b809150509250929050565b6001600160a01b038116811461011b57600080fd5b50565b60805160601c60a05160601c61090861016c6000396000818161012801526102af0152600081816101880152818161028d015281816102e4015281816103dc015261041301526109086000f3fe608060405234801561001057600080fd5b50600436106100a95760003560e01c80637b0a47ee116100715780637b0a47ee1461011a57806384b366dc146101235780639342c8f41461014a57806396de7aa01461015d578063f851a44014610170578063fc0c546a1461018357600080fd5b806303ee9440146100ae5780633accfa6c146100ca5780633f023230146100f55780634d2a3fe6146100ff57806369ea177114610107575b600080fd5b6100b760035481565b6040519081526020015b60405180910390f35b6001546100dd906001600160a01b031681565b6040516001600160a01b0390911681526020016100c1565b6100fd6101aa565b005b6100fd61025d565b6100fd6101153660046107cb565b610338565b6100b760025481565b6100dd7f000000000000000000000000000000000000000000000000000000000000000081565b6100fd6101583660046107cb565b6103a5565b6100fd61016b366004610780565b610460565b6000546100dd906001600160a01b031681565b6100dd7f000000000000000000000000000000000000000000000000000000000000000081565b6001546001600160a01b031633146101f95760405162461bcd60e51b815260206004820152600d60248201526c6e6f742043616e64696461746560981b60448201526064015b60405180910390fd5b600154600080546040516001600160a01b0393841693909116917f7e644d79422f17c01e4894b5f4f588d331ebfa28653d42ae832dc59e38c9798f91a360018054600080546001600160a01b03199081166001600160a01b03841617909155169055565b6000600254600354436102709190610875565b61027a9190610856565b4360035590506102d46001600160a01b037f0000000000000000000000000000000000000000000000000000000000000000167f0000000000000000000000000000000000000000000000000000000000000000836104d4565b6040518181526001600160a01b037f0000000000000000000000000000000000000000000000000000000000000000169033907fc8cf99bebdbca0afcb2d730320c39bc237d7a960965c94931c08622e864e8b6e906020015b60405180910390a350565b6000546001600160a01b031633146103625760405162461bcd60e51b81526004016101f090610833565b61036a61025d565b60028190556040518181527fc04ab144c3f6fd32b71825eb92c20af3c8b2f2b6680dfaf3645b527f098c245b9060200160405180910390a150565b6000546001600160a01b031633146103cf5760405162461bcd60e51b81526004016101f090610833565b6104036001600160a01b037f00000000000000000000000000000000000000000000000000000000000000001633836104d4565b6040518181526001600160a01b037f0000000000000000000000000000000000000000000000000000000000000000169033907fad71f93891cecc86a28a627d5495c28fabbd31cdd2e93851b16ce3421fdab2e59060200161032d565b6000546001600160a01b0316331461048a5760405162461bcd60e51b81526004016101f090610833565b600180546001600160a01b0319166001600160a01b0383169081179091556040517f8cc40b9abca4a505a92028908f9d913d621d18112c69412806506f02333f26b490600090a250565b604080516001600160a01b038416602482015260448082018490528251808303909101815260649091019091526020810180516001600160e01b031663a9059cbb60e01b17905261052690849061052b565b505050565b6000610580826040518060400160405280602081526020017f5361666545524332303a206c6f772d6c6576656c2063616c6c206661696c6564815250856001600160a01b03166105fd9092919063ffffffff16565b805190915015610526578080602001905181019061059e91906107a9565b6105265760405162461bcd60e51b815260206004820152602a60248201527f5361666545524332303a204552433230206f7065726174696f6e20646964206e6044820152691bdd081cdd58d8d9595960b21b60648201526084016101f0565b606061060c8484600085610616565b90505b9392505050565b6060824710156106775760405162461bcd60e51b815260206004820152602660248201527f416464726573733a20696e73756666696369656e742062616c616e636520666f6044820152651c8818d85b1b60d21b60648201526084016101f0565b6001600160a01b0385163b6106ce5760405162461bcd60e51b815260206004820152601d60248201527f416464726573733a2063616c6c20746f206e6f6e2d636f6e747261637400000060448201526064016101f0565b600080866001600160a01b031685876040516106ea91906107e4565b60006040518083038185875af1925050503d8060008114610727576040519150601f19603f3d011682016040523d82523d6000602084013e61072c565b606091505b509150915061073c828286610747565b979650505050505050565b6060831561075657508161060f565b8251156107665782518084602001fd5b8160405162461bcd60e51b81526004016101f09190610800565b60006020828403121561079257600080fd5b81356001600160a01b038116811461060f57600080fd5b6000602082840312156107bb57600080fd5b8151801515811461060f57600080fd5b6000602082840312156107dd57600080fd5b5035919050565b600082516107f681846020870161088c565b9190910192915050565b602081526000825180602084015261081f81604085016020870161088c565b601f01601f19169190910160400192915050565b6020808252600990820152683737ba1030b236b4b760b91b604082015260600190565b6000816000190483118215151615610870576108706108bc565b500290565b600082821015610887576108876108bc565b500390565b60005b838110156108a757818101518382015260200161088f565b838111156108b6576000848401525b50505050565b634e487b7160e01b600052601160045260246000fdfea2646970667358221220792897f2c491bae82c4e09df5f27de638d2d1d7af68544c2a572c7ab9e76278b64736f6c63430008070033",
  "devdoc": {
    "kind": "dev",
    "methods": {},
    "version": 1
  },
  "userdoc": {
    "kind": "user",
    "methods": {},
    "version": 1
  },
  "storageLayout": {
    "storage": [
      {
        "astId": 693,
        "contract": "contracts/tools/RewardDispatcher.sol:RewardDispatcher",
        "label": "admin",
        "offset": 0,
        "slot": "0",
        "type": "t_address"
      },
      {
        "astId": 695,
        "contract": "contracts/tools/RewardDispatcher.sol:RewardDispatcher",
        "label": "adminCandidate",
        "offset": 0,
        "slot": "1",
        "type": "t_address"
      },
      {
        "astId": 803,
        "contract": "contracts/tools/RewardDispatcher.sol:RewardDispatcher",
        "label": "rewardRate",
        "offset": 0,
        "slot": "2",
        "type": "t_uint256"
      },
      {
        "astId": 805,
        "contract": "contracts/tools/RewardDispatcher.sol:RewardDispatcher",
        "label": "lastRecordBlock",
        "offset": 0,
        "slot": "3",
        "type": "t_uint256"
      }
    ],
    "types": {
      "t_address": {
        "encoding": "inplace",
        "label": "address",
        "numberOfBytes": "20"
      },
      "t_uint256": {
        "encoding": "inplace",
        "label": "uint256",
        "numberOfBytes": "32"
      }
    }
  }
}