{
  "address": "0x639E2d1b94781411bdAF566DD28E95869a22c7c9",
  "abi": [
    {
      "inputs": [
        {
          "internalType": "address",
          "name": "_vxZenlinkToken",
          "type": "address"
        },
        {
          "internalType": "address",
          "name": "_zenlinkToken",
          "type": "address"
        },
        {
          "internalType": "uint256",
          "name": "_minPenaltyRatio",
          "type": "uint256"
        },
        {
          "internalType": "uint256",
          "name": "_maxPenaltyRatio",
          "type": "uint256"
        }
      ],
      "stateMutability": "nonpayable",
      "type": "constructor"
    },
    {
      "inputs": [
        {
          "internalType": "uint256",
          "name": "maxPenaltyRatio",
          "type": "uint256"
        }
      ],
      "name": "CannotExceedMaxPenaltyRatio",
      "type": "error"
    },
    {
      "inputs": [
        {
          "internalType": "uint256",
          "name": "min",
          "type": "uint256"
        },
        {
          "internalType": "uint256",
          "name": "max",
          "type": "uint256"
        }
      ],
      "name": "InvalidPenaltyRatio",
      "type": "error"
    },
    {
      "inputs": [],
      "name": "ZeroAddress",
      "type": "error"
    },
    {
      "anonymous": false,
      "inputs": [
        {
          "indexed": true,
          "internalType": "address",
          "name": "oldAdmin",
          "type": "address"
        },
        {
          "indexed": true,
          "internalType": "address",
          "name": "newAdmin",
          "type": "address"
        }
      ],
      "name": "AdminChanged",
      "type": "event"
    },
    {
      "anonymous": false,
      "inputs": [
        {
          "indexed": true,
          "internalType": "address",
          "name": "newAdmin",
          "type": "address"
        }
      ],
      "name": "Candidate",
      "type": "event"
    },
    {
      "inputs": [
        {
          "internalType": "address",
          "name": "lockedContract",
          "type": "address"
        }
      ],
      "name": "addLockedContract",
      "outputs": [],
      "stateMutability": "nonpayable",
      "type": "function"
    },
    {
      "inputs": [],
      "name": "admin",
      "outputs": [
        {
          "internalType": "address",
          "name": "",
          "type": "address"
        }
      ],
      "stateMutability": "view",
      "type": "function"
    },
    {
      "inputs": [],
      "name": "adminCandidate",
      "outputs": [
        {
          "internalType": "address",
          "name": "",
          "type": "address"
        }
      ],
      "stateMutability": "view",
      "type": "function"
    },
    {
      "inputs": [],
      "name": "candidateConfirm",
      "outputs": [],
      "stateMutability": "nonpayable",
      "type": "function"
    },
    {
      "inputs": [],
      "name": "getCirculation",
      "outputs": [
        {
          "internalType": "uint256",
          "name": "circulation",
          "type": "uint256"
        }
      ],
      "stateMutability": "view",
      "type": "function"
    },
    {
      "inputs": [
        {
          "internalType": "uint256",
          "name": "input",
          "type": "uint256"
        }
      ],
      "name": "getRatioValue",
      "outputs": [
        {
          "internalType": "uint256",
          "name": "",
          "type": "uint256"
        }
      ],
      "stateMutability": "view",
      "type": "function"
    },
    {
      "inputs": [],
      "name": "getZenlinkTokenWithdrawFeeRatio",
      "outputs": [
        {
          "internalType": "uint256",
          "name": "ratio",
          "type": "uint256"
        }
      ],
      "stateMutability": "view",
      "type": "function"
    },
    {
      "inputs": [],
      "name": "lockedContracts",
      "outputs": [
        {
          "internalType": "address[]",
          "name": "",
          "type": "address[]"
        }
      ],
      "stateMutability": "view",
      "type": "function"
    },
    {
      "inputs": [],
      "name": "maxPenaltyRatio",
      "outputs": [
        {
          "internalType": "uint256",
          "name": "",
          "type": "uint256"
        }
      ],
      "stateMutability": "view",
      "type": "function"
    },
    {
      "inputs": [],
      "name": "minPenaltyRatio",
      "outputs": [
        {
          "internalType": "uint256",
          "name": "",
          "type": "uint256"
        }
      ],
      "stateMutability": "view",
      "type": "function"
    },
    {
      "inputs": [
        {
          "internalType": "address",
          "name": "lockedContract",
          "type": "address"
        }
      ],
      "name": "removeLockedContract",
      "outputs": [],
      "stateMutability": "nonpayable",
      "type": "function"
    },
    {
      "inputs": [
        {
          "internalType": "address",
          "name": "_candidate",
          "type": "address"
        }
      ],
      "name": "setAdminCandidate",
      "outputs": [],
      "stateMutability": "nonpayable",
      "type": "function"
    },
    {
      "inputs": [
        {
          "internalType": "uint256",
          "name": "_minPenaltyRatio",
          "type": "uint256"
        },
        {
          "internalType": "uint256",
          "name": "_maxPenaltyRatio",
          "type": "uint256"
        }
      ],
      "name": "updatePenaltyRatio",
      "outputs": [],
      "stateMutability": "nonpayable",
      "type": "function"
    }
  ],
  "transactionHash": "0xe54606ead7bf726c4b0bb7c1b61eb444531d9acf5d9f1bb2c522964772645bd7",
  "args": [
    "0xb38188fEDff30bEc23aEf5C691AB647756771fF1",
    "0xB5989e3Eb10bBe04b962586910C0bBC1238baD78",
    "0",
    "500000000000000000"
  ],
  "numDeployments": 1,
  "solcInputHash": "007aa94c81b3bc67ae48537a63ee475f",
  "bytecode": "0x60c060405234801561001057600080fd5b50604051610dc5380380610dc583398101604081905261002f9161015d565b6001600160601b0319606085811b821660805284901b1660a0526100538282610065565b61005c336100d2565b505050506101a0565b6706f05b59d3b2000081111561009d576040516369f8dcf160e01b81526706f05b59d3b2000060048201526024015b60405180910390fd5b808211156100c757604051624019f560e61b81526004810183905260248101829052604401610094565b600291909155600355565b6000546001600160a01b03161561011f5760405162461bcd60e51b815260206004820152601160248201527018591b5a5b88185b1c9958591e481cd95d607a1b6044820152606401610094565b600080546001600160a01b0319166001600160a01b0392909216919091179055565b80516001600160a01b038116811461015857600080fd5b919050565b6000806000806080858703121561017357600080fd5b61017c85610141565b935061018a60208601610141565b6040860151606090960151949790965092505050565b60805160601c60a05160601c610bec6101d9600039600081816102b10152818161051e01526105cb0152600061027f0152610bec6000f3fe608060405234801561001057600080fd5b50600436106100cf5760003560e01c80637d9c21d71161008c578063bf151cb811610066578063bf151cb814610182578063c79dc2441461018a578063f851a4401461019f578063fa9e67f9146101b257600080fd5b80637d9c21d71461015357806396de7aa014610166578063b403f9c91461017957600080fd5b806310cdc01a146100d45780631bca1e23146100fa5780631f5f2e38146101035780633accfa6c1461010b5780633f023230146101365780635571bfcf14610140575b600080fd5b6100e76100e2366004610a68565b6101c5565b6040519081526020015b60405180910390f35b6100e760035481565b6100e761025d565b60015461011e906001600160a01b031681565b6040516001600160a01b0390911681526020016100f1565b61013e61034e565b005b61013e61014e366004610a3f565b610401565b61013e610161366004610a9a565b610472565b61013e610174366004610a3f565b6104a6565b6100e760025481565b6100e761051a565b6101926106b0565b6040516100f19190610abc565b60005461011e906001600160a01b031681565b61013e6101c0366004610a3f565b6106c1565b600067016345785d8a00008210156101df57505060035490565b6706f05b59d3b200008211156101f757505060025490565b600061022360025460035461020c9190610b2c565b670de0b6b3a764000067058d15e17628000061072c565b905061024961023a67016345785d8a000085610b2c565b82670de0b6b3a764000061072c565b6003546102569190610b2c565b9392505050565b60008061026861051a565b6040516370a0823160e01b81526001600160a01b037f00000000000000000000000000000000000000000000000000000000000000008116600483015291925060009161033c917f0000000000000000000000000000000000000000000000000000000000000000909116906370a082319060240160206040518083038186803b1580156102f557600080fd5b505afa158015610309573d6000803e3d6000fd5b505050506040513d601f19601f8201168201806040525081019061032d9190610a81565b670de0b6b3a76400008461072c565b9050610347816101c5565b9250505090565b6001546001600160a01b0316331461039d5760405162461bcd60e51b815260206004820152600d60248201526c6e6f742043616e64696461746560981b60448201526064015b60405180910390fd5b600154600080546040516001600160a01b0393841693909116917f7e644d79422f17c01e4894b5f4f588d331ebfa28653d42ae832dc59e38c9798f91a360018054600080546001600160a01b03199081166001600160a01b03841617909155169055565b6000546001600160a01b0316331461042b5760405162461bcd60e51b815260040161039490610b09565b6001600160a01b0381166104525760405163d92e233d60e01b815260040160405180910390fd5b61045d6004826107db565b1561046f5761046d600482610802565b505b50565b6000546001600160a01b0316331461049c5760405162461bcd60e51b815260040161039490610b09565b61046d8282610817565b6000546001600160a01b031633146104d05760405162461bcd60e51b815260040161039490610b09565b600180546001600160a01b0319166001600160a01b0383169081179091556040517f8cc40b9abca4a505a92028908f9d913d621d18112c69412806506f02333f26b490600090a250565b60007f00000000000000000000000000000000000000000000000000000000000000006001600160a01b03166318160ddd6040518163ffffffff1660e01b815260040160206040518083038186803b15801561057557600080fd5b505afa158015610589573d6000803e3d6000fd5b505050506040513d601f19601f820116820180604052508101906105ad9190610a81565b905060006105bb600461087f565b905060005b81518110156106ab577f00000000000000000000000000000000000000000000000000000000000000006001600160a01b03166370a0823183838151811061060a5761060a610ba0565b60200260200101516040518263ffffffff1660e01b815260040161063d91906001600160a01b0391909116815260200190565b60206040518083038186803b15801561065557600080fd5b505afa158015610669573d6000803e3d6000fd5b505050506040513d601f19601f8201168201806040525081019061068d9190610a81565b6106979084610b2c565b9250806106a381610b43565b9150506105c0565b505090565b60606106bc600461087f565b905090565b6000546001600160a01b031633146106eb5760405162461bcd60e51b815260040161039490610b09565b6001600160a01b0381166107125760405163d92e233d60e01b815260040160405180910390fd5b61071d6004826107db565b61046f5761046d60048261088c565b6000808060001985870985870292508281108382030391505080600014156107675783828161075d5761075d610b74565b0492505050610256565b80841161077357600080fd5b600084868809600260036001881981018916988990049182028318808302840302808302840302808302840302808302840302808302840302918202909203026000889003889004909101858311909403939093029303949094049190911702949350505050565b6001600160a01b038116600090815260018301602052604081205415155b90505b92915050565b60006107f9836001600160a01b0384166108a1565b6706f05b59d3b2000081111561084a576040516369f8dcf160e01b81526706f05b59d3b200006004820152602401610394565b8082111561087457604051624019f560e61b81526004810183905260248101829052604401610394565b600291909155600355565b6060600061025683610994565b60006107f9836001600160a01b0384166109f0565b6000818152600183016020526040812054801561098a5760006108c5600183610b2c565b85549091506000906108d990600190610b2c565b905081811461093e5760008660000182815481106108f9576108f9610ba0565b906000526020600020015490508087600001848154811061091c5761091c610ba0565b6000918252602080832090910192909255918252600188019052604090208390555b855486908061094f5761094f610b8a565b6001900381819060005260206000200160009055905585600101600086815260200190815260200160002060009055600193505050506107fc565b60009150506107fc565b6060816000018054806020026020016040519081016040528092919081815260200182805480156109e457602002820191906000526020600020905b8154815260200190600101908083116109d0575b50505050509050919050565b6000818152600183016020526040812054610a37575081546001818101845560008481526020808220909301849055845484825282860190935260409020919091556107fc565b5060006107fc565b600060208284031215610a5157600080fd5b81356001600160a01b038116811461025657600080fd5b600060208284031215610a7a57600080fd5b5035919050565b600060208284031215610a9357600080fd5b5051919050565b60008060408385031215610aad57600080fd5b50508035926020909101359150565b6020808252825182820181905260009190848201906040850190845b81811015610afd5783516001600160a01b031683529284019291840191600101610ad8565b50909695505050505050565b6020808252600990820152683737ba1030b236b4b760b91b604082015260600190565b600082821015610b3e57610b3e610b5e565b500390565b6000600019821415610b5757610b57610b5e565b5060010190565b634e487b7160e01b600052601160045260246000fd5b634e487b7160e01b600052601260045260246000fd5b634e487b7160e01b600052603160045260246000fd5b634e487b7160e01b600052603260045260246000fdfea26469706673582212202e600fc647d06d943b611325b993b35f11bc4f68e7e9a394de345c71a715bef464736f6c63430008070033",
  "devdoc": {
    "kind": "dev",
    "methods": {},
    "version": 1
  },
  "userdoc": {
    "kind": "user",
    "methods": {},
    "version": 1
  },
  "storageLayout": {
    "storage": [
      {
        "astId": 7604,
        "contract": "contracts/libraries/ZenlinkTokenLoyaltyCalculator.sol:ZenlinkTokenLoyaltyCalculator",
        "label": "admin",
        "offset": 0,
        "slot": "0",
        "type": "t_address"
      },
      {
        "astId": 7606,
        "contract": "contracts/libraries/ZenlinkTokenLoyaltyCalculator.sol:ZenlinkTokenLoyaltyCalculator",
        "label": "adminCandidate",
        "offset": 0,
        "slot": "1",
        "type": "t_address"
      },
      {
        "astId": 8941,
        "contract": "contracts/libraries/ZenlinkTokenLoyaltyCalculator.sol:ZenlinkTokenLoyaltyCalculator",
        "label": "minPenaltyRatio",
        "offset": 0,
        "slot": "2",
        "type": "t_uint256"
      },
      {
        "astId": 8943,
        "contract": "contracts/libraries/ZenlinkTokenLoyaltyCalculator.sol:ZenlinkTokenLoyaltyCalculator",
        "label": "maxPenaltyRatio",
        "offset": 0,
        "slot": "3",
        "type": "t_uint256"
      },
      {
        "astId": 8946,
        "contract": "contracts/libraries/ZenlinkTokenLoyaltyCalculator.sol:ZenlinkTokenLoyaltyCalculator",
        "label": "_lockedContracts",
        "offset": 0,
        "slot": "4",
        "type": "t_struct(AddressSet)3838_storage"
      }
    ],
    "types": {
      "t_address": {
        "encoding": "inplace",
        "label": "address",
        "numberOfBytes": "20"
      },
      "t_array(t_bytes32)dyn_storage": {
        "base": "t_bytes32",
        "encoding": "dynamic_array",
        "label": "bytes32[]",
        "numberOfBytes": "32"
      },
      "t_bytes32": {
        "encoding": "inplace",
        "label": "bytes32",
        "numberOfBytes": "32"
      },
      "t_mapping(t_bytes32,t_uint256)": {
        "encoding": "mapping",
        "key": "t_bytes32",
        "label": "mapping(bytes32 => uint256)",
        "numberOfBytes": "32",
        "value": "t_uint256"
      },
      "t_struct(AddressSet)3838_storage": {
        "encoding": "inplace",
        "label": "struct EnumerableSet.AddressSet",
        "members": [
          {
            "astId": 3837,
            "contract": "contracts/libraries/ZenlinkTokenLoyaltyCalculator.sol:ZenlinkTokenLoyaltyCalculator",
            "label": "_inner",
            "offset": 0,
            "slot": "0",
            "type": "t_struct(Set)3537_storage"
          }
        ],
        "numberOfBytes": "64"
      },
      "t_struct(Set)3537_storage": {
        "encoding": "inplace",
        "label": "struct EnumerableSet.Set",
        "members": [
          {
            "astId": 3532,
            "contract": "contracts/libraries/ZenlinkTokenLoyaltyCalculator.sol:ZenlinkTokenLoyaltyCalculator",
            "label": "_values",
            "offset": 0,
            "slot": "0",
            "type": "t_array(t_bytes32)dyn_storage"
          },
          {
            "astId": 3536,
            "contract": "contracts/libraries/ZenlinkTokenLoyaltyCalculator.sol:ZenlinkTokenLoyaltyCalculator",
            "label": "_indexes",
            "offset": 0,
            "slot": "1",
            "type": "t_mapping(t_bytes32,t_uint256)"
          }
        ],
        "numberOfBytes": "64"
      },
      "t_uint256": {
        "encoding": "inplace",
        "label": "uint256",
        "numberOfBytes": "32"
      }
    }
  }
}