{
  "address": "0xB5989e3Eb10bBe04b962586910C0bBC1238baD78",
  "abi": [
    {
      "inputs": [
        {
          "internalType": "string",
          "name": "setSymbol",
          "type": "string"
        },
        {
          "internalType": "string",
          "name": "setName",
          "type": "string"
        },
        {
          "internalType": "uint8",
          "name": "setDecimal",
          "type": "uint8"
        },
        {
          "internalType": "uint256",
          "name": "initialBalance",
          "type": "uint256"
        },
        {
          "internalType": "uint256",
          "name": "maxMint",
          "type": "uint256"
        }
      ],
      "stateMutability": "nonpayable",
      "type": "constructor"
    },
    {
      "anonymous": false,
      "inputs": [
        {
          "indexed": true,
          "internalType": "address",
          "name": "oldAdmin",
          "type": "address"
        },
        {
          "indexed": true,
          "internalType": "address",
          "name": "newAdmin",
          "type": "address"
        }
      ],
      "name": "AdminChanged",
      "type": "event"
    },
    {
      "anonymous": false,
      "inputs": [
        {
          "indexed": true,
          "internalType": "address",
          "name": "owner",
          "type": "address"
        },
        {
          "indexed": true,
          "internalType": "address",
          "name": "spender",
          "type": "address"
        },
        {
          "indexed": false,
          "internalType": "uint256",
          "name": "value",
          "type": "uint256"
        }
      ],
      "name": "Approval",
      "type": "event"
    },
    {
      "anonymous": false,
      "inputs": [
        {
          "indexed": true,
          "internalType": "address",
          "name": "newAdmin",
          "type": "address"
        }
      ],
      "name": "Candidate",
      "type": "event"
    },
    {
      "anonymous": false,
      "inputs": [
        {
          "indexed": true,
          "internalType": "address",
          "name": "from",
          "type": "address"
        },
        {
          "indexed": true,
          "internalType": "address",
          "name": "to",
          "type": "address"
        },
        {
          "indexed": false,
          "internalType": "uint256",
          "name": "value",
          "type": "uint256"
        }
      ],
      "name": "Transfer",
      "type": "event"
    },
    {
      "inputs": [
        {
          "internalType": "address",
          "name": "user",
          "type": "address"
        }
      ],
      "name": "addWhitelist",
      "outputs": [],
      "stateMutability": "nonpayable",
      "type": "function"
    },
    {
      "inputs": [],
      "name": "admin",
      "outputs": [
        {
          "internalType": "address",
          "name": "",
          "type": "address"
        }
      ],
      "stateMutability": "view",
      "type": "function"
    },
    {
      "inputs": [],
      "name": "adminCandidate",
      "outputs": [
        {
          "internalType": "address",
          "name": "",
          "type": "address"
        }
      ],
      "stateMutability": "view",
      "type": "function"
    },
    {
      "inputs": [
        {
          "internalType": "address",
          "name": "owner",
          "type": "address"
        },
        {
          "internalType": "address",
          "name": "spender",
          "type": "address"
        }
      ],
      "name": "allowance",
      "outputs": [
        {
          "internalType": "uint256",
          "name": "",
          "type": "uint256"
        }
      ],
      "stateMutability": "view",
      "type": "function"
    },
    {
      "inputs": [
        {
          "internalType": "address",
          "name": "spender",
          "type": "address"
        },
        {
          "internalType": "uint256",
          "name": "amount",
          "type": "uint256"
        }
      ],
      "name": "approve",
      "outputs": [
        {
          "internalType": "bool",
          "name": "",
          "type": "bool"
        }
      ],
      "stateMutability": "nonpayable",
      "type": "function"
    },
    {
      "inputs": [
        {
          "internalType": "address",
          "name": "account",
          "type": "address"
        }
      ],
      "name": "balanceOf",
      "outputs": [
        {
          "internalType": "uint256",
          "name": "",
          "type": "uint256"
        }
      ],
      "stateMutability": "view",
      "type": "function"
    },
    {
      "inputs": [
        {
          "internalType": "uint256",
          "name": "amount",
          "type": "uint256"
        }
      ],
      "name": "burn",
      "outputs": [],
      "stateMutability": "nonpayable",
      "type": "function"
    },
    {
      "inputs": [],
      "name": "candidateConfirm",
      "outputs": [],
      "stateMutability": "nonpayable",
      "type": "function"
    },
    {
      "inputs": [],
      "name": "decimals",
      "outputs": [
        {
          "internalType": "uint8",
          "name": "",
          "type": "uint8"
        }
      ],
      "stateMutability": "view",
      "type": "function"
    },
    {
      "inputs": [
        {
          "internalType": "address",
          "name": "spender",
          "type": "address"
        },
        {
          "internalType": "uint256",
          "name": "subtractedValue",
          "type": "uint256"
        }
      ],
      "name": "decreaseAllowance",
      "outputs": [
        {
          "internalType": "bool",
          "name": "",
          "type": "bool"
        }
      ],
      "stateMutability": "nonpayable",
      "type": "function"
    },
    {
      "inputs": [],
      "name": "disableTransfer",
      "outputs": [],
      "stateMutability": "nonpayable",
      "type": "function"
    },
    {
      "inputs": [],
      "name": "enableTransfer",
      "outputs": [],
      "stateMutability": "nonpayable",
      "type": "function"
    },
    {
      "inputs": [
        {
          "internalType": "address",
          "name": "spender",
          "type": "address"
        },
        {
          "internalType": "uint256",
          "name": "addedValue",
          "type": "uint256"
        }
      ],
      "name": "increaseAllowance",
      "outputs": [
        {
          "internalType": "bool",
          "name": "",
          "type": "bool"
        }
      ],
      "stateMutability": "nonpayable",
      "type": "function"
    },
    {
      "inputs": [],
      "name": "maxTotalSupply",
      "outputs": [
        {
          "internalType": "uint256",
          "name": "",
          "type": "uint256"
        }
      ],
      "stateMutability": "view",
      "type": "function"
    },
    {
      "inputs": [
        {
          "internalType": "uint256",
          "name": "mintAmount",
          "type": "uint256"
        }
      ],
      "name": "mint",
      "outputs": [],
      "stateMutability": "nonpayable",
      "type": "function"
    },
    {
      "inputs": [],
      "name": "name",
      "outputs": [
        {
          "internalType": "string",
          "name": "",
          "type": "string"
        }
      ],
      "stateMutability": "view",
      "type": "function"
    },
    {
      "inputs": [
        {
          "internalType": "address",
          "name": "user",
          "type": "address"
        }
      ],
      "name": "removeWhitelist",
      "outputs": [],
      "stateMutability": "nonpayable",
      "type": "function"
    },
    {
      "inputs": [
        {
          "internalType": "address",
          "name": "_candidate",
          "type": "address"
        }
      ],
      "name": "setAdminCandidate",
      "outputs": [],
      "stateMutability": "nonpayable",
      "type": "function"
    },
    {
      "inputs": [],
      "name": "symbol",
      "outputs": [
        {
          "internalType": "string",
          "name": "",
          "type": "string"
        }
      ],
      "stateMutability": "view",
      "type": "function"
    },
    {
      "inputs": [],
      "name": "totalSupply",
      "outputs": [
        {
          "internalType": "uint256",
          "name": "",
          "type": "uint256"
        }
      ],
      "stateMutability": "view",
      "type": "function"
    },
    {
      "inputs": [
        {
          "internalType": "address",
          "name": "recipient",
          "type": "address"
        },
        {
          "internalType": "uint256",
          "name": "amount",
          "type": "uint256"
        }
      ],
      "name": "transfer",
      "outputs": [
        {
          "internalType": "bool",
          "name": "",
          "type": "bool"
        }
      ],
      "stateMutability": "nonpayable",
      "type": "function"
    },
    {
      "inputs": [
        {
          "internalType": "address",
          "name": "sender",
          "type": "address"
        },
        {
          "internalType": "address",
          "name": "recipient",
          "type": "address"
        },
        {
          "internalType": "uint256",
          "name": "amount",
          "type": "uint256"
        }
      ],
      "name": "transferFrom",
      "outputs": [
        {
          "internalType": "bool",
          "name": "",
          "type": "bool"
        }
      ],
      "stateMutability": "nonpayable",
      "type": "function"
    },
    {
      "inputs": [],
      "name": "transferable",
      "outputs": [
        {
          "internalType": "bool",
          "name": "",
          "type": "bool"
        }
      ],
      "stateMutability": "view",
      "type": "function"
    },
    {
      "inputs": [
        {
          "internalType": "address",
          "name": "",
          "type": "address"
        }
      ],
      "name": "whitelistMap",
      "outputs": [
        {
          "internalType": "bool",
          "name": "",
          "type": "bool"
        }
      ],
      "stateMutability": "view",
      "type": "function"
    }
  ],
  "transactionHash": "0x98c4dec11b32aeb15db87e2b0cff5e2ea166d30a452a32a6462b1f136f30ad2e",
  "args": [
    "Zenlink Network Token",
    "ZLK",
    "18",
    "1000000000000000000000000",
    "1000000000000000000000000000"
  ],
  "numDeployments": 1,
  "solcInputHash": "007aa94c81b3bc67ae48537a63ee475f",
  "bytecode": "0x60806040523480156200001157600080fd5b50604051620015ff380380620015ff8339810160408190526200003491620003cd565b8351849086906200004d90600390602085019062000270565b5080516200006390600490602084019062000270565b50505081811015620000bc5760405162461bcd60e51b815260206004820152601e60248201527f696e697469616c42616c616e636520626967676572207468616e206d6178000060448201526064015b60405180910390fd5b620000c7336200011a565b620000d333836200018b565b336000908152600860205260409020805460ff191660011790556006805460ff94909416600160a81b0260ff60a81b19909416939093179092555060075550620004dd9050565b6005546001600160a01b031615620001695760405162461bcd60e51b815260206004820152601160248201527018591b5a5b88185b1c9958591e481cd95d607a1b6044820152606401620000b3565b600580546001600160a01b0319166001600160a01b0392909216919091179055565b6001600160a01b038216620001e35760405162461bcd60e51b815260206004820152601f60248201527f45524332303a206d696e7420746f20746865207a65726f2061646472657373006044820152606401620000b3565b8060026000828254620001f7919062000463565b90915550506001600160a01b038216600090815260208190526040812080548392906200022690849062000463565b90915550506040518181526001600160a01b038316906000907fddf252ad1be2c89b69c2b068fc378daa952ba7f163c4a11628f55a4df523b3ef9060200160405180910390a35050565b8280546200027e906200048a565b90600052602060002090601f016020900481019282620002a25760008555620002ed565b82601f10620002bd57805160ff1916838001178555620002ed565b82800160010185558215620002ed579182015b82811115620002ed578251825591602001919060010190620002d0565b50620002fb929150620002ff565b5090565b5b80821115620002fb576000815560010162000300565b600082601f8301126200032857600080fd5b81516001600160401b0380821115620003455762000345620004c7565b604051601f8301601f19908116603f01168101908282118183101715620003705762000370620004c7565b816040528381526020925086838588010111156200038d57600080fd5b600091505b83821015620003b1578582018301518183018401529082019062000392565b83821115620003c35760008385830101525b9695505050505050565b600080600080600060a08688031215620003e657600080fd5b85516001600160401b0380821115620003fe57600080fd5b6200040c89838a0162000316565b965060208801519150808211156200042357600080fd5b50620004328882890162000316565b945050604086015160ff811681146200044a57600080fd5b6060870151608090970151959894975095949392505050565b600082198211156200048557634e487b7160e01b600052601160045260246000fd5b500190565b600181811c908216806200049f57607f821691505b60208210811415620004c157634e487b7160e01b600052602260045260246000fd5b50919050565b634e487b7160e01b600052604160045260246000fd5b61111280620004ed6000396000f3fe608060405234801561001057600080fd5b50600436106101585760003560e01c806378c8cda7116100c3578063a9059cbb1161007c578063a9059cbb146102fa578063b187984f1461030d578063dd62ed3e14610315578063f1b50c1d14610328578063f80f5dd514610330578063f851a4401461034357600080fd5b806378c8cda71461029257806392ff0d31146102a557806395d89b41146102b957806396de7aa0146102c1578063a0712d68146102d4578063a457c2d7146102e757600080fd5b806332531c3c1161011557806332531c3c146101eb578063395093511461020e5780633accfa6c146102215780633f0232301461024c57806342966c681461025657806370a082311461026957600080fd5b806306fdde031461015d578063095ea7b31461017b57806318160ddd1461019e57806323b872dd146101b05780632ab4d052146101c3578063313ce567146101cc575b600080fd5b610165610356565b6040516101729190610fbc565b60405180910390f35b61018e610189366004610f79565b6103e8565b6040519015158152602001610172565b6002545b604051908152602001610172565b61018e6101be366004610f3d565b610402565b6101a260075481565b600654600160a81b900460ff1660405160ff9091168152602001610172565b61018e6101f9366004610eef565b60086020526000908152604090205460ff1681565b61018e61021c366004610f79565b61046e565b600654610234906001600160a01b031681565b6040516001600160a01b039091168152602001610172565b610254610490565b005b610254610264366004610fa3565b610540565b6101a2610277366004610eef565b6001600160a01b031660009081526020819052604090205490565b6102546102a0366004610eef565b61059a565b60065461018e90600160a01b900460ff1681565b6101656105e5565b6102546102cf366004610eef565b6105f4565b6102546102e2366004610fa3565b610668565b61018e6102f5366004610f79565b6106ed565b61018e610308366004610f79565b610773565b6102546107d4565b6101a2610323366004610f0a565b61080d565b610254610838565b61025461033e366004610eef565b610877565b600554610234906001600160a01b031681565b6060600380546103659061108b565b80601f01602080910402602001604051908101604052809291908181526020018280546103919061108b565b80156103de5780601f106103b3576101008083540402835291602001916103de565b820191906000526020600020905b8154815290600101906020018083116103c157829003601f168201915b5050505050905090565b6000336103f68185856108c5565b60019150505b92915050565b600654600090600160a01b900460ff1615156001148061043657503360009081526008602052604090205460ff1615156001145b61045b5760405162461bcd60e51b815260040161045290611011565b60405180910390fd5b6104668484846109ea565b949350505050565b6000336103f6818585610481838361080d565b61048b919061105c565b6108c5565b6006546001600160a01b031633146104da5760405162461bcd60e51b815260206004820152600d60248201526c6e6f742043616e64696461746560981b6044820152606401610452565b6006546005546040516001600160a01b0392831692909116907f7e644d79422f17c01e4894b5f4f588d331ebfa28653d42ae832dc59e38c9798f90600090a360068054600580546001600160a01b03199081166001600160a01b03841617909155169055565b600654600160a01b900460ff1615156001148061057157503360009081526008602052604090205460ff1615156001145b61058d5760405162461bcd60e51b815260040161045290611011565b6105973382610a03565b50565b6005546001600160a01b031633146105c45760405162461bcd60e51b815260040161045290611039565b6001600160a01b03166000908152600860205260409020805460ff19169055565b6060600480546103659061108b565b6005546001600160a01b0316331461061e5760405162461bcd60e51b815260040161045290611039565b600680546001600160a01b0319166001600160a01b0383169081179091556040517f8cc40b9abca4a505a92028908f9d913d621d18112c69412806506f02333f26b490600090a250565b6005546001600160a01b031633146106925760405162461bcd60e51b815260040161045290611039565b6007546106a8826106a260025490565b90610b49565b11156106e35760405162461bcd60e51b815260206004820152600a60248201526918d85b89dd081b5a5b9d60b21b6044820152606401610452565b6105973382610b9e565b600033816106fb828661080d565b90508381101561075b5760405162461bcd60e51b815260206004820152602560248201527f45524332303a2064656372656173656420616c6c6f77616e63652062656c6f77604482015264207a65726f60d81b6064820152608401610452565b61076882868684036108c5565b506001949350505050565b600654600090600160a01b900460ff161515600114806107a757503360009081526008602052604090205460ff1615156001145b6107c35760405162461bcd60e51b815260040161045290611011565b6107cd8383610c7d565b9392505050565b6005546001600160a01b031633146107fe5760405162461bcd60e51b815260040161045290611039565b6006805460ff60a01b19169055565b6001600160a01b03918216600090815260016020908152604080832093909416825291909152205490565b6005546001600160a01b031633146108625760405162461bcd60e51b815260040161045290611039565b6006805460ff60a01b1916600160a01b179055565b6005546001600160a01b031633146108a15760405162461bcd60e51b815260040161045290611039565b6001600160a01b03166000908152600860205260409020805460ff19166001179055565b6001600160a01b0383166109275760405162461bcd60e51b8152602060048201526024808201527f45524332303a20617070726f76652066726f6d20746865207a65726f206164646044820152637265737360e01b6064820152608401610452565b6001600160a01b0382166109885760405162461bcd60e51b815260206004820152602260248201527f45524332303a20617070726f766520746f20746865207a65726f206164647265604482015261737360f01b6064820152608401610452565b6001600160a01b0383811660008181526001602090815260408083209487168084529482529182902085905590518481527f8c5be1e5ebec7d5bd14f71427d1e84f3dd0314c0f7b2291e5b200ac8c7c3b92591015b60405180910390a3505050565b6000336109f8858285610c8b565b610768858585610d05565b6001600160a01b038216610a635760405162461bcd60e51b815260206004820152602160248201527f45524332303a206275726e2066726f6d20746865207a65726f206164647265736044820152607360f81b6064820152608401610452565b6001600160a01b03821660009081526020819052604090205481811015610ad75760405162461bcd60e51b815260206004820152602260248201527f45524332303a206275726e20616d6f756e7420657863656564732062616c616e604482015261636560f01b6064820152608401610452565b6001600160a01b0383166000908152602081905260408120838303905560028054849290610b06908490611074565b90915550506040518281526000906001600160a01b038516907fddf252ad1be2c89b69c2b068fc378daa952ba7f163c4a11628f55a4df523b3ef906020016109dd565b600082610b56838261105c565b91508110156103fc5760405162461bcd60e51b815260206004820152601460248201527364732d6d6174682d6164642d6f766572666c6f7760601b6044820152606401610452565b6001600160a01b038216610bf45760405162461bcd60e51b815260206004820152601f60248201527f45524332303a206d696e7420746f20746865207a65726f2061646472657373006044820152606401610452565b8060026000828254610c06919061105c565b90915550506001600160a01b03821660009081526020819052604081208054839290610c3390849061105c565b90915550506040518181526001600160a01b038316906000907fddf252ad1be2c89b69c2b068fc378daa952ba7f163c4a11628f55a4df523b3ef9060200160405180910390a35050565b6000336103f6818585610d05565b6000610c97848461080d565b90506000198114610cff5781811015610cf25760405162461bcd60e51b815260206004820152601d60248201527f45524332303a20696e73756666696369656e7420616c6c6f77616e63650000006044820152606401610452565b610cff84848484036108c5565b50505050565b6001600160a01b038316610d695760405162461bcd60e51b815260206004820152602560248201527f45524332303a207472616e736665722066726f6d20746865207a65726f206164604482015264647265737360d81b6064820152608401610452565b6001600160a01b038216610dcb5760405162461bcd60e51b815260206004820152602360248201527f45524332303a207472616e7366657220746f20746865207a65726f206164647260448201526265737360e81b6064820152608401610452565b6001600160a01b03831660009081526020819052604090205481811015610e435760405162461bcd60e51b815260206004820152602660248201527f45524332303a207472616e7366657220616d6f756e7420657863656564732062604482015265616c616e636560d01b6064820152608401610452565b6001600160a01b03808516600090815260208190526040808220858503905591851681529081208054849290610e7a90849061105c565b92505081905550826001600160a01b0316846001600160a01b03167fddf252ad1be2c89b69c2b068fc378daa952ba7f163c4a11628f55a4df523b3ef84604051610ec691815260200190565b60405180910390a3610cff565b80356001600160a01b0381168114610eea57600080fd5b919050565b600060208284031215610f0157600080fd5b6107cd82610ed3565b60008060408385031215610f1d57600080fd5b610f2683610ed3565b9150610f3460208401610ed3565b90509250929050565b600080600060608486031215610f5257600080fd5b610f5b84610ed3565b9250610f6960208501610ed3565b9150604084013590509250925092565b60008060408385031215610f8c57600080fd5b610f9583610ed3565b946020939093013593505050565b600060208284031215610fb557600080fd5b5035919050565b600060208083528351808285015260005b81811015610fe957858101830151858201604001528201610fcd565b81811115610ffb576000604083870101525b50601f01601f1916929092016040019392505050565b6020808252600e908201526d31b0b713ba103a3930b739b332b960911b604082015260600190565b6020808252600990820152683737ba1030b236b4b760b91b604082015260600190565b6000821982111561106f5761106f6110c6565b500190565b600082821015611086576110866110c6565b500390565b600181811c9082168061109f57607f821691505b602082108114156110c057634e487b7160e01b600052602260045260246000fd5b50919050565b634e487b7160e01b600052601160045260246000fdfea26469706673582212208b40b093f6699332b0adf78e2400ff740a8de8ea4bdf66d4211f13081930bbdf64736f6c63430008070033",
  "devdoc": {
    "kind": "dev",
    "methods": {
      "allowance(address,address)": {
        "details": "See {IERC20-allowance}."
      },
      "approve(address,uint256)": {
        "details": "See {IERC20-approve}. NOTE: If `amount` is the maximum `uint256`, the allowance is not updated on `transferFrom`. This is semantically equivalent to an infinite approval. Requirements: - `spender` cannot be the zero address."
      },
      "balanceOf(address)": {
        "details": "See {IERC20-balanceOf}."
      },
      "decimals()": {
        "details": "Returns the number of decimals used to get its user representation. For example, if `decimals` equals `2`, a balance of `505` tokens should be displayed to a user as `5.05` (`505 / 10 ** 2`). Tokens usually opt for a value of 18, imitating the relationship between Ether and Wei. This is the value {ERC20} uses, unless this function is overridden; NOTE: This information is only used for _display_ purposes: it in no way affects any of the arithmetic of the contract, including {IERC20-balanceOf} and {IERC20-transfer}."
      },
      "decreaseAllowance(address,uint256)": {
        "details": "Atomically decreases the allowance granted to `spender` by the caller. This is an alternative to {approve} that can be used as a mitigation for problems described in {IERC20-approve}. Emits an {Approval} event indicating the updated allowance. Requirements: - `spender` cannot be the zero address. - `spender` must have allowance for the caller of at least `subtractedValue`."
      },
      "increaseAllowance(address,uint256)": {
        "details": "Atomically increases the allowance granted to `spender` by the caller. This is an alternative to {approve} that can be used as a mitigation for problems described in {IERC20-approve}. Emits an {Approval} event indicating the updated allowance. Requirements: - `spender` cannot be the zero address."
      },
      "name()": {
        "details": "Returns the name of the token."
      },
      "symbol()": {
        "details": "Returns the symbol of the token, usually a shorter version of the name."
      },
      "totalSupply()": {
        "details": "See {IERC20-totalSupply}."
      }
    },
    "version": 1
  },
  "userdoc": {
    "kind": "user",
    "methods": {},
    "version": 1
  },
  "storageLayout": {
    "storage": [
      {
        "astId": 595,
        "contract": "contracts/tokens/ZenlinkToken.sol:ZenlinkToken",
        "label": "_balances",
        "offset": 0,
        "slot": "0",
        "type": "t_mapping(t_address,t_uint256)"
      },
      {
        "astId": 601,
        "contract": "contracts/tokens/ZenlinkToken.sol:ZenlinkToken",
        "label": "_allowances",
        "offset": 0,
        "slot": "1",
        "type": "t_mapping(t_address,t_mapping(t_address,t_uint256))"
      },
      {
        "astId": 603,
        "contract": "contracts/tokens/ZenlinkToken.sol:ZenlinkToken",
        "label": "_totalSupply",
        "offset": 0,
        "slot": "2",
        "type": "t_uint256"
      },
      {
        "astId": 605,
        "contract": "contracts/tokens/ZenlinkToken.sol:ZenlinkToken",
        "label": "_name",
        "offset": 0,
        "slot": "3",
        "type": "t_string_storage"
      },
      {
        "astId": 607,
        "contract": "contracts/tokens/ZenlinkToken.sol:ZenlinkToken",
        "label": "_symbol",
        "offset": 0,
        "slot": "4",
        "type": "t_string_storage"
      },
      {
        "astId": 7604,
        "contract": "contracts/tokens/ZenlinkToken.sol:ZenlinkToken",
        "label": "admin",
        "offset": 0,
        "slot": "5",
        "type": "t_address"
      },
      {
        "astId": 7606,
        "contract": "contracts/tokens/ZenlinkToken.sol:ZenlinkToken",
        "label": "adminCandidate",
        "offset": 0,
        "slot": "6",
        "type": "t_address"
      },
      {
        "astId": 29925,
        "contract": "contracts/tokens/ZenlinkToken.sol:ZenlinkToken",
        "label": "transferable",
        "offset": 20,
        "slot": "6",
        "type": "t_bool"
      },
      {
        "astId": 29927,
        "contract": "contracts/tokens/ZenlinkToken.sol:ZenlinkToken",
        "label": "decimal",
        "offset": 21,
        "slot": "6",
        "type": "t_uint8"
      },
      {
        "astId": 29929,
        "contract": "contracts/tokens/ZenlinkToken.sol:ZenlinkToken",
        "label": "maxTotalSupply",
        "offset": 0,
        "slot": "7",
        "type": "t_uint256"
      },
      {
        "astId": 29933,
        "contract": "contracts/tokens/ZenlinkToken.sol:ZenlinkToken",
        "label": "whitelistMap",
        "offset": 0,
        "slot": "8",
        "type": "t_mapping(t_address,t_bool)"
      }
    ],
    "types": {
      "t_address": {
        "encoding": "inplace",
        "label": "address",
        "numberOfBytes": "20"
      },
      "t_bool": {
        "encoding": "inplace",
        "label": "bool",
        "numberOfBytes": "1"
      },
      "t_mapping(t_address,t_bool)": {
        "encoding": "mapping",
        "key": "t_address",
        "label": "mapping(address => bool)",
        "numberOfBytes": "32",
        "value": "t_bool"
      },
      "t_mapping(t_address,t_mapping(t_address,t_uint256))": {
        "encoding": "mapping",
        "key": "t_address",
        "label": "mapping(address => mapping(address => uint256))",
        "numberOfBytes": "32",
        "value": "t_mapping(t_address,t_uint256)"
      },
      "t_mapping(t_address,t_uint256)": {
        "encoding": "mapping",
        "key": "t_address",
        "label": "mapping(address => uint256)",
        "numberOfBytes": "32",
        "value": "t_uint256"
      },
      "t_string_storage": {
        "encoding": "bytes",
        "label": "string",
        "numberOfBytes": "32"
      },
      "t_uint256": {
        "encoding": "inplace",
        "label": "uint256",
        "numberOfBytes": "32"
      },
      "t_uint8": {
        "encoding": "inplace",
        "label": "uint8",
        "numberOfBytes": "1"
      }
    }
  }
}