{
  "address": "0x59EBBbC1ab1d13a21e5fd84028f04a21e566B63E",
  "abi": [
    {
      "inputs": [
        {
          "internalType": "contract IFactory",
          "name": "_factory",
          "type": "address"
        },
        {
          "internalType": "address",
          "name": "_vxzlk",
          "type": "address"
        },
        {
          "internalType": "address",
          "name": "_zlk",
          "type": "address"
        },
        {
          "internalType": "address",
          "name": "_wnative",
          "type": "address"
        },
        {
          "internalType": "address",
          "name": "_feeDistributor",
          "type": "address"
        }
      ],
      "stateMutability": "nonpayable",
      "type": "constructor"
    },
    {
      "inputs": [],
      "name": "ArrayMismatch",
      "type": "error"
    },
    {
      "inputs": [
        {
          "internalType": "address",
          "name": "token",
          "type": "address"
        }
      ],
      "name": "BridgeTokenInvalid",
      "type": "error"
    },
    {
      "inputs": [
        {
          "internalType": "uint256",
          "name": "newFee",
          "type": "uint256"
        },
        {
          "internalType": "uint256",
          "name": "max",
          "type": "uint256"
        }
      ],
      "name": "FeeExceedsMaximum",
      "type": "error"
    },
    {
      "inputs": [
        {
          "internalType": "address",
          "name": "account",
          "type": "address"
        }
      ],
      "name": "NotEOA",
      "type": "error"
    },
    {
      "inputs": [
        {
          "internalType": "uint8",
          "name": "feeTokenIndex",
          "type": "uint8"
        }
      ],
      "name": "TokenIndexInvalid",
      "type": "error"
    },
    {
      "inputs": [],
      "name": "ZeroAddress",
      "type": "error"
    },
    {
      "anonymous": false,
      "inputs": [
        {
          "indexed": true,
          "internalType": "address",
          "name": "oldAdmin",
          "type": "address"
        },
        {
          "indexed": true,
          "internalType": "address",
          "name": "newAdmin",
          "type": "address"
        }
      ],
      "name": "AdminChanged",
      "type": "event"
    },
    {
      "anonymous": false,
      "inputs": [
        {
          "indexed": true,
          "internalType": "address",
          "name": "newAdmin",
          "type": "address"
        }
      ],
      "name": "Candidate",
      "type": "event"
    },
    {
      "anonymous": false,
      "inputs": [
        {
          "indexed": false,
          "internalType": "uint256",
          "name": "newFee",
          "type": "uint256"
        }
      ],
      "name": "FeeChanged",
      "type": "event"
    },
    {
      "anonymous": false,
      "inputs": [
        {
          "indexed": false,
          "internalType": "address",
          "name": "newController",
          "type": "address"
        }
      ],
      "name": "FeeDistributorChanged",
      "type": "event"
    },
    {
      "anonymous": false,
      "inputs": [
        {
          "indexed": true,
          "internalType": "address",
          "name": "token",
          "type": "address"
        },
        {
          "indexed": true,
          "internalType": "address",
          "name": "bridge",
          "type": "address"
        }
      ],
      "name": "LogBridgeSet",
      "type": "event"
    },
    {
      "anonymous": false,
      "inputs": [
        {
          "indexed": true,
          "internalType": "address",
          "name": "sender",
          "type": "address"
        },
        {
          "indexed": true,
          "internalType": "address",
          "name": "token0",
          "type": "address"
        },
        {
          "indexed": true,
          "internalType": "address",
          "name": "token1",
          "type": "address"
        },
        {
          "indexed": false,
          "internalType": "uint256",
          "name": "amount0",
          "type": "uint256"
        },
        {
          "indexed": false,
          "internalType": "uint256",
          "name": "amount1",
          "type": "uint256"
        },
        {
          "indexed": false,
          "internalType": "uint256",
          "name": "amountZLK",
          "type": "uint256"
        }
      ],
      "name": "LogConvertPair",
      "type": "event"
    },
    {
      "anonymous": false,
      "inputs": [
        {
          "indexed": true,
          "internalType": "address",
          "name": "sender",
          "type": "address"
        },
        {
          "indexed": true,
          "internalType": "address",
          "name": "pool",
          "type": "address"
        },
        {
          "indexed": true,
          "internalType": "address",
          "name": "token",
          "type": "address"
        },
        {
          "indexed": false,
          "internalType": "uint256",
          "name": "amount",
          "type": "uint256"
        },
        {
          "indexed": false,
          "internalType": "uint256",
          "name": "amountZLK",
          "type": "uint256"
        }
      ],
      "name": "LogConvertStableSwap",
      "type": "event"
    },
    {
      "anonymous": false,
      "inputs": [
        {
          "indexed": true,
          "internalType": "address",
          "name": "pool",
          "type": "address"
        },
        {
          "indexed": true,
          "internalType": "uint8",
          "name": "feeTokenIndex",
          "type": "uint8"
        }
      ],
      "name": "LogStableSwapFeeTokenIndexSet",
      "type": "event"
    },
    {
      "inputs": [],
      "name": "PRECISION",
      "outputs": [
        {
          "internalType": "uint256",
          "name": "",
          "type": "uint256"
        }
      ],
      "stateMutability": "view",
      "type": "function"
    },
    {
      "inputs": [],
      "name": "admin",
      "outputs": [
        {
          "internalType": "address",
          "name": "",
          "type": "address"
        }
      ],
      "stateMutability": "view",
      "type": "function"
    },
    {
      "inputs": [],
      "name": "adminCandidate",
      "outputs": [
        {
          "internalType": "address",
          "name": "",
          "type": "address"
        }
      ],
      "stateMutability": "view",
      "type": "function"
    },
    {
      "inputs": [
        {
          "internalType": "address",
          "name": "token",
          "type": "address"
        }
      ],
      "name": "bridgeFor",
      "outputs": [
        {
          "internalType": "address",
          "name": "bridge",
          "type": "address"
        }
      ],
      "stateMutability": "view",
      "type": "function"
    },
    {
      "inputs": [],
      "name": "candidateConfirm",
      "outputs": [],
      "stateMutability": "nonpayable",
      "type": "function"
    },
    {
      "inputs": [
        {
          "internalType": "address",
          "name": "token0",
          "type": "address"
        },
        {
          "internalType": "address",
          "name": "token1",
          "type": "address"
        }
      ],
      "name": "convertPair",
      "outputs": [],
      "stateMutability": "nonpayable",
      "type": "function"
    },
    {
      "inputs": [
        {
          "internalType": "address[]",
          "name": "tokens0",
          "type": "address[]"
        },
        {
          "internalType": "address[]",
          "name": "tokens1",
          "type": "address[]"
        }
      ],
      "name": "convertPairMultiple",
      "outputs": [],
      "stateMutability": "nonpayable",
      "type": "function"
    },
    {
      "inputs": [
        {
          "internalType": "contract IStableSwap",
          "name": "pool",
          "type": "address"
        }
      ],
      "name": "convertStableSwap",
      "outputs": [],
      "stateMutability": "nonpayable",
      "type": "function"
    },
    {
      "inputs": [
        {
          "internalType": "contract IStableSwap[]",
          "name": "pools",
          "type": "address[]"
        }
      ],
      "name": "convertStableSwapMultiple",
      "outputs": [],
      "stateMutability": "nonpayable",
      "type": "function"
    },
    {
      "inputs": [],
      "name": "factory",
      "outputs": [
        {
          "internalType": "contract IFactory",
          "name": "",
          "type": "address"
        }
      ],
      "stateMutability": "view",
      "type": "function"
    },
    {
      "inputs": [],
      "name": "fee",
      "outputs": [
        {
          "internalType": "uint256",
          "name": "",
          "type": "uint256"
        }
      ],
      "stateMutability": "view",
      "type": "function"
    },
    {
      "inputs": [],
      "name": "feeDistributor",
      "outputs": [
        {
          "internalType": "address",
          "name": "",
          "type": "address"
        }
      ],
      "stateMutability": "view",
      "type": "function"
    },
    {
      "inputs": [
        {
          "internalType": "address",
          "name": "pool",
          "type": "address"
        }
      ],
      "name": "feeTokenIndexFor",
      "outputs": [
        {
          "internalType": "uint8",
          "name": "feeTokenIndex",
          "type": "uint8"
        }
      ],
      "stateMutability": "view",
      "type": "function"
    },
    {
      "inputs": [
        {
          "internalType": "address",
          "name": "_candidate",
          "type": "address"
        }
      ],
      "name": "setAdminCandidate",
      "outputs": [],
      "stateMutability": "nonpayable",
      "type": "function"
    },
    {
      "inputs": [
        {
          "internalType": "address",
          "name": "token",
          "type": "address"
        },
        {
          "internalType": "address",
          "name": "bridge",
          "type": "address"
        }
      ],
      "name": "setBridge",
      "outputs": [],
      "stateMutability": "nonpayable",
      "type": "function"
    },
    {
      "inputs": [
        {
          "internalType": "uint256",
          "name": "newFee",
          "type": "uint256"
        }
      ],
      "name": "setFee",
      "outputs": [],
      "stateMutability": "nonpayable",
      "type": "function"
    },
    {
      "inputs": [
        {
          "internalType": "address",
          "name": "_feeDistributor",
          "type": "address"
        }
      ],
      "name": "setFeeDistributor",
      "outputs": [],
      "stateMutability": "nonpayable",
      "type": "function"
    },
    {
      "inputs": [
        {
          "internalType": "address",
          "name": "pool",
          "type": "address"
        },
        {
          "internalType": "uint8",
          "name": "feeTokenIndex",
          "type": "uint8"
        }
      ],
      "name": "setFeeTokenIndex",
      "outputs": [],
      "stateMutability": "nonpayable",
      "type": "function"
    },
    {
      "inputs": [],
      "name": "vxzlk",
      "outputs": [
        {
          "internalType": "address",
          "name": "",
          "type": "address"
        }
      ],
      "stateMutability": "view",
      "type": "function"
    }
  ],
  "transactionHash": "0x4f2acd0a693e2b30bc2132ce2515af5fe2ed5ac3cb6cedca2074a8f07ef9e8f5",
  "args": [
    "0x6ED3E6551Bb396091C15a9621aACa6DdB1C01992",
    "0xb38188fEDff30bEc23aEf5C691AB647756771fF1",
    "0xB5989e3Eb10bBe04b962586910C0bBC1238baD78",
    "0x674421E9567653EE76e96fEEA3B2B2966d000Dbd",
    "0x7D3C7Ab81bD677EE1cfd58505Cb8BcbF8856B634"
  ],
  "numDeployments": 1,
  "solcInputHash": "007aa94c81b3bc67ae48537a63ee475f",
  "bytecode": "0x6101006040523480156200001257600080fd5b506040516200242438038062002424833981016040819052620000359162000106565b6001600160601b0319606086811b821660805285811b821660a05284811b821660c05283901b1660e052600280546001600160a01b0383166001600160a01b0319909116179055620000873362000092565b50505050506200019f565b6000546001600160a01b031615620000e45760405162461bcd60e51b815260206004820152601160248201527018591b5a5b88185b1c9958591e481cd95d607a1b604482015260640160405180910390fd5b600080546001600160a01b0319166001600160a01b0392909216919091179055565b600080600080600060a086880312156200011f57600080fd5b85516200012c8162000186565b60208701519095506200013f8162000186565b6040870151909450620001528162000186565b6060870151909350620001658162000186565b6080870151909250620001788162000186565b809150509295509295909350565b6001600160a01b03811681146200019c57600080fd5b50565b60805160601c60a05160601c60c05160601c60e05160601c6121a56200027f60003960008181610671015281816107640152818161123401528181611271015281816114140152818161145101528181611477015281816114ae015281816114eb01526115110152600081816106360152818161119e015281816111e3015281816112d1015281816113160152818161137b015281816113c001526117810152600081816101fd0152818161120501528181611338015281816113e201526117a301526000818161024e0152818161099901526117fa01526121a56000f3fe608060405234801561001057600080fd5b50600436106101215760003560e01c8063a761a939116100ad578063ccfc2e8d11610071578063ccfc2e8d14610270578063ddca3f4314610283578063e52ecc061461028c578063e61c93611461029f578063f851a440146102dd57600080fd5b8063a761a939146101e5578063aa6c2f4d146101f8578063aaf5eb681461021f578063bc393a0f14610236578063c45a01551461024957600080fd5b80633f023230116100f45780633f02323014610191578063403b8c221461019957806369fe0e2d146101ac57806396de7aa0146101bf5780639d22ae8c146101d257600080fd5b80630d43e8ad1461012657806318b316a1146101565780631f9915b81461016b5780633accfa6c1461017e575b600080fd5b600254610139906001600160a01b031681565b6040516001600160a01b0390911681526020015b60405180910390f35b610169610164366004611d4a565b6102f0565b005b610169610179366004611e82565b6103b3565b600154610139906001600160a01b031681565b610169610426565b6101696101a7366004611ca3565b6104d4565b6101696101ba366004611f36565b610502565b6101696101cd366004611ca3565b610596565b6101696101e0366004611cdd565b61060a565b6101396101f3366004611ca3565b610741565b6101397f000000000000000000000000000000000000000000000000000000000000000081565b6102286103e881565b60405190815260200161014d565b610169610244366004611cdd565b610789565b6101397f000000000000000000000000000000000000000000000000000000000000000081565b61016961027e366004611ca3565b6107b9565b61022860035481565b61016961029a366004611d16565b610858565b6102cb6102ad366004611ca3565b6001600160a01b031660009081526005602052604090205460ff1690565b60405160ff909116815260200161014d565b600054610139906001600160a01b031681565b333214610317576040516377817ac360e01b81523360048201526024015b60405180910390fd5b828181146103385760405163b7c1140d60e01b815260040160405180910390fd5b60005b818110156103ab576103998686838181106103585761035861212e565b905060200201602081019061036d9190611ca3565b85858481811061037f5761037f61212e565b90506020020160208101906103949190611ca3565b61096f565b806103a3816120dd565b91505061033b565b505050505050565b3332146103d5576040516377817ac360e01b815233600482015260240161030e565b60005b818110156104215761040f8383838181106103f5576103f561212e565b905060200201602081019061040a9190611ca3565b610ce2565b80610419816120dd565b9150506103d8565b505050565b6001546001600160a01b031633146104705760405162461bcd60e51b815260206004820152600d60248201526c6e6f742043616e64696461746560981b604482015260640161030e565b600154600080546040516001600160a01b0393841693909116917f7e644d79422f17c01e4894b5f4f588d331ebfa28653d42ae832dc59e38c9798f91a360018054600080546001600160a01b03199081166001600160a01b03841617909155169055565b3332146104f6576040516377817ac360e01b815233600482015260240161030e565b6104ff81610ce2565b50565b6000546001600160a01b0316331461052c5760405162461bcd60e51b815260040161030e9061201e565b6103e881111561055a5760405163037664ab60e21b8152600481018290526103e8602482015260440161030e565b60038190556040518181527f6bbc57480a46553fa4d156ce702beef5f3ad66303b0ed1a5d4cb44966c6584c3906020015b60405180910390a150565b6000546001600160a01b031633146105c05760405162461bcd60e51b815260040161030e9061201e565b600180546001600160a01b0319166001600160a01b0383169081179091556040517f8cc40b9abca4a505a92028908f9d913d621d18112c69412806506f02333f26b490600090a250565b6000546001600160a01b031633146106345760405162461bcd60e51b815260040161030e9061201e565b7f00000000000000000000000000000000000000000000000000000000000000006001600160a01b0316826001600160a01b031614806106a557507f00000000000000000000000000000000000000000000000000000000000000006001600160a01b0316826001600160a01b0316145b806106c15750806001600160a01b0316826001600160a01b0316145b156106ea57604051637f67aed960e01b81526001600160a01b038316600482015260240161030e565b6001600160a01b0382811660008181526004602052604080822080546001600160a01b0319169486169485179055517f2e103aa707acc565f9a1547341914802b2bfe977fd79c595209f248ae4b006139190a35050565b6001600160a01b03808216600090815260046020526040902054168061078457507f00000000000000000000000000000000000000000000000000000000000000005b919050565b3332146107ab576040516377817ac360e01b815233600482015260240161030e565b6107b5828261096f565b5050565b6000546001600160a01b031633146107e35760405162461bcd60e51b815260040161030e9061201e565b6001600160a01b03811661080a5760405163d92e233d60e01b815260040160405180910390fd5b600280546001600160a01b0319166001600160a01b0383169081179091556040519081527fae5a12c29e496b092467a620746b9eaf4e0e231a631a4370c233b1fac38e8e269060200161058b565b6000546001600160a01b031633146108825760405162461bcd60e51b815260040161030e9061201e565b816001600160a01b031663efeecb516040518163ffffffff1660e01b815260040160206040518083038186803b1580156108bb57600080fd5b505afa1580156108cf573d6000803e3d6000fd5b505050506040513d601f19601f820116820180604052508101906108f39190611f4f565b8160ff161061091a57604051635661022160e01b815260ff8216600482015260240161030e565b6001600160a01b038216600081815260056020526040808220805460ff191660ff861690811790915590519092917f09af193ef099b5f06d605e833e3ad8974749fe5d573bed1ed2619318c34c827a91a35050565b60405163e6a4390560e01b81526001600160a01b03838116600483015282811660248301526000917f00000000000000000000000000000000000000000000000000000000000000009091169063e6a439059060440160206040518083038186803b1580156109dd57600080fd5b505afa1580156109f1573d6000803e3d6000fd5b505050506040513d601f19601f82011682018060405250810190610a159190611cc0565b90506001600160a01b038116610a3e5760405163d92e233d60e01b815260040160405180910390fd5b6040516370a0823160e01b81523060048201526000906001600160a01b038316906370a082319060240160206040518083038186803b158015610a8057600080fd5b505afa158015610a94573d6000803e3d6000fd5b505050506040513d601f19601f82011682018060405250810190610ab89190611f4f565b9050610ace6001600160a01b038316838361110f565b60405163226bf2d160e21b815230600482015260009081906001600160a01b038516906389afcb44906024016040805180830381600087803b158015610b1357600080fd5b505af1158015610b27573d6000803e3d6000fd5b505050506040513d601f19601f82011682018060405250810190610b4b9190611f68565b91509150836001600160a01b0316630dfe16816040518163ffffffff1660e01b815260040160206040518083038186803b158015610b8857600080fd5b505afa158015610b9c573d6000803e3d6000fd5b505050506040513d601f19601f82011682018060405250810190610bc09190611cc0565b6001600160a01b0316866001600160a01b031614610bda57905b60006103e860035484610bed919061207b565b610bf79190612059565b905060006103e860035484610c0c919061207b565b610c169190612059565b90508115610c3857600254610c38906001600160a01b038a811691168461110f565b8015610c5857600254610c58906001600160a01b0389811691168361110f565b6001600160a01b03808816908916337fb34d302380fcc86b721164311b357459321ee916186c2cc83e8555705490051e610c92868961209a565b610c9c868961209a565b610cba8e8e610cab8b8e61209a565b610cb58b8e61209a565b611172565b6040805193845260208401929092529082015260600160405180910390a45050505050505050565b806001600160a01b031663fe49abe36040518163ffffffff1660e01b8152600401600060405180830381600087803b158015610d1d57600080fd5b505af1158015610d31573d6000803e3d6000fd5b505050506000816001600160a01b031663aa6ca8086040518163ffffffff1660e01b815260040160006040518083038186803b158015610d7057600080fd5b505afa158015610d84573d6000803e3d6000fd5b505050506040513d6000823e601f3d908101601f19168201604052610dac9190810190611db6565b6001600160a01b03831660008181526005602052604080822054905162415c3360e91b815260ff909116600482018190529394509091906382b866009060240160206040518083038186803b158015610e0457600080fd5b505afa158015610e18573d6000803e3d6000fd5b505050506040513d601f19601f82011682018060405250810190610e3c9190611cc0565b905060005b83518160ff161015610fe3578260ff168160ff161415610e6057610fd1565b6000848260ff1681518110610e7757610e7761212e565b60209081029190910101516040516370a0823160e01b81523060048201526001600160a01b03909116906370a082319060240160206040518083038186803b158015610ec257600080fd5b505afa158015610ed6573d6000803e3d6000fd5b505050506040513d601f19601f82011682018060405250810190610efa9190611f4f565b9050610f368682878560ff1681518110610f1657610f1661212e565b60200260200101516001600160a01b03166115e09092919063ffffffff16565b6040516348b4aac360e11b815260ff80841660048301528516602482015260448101829052600060648201524260848201526001600160a01b0387169063916955869060a401602060405180830381600087803b158015610f9657600080fd5b505af1158015610faa573d6000803e3d6000fd5b505050506040513d601f19601f82011682018060405250810190610fce9190611f4f565b50505b80610fdb816120f8565b915050610e41565b506040516370a0823160e01b81523060048201526000906001600160a01b038316906370a082319060240160206040518083038186803b15801561102657600080fd5b505afa15801561103a573d6000803e3d6000fd5b505050506040513d601f19601f8201168201806040525081019061105e9190611f4f565b905060006103e860035483611073919061207b565b61107d9190612059565b9050801561109f5760025461109f906001600160a01b0385811691168361110f565b6001600160a01b03808416908716337fe6edf68edaa0d0a22a68502fa4a7a79d12fb1b945e7abedd89402053d7ea69736110d9858761209a565b6110ef88806110e8898b61209a565b6000611172565b6040805192835260208301919091520160405180910390a4505050505050565b6040516001600160a01b03831660248201526044810182905261042190849063a9059cbb60e01b906064015b60408051601f198184030181529190526020810180516001600160e01b03166001600160e01b0319909316929092179091526116a7565b6000836001600160a01b0316856001600160a01b031614156112cf57600061119a8385612041565b90507f00000000000000000000000000000000000000000000000000000000000000006001600160a01b0316866001600160a01b031614156112325761122a6001600160a01b037f0000000000000000000000000000000000000000000000000000000000000000167f00000000000000000000000000000000000000000000000000000000000000008361110f565b8091506112c9565b7f00000000000000000000000000000000000000000000000000000000000000006001600160a01b0316866001600160a01b0316141561129d576112967f000000000000000000000000000000000000000000000000000000000000000082611779565b91506112c9565b60006112a887610741565b90506112b6878284306117ce565b91506112c58182846000611172565b9250505b506115d8565b7f00000000000000000000000000000000000000000000000000000000000000006001600160a01b0316856001600160a01b031614156113795761135d6001600160a01b037f0000000000000000000000000000000000000000000000000000000000000000167f00000000000000000000000000000000000000000000000000000000000000008561110f565b826113688584611779565b6113729190612041565b90506115d8565b7f00000000000000000000000000000000000000000000000000000000000000006001600160a01b0316846001600160a01b03161415611412576114076001600160a01b037f0000000000000000000000000000000000000000000000000000000000000000167f00000000000000000000000000000000000000000000000000000000000000008461110f565b816113688685611779565b7f00000000000000000000000000000000000000000000000000000000000000006001600160a01b0316856001600160a01b031614156114ac576113727f00000000000000000000000000000000000000000000000000000000000000008461149d877f000000000000000000000000000000000000000000000000000000000000000087306117ce565b6114a79190612041565b611779565b7f00000000000000000000000000000000000000000000000000000000000000006001600160a01b0316846001600160a01b03161415611537576113727f00000000000000000000000000000000000000000000000000000000000000008361149d887f000000000000000000000000000000000000000000000000000000000000000088306117ce565b600061154286610741565b9050600061154f86610741565b9050856001600160a01b0316826001600160a01b0316141561158957611582828761157c8a868a306117ce565b87611172565b92506115d5565b866001600160a01b0316816001600160a01b031614156115b557611582878287610cb58a868a306117ce565b6115d282826115c68a868a306117ce565b610cb58a868a306117ce565b92505b50505b949350505050565b604051636eb1769f60e11b81523060048201526001600160a01b038381166024830152600091839186169063dd62ed3e9060440160206040518083038186803b15801561162c57600080fd5b505afa158015611640573d6000803e3d6000fd5b505050506040513d601f19601f820116820180604052508101906116649190611f4f565b61166e9190612041565b6040516001600160a01b0385166024820152604481018290529091506116a190859063095ea7b360e01b9060640161113b565b50505050565b60006116fc826040518060400160405280602081526020017f5361666545524332303a206c6f772d6c6576656c2063616c6c206661696c6564815250856001600160a01b0316611b319092919063ffffffff16565b805190915015610421578080602001905181019061171a9190611ec4565b6104215760405162461bcd60e51b815260206004820152602a60248201527f5361666545524332303a204552433230206f7065726174696f6e20646964206e6044820152691bdd081cdd58d8d9595960b21b606482015260840161030e565b60006117c7837f0000000000000000000000000000000000000000000000000000000000000000847f00000000000000000000000000000000000000000000000000000000000000006117ce565b9392505050565b60405163e6a4390560e01b81526001600160a01b038581166004830152848116602483015260009182917f0000000000000000000000000000000000000000000000000000000000000000169063e6a439059060440160206040518083038186803b15801561183c57600080fd5b505afa158015611850573d6000803e3d6000fd5b505050506040513d601f19601f820116820180604052508101906118749190611cc0565b90506001600160a01b03811661189d5760405163d92e233d60e01b815260040160405180910390fd5b600080826001600160a01b0316630902f1ac6040518163ffffffff1660e01b815260040160606040518083038186803b1580156118d957600080fd5b505afa1580156118ed573d6000803e3d6000fd5b505050506040513d601f19601f820116820180604052508101906119119190611ee6565b506001600160701b0391821693501690506000611930876103e561207b565b9050836001600160a01b0316630dfe16816040518163ffffffff1660e01b815260040160206040518083038186803b15801561196b57600080fd5b505afa15801561197f573d6000803e3d6000fd5b505050506040513d601f19601f820116820180604052508101906119a39190611cc0565b6001600160a01b0316896001600160a01b03161415611a7357806119c9846103e861207b565b6119d39190612041565b6119dd838361207b565b6119e79190612059565b94506119fd6001600160a01b038a16858961110f565b604080516000808252602082019283905263022c0d9f60e01b9092526001600160a01b0386169163022c0d9f91611a3c919089908b9060248101611fd4565b600060405180830381600087803b158015611a5657600080fd5b505af1158015611a6a573d6000803e3d6000fd5b50505050611b25565b80611a80836103e861207b565b611a8a9190612041565b611a94848361207b565b611a9e9190612059565b9450611ab46001600160a01b038a16858961110f565b604080516000808252602082019283905263022c0d9f60e01b9092526001600160a01b0386169163022c0d9f91611af29189918b9060248101611fd4565b600060405180830381600087803b158015611b0c57600080fd5b505af1158015611b20573d6000803e3d6000fd5b505050505b50505050949350505050565b60606115d88484600085856001600160a01b0385163b611b935760405162461bcd60e51b815260206004820152601d60248201527f416464726573733a2063616c6c20746f206e6f6e2d636f6e7472616374000000604482015260640161030e565b600080866001600160a01b03168587604051611baf9190611fb8565b60006040518083038185875af1925050503d8060008114611bec576040519150601f19603f3d011682016040523d82523d6000602084013e611bf1565b606091505b50915091506115d282828660608315611c0b5750816117c7565b825115611c1b5782518084602001fd5b8160405162461bcd60e51b815260040161030e919061200b565b60008083601f840112611c4757600080fd5b50813567ffffffffffffffff811115611c5f57600080fd5b6020830191508360208260051b8501011115611c7a57600080fd5b9250929050565b80516107848161215a565b80516001600160701b038116811461078457600080fd5b600060208284031215611cb557600080fd5b81356117c78161215a565b600060208284031215611cd257600080fd5b81516117c78161215a565b60008060408385031215611cf057600080fd5b8235611cfb8161215a565b91506020830135611d0b8161215a565b809150509250929050565b60008060408385031215611d2957600080fd5b8235611d348161215a565b9150602083013560ff81168114611d0b57600080fd5b60008060008060408587031215611d6057600080fd5b843567ffffffffffffffff80821115611d7857600080fd5b611d8488838901611c35565b90965094506020870135915080821115611d9d57600080fd5b50611daa87828801611c35565b95989497509550505050565b60006020808385031215611dc957600080fd5b825167ffffffffffffffff80821115611de157600080fd5b818501915085601f830112611df557600080fd5b815181811115611e0757611e07612144565b8060051b604051601f19603f83011681018181108582111715611e2c57611e2c612144565b604052828152858101935084860182860187018a1015611e4b57600080fd5b600095505b83861015611e7557611e6181611c81565b855260019590950194938601938601611e50565b5098975050505050505050565b60008060208385031215611e9557600080fd5b823567ffffffffffffffff811115611eac57600080fd5b611eb885828601611c35565b90969095509350505050565b600060208284031215611ed657600080fd5b815180151581146117c757600080fd5b600080600060608486031215611efb57600080fd5b611f0484611c8c565b9250611f1260208501611c8c565b9150604084015163ffffffff81168114611f2b57600080fd5b809150509250925092565b600060208284031215611f4857600080fd5b5035919050565b600060208284031215611f6157600080fd5b5051919050565b60008060408385031215611f7b57600080fd5b505080516020909101519092909150565b60008151808452611fa48160208601602086016120b1565b601f01601f19169290920160200192915050565b60008251611fca8184602087016120b1565b9190910192915050565b84815283602082015260018060a01b03831660408201526080606082015260006120016080830184611f8c565b9695505050505050565b6020815260006117c76020830184611f8c565b6020808252600990820152683737ba1030b236b4b760b91b604082015260600190565b6000821982111561205457612054612118565b500190565b60008261207657634e487b7160e01b600052601260045260246000fd5b500490565b600081600019048311821515161561209557612095612118565b500290565b6000828210156120ac576120ac612118565b500390565b60005b838110156120cc5781810151838201526020016120b4565b838111156116a15750506000910152565b60006000198214156120f1576120f1612118565b5060010190565b600060ff821660ff81141561210f5761210f612118565b60010192915050565b634e487b7160e01b600052601160045260246000fd5b634e487b7160e01b600052603260045260246000fd5b634e487b7160e01b600052604160045260246000fd5b6001600160a01b03811681146104ff57600080fdfea2646970667358221220db8bca2ed0e6a51da6146f08e069cb36648c10d66d1c1b5316a73bff8756eb3f64736f6c63430008070033",
  "devdoc": {
    "kind": "dev",
    "methods": {},
    "version": 1
  },
  "userdoc": {
    "kind": "user",
    "methods": {},
    "version": 1
  },
  "storageLayout": {
    "storage": [
      {
        "astId": 7604,
        "contract": "contracts/tools/ZenlinkMaker.sol:ZenlinkMaker",
        "label": "admin",
        "offset": 0,
        "slot": "0",
        "type": "t_address"
      },
      {
        "astId": 7606,
        "contract": "contracts/tools/ZenlinkMaker.sol:ZenlinkMaker",
        "label": "adminCandidate",
        "offset": 0,
        "slot": "1",
        "type": "t_address"
      },
      {
        "astId": 30595,
        "contract": "contracts/tools/ZenlinkMaker.sol:ZenlinkMaker",
        "label": "feeDistributor",
        "offset": 0,
        "slot": "2",
        "type": "t_address"
      },
      {
        "astId": 30597,
        "contract": "contracts/tools/ZenlinkMaker.sol:ZenlinkMaker",
        "label": "fee",
        "offset": 0,
        "slot": "3",
        "type": "t_uint256"
      },
      {
        "astId": 30601,
        "contract": "contracts/tools/ZenlinkMaker.sol:ZenlinkMaker",
        "label": "_bridges",
        "offset": 0,
        "slot": "4",
        "type": "t_mapping(t_address,t_address)"
      },
      {
        "astId": 30605,
        "contract": "contracts/tools/ZenlinkMaker.sol:ZenlinkMaker",
        "label": "_stableSwapFeeTokenIndex",
        "offset": 0,
        "slot": "5",
        "type": "t_mapping(t_address,t_uint8)"
      }
    ],
    "types": {
      "t_address": {
        "encoding": "inplace",
        "label": "address",
        "numberOfBytes": "20"
      },
      "t_mapping(t_address,t_address)": {
        "encoding": "mapping",
        "key": "t_address",
        "label": "mapping(address => address)",
        "numberOfBytes": "32",
        "value": "t_address"
      },
      "t_mapping(t_address,t_uint8)": {
        "encoding": "mapping",
        "key": "t_address",
        "label": "mapping(address => uint8)",
        "numberOfBytes": "32",
        "value": "t_uint8"
      },
      "t_uint256": {
        "encoding": "inplace",
        "label": "uint256",
        "numberOfBytes": "32"
      },
      "t_uint8": {
        "encoding": "inplace",
        "label": "uint8",
        "numberOfBytes": "1"
      }
    }
  }
}