{
  "address": "0xAFCCA0f68e0883b797c71525377DE46B2E65AB28",
  "abi": [
    {
      "inputs": [
        {
          "internalType": "address",
          "name": "_weth",
          "type": "address"
        },
        {
          "internalType": "contract IReferralStorage",
          "name": "_referralStorage",
          "type": "address"
        },
        {
          "internalType": "uint256",
          "name": "_feeShare",
          "type": "uint256"
        },
        {
          "internalType": "uint256",
          "name": "_feeDiscount",
          "type": "uint256"
        },
        {
          "internalType": "uint256",
          "name": "_feeRebate",
          "type": "uint256"
        },
        {
          "internalType": "address",
          "name": "_feeTo",
          "type": "address"
        }
      ],
      "stateMutability": "nonpayable",
      "type": "constructor"
    },
    {
      "inputs": [],
      "name": "InsufficientOutAmount",
      "type": "error"
    },
    {
      "inputs": [],
      "name": "InvalidFeeDiscount",
      "type": "error"
    },
    {
      "inputs": [],
      "name": "InvalidFeeRebate",
      "type": "error"
    },
    {
      "inputs": [],
      "name": "InvalidFeeShare",
      "type": "error"
    },
    {
      "anonymous": false,
      "inputs": [
        {
          "indexed": true,
          "internalType": "address",
          "name": "oldAdmin",
          "type": "address"
        },
        {
          "indexed": true,
          "internalType": "address",
          "name": "newAdmin",
          "type": "address"
        }
      ],
      "name": "AdminChanged",
      "type": "event"
    },
    {
      "anonymous": false,
      "inputs": [
        {
          "indexed": true,
          "internalType": "address",
          "name": "newAdmin",
          "type": "address"
        }
      ],
      "name": "Candidate",
      "type": "event"
    },
    {
      "anonymous": false,
      "inputs": [
        {
          "indexed": false,
          "internalType": "address",
          "name": "trader",
          "type": "address"
        },
        {
          "indexed": false,
          "internalType": "address",
          "name": "referrer",
          "type": "address"
        },
        {
          "indexed": false,
          "internalType": "address",
          "name": "tokenOut",
          "type": "address"
        },
        {
          "indexed": false,
          "internalType": "uint256",
          "name": "discountAmount",
          "type": "uint256"
        },
        {
          "indexed": false,
          "internalType": "uint256",
          "name": "rebateAmount",
          "type": "uint256"
        }
      ],
      "name": "PayRebates",
      "type": "event"
    },
    {
      "anonymous": false,
      "inputs": [
        {
          "indexed": false,
          "internalType": "uint256",
          "name": "feeDiscount",
          "type": "uint256"
        }
      ],
      "name": "SetFeeDiscount",
      "type": "event"
    },
    {
      "anonymous": false,
      "inputs": [
        {
          "indexed": false,
          "internalType": "uint256",
          "name": "feeRebate",
          "type": "uint256"
        }
      ],
      "name": "SetFeeRebate",
      "type": "event"
    },
    {
      "anonymous": false,
      "inputs": [
        {
          "indexed": false,
          "internalType": "uint256",
          "name": "feeShare",
          "type": "uint256"
        }
      ],
      "name": "SetFeeShare",
      "type": "event"
    },
    {
      "anonymous": false,
      "inputs": [
        {
          "indexed": false,
          "internalType": "address",
          "name": "feeTo",
          "type": "address"
        }
      ],
      "name": "SetFeeTo",
      "type": "event"
    },
    {
      "anonymous": false,
      "inputs": [
        {
          "indexed": false,
          "internalType": "contract IReferralStorage",
          "name": "referralStorage",
          "type": "address"
        }
      ],
      "name": "SetReferralStorage",
      "type": "event"
    },
    {
      "inputs": [],
      "name": "BASIS_POINTS",
      "outputs": [
        {
          "internalType": "uint256",
          "name": "",
          "type": "uint256"
        }
      ],
      "stateMutability": "view",
      "type": "function"
    },
    {
      "inputs": [],
      "name": "MAX_FEE_POINTS",
      "outputs": [
        {
          "internalType": "uint256",
          "name": "",
          "type": "uint256"
        }
      ],
      "stateMutability": "view",
      "type": "function"
    },
    {
      "inputs": [],
      "name": "admin",
      "outputs": [
        {
          "internalType": "address",
          "name": "",
          "type": "address"
        }
      ],
      "stateMutability": "view",
      "type": "function"
    },
    {
      "inputs": [],
      "name": "adminCandidate",
      "outputs": [
        {
          "internalType": "address",
          "name": "",
          "type": "address"
        }
      ],
      "stateMutability": "view",
      "type": "function"
    },
    {
      "inputs": [],
      "name": "candidateConfirm",
      "outputs": [],
      "stateMutability": "nonpayable",
      "type": "function"
    },
    {
      "inputs": [],
      "name": "feeDiscount",
      "outputs": [
        {
          "internalType": "uint256",
          "name": "",
          "type": "uint256"
        }
      ],
      "stateMutability": "view",
      "type": "function"
    },
    {
      "inputs": [],
      "name": "feeRebate",
      "outputs": [
        {
          "internalType": "uint256",
          "name": "",
          "type": "uint256"
        }
      ],
      "stateMutability": "view",
      "type": "function"
    },
    {
      "inputs": [],
      "name": "feeShare",
      "outputs": [
        {
          "internalType": "uint256",
          "name": "",
          "type": "uint256"
        }
      ],
      "stateMutability": "view",
      "type": "function"
    },
    {
      "inputs": [],
      "name": "feeTo",
      "outputs": [
        {
          "internalType": "address",
          "name": "",
          "type": "address"
        }
      ],
      "stateMutability": "view",
      "type": "function"
    },
    {
      "inputs": [
        {
          "internalType": "address",
          "name": "tokenOut",
          "type": "address"
        },
        {
          "internalType": "uint256",
          "name": "amountOutMin",
          "type": "uint256"
        },
        {
          "internalType": "address",
          "name": "from",
          "type": "address"
        },
        {
          "internalType": "address",
          "name": "to",
          "type": "address"
        }
      ],
      "name": "processSettlement",
      "outputs": [],
      "stateMutability": "nonpayable",
      "type": "function"
    },
    {
      "inputs": [],
      "name": "referralStorage",
      "outputs": [
        {
          "internalType": "contract IReferralStorage",
          "name": "",
          "type": "address"
        }
      ],
      "stateMutability": "view",
      "type": "function"
    },
    {
      "inputs": [
        {
          "internalType": "address",
          "name": "_candidate",
          "type": "address"
        }
      ],
      "name": "setAdminCandidate",
      "outputs": [],
      "stateMutability": "nonpayable",
      "type": "function"
    },
    {
      "inputs": [
        {
          "internalType": "uint256",
          "name": "_feeDiscount",
          "type": "uint256"
        }
      ],
      "name": "setFeeDiscount",
      "outputs": [],
      "stateMutability": "nonpayable",
      "type": "function"
    },
    {
      "inputs": [
        {
          "internalType": "uint256",
          "name": "_feeRebate",
          "type": "uint256"
        }
      ],
      "name": "setFeeRebate",
      "outputs": [],
      "stateMutability": "nonpayable",
      "type": "function"
    },
    {
      "inputs": [
        {
          "internalType": "uint256",
          "name": "_feeShare",
          "type": "uint256"
        }
      ],
      "name": "setFeeShare",
      "outputs": [],
      "stateMutability": "nonpayable",
      "type": "function"
    },
    {
      "inputs": [
        {
          "internalType": "address",
          "name": "_feeTo",
          "type": "address"
        }
      ],
      "name": "setFeeTo",
      "outputs": [],
      "stateMutability": "nonpayable",
      "type": "function"
    },
    {
      "inputs": [
        {
          "internalType": "contract IReferralStorage",
          "name": "_referralStorage",
          "type": "address"
        }
      ],
      "name": "setReferralStorage",
      "outputs": [],
      "stateMutability": "nonpayable",
      "type": "function"
    },
    {
      "inputs": [],
      "name": "weth",
      "outputs": [
        {
          "internalType": "address",
          "name": "",
          "type": "address"
        }
      ],
      "stateMutability": "view",
      "type": "function"
    },
    {
      "stateMutability": "payable",
      "type": "receive"
    }
  ],
  "transactionHash": "0x00eb4ce9dc8fda95f57000595243dd2a018d4696590efc8538361e5f0ca4b9f6",
  "args": [
    "0xAeaaf0e2c81Af264101B9129C00F4440cCF0F720",
    "0xf6EA707CBf38f2Acf3bf029429B55192c61c67ad",
    10,
    2000,
    2500,
    "0x4dA60510480aC2c6768893bC18aBBBb7c141f58D"
  ],
  "numDeployments": 1,
  "solcInputHash": "3168633c3e9b08bae58c555bb1ad218f",
  "bytecode": "0x60a06040523480156200001157600080fd5b506040516200147838038062001478833981016040819052620000349162000186565b6001600055606086901b6001600160601b031916608052600380546001600160a01b0319166001600160a01b038716179055601e841115620000895760405163e8cdd5bd60e01b815260040160405180910390fd5b612710831115620000ad57604051630823099f60e31b815260040160405180910390fd5b612710821115620000d15760405163b8e2132f60e01b815260040160405180910390fd5b600484905560058390556006829055600780546001600160a01b0319166001600160a01b038316179055620001063362000112565b50505050505062000210565b6001546001600160a01b031615620001645760405162461bcd60e51b815260206004820152601160248201527018591b5a5b88185b1c9958591e481cd95d607a1b604482015260640160405180910390fd5b600180546001600160a01b0319166001600160a01b0392909216919091179055565b60008060008060008060c08789031215620001a057600080fd5b8651620001ad81620001f7565b6020880151909650620001c081620001f7565b8095505060408701519350606087015192506080870151915060a0870151620001e981620001f7565b809150509295509295509295565b6001600160a01b03811681146200020d57600080fd5b50565b60805160601c61121f62000259600039600081816101be0152818161085b015281816108d90152818161092c015281816109b301528181610a950152610b2e015261121f6000f3fe60806040526004361061010c5760003560e01c8063b3cba4a211610095578063e9ade90e11610064578063e9ade90e146102c5578063ee180773146102db578063f46901ed146102fb578063f5a632661461031b578063f851a4401461033b57600080fd5b8063b3cba4a21461025a578063bee514e71461027a578063bf7ca56e1461029a578063e1f1c4a7146102af57600080fd5b80633fc8cef3116100dc5780633fc8cef3146101ac5780633ffcf5ab146101e0578063731c2f811461020457806396de7aa01461021a578063ae4d7f9a1461023a57600080fd5b80626cc35e14610118578063017e7e58146101555780633accfa6c146101755780633f0232301461019557600080fd5b3661011357005b600080fd5b34801561012457600080fd5b50600354610138906001600160a01b031681565b6040516001600160a01b0390911681526020015b60405180910390f35b34801561016157600080fd5b50600754610138906001600160a01b031681565b34801561018157600080fd5b50600254610138906001600160a01b031681565b3480156101a157600080fd5b506101aa61035b565b005b3480156101b857600080fd5b506101387f000000000000000000000000000000000000000000000000000000000000000081565b3480156101ec57600080fd5b506101f660055481565b60405190815260200161014c565b34801561021057600080fd5b506101f660065481565b34801561022657600080fd5b506101aa610235366004610fcd565b610410565b34801561024657600080fd5b506101aa610255366004610fcd565b610484565b34801561026657600080fd5b506101aa61027536600461108f565b610503565b34801561028657600080fd5b506101aa61029536600461108f565b610584565b3480156102a657600080fd5b506101f6601e81565b3480156102bb57600080fd5b506101f661271081565b3480156102d157600080fd5b506101f660045481565b3480156102e757600080fd5b506101aa6102f6366004610fea565b610606565b34801561030757600080fd5b506101aa610316366004610fcd565b610bd6565b34801561032757600080fd5b506101aa61033636600461108f565b610c4e565b34801561034757600080fd5b50600154610138906001600160a01b031681565b6002546001600160a01b031633146103aa5760405162461bcd60e51b815260206004820152600d60248201526c6e6f742043616e64696461746560981b60448201526064015b60405180910390fd5b6002546001546040516001600160a01b0392831692909116907f7e644d79422f17c01e4894b5f4f588d331ebfa28653d42ae832dc59e38c9798f90600090a360028054600180546001600160a01b03199081166001600160a01b03841617909155169055565b6001546001600160a01b0316331461043a5760405162461bcd60e51b81526004016103a190611110565b600280546001600160a01b0319166001600160a01b0383169081179091556040517f8cc40b9abca4a505a92028908f9d913d621d18112c69412806506f02333f26b490600090a250565b6001546001600160a01b031633146104ae5760405162461bcd60e51b81526004016103a190611110565b600380546001600160a01b0319166001600160a01b0383169081179091556040519081527f828abcccea18192c21d645e575652c49e20b986dab777906fc473d056b01b6a8906020015b60405180910390a150565b6001546001600160a01b0316331461052d5760405162461bcd60e51b81526004016103a190611110565b601e81111561054f5760405163e8cdd5bd60e01b815260040160405180910390fd5b60048190556040518181527f110c64f8b5e69db3c5073ef38ff8c9b9153222e04cb538a860888e5822fb42d1906020016104f8565b6001546001600160a01b031633146105ae5760405162461bcd60e51b81526004016103a190611110565b6127108111156105d157604051630823099f60e31b815260040160405180910390fd5b60058190556040518181527fae8d964c051edf9b7a9b351b2e33c93192db37891822f728b472c9abdb0f15af906020016104f8565b600260005414156106595760405162461bcd60e51b815260206004820152601f60248201527f5265656e7472616e637947756172643a207265656e7472616e742063616c6c0060448201526064016103a1565b600260009081556001600160a01b03851673eeeeeeeeeeeeeeeeeeeeeeeeeeeeeeeeeeeeeeee149081610702576040516370a0823160e01b81523060048201526001600160a01b038716906370a082319060240160206040518083038186803b1580156106c557600080fd5b505afa1580156106d9573d6000803e3d6000fd5b505050506040513d601f19601f820116820180604052508101906106fd91906110a8565b610704565b475b905084811015610727576040516357084d7360e11b815260040160405180910390fd5b6003546040516310c3a57160e11b81526001600160a01b03868116600483015260009216906321874ae290602401604080518083038186803b15801561076c57600080fd5b505afa158015610780573d6000803e3d6000fd5b505050506040513d601f19601f820116820180604052508101906107a4919061105f565b9150506000612710600454846107ba9190611155565b6107c49190611133565b905060006001600160a01b03831615610803576127106005546127106107ea9190611174565b6107f49084611155565b6107fe9190611133565b610805565b815b9050876108128286611174565b1015610825576108228885611174565b90505b6001600160a01b03831615610a8d576000612710600654836108479190611155565b6108519190611133565b905085156109df577f00000000000000000000000000000000000000000000000000000000000000006001600160a01b031663d0e30db0836040518263ffffffff1660e01b81526004016000604051808303818588803b1580156108b457600080fd5b505af11580156108c8573d6000803e3d6000fd5b506109049350506001600160a01b037f000000000000000000000000000000000000000000000000000000000000000016915086905083610cd0565b6007546040516370a0823160e01b81523060048201526109da916001600160a01b03908116917f0000000000000000000000000000000000000000000000000000000000000000909116906370a08231906024015b60206040518083038186803b15801561097157600080fd5b505afa158015610985573d6000803e3d6000fd5b505050506040513d601f19601f820116820180604052508101906109a991906110a8565b6001600160a01b037f0000000000000000000000000000000000000000000000000000000000000000169190610cd0565b610a1e565b6109f36001600160a01b038b168583610cd0565b600754610a1e906001600160a01b0316610a0d8385611174565b6001600160a01b038d169190610cd0565b7f11c13103c3d0e9afd6568e050834acf21c224630afc32309390e8c23e27677d488858c610a4c8688611174565b604080516001600160a01b0395861681529385166020850152919093169082015260608101919091526080810183905260a00160405180910390a150610b7f565b8415610b65577f00000000000000000000000000000000000000000000000000000000000000006001600160a01b031663d0e30db0826040518263ffffffff1660e01b81526004016000604051808303818588803b158015610aee57600080fd5b505af1158015610b02573d6000803e3d6000fd5b50506007546040516370a0823160e01b8152306004820152610b6094506001600160a01b0391821693507f000000000000000000000000000000000000000000000000000000000000000090911691506370a0823190602401610959565b610b7f565b600754610b7f906001600160a01b038b8116911683610cd0565b8415610ba757610ba2610b928286611174565b6001600160a01b03881690610d27565b610bc6565b610bc686610bb58387611174565b6001600160a01b038c169190610cd0565b5050600160005550505050505050565b6001546001600160a01b03163314610c005760405162461bcd60e51b81526004016103a190611110565b600780546001600160a01b0319166001600160a01b0383169081179091556040519081527ff6b59ffc88fbb27f33470b919e00b41139ee340eb349521f0cbbc1504ce29c3e906020016104f8565b6001546001600160a01b03163314610c785760405162461bcd60e51b81526004016103a190611110565b612710811115610c9b5760405163b8e2132f60e01b815260040160405180910390fd5b60068190556040518181527fa4ed15e1d9307ea38cbd10d8b102a75209f076ff571aab3007fcabaa8351059b906020016104f8565b604080516001600160a01b038416602482015260448082018490528251808303909101815260649091019091526020810180516001600160e01b031663a9059cbb60e01b179052610d22908490610d78565b505050565b600080600080600085875af1905080610d225760405162461bcd60e51b815260206004820152601360248201527211551217d514905394d1915497d19052531151606a1b60448201526064016103a1565b6000610dcd826040518060400160405280602081526020017f5361666545524332303a206c6f772d6c6576656c2063616c6c206661696c6564815250856001600160a01b0316610e4a9092919063ffffffff16565b805190915015610d225780806020019051810190610deb919061103d565b610d225760405162461bcd60e51b815260206004820152602a60248201527f5361666545524332303a204552433230206f7065726174696f6e20646964206e6044820152691bdd081cdd58d8d9595960b21b60648201526084016103a1565b6060610e598484600085610e63565b90505b9392505050565b606082471015610ec45760405162461bcd60e51b815260206004820152602660248201527f416464726573733a20696e73756666696369656e742062616c616e636520666f6044820152651c8818d85b1b60d21b60648201526084016103a1565b6001600160a01b0385163b610f1b5760405162461bcd60e51b815260206004820152601d60248201527f416464726573733a2063616c6c20746f206e6f6e2d636f6e747261637400000060448201526064016103a1565b600080866001600160a01b03168587604051610f3791906110c1565b60006040518083038185875af1925050503d8060008114610f74576040519150601f19603f3d011682016040523d82523d6000602084013e610f79565b606091505b5091509150610f89828286610f94565b979650505050505050565b60608315610fa3575081610e5c565b825115610fb35782518084602001fd5b8160405162461bcd60e51b81526004016103a191906110dd565b600060208284031215610fdf57600080fd5b8135610e5c816111d1565b6000806000806080858703121561100057600080fd5b843561100b816111d1565b9350602085013592506040850135611022816111d1565b91506060850135611032816111d1565b939692955090935050565b60006020828403121561104f57600080fd5b81518015158114610e5c57600080fd5b6000806040838503121561107257600080fd5b825191506020830151611084816111d1565b809150509250929050565b6000602082840312156110a157600080fd5b5035919050565b6000602082840312156110ba57600080fd5b5051919050565b600082516110d381846020870161118b565b9190910192915050565b60208152600082518060208401526110fc81604085016020870161118b565b601f01601f19169190910160400192915050565b6020808252600990820152683737ba1030b236b4b760b91b604082015260600190565b60008261115057634e487b7160e01b600052601260045260246000fd5b500490565b600081600019048311821515161561116f5761116f6111bb565b500290565b600082821015611186576111866111bb565b500390565b60005b838110156111a657818101518382015260200161118e565b838111156111b5576000848401525b50505050565b634e487b7160e01b600052601160045260246000fd5b6001600160a01b03811681146111e657600080fd5b5056fea264697066735822122004cc404dc40f07d0d9ece17655896582d503c827d2d8a190b8f6d62184affcec64736f6c63430008070033",
  "devdoc": {
    "kind": "dev",
    "methods": {
      "processSettlement(address,uint256,address,address)": {
        "params": {
          "amountOutMin": "Minimum amount of the output token",
          "from": "Trader address",
          "to": "Receiver address",
          "tokenOut": "Address of the output token"
        }
      },
      "setFeeDiscount(uint256)": {
        "params": {
          "_feeDiscount": "Percent of feeDiscount"
        }
      },
      "setFeeRebate(uint256)": {
        "params": {
          "_feeRebate": "Percent of feeRebate"
        }
      },
      "setFeeShare(uint256)": {
        "params": {
          "_feeShare": "Percent of fee"
        }
      },
      "setFeeTo(address)": {
        "params": {
          "_feeTo": "FeeTo address"
        }
      },
      "setReferralStorage(address)": {
        "params": {
          "_referralStorage": "ReferralStorage address"
        }
      }
    },
    "version": 1
  },
  "userdoc": {
    "kind": "user",
    "methods": {
      "processSettlement(address,uint256,address,address)": {
        "notice": "Executes the fee settlement, including pay referrer rebates"
      },
      "setFeeDiscount(uint256)": {
        "notice": "Set feeDicount by admin"
      },
      "setFeeRebate(uint256)": {
        "notice": "Set feeRebate by admin"
      },
      "setFeeShare(uint256)": {
        "notice": "Set feeShare by admin"
      },
      "setFeeTo(address)": {
        "notice": "Set feeTo by admin"
      }
    },
    "version": 1
  },
  "storageLayout": {
    "storage": [
      {
        "astId": 10,
        "contract": "contracts/universal-router/modules/FeeSettlement.sol:FeeSettlement",
        "label": "_status",
        "offset": 0,
        "slot": "0",
        "type": "t_uint256"
      },
      {
        "astId": 733,
        "contract": "contracts/universal-router/modules/FeeSettlement.sol:FeeSettlement",
        "label": "admin",
        "offset": 0,
        "slot": "1",
        "type": "t_address"
      },
      {
        "astId": 735,
        "contract": "contracts/universal-router/modules/FeeSettlement.sol:FeeSettlement",
        "label": "adminCandidate",
        "offset": 0,
        "slot": "2",
        "type": "t_address"
      },
      {
        "astId": 939,
        "contract": "contracts/universal-router/modules/FeeSettlement.sol:FeeSettlement",
        "label": "referralStorage",
        "offset": 0,
        "slot": "3",
        "type": "t_contract(IReferralStorage)861"
      },
      {
        "astId": 941,
        "contract": "contracts/universal-router/modules/FeeSettlement.sol:FeeSettlement",
        "label": "feeShare",
        "offset": 0,
        "slot": "4",
        "type": "t_uint256"
      },
      {
        "astId": 943,
        "contract": "contracts/universal-router/modules/FeeSettlement.sol:FeeSettlement",
        "label": "feeDiscount",
        "offset": 0,
        "slot": "5",
        "type": "t_uint256"
      },
      {
        "astId": 945,
        "contract": "contracts/universal-router/modules/FeeSettlement.sol:FeeSettlement",
        "label": "feeRebate",
        "offset": 0,
        "slot": "6",
        "type": "t_uint256"
      },
      {
        "astId": 947,
        "contract": "contracts/universal-router/modules/FeeSettlement.sol:FeeSettlement",
        "label": "feeTo",
        "offset": 0,
        "slot": "7",
        "type": "t_address"
      }
    ],
    "types": {
      "t_address": {
        "encoding": "inplace",
        "label": "address",
        "numberOfBytes": "20"
      },
      "t_contract(IReferralStorage)861": {
        "encoding": "inplace",
        "label": "contract IReferralStorage",
        "numberOfBytes": "20"
      },
      "t_uint256": {
        "encoding": "inplace",
        "label": "uint256",
        "numberOfBytes": "32"
      }
    }
  }
}