{
  "address": "0xbA2aF4Bdeeedb43948bcAbDbD68Eb7904ACc4316",
  "abi": [
    {
      "inputs": [],
      "name": "InsufficientAmountIn",
      "type": "error"
    },
    {
      "inputs": [
        {
          "internalType": "address",
          "name": "pool",
          "type": "address"
        },
        {
          "internalType": "address",
          "name": "tokenIn",
          "type": "address"
        },
        {
          "internalType": "address",
          "name": "tokenOut",
          "type": "address"
        },
        {
          "internalType": "address",
          "name": "to",
          "type": "address"
        }
      ],
      "name": "swap",
      "outputs": [],
      "stateMutability": "nonpayable",
      "type": "function"
    }
  ],
  "transactionHash": "0x7dcf2dfe91716d01680e0d86378859a0c20d3a26ccbe78b05edd0babd3da088d",
  "args": [],
  "numDeployments": 1,
  "solcInputHash": "5ae2127be285b52cbe1fd396e3d08d23",
  "bytecode": "0x608060405234801561001057600080fd5b506108fb806100206000396000f3fe608060405234801561001057600080fd5b506004361061002b5760003560e01c80638c256d6414610030575b600080fd5b61004361003e366004610753565b610045565b005b6040516319b02f4960e21b81526001600160a01b038481166004830152600091908616906366c0bd249060240160206040518083038186803b15801561008a57600080fd5b505afa15801561009e573d6000803e3d6000fd5b505050506040513d601f19601f820116820180604052508101906100c291906107e2565b6040516319b02f4960e21b81526001600160a01b0385811660048301529192506000918716906366c0bd249060240160206040518083038186803b15801561010957600080fd5b505afa15801561011d573d6000803e3d6000fd5b505050506040513d601f19601f8201168201806040525081019061014191906107e2565b6040516370a0823160e01b81523060048201529091506000906001600160a01b038716906370a082319060240160206040518083038186803b15801561018657600080fd5b505afa15801561019a573d6000803e3d6000fd5b505050506040513d601f19601f820116820180604052508101906101be91906107c9565b6040516370a0823160e01b81523060048201529091506000906001600160a01b038716906370a082319060240160206040518083038186803b15801561020357600080fd5b505afa158015610217573d6000803e3d6000fd5b505050506040513d601f19601f8201168201806040525081019061023b91906107c9565b90508161025b57604051636fad977360e11b815260040160405180910390fd5b61026f6001600160a01b03881689846103ae565b6040516348b4aac360e11b815260ff808616600483015284166024820152604481018390526000606482015260001960848201526001600160a01b0389169063916955869060a401602060405180830381600087803b1580156102d157600080fd5b505af11580156102e5573d6000803e3d6000fd5b505050506040513d601f19601f8201168201806040525081019061030991906107c9565b506040516370a0823160e01b81523060048201526103a490869083906001600160a01b038a16906370a082319060240160206040518083038186803b15801561035157600080fd5b505afa158015610365573d6000803e3d6000fd5b505050506040513d601f19601f8201168201806040525081019061038991906107c9565b610393919061086c565b6001600160a01b03891691906104a8565b5050505050505050565b604051636eb1769f60e11b81523060048201526001600160a01b038381166024830152600091839186169063dd62ed3e9060440160206040518083038186803b1580156103fa57600080fd5b505afa15801561040e573d6000803e3d6000fd5b505050506040513d601f19601f8201168201806040525081019061043291906107c9565b61043c9190610854565b6040516001600160a01b0385166024820152604481018290529091506104a290859063095ea7b360e01b906064015b60408051601f198184030181529190526020810180516001600160e01b03166001600160e01b0319909316929092179091526104dd565b50505050565b6040516001600160a01b0383166024820152604481018290526104d890849063a9059cbb60e01b9060640161046b565b505050565b6000610532826040518060400160405280602081526020017f5361666545524332303a206c6f772d6c6576656c2063616c6c206661696c6564815250856001600160a01b03166105b49092919063ffffffff16565b8051909150156104d8578080602001905181019061055091906107a7565b6104d85760405162461bcd60e51b815260206004820152602a60248201527f5361666545524332303a204552433230206f7065726174696f6e20646964206e6044820152691bdd081cdd58d8d9595960b21b60648201526084015b60405180910390fd5b60606105c384846000856105cd565b90505b9392505050565b60608247101561062e5760405162461bcd60e51b815260206004820152602660248201527f416464726573733a20696e73756666696369656e742062616c616e636520666f6044820152651c8818d85b1b60d21b60648201526084016105ab565b6001600160a01b0385163b6106855760405162461bcd60e51b815260206004820152601d60248201527f416464726573733a2063616c6c20746f206e6f6e2d636f6e747261637400000060448201526064016105ab565b600080866001600160a01b031685876040516106a19190610805565b60006040518083038185875af1925050503d80600081146106de576040519150601f19603f3d011682016040523d82523d6000602084013e6106e3565b606091505b50915091506106f38282866106fe565b979650505050505050565b6060831561070d5750816105c6565b82511561071d5782518084602001fd5b8160405162461bcd60e51b81526004016105ab9190610821565b80356001600160a01b038116811461074e57600080fd5b919050565b6000806000806080858703121561076957600080fd5b61077285610737565b935061078060208601610737565b925061078e60408601610737565b915061079c60608601610737565b905092959194509250565b6000602082840312156107b957600080fd5b815180151581146105c657600080fd5b6000602082840312156107db57600080fd5b5051919050565b6000602082840312156107f457600080fd5b815160ff811681146105c657600080fd5b60008251610817818460208701610883565b9190910192915050565b6020815260008251806020840152610840816040850160208701610883565b601f01601f19169190910160400192915050565b60008219821115610867576108676108af565b500190565b60008282101561087e5761087e6108af565b500390565b60005b8381101561089e578181015183820152602001610886565b838111156104a25750506000910152565b634e487b7160e01b600052601160045260246000fdfea26469706673582212208ccbec29a0560044336213353499027c321f7be827c1114434708c9b8088581b64736f6c63430008070033",
  "devdoc": {
    "kind": "dev",
    "methods": {},
    "version": 1
  },
  "userdoc": {
    "kind": "user",
    "methods": {},
    "version": 1
  },
  "storageLayout": {
    "storage": [],
    "types": null
  }
}