{
  "address": "0x41479dBb983b85587bfEDd11D1Fcfe6ACe138AE1",
  "abi": [
    {
      "inputs": [
        {
          "internalType": "contract IStableSwapDispatcher",
          "name": "_stableSwapDispatcher",
          "type": "address"
        },
        {
          "internalType": "contract IFeeSettlement",
          "name": "_feeSettlement",
          "type": "address"
        }
      ],
      "stateMutability": "nonpayable",
      "type": "constructor"
    },
    {
      "inputs": [],
      "name": "InsufficientOutAmount",
      "type": "error"
    },
    {
      "inputs": [
        {
          "internalType": "uint8",
          "name": "code",
          "type": "uint8"
        }
      ],
      "name": "InvalidCommandCode",
      "type": "error"
    },
    {
      "inputs": [
        {
          "internalType": "address",
          "name": "pool",
          "type": "address"
        }
      ],
      "name": "InvalidPool",
      "type": "error"
    },
    {
      "inputs": [
        {
          "internalType": "uint256",
          "name": "accAmount",
          "type": "uint256"
        },
        {
          "internalType": "uint256",
          "name": "amountIn",
          "type": "uint256"
        }
      ],
      "name": "WrongAmountInValue",
      "type": "error"
    },
    {
      "anonymous": false,
      "inputs": [
        {
          "indexed": true,
          "internalType": "address",
          "name": "oldAdmin",
          "type": "address"
        },
        {
          "indexed": true,
          "internalType": "address",
          "name": "newAdmin",
          "type": "address"
        }
      ],
      "name": "AdminChanged",
      "type": "event"
    },
    {
      "anonymous": false,
      "inputs": [
        {
          "indexed": true,
          "internalType": "address",
          "name": "newAdmin",
          "type": "address"
        }
      ],
      "name": "Candidate",
      "type": "event"
    },
    {
      "anonymous": false,
      "inputs": [
        {
          "indexed": false,
          "internalType": "contract IFeeSettlement",
          "name": "feeSettlement",
          "type": "address"
        }
      ],
      "name": "SetFeeSettlement",
      "type": "event"
    },
    {
      "anonymous": false,
      "inputs": [
        {
          "indexed": false,
          "internalType": "contract IStableSwapDispatcher",
          "name": "stableSwapDispatcher",
          "type": "address"
        }
      ],
      "name": "SetStableSwapDispatcher",
      "type": "event"
    },
    {
      "inputs": [],
      "name": "admin",
      "outputs": [
        {
          "internalType": "address",
          "name": "",
          "type": "address"
        }
      ],
      "stateMutability": "view",
      "type": "function"
    },
    {
      "inputs": [],
      "name": "adminCandidate",
      "outputs": [
        {
          "internalType": "address",
          "name": "",
          "type": "address"
        }
      ],
      "stateMutability": "view",
      "type": "function"
    },
    {
      "inputs": [],
      "name": "candidateConfirm",
      "outputs": [],
      "stateMutability": "nonpayable",
      "type": "function"
    },
    {
      "inputs": [],
      "name": "feeSettlement",
      "outputs": [
        {
          "internalType": "contract IFeeSettlement",
          "name": "",
          "type": "address"
        }
      ],
      "stateMutability": "view",
      "type": "function"
    },
    {
      "inputs": [
        {
          "internalType": "address",
          "name": "tokenIn",
          "type": "address"
        },
        {
          "internalType": "uint256",
          "name": "amountIn",
          "type": "uint256"
        },
        {
          "internalType": "address",
          "name": "tokenOut",
          "type": "address"
        },
        {
          "internalType": "uint256",
          "name": "amountOutMin",
          "type": "uint256"
        },
        {
          "internalType": "address",
          "name": "to",
          "type": "address"
        },
        {
          "internalType": "bytes",
          "name": "route",
          "type": "bytes"
        }
      ],
      "name": "processRoute",
      "outputs": [
        {
          "internalType": "uint256",
          "name": "amountOut",
          "type": "uint256"
        }
      ],
      "stateMutability": "payable",
      "type": "function"
    },
    {
      "inputs": [
        {
          "internalType": "address",
          "name": "_candidate",
          "type": "address"
        }
      ],
      "name": "setAdminCandidate",
      "outputs": [],
      "stateMutability": "nonpayable",
      "type": "function"
    },
    {
      "inputs": [
        {
          "internalType": "contract IFeeSettlement",
          "name": "_feeSettlement",
          "type": "address"
        }
      ],
      "name": "setFeeSettlement",
      "outputs": [],
      "stateMutability": "nonpayable",
      "type": "function"
    },
    {
      "inputs": [
        {
          "internalType": "contract IStableSwapDispatcher",
          "name": "_stableSwapDispatcher",
          "type": "address"
        }
      ],
      "name": "setStableSwapDispatcher",
      "outputs": [],
      "stateMutability": "nonpayable",
      "type": "function"
    },
    {
      "inputs": [],
      "name": "stableSwapDispatcher",
      "outputs": [
        {
          "internalType": "contract IStableSwapDispatcher",
          "name": "",
          "type": "address"
        }
      ],
      "stateMutability": "view",
      "type": "function"
    },
    {
      "stateMutability": "payable",
      "type": "receive"
    }
  ],
  "transactionHash": "0x6c6990dfd9857da8c7a84afe99219f137a02008808f463ed7d0402d2eb8ee8c2",
  "args": [
    "0xf3780EBbF5C0055c0951EC1c2Abc1b3D77713459",
    "0xAFCCA0f68e0883b797c71525377DE46B2E65AB28"
  ],
  "numDeployments": 1,
  "solcInputHash": "5c2aed5338a921499a8ffa3f135b051b",
  "bytecode": "0x60806040523480156200001157600080fd5b5060405162001979380380620019798339810160408190526200003491620000f0565b6001600055600380546001600160a01b038085166001600160a01b031992831617909255600480549284169290911691909117905562000074336200007c565b505062000148565b6001546001600160a01b031615620000ce5760405162461bcd60e51b815260206004820152601160248201527018591b5a5b88185b1c9958591e481cd95d607a1b604482015260640160405180910390fd5b600180546001600160a01b0319166001600160a01b0392909216919091179055565b600080604083850312156200010457600080fd5b825162000111816200012f565b602084015190925062000124816200012f565b809150509250929050565b6001600160a01b03811681146200014557600080fd5b50565b61182180620001586000396000f3fe60806040526004361061008a5760003560e01c806373ce06271161005957806373ce06271461012b57806377cc4e9a1461014b57806396de7aa01461016b578063a81e200b1461018b578063f851a440146101ab57600080fd5b80632646478b146100965780633accfa6c146100bc5780633f023230146100f45780635efc9dcd1461010b57600080fd5b3661009157005b600080fd5b6100a96100a43660046114bc565b6101cb565b6040519081526020015b60405180910390f35b3480156100c857600080fd5b506002546100dc906001600160a01b031681565b6040516001600160a01b0390911681526020016100b3565b34801561010057600080fd5b50610109610248565b005b34801561011757600080fd5b506101096101263660046113b4565b6102f8565b34801561013757600080fd5b506003546100dc906001600160a01b031681565b34801561015757600080fd5b506101096101663660046113b4565b610377565b34801561017757600080fd5b506101096101863660046113b4565b6103ef565b34801561019757600080fd5b506004546100dc906001600160a01b031681565b3480156101b757600080fd5b506001546100dc906001600160a01b031681565b6000600260005414156102255760405162461bcd60e51b815260206004820152601f60248201527f5265656e7472616e637947756172643a207265656e7472616e742063616c6c0060448201526064015b60405180910390fd5b6002600055610238878787878787610463565b6001600055979650505050505050565b6002546001600160a01b031633146102925760405162461bcd60e51b815260206004820152600d60248201526c6e6f742043616e64696461746560981b604482015260640161021c565b6002546001546040516001600160a01b0392831692909116907f7e644d79422f17c01e4894b5f4f588d331ebfa28653d42ae832dc59e38c9798f90600090a360028054600180546001600160a01b03199081166001600160a01b03841617909155169055565b6001546001600160a01b031633146103225760405162461bcd60e51b815260040161021c90611696565b600480546001600160a01b0319166001600160a01b0383169081179091556040519081527f5b63ecb9cf822eda2eff61a085df526dda34a89520e32c60dd98f6d2718e68df906020015b60405180910390a150565b6001546001600160a01b031633146103a15760405162461bcd60e51b815260040161021c90611696565b600380546001600160a01b0319166001600160a01b0383169081179091556040519081527f8fbcedcd8235dbaa973a11fd69b709a18f639a45103ddb133a16b046e38dcb259060200161036c565b6001546001600160a01b031633146104195760405162461bcd60e51b815260040161021c90611696565b600280546001600160a01b0319166001600160a01b0383169081179091556040517f8cc40b9abca4a505a92028908f9d913d621d18112c69412806506f02333f26b490600090a250565b600080806001600160a01b03871673eeeeeeeeeeeeeeeeeeeeeeeeeeeeeeeeeeeeeeee14610509576040516370a0823160e01b81526001600160a01b0386811660048301528816906370a082319060240160206040518083038186803b1580156104cc57600080fd5b505afa1580156104e0573d6000803e3d6000fd5b505050506040513d601f19601f820116820180604052508101906105049190611622565b610515565b846001600160a01b0316315b604080518082019091528581528551860160208201529091505b80516020820151111561062857600061054e8280516001018051915290565b905060148160ff1610156106015760ff8116600a141561057757610571826107be565b50610622565b60ff8116600414156105915761058c82610a57565b610622565b60ff8116600314156105b8576105a7828c610b97565b6105b190856116f0565b9350610622565b60ff8116600514156105ce576105a7828b610c22565b60ff8116600614156105e35761058c82610d15565b6040516362e84ebf60e01b815260ff8216600482015260240161021c565b60188160ff1610156105e35760ff8116601414156105e35761058c82610e3c565b5061052f565b88831461065257604051635a55ed1360e01b815260048101849052602481018a905260440161021c565b6004805460405163ee18077360e01b81526001600160a01b038b811693820193909352602481018a9052336044820152888316606482015291169063ee18077390608401600060405180830381600087803b1580156106b057600080fd5b505af11580156106c4573d6000803e3d6000fd5b506000925050506001600160a01b03891673eeeeeeeeeeeeeeeeeeeeeeeeeeeeeeeeeeeeeeee1461076d576040516370a0823160e01b81526001600160a01b0388811660048301528a16906370a082319060240160206040518083038186803b15801561073057600080fd5b505afa158015610744573d6000803e3d6000fd5b505050506040513d601f19601f820116820180604052508101906107689190611622565b610779565b866001600160a01b0316315b905061078588846116f0565b8110156107a5576040516357084d7360e11b815260040160405180910390fd5b6107af8382611749565b9b9a5050505050505050505050565b6000806107d18380516014018051915290565b905060006107e58480516014018051915290565b905060006107f98580516001018051915290565b9050600061080d8680516014018051915290565b9050600080856001600160a01b0316630902f1ac6040518163ffffffff1660e01b815260040160606040518083038186803b15801561084b57600080fd5b505afa15801561085f573d6000803e3d6000fd5b505050506040513d601f19601f8201168201806040525081019061088391906115d2565b506001600160701b031691506001600160701b0316915081600014806108a7575080155b156108d057604051630f4c971b60e21b81526001600160a01b038716600482015260240161021c565b6000808560ff166001146108e55782846108e8565b83835b6040516370a0823160e01b81526001600160a01b038b811660048301529294509092506000918491908a16906370a082319060240160206040518083038186803b15801561093557600080fd5b505afa158015610949573d6000803e3d6000fd5b505050506040513d601f19601f8201168201806040525081019061096d9190611622565b6109779190611749565b90506000610987826103e561172a565b905080610996856103e861172a565b6109a091906116f0565b6109aa848361172a565b6109b49190611708565b9a506000808960ff166001146109cc578c60006109d0565b60008d5b6040805160008152602081019182905263022c0d9f60e01b90915291935091506001600160a01b038d169063022c0d9f90610a1490859085908e90602481016116b9565b600060405180830381600087803b158015610a2e57600080fd5b505af1158015610a42573d6000803e3d6000fd5b50505050505050505050505050505050919050565b6000610a698280516014018051915290565b90506000610a7d8380516001018051915290565b6040516370a0823160e01b81523060048201529091506000906001906001600160a01b038516906370a082319060240160206040518083038186803b158015610ac557600080fd5b505afa158015610ad9573d6000803e3d6000fd5b505050506040513d601f19601f82011682018060405250810190610afd9190611622565b610b079190611749565b905060005b8260ff16811015610b90576000610b298680516014018051915290565b90506000610b3d8780516002018051915290565b9050600061ffff610b508184168761172a565b610b5a9190611708565b9050610b668186611749565b9450610b7c6001600160a01b0388168483611031565b50505080610b899061178c565b9050610b0c565b5050505050565b600080610baa8480516001018051915290565b90506000915060005b8160ff16811015610c1a576000610bd08680516014018051915290565b90506000610be48780516020018051915290565b9050610bf081866116f0565b9450610c076001600160a01b038716338484611099565b505080610c139061178c565b9050610bb3565b505092915050565b600080610c358480516014018051915290565b9050806001600160a01b031663d0e30db0846040518263ffffffff1660e01b81526004016000604051808303818588803b158015610c7257600080fd5b505af1158015610c86573d6000803e3d6000fd5b50505050506000610c9d8580516001018051915290565b90506000925060005b8160ff16811015610d0c576000610cc38780516014018051915290565b90506000610cd78880516020018051915290565b9050610ce381876116f0565b9550610cf96001600160a01b0386168383611031565b505080610d059061178c565b9050610ca6565b50505092915050565b6000610d278280516014018051915290565b90506000610d3b8380516014018051915290565b6040516370a0823160e01b81523060048201529091506000906001906001600160a01b038516906370a082319060240160206040518083038186803b158015610d8357600080fd5b505afa158015610d97573d6000803e3d6000fd5b505050506040513d601f19601f82011682018060405250810190610dbb9190611622565b610dc59190611749565b604051632e1a7d4d60e01b8152600481018290529091506001600160a01b03841690632e1a7d4d90602401600060405180830381600087803b158015610e0a57600080fd5b505af1158015610e1e573d6000803e3d6000fd5b50610e36925050506001600160a01b038316826110d1565b50505050565b6000610e4e8280516001018051915290565b90506000610e628380516014018051915290565b8351602080820180519092010185529091508260ff1660011415610f3d57600080600080600085806020019051810190610e9c919061144e565b600354604051630ba1448d60e01b81526001600160a01b03808816600483015260ff808816602484015286166044830152808516606483015280841660848301528e811660a4830152969b5094995092975090955093509190911690630ba1448d9060c401600060405180830381600087803b158015610f1b57600080fd5b505af1158015610f2f573d6000803e3d6000fd5b505050505050505050610e36565b60008060008060008086806020019051810190610f5a91906113d1565b955095509550955095509550600360009054906101000a90046001600160a01b03166001600160a01b031663cbf45e888787878787878f6040518863ffffffff1660e01b8152600401610ff397969594939291906001600160a01b039788168152951515602087015260ff94851660408701529290931660608501528416608084015290831660a083015290911660c082015260e00190565b600060405180830381600087803b15801561100d57600080fd5b505af1158015611021573d6000803e3d6000fd5b5050505050505050505050505050565b6040516001600160a01b03831660248201526044810182905261109490849063a9059cbb60e01b906064015b60408051601f198184030181529190526020810180516001600160e01b03166001600160e01b031990931692909217909152611122565b505050565b6040516001600160a01b0380851660248301528316604482015260648101829052610e369085906323b872dd60e01b9060840161105d565b600080600080600085875af19050806110945760405162461bcd60e51b815260206004820152601360248201527211551217d514905394d1915497d19052531151606a1b604482015260640161021c565b6000611177826040518060400160405280602081526020017f5361666545524332303a206c6f772d6c6576656c2063616c6c206661696c6564815250856001600160a01b03166111f49092919063ffffffff16565b805190915015611094578080602001905181019061119591906115b7565b6110945760405162461bcd60e51b815260206004820152602a60248201527f5361666545524332303a204552433230206f7065726174696f6e20646964206e6044820152691bdd081cdd58d8d9595960b21b606482015260840161021c565b6060611203848460008561120d565b90505b9392505050565b60608247101561126e5760405162461bcd60e51b815260206004820152602660248201527f416464726573733a20696e73756666696369656e742062616c616e636520666f6044820152651c8818d85b1b60d21b606482015260840161021c565b6001600160a01b0385163b6112c55760405162461bcd60e51b815260206004820152601d60248201527f416464726573733a2063616c6c20746f206e6f6e2d636f6e7472616374000000604482015260640161021c565b600080866001600160a01b031685876040516112e19190611667565b60006040518083038185875af1925050503d806000811461131e576040519150601f19603f3d011682016040523d82523d6000602084013e611323565b606091505b509150915061133382828661133e565b979650505050505050565b6060831561134d575081611206565b82511561135d5782518084602001fd5b8160405162461bcd60e51b815260040161021c9190611683565b8051801515811461138757600080fd5b919050565b80516001600160701b038116811461138757600080fd5b805160ff8116811461138757600080fd5b6000602082840312156113c657600080fd5b8135611206816117d3565b60008060008060008060c087890312156113ea57600080fd5b86516113f5816117d3565b955061140360208801611377565b9450611411604088016113a3565b935061141f606088016113a3565b9250608087015161142f816117d3565b60a0880151909250611440816117d3565b809150509295509295509295565b600080600080600060a0868803121561146657600080fd5b8551611471816117d3565b945061147f602087016113a3565b935061148d604087016113a3565b9250606086015161149d816117d3565b60808701519092506114ae816117d3565b809150509295509295909350565b60008060008060008060c087890312156114d557600080fd5b86356114e0816117d3565b95506020870135945060408701356114f7816117d3565b935060608701359250608087013561150e816117d3565b915060a087013567ffffffffffffffff8082111561152b57600080fd5b818901915089601f83011261153f57600080fd5b813581811115611551576115516117bd565b604051601f8201601f19908116603f01168101908382118183101715611579576115796117bd565b816040528281528c602084870101111561159257600080fd5b8260208601602083013760006020848301015280955050505050509295509295509295565b6000602082840312156115c957600080fd5b61120682611377565b6000806000606084860312156115e757600080fd5b6115f08461138c565b92506115fe6020850161138c565b9150604084015163ffffffff8116811461161757600080fd5b809150509250925092565b60006020828403121561163457600080fd5b5051919050565b60008151808452611653816020860160208601611760565b601f01601f19169290920160200192915050565b60008251611679818460208701611760565b9190910192915050565b602081526000611206602083018461163b565b6020808252600990820152683737ba1030b236b4b760b91b604082015260600190565b84815283602082015260018060a01b03831660408201526080606082015260006116e6608083018461163b565b9695505050505050565b60008219821115611703576117036117a7565b500190565b60008261172557634e487b7160e01b600052601260045260246000fd5b500490565b6000816000190483118215151615611744576117446117a7565b500290565b60008282101561175b5761175b6117a7565b500390565b60005b8381101561177b578181015183820152602001611763565b83811115610e365750506000910152565b60006000198214156117a0576117a06117a7565b5060010190565b634e487b7160e01b600052601160045260246000fd5b634e487b7160e01b600052604160045260246000fd5b6001600160a01b03811681146117e857600080fd5b5056fea2646970667358221220c6fa795df3bf29ff541b7799d6fb27432dadebb6536613d56e161d5b1dbadacb64736f6c63430008070033",
  "devdoc": {
    "kind": "dev",
    "methods": {
      "processRoute(address,uint256,address,uint256,address,bytes)": {
        "params": {
          "amountIn": "Amount of the input token",
          "amountOutMin": "Minimum amount of the output token",
          "route": "The encoded route to execute with",
          "to": "Receiver address",
          "tokenIn": "Address of the input token",
          "tokenOut": "Address of the output token"
        },
        "returns": {
          "amountOut": "Actual amount of the output token"
        }
      },
      "setFeeSettlement(address)": {
        "params": {
          "_feeSettlement": "FeeSettlement address"
        }
      },
      "setStableSwapDispatcher(address)": {
        "params": {
          "_stableSwapDispatcher": "StableSwapDispatcher address"
        }
      }
    },
    "version": 1
  },
  "userdoc": {
    "kind": "user",
    "methods": {
      "processRoute(address,uint256,address,uint256,address,bytes)": {
        "notice": "Decodes and executes the given route"
      },
      "setFeeSettlement(address)": {
        "notice": "Set FeeSettlement by admin"
      },
      "setStableSwapDispatcher(address)": {
        "notice": "Set StableSwapDispatcher by admin"
      }
    },
    "version": 1
  },
  "storageLayout": {
    "storage": [
      {
        "astId": 10,
        "contract": "contracts/universal-router/UniversalRouter.sol:UniversalRouter",
        "label": "_status",
        "offset": 0,
        "slot": "0",
        "type": "t_uint256"
      },
      {
        "astId": 860,
        "contract": "contracts/universal-router/UniversalRouter.sol:UniversalRouter",
        "label": "admin",
        "offset": 0,
        "slot": "1",
        "type": "t_address"
      },
      {
        "astId": 862,
        "contract": "contracts/universal-router/UniversalRouter.sol:UniversalRouter",
        "label": "adminCandidate",
        "offset": 0,
        "slot": "2",
        "type": "t_address"
      },
      {
        "astId": 1084,
        "contract": "contracts/universal-router/UniversalRouter.sol:UniversalRouter",
        "label": "stableSwapDispatcher",
        "offset": 0,
        "slot": "3",
        "type": "t_contract(IStableSwapDispatcher)1995"
      },
      {
        "astId": 1087,
        "contract": "contracts/universal-router/UniversalRouter.sol:UniversalRouter",
        "label": "feeSettlement",
        "offset": 0,
        "slot": "4",
        "type": "t_contract(IFeeSettlement)1925"
      }
    ],
    "types": {
      "t_address": {
        "encoding": "inplace",
        "label": "address",
        "numberOfBytes": "20"
      },
      "t_contract(IFeeSettlement)1925": {
        "encoding": "inplace",
        "label": "contract IFeeSettlement",
        "numberOfBytes": "20"
      },
      "t_contract(IStableSwapDispatcher)1995": {
        "encoding": "inplace",
        "label": "contract IStableSwapDispatcher",
        "numberOfBytes": "20"
      },
      "t_uint256": {
        "encoding": "inplace",
        "label": "uint256",
        "numberOfBytes": "32"
      }
    }
  }
}