{
  "address": "0x4095d49863190Ab7f80EF5c86b0fC988dEF75C84",
  "abi": [
    {
      "inputs": [
        {
          "internalType": "contract IERC20",
          "name": "_zlk",
          "type": "address"
        }
      ],
      "stateMutability": "nonpayable",
      "type": "constructor"
    },
    {
      "inputs": [],
      "name": "BASIS",
      "outputs": [
        {
          "internalType": "uint256",
          "name": "",
          "type": "uint256"
        }
      ],
      "stateMutability": "view",
      "type": "function"
    },
    {
      "inputs": [
        {
          "internalType": "address",
          "name": "user",
          "type": "address"
        }
      ],
      "name": "getZLKDiscount",
      "outputs": [
        {
          "internalType": "uint256",
          "name": "discount",
          "type": "uint256"
        },
        {
          "internalType": "uint256",
          "name": "basis",
          "type": "uint256"
        }
      ],
      "stateMutability": "view",
      "type": "function"
    }
  ],
  "transactionHash": "0x88ddf3a4918b24026dc30e209d980675b5c9b323e621497fa44d77dc029f5ade",
  "args": [
    "0x998082c488e548820f970df5173bd2061ce90635"
  ],
  "numDeployments": 1,
  "solcInputHash": "0134c9885fcb1324753bc98b14542873",
  "bytecode": "0x608060405234801561001057600080fd5b506040516102fc3803806102fc83398101604081905261002f91610054565b600080546001600160a01b0319166001600160a01b0392909216919091179055610084565b60006020828403121561006657600080fd5b81516001600160a01b038116811461007d57600080fd5b9392505050565b610269806100936000396000f3fe608060405234801561001057600080fd5b50600436106100365760003560e01c8063528cfa981461003b57806370cc4dfc14610057575b600080fd5b61004461271081565b6040519081526020015b60405180910390f35b61006a6100653660046101ea565b61007f565b6040805192835260208301919091520161004e565b600080546040516370a0823160e01b81526001600160a01b038481166004830152839283929116906370a082319060240160206040518083038186803b1580156100c857600080fd5b505afa1580156100dc573d6000803e3d6000fd5b505050506040513d601f19601f82011682018060405250810190610100919061021a565b90508061011557506000936127109350915050565b69010f0cf064dd59200000811015610136575061012c936127109350915050565b69065a4da25d3016c0000081101561015757506101f4936127109350915050565b690cb49b44ba602d80000081101561017857506103e8936127109350915050565b69152d02c7e14af680000081101561019957506104b0936127109350915050565b691fc3842bd1f071c000008110156101ba57506105dc936127109350915050565b693f870857a3e0e38000008110156101db5750610708936127109350915050565b506107d0936127109350915050565b6000602082840312156101fc57600080fd5b81356001600160a01b038116811461021357600080fd5b9392505050565b60006020828403121561022c57600080fd5b505191905056fea2646970667358221220e80ccdd70c13bdaf6902ba14e6bfde45d54143fb766d7bb85089ecb252d57ff464736f6c63430008070033",
  "devdoc": {
    "kind": "dev",
    "methods": {},
    "version": 1
  },
  "userdoc": {
    "kind": "user",
    "methods": {},
    "version": 1
  },
  "storageLayout": {
    "storage": [
      {
        "astId": 1478,
        "contract": "contracts/universal-router/modules/ZLKDiscountReader.sol:ZLKDiscountReader",
        "label": "zlk",
        "offset": 0,
        "slot": "0",
        "type": "t_contract(IERC20)117"
      }
    ],
    "types": {
      "t_contract(IERC20)117": {
        "encoding": "inplace",
        "label": "contract IERC20",
        "numberOfBytes": "20"
      }
    }
  }
}