{
  "address": "0xf6EA707CBf38f2Acf3bf029429B55192c61c67ad",
  "abi": [
    {
      "inputs": [
        {
          "internalType": "contract IAlgebraFactory",
          "name": "factory",
          "type": "address"
        },
        {
          "internalType": "address",
          "name": "tokenIn",
          "type": "address"
        },
        {
          "internalType": "address",
          "name": "tokenOut",
          "type": "address"
        },
        {
          "internalType": "int16",
          "name": "leftBitmapAmount",
          "type": "int16"
        },
        {
          "internalType": "int16",
          "name": "rightBitmapAmount",
          "type": "int16"
        }
      ],
      "name": "getFullStateWithRelativeBitmaps",
      "outputs": [
        {
          "components": [
            {
              "internalType": "contract IAlgebraPool",
              "name": "pool",
              "type": "address"
            },
            {
              "internalType": "uint256",
              "name": "blockTimestamp",
              "type": "uint256"
            },
            {
              "components": [
                {
                  "internalType": "uint160",
                  "name": "sqrtPriceX96",
                  "type": "uint160"
                },
                {
                  "internalType": "uint16",
                  "name": "fee",
                  "type": "uint16"
                },
                {
                  "internalType": "int24",
                  "name": "tick",
                  "type": "int24"
                },
                {
                  "internalType": "uint16",
                  "name": "observationIndex",
                  "type": "uint16"
                },
                {
                  "internalType": "uint8",
                  "name": "communityFeeToken0",
                  "type": "uint8"
                },
                {
                  "internalType": "uint8",
                  "name": "communityFeeToken1",
                  "type": "uint8"
                },
                {
                  "internalType": "bool",
                  "name": "unlocked",
                  "type": "bool"
                }
              ],
              "internalType": "struct AlgebraStateMulticall.Slot0",
              "name": "slot0",
              "type": "tuple"
            },
            {
              "internalType": "uint128",
              "name": "liquidity",
              "type": "uint128"
            },
            {
              "internalType": "int24",
              "name": "tickSpacing",
              "type": "int24"
            },
            {
              "internalType": "uint128",
              "name": "maxLiquidityPerTick",
              "type": "uint128"
            },
            {
              "internalType": "uint256",
              "name": "balance0",
              "type": "uint256"
            },
            {
              "internalType": "uint256",
              "name": "balance1",
              "type": "uint256"
            },
            {
              "components": [
                {
                  "internalType": "uint32",
                  "name": "blockTimestamp",
                  "type": "uint32"
                },
                {
                  "internalType": "int56",
                  "name": "tickCumulative",
                  "type": "int56"
                },
                {
                  "internalType": "uint160",
                  "name": "secondsPerLiquidityCumulativeX128",
                  "type": "uint160"
                },
                {
                  "internalType": "bool",
                  "name": "initialized",
                  "type": "bool"
                }
              ],
              "internalType": "struct AlgebraStateMulticall.Observation",
              "name": "observation",
              "type": "tuple"
            },
            {
              "components": [
                {
                  "internalType": "int16",
                  "name": "index",
                  "type": "int16"
                },
                {
                  "internalType": "uint256",
                  "name": "value",
                  "type": "uint256"
                }
              ],
              "internalType": "struct AlgebraStateMulticall.TickBitMapMappings[]",
              "name": "tickBitmap",
              "type": "tuple[]"
            },
            {
              "components": [
                {
                  "internalType": "int24",
                  "name": "index",
                  "type": "int24"
                },
                {
                  "components": [
                    {
                      "internalType": "uint128",
                      "name": "liquidityGross",
                      "type": "uint128"
                    },
                    {
                      "internalType": "int128",
                      "name": "liquidityNet",
                      "type": "int128"
                    },
                    {
                      "internalType": "int56",
                      "name": "tickCumulativeOutside",
                      "type": "int56"
                    },
                    {
                      "internalType": "uint160",
                      "name": "secondsPerLiquidityOutsideX128",
                      "type": "uint160"
                    },
                    {
                      "internalType": "uint32",
                      "name": "secondsOutside",
                      "type": "uint32"
                    },
                    {
                      "internalType": "bool",
                      "name": "initialized",
                      "type": "bool"
                    }
                  ],
                  "internalType": "struct AlgebraStateMulticall.TickInfo",
                  "name": "value",
                  "type": "tuple"
                }
              ],
              "internalType": "struct AlgebraStateMulticall.TickInfoMappings[]",
              "name": "ticks",
              "type": "tuple[]"
            }
          ],
          "internalType": "struct AlgebraStateMulticall.StateResult",
          "name": "state",
          "type": "tuple"
        }
      ],
      "stateMutability": "view",
      "type": "function"
    }
  ],
  "transactionHash": "0x2bf9e0f142b62171770377a97919ba6588de194ca032ab268554b3ad1c55dea6",
  "args": [],
  "numDeployments": 1,
  "solcInputHash": "dddf701cbd27969aa038d6f9cabcafcf",
  "bytecode": "0x608060405234801561001057600080fd5b506110ab806100206000396000f3fe608060405234801561001057600080fd5b506004361061002b5760003560e01c806306cbe3ba14610030575b600080fd5b61004361003e366004610b45565b610059565b6040516100509190610da4565b60405180910390f35b610061610947565b60008360010b136100b15760405162461bcd60e51b815260206004820152601560248201527406c6566744269746d6170416d6f756e74203c3d203605c1b60448201526064015b60405180910390fd5b60008260010b136100fd5760405162461bcd60e51b8152602060048201526016602482015275072696768744269746d6170416d6f756e74203c3d20360541b60448201526064016100a8565b610108868686610161565b9050600061013082608001518360400151604001516101279190610f5d565b60020b60081d90565b90506101518787876101428886610fa5565b61014c8887610f18565b610563565b6101208301525095945050505050565b610169610947565b6000610176858585610799565b6001600160a01b0381168084524260208086019190915260408051630d34328160e11b815290519394509192631a686502926004808201939291829003018186803b1580156101c457600080fd5b505afa1580156101d8573d6000803e3d6000fd5b505050506040513d601f19601f820116820180604052508101906101fc9190610bcb565b6001600160801b03166060830152604080516334324e9f60e21b815290516001600160a01b0383169163d0c93a7c916004808301926020929190829003018186803b15801561024a57600080fd5b505afa15801561025e573d6000803e3d6000fd5b505050506040513d601f19601f820116820180604052508101906102829190610bb0565b826080019060020b908160020b81525050806001600160a01b03166370cf754a6040518163ffffffff1660e01b815260040160206040518083038186803b1580156102cc57600080fd5b505afa1580156102e0573d6000803e3d6000fd5b505050506040513d601f19601f820116820180604052508101906103049190610bcb565b8260a001906001600160801b031690816001600160801b03168152505061039b816001600160a01b0316630dfe16816040518163ffffffff1660e01b815260040160206040518083038186803b15801561035d57600080fd5b505afa158015610371573d6000803e3d6000fd5b505050506040513d601f19601f820116820180604052508101906103959190610a77565b82610873565b8260c00181815250506103e0816001600160a01b031663d21220a76040518163ffffffff1660e01b815260040160206040518083038186803b15801561035d57600080fd5b8260e0018181525050806001600160a01b031663e76c01e46040518163ffffffff1660e01b815260040160e06040518083038186803b15801561042257600080fd5b505afa158015610436573d6000803e3d6000fd5b505050506040513d601f19601f8201168201806040525081019061045a9190610bf4565b6040898101805192151560c084015260ff93841660a084015293909216608082015261ffff9384166060808301919091529484166020820152600295860b90950b858201526001600160a01b0395861690945251909101519151633a76757360e11b815291166004820152908216906374eceae69060240160e06040518083038186803b1580156104ea57600080fd5b505afa1580156104fe573d6000803e3d6000fd5b505050506040513d601f19601f820116820180604052508101906105229190610a94565b5050506101008601516001600160a01b039091166040820152600691820b90910b602082015263ffffffff9091168152901515606090910152509392505050565b60606000610572878787610799565b90506000600185900b5b8460010b811361063257604051630633bf1f60e51b8152600182900b60048201526000906001600160a01b0385169063c677e3e09060240160206040518083038186803b1580156105cc57600080fd5b505afa1580156105e0573d6000803e3d6000fd5b505050506040513d601f19601f820116820180604052508101906106049190610c6e565b9050806106115750610620565b8261061b8161100b565b935050505b8061062a81610feb565b91505061057c565b508067ffffffffffffffff81111561064c5761064c611047565b60405190808252806020026020018201604052801561069157816020015b604080518082019091526000808252602082015281526020019060019003908161066a5790505b5092506000600186900b5b8560010b811361078c57604051630633bf1f60e51b8152600182900b600482015281906000906001600160a01b0387169063c677e3e09060240160206040518083038186803b1580156106ee57600080fd5b505afa158015610702573d6000803e3d6000fd5b505050506040513d601f19601f820116820180604052508101906107269190610c6e565b90508061073457505061077a565b60405180604001604052808360010b81526020018281525087858151811061075e5761075e611031565b602002602001018190525083806107749061100b565b94505050505b8061078481610feb565b91505061069c565b5050505095945050505050565b60405163d9a641e160e01b81526001600160a01b03838116600483015282811660248301526000919085169063d9a641e19060440160206040518083038186803b1580156107e657600080fd5b505afa1580156107fa573d6000803e3d6000fd5b505050506040513d601f19601f8201168201806040525081019061081e9190610a77565b90506001600160a01b03811661086c5760405162461bcd60e51b8152602060048201526013602482015272141bdbdb08191bd95cc81b9bdd08195e1a5cdd606a1b60448201526064016100a8565b9392505050565b604080516001600160a01b0383811660248084019190915283518084039091018152604490920183526020820180516001600160e01b03166370a0823160e01b179052915160009283928392918716916108cd9190610d69565b600060405180830381855afa9150503d8060008114610908576040519150601f19603f3d011682016040523d82523d6000602084013e61090d565b606091505b509150915081801561092157506020815110155b61092a57600080fd5b8080602001905181019061093e9190610c6e565b95945050505050565b604080516101608101825260008082526020808301829052835160e081018552828152908101829052808401829052606081018290526080810182905260a0810182905260c0810191909152909182019081526000602080830182905260408084018390526060808501849052608080860185905260a086018590528251908101835284815292830184905290820183905281019190915260c090910190815260200160608152602001606081525090565b80518015158114610a0957600080fd5b919050565b8035600181900b8114610a0957600080fd5b8051600281900b8114610a0957600080fd5b805171ffffffffffffffffffffffffffffffffffff81168114610a0957600080fd5b805161ffff81168114610a0957600080fd5b805160ff81168114610a0957600080fd5b600060208284031215610a8957600080fd5b815161086c8161105d565b600080600080600080600060e0888a031215610aaf57600080fd5b610ab8886109f9565b9650602088015163ffffffff81168114610ad157600080fd5b8096505060408801518060060b8114610ae957600080fd5b6060890151909550610afa8161105d565b60808901519094506affffffffffffffffffffff81168114610b1b57600080fd5b9250610b2960a08901610a20565b9150610b3760c08901610a32565b905092959891949750929550565b600080600080600060a08688031215610b5d57600080fd5b8535610b688161105d565b94506020860135610b788161105d565b93506040860135610b888161105d565b9250610b9660608701610a0e565b9150610ba460808701610a0e565b90509295509295909350565b600060208284031215610bc257600080fd5b61086c82610a20565b600060208284031215610bdd57600080fd5b81516001600160801b038116811461086c57600080fd5b600080600080600080600060e0888a031215610c0f57600080fd5b8751610c1a8161105d565b9650610c2860208901610a20565b9550610c3660408901610a54565b9450610c4460608901610a54565b9350610c5260808901610a66565b9250610c6060a08901610a66565b9150610b3760c089016109f9565b600060208284031215610c8057600080fd5b5051919050565b600081518084526020808501945080840160005b83811015610cc65781518051600190810b895290840151848901526040909701969183019101610c9b565b509495945050505050565b600081518084526020808501945080840160005b83811015610cc6578151805160020b885283015180516001600160801b03168489015280840151600f0b6040808a019190915281015160060b6060808a01919091528101516001600160a01b03166080808a019190915281015163ffffffff1660a0808a01919091520151151560c088015260e09096019590820190600101610ce5565b6000825160005b81811015610d8a5760208186018101518583015201610d70565b81811115610d99576000828501525b509190910192915050565b60208152610dbe6020820183516001600160a01b03169052565b6020820151604082015260006040830151610e38606084018260018060a01b038151168252602081015161ffff8082166020850152604083015160020b6040850152806060840151166060850152505060ff608082015116608083015260ff60a08201511660a083015260c0810151151560c08301525050565b506060830151610140610e55818501836001600160801b03169052565b60808501519150610e6c61016085018360020b9052565b60a08501516001600160801b031661018085015260c08501516101a085015260e08501516101c0850152610100850151805163ffffffff166101e0860152602081015160060b61020086015260408101516001600160a01b03166102208601526060015115156102408501526101208501516102806102608601819052909250610efa6102a0860184610c87565b9250818601519150601f1985840301818601525061093e8282610cd1565b60008160010b8360010b6000821282617fff03821381151615610f3d57610f3d61101b565b82617fff19038212811615610f5457610f5461101b565b50019392505050565b60008160020b8360020b80610f8257634e487b7160e01b600052601260045260246000fd5b627fffff19821460001982141615610f9c57610f9c61101b565b90059392505050565b60008160010b8360010b6000811281617fff1901831281151615610fcb57610fcb61101b565b81617fff018313811615610fe157610fe161101b565b5090039392505050565b60006001600160ff1b038214156110045761100461101b565b5060010190565b6000600019821415611004576110045b634e487b7160e01b600052601160045260246000fd5b634e487b7160e01b600052603260045260246000fd5b634e487b7160e01b600052604160045260246000fd5b6001600160a01b038116811461107257600080fd5b5056fea26469706673582212208130fcdb2c5fde0d0a61027f4688a8dddcaf5298cc0965917062d8c13fcd910664736f6c63430008070033",
  "devdoc": {
    "kind": "dev",
    "methods": {},
    "version": 1
  },
  "userdoc": {
    "kind": "user",
    "methods": {},
    "version": 1
  },
  "storageLayout": {
    "storage": [],
    "types": null
  }
}