{
  "address": "0x4A7Dc8a7f62c46353dF2529c0789cF83C0e0e016",
  "abi": [
    {
      "inputs": [
        {
          "internalType": "contract ILBFactory",
          "name": "factory",
          "type": "address"
        },
        {
          "internalType": "contract IERC20",
          "name": "tokenX",
          "type": "address"
        },
        {
          "internalType": "contract IERC20",
          "name": "tokenY",
          "type": "address"
        },
        {
          "internalType": "uint256",
          "name": "leftBinLength",
          "type": "uint256"
        },
        {
          "internalType": "uint256",
          "name": "rightBinLength",
          "type": "uint256"
        }
      ],
      "name": "getFullState",
      "outputs": [
        {
          "components": [
            {
              "internalType": "contract ILBPair",
              "name": "pair",
              "type": "address"
            },
            {
              "internalType": "uint24",
              "name": "activeId",
              "type": "uint24"
            },
            {
              "internalType": "uint16",
              "name": "binStep",
              "type": "uint16"
            },
            {
              "internalType": "uint256",
              "name": "reserve0",
              "type": "uint256"
            },
            {
              "internalType": "uint256",
              "name": "reserve1",
              "type": "uint256"
            },
            {
              "internalType": "uint256",
              "name": "totalFee",
              "type": "uint256"
            },
            {
              "components": [
                {
                  "internalType": "uint24",
                  "name": "id",
                  "type": "uint24"
                },
                {
                  "internalType": "uint128",
                  "name": "reserveX",
                  "type": "uint128"
                },
                {
                  "internalType": "uint128",
                  "name": "reserveY",
                  "type": "uint128"
                }
              ],
              "internalType": "struct JoeV2StateMulticall.BinInfo[]",
              "name": "binInfos",
              "type": "tuple[]"
            }
          ],
          "internalType": "struct JoeV2StateMulticall.StateResult[]",
          "name": "states",
          "type": "tuple[]"
        }
      ],
      "stateMutability": "view",
      "type": "function"
    }
  ],
  "transactionHash": "0xbef322b9e1bb014c8a9fc6d8111b9ec04a8073a30ced8681eadaee6587770b42",
  "args": [],
  "numDeployments": 1,
  "solcInputHash": "9e10f78f03b8cd184eee66c9f75407be",
  "bytecode": "0x608060405234801561001057600080fd5b50610e64806100206000396000f3fe608060405234801561001057600080fd5b506004361061002b5760003560e01c80638b4eb1fc14610030575b600080fd5b61004361003e366004610a4a565b610059565b6040516100509190610c42565b60405180910390f35b604051636622e0d760e01b81526001600160a01b0385811660048301528481166024830152606091600091881690636622e0d79060440160006040518083038186803b1580156100a857600080fd5b505afa1580156100bc573d6000803e3d6000fd5b505050506040513d6000823e601f3d908101601f191682016040526100e49190810190610946565b90506000805b825181101561013b5782818151811061010557610105610dea565b6020026020010151606001511561011b57610129565b8161012581610db9565b9250505b8061013381610db9565b9150506100ea565b508067ffffffffffffffff81111561015557610155610e00565b60405190808252806020026020018201604052801561018e57816020015b61017b6108a6565b8152602001906001900390816101735790505b50925060005b82518110156104de5760008382815181106101b1576101b1610dea565b602002602001015190508060600151156101cb57506104cc565b6000816020015190506000826000015190506000826001600160a01b031663dbe65edc6040518163ffffffff1660e01b815260040160206040518083038186803b15801561021857600080fd5b505afa15801561022c573d6000803e3d6000fd5b505050506040513d601f19601f820116820180604052508101906102509190610b5e565b905061025a6108a6565b6001600160a01b03841680825262ffffff8316602083015261ffff84166040808401919091528051630240bc6b60e21b81528151630902f1ac92600480840193919291829003018186803b1580156102b157600080fd5b505afa1580156102c5573d6000803e3d6000fd5b505050506040513d601f19601f820116820180604052508101906102e99190610aa5565b6001600160801b039081166080840152166060820152604080516307ca0de360e41b8152905160009182916001600160a01b03881691637ca0de309160048083019260e0929190829003018186803b15801561034457600080fd5b505afa158015610358573d6000803e3d6000fd5b505050506040513d601f19601f8201168201806040525081019061037c9190610ad8565b5050945050505091506000866001600160a01b0316638d7024e56040518163ffffffff1660e01b815260040160806040518083038186803b1580156103c057600080fd5b505afa1580156103d4573d6000803e3d6000fd5b505050506040513d601f19601f820116820180604052508101906103f89190610b80565b505050905060008661ffff168461ffff166104139190610d83565b610422906402540be400610d83565b9050600062ffffff84161561047d57600061044661ffff8a1662ffffff8616610d83565b9050606462ffffff861661045a8380610d83565b6104649190610d83565b61046f906063610d49565b6104799190610d61565b9150505b6104878183610d49565b8660a001818152505050505050506104a0848c8c6104ea565b8160c00181905250808987815181106104bb576104bb610dea565b602002602001018190525050505050505b806104d681610db9565b915050610194565b50505095945050505050565b60606104f68284610d49565b610501906001610d49565b67ffffffffffffffff81111561051957610519610e00565b60405190808252806020026020018201604052801561056457816020015b60408051606081018252600080825260208083018290529282015282526000199092019101816105375790505b5090506000846001600160a01b031663dbe65edc6040518163ffffffff1660e01b815260040160206040518083038186803b1580156105a257600080fd5b505afa1580156105b6573d6000803e3d6000fd5b505050506040513d601f19601f820116820180604052508101906105da9190610b5e565b90506105e685826107d6565b8285815181106105f8576105f8610dea565b60209081029190910101528060005b858110156106e75760405163a41a01fb60e01b815260006004820181905262ffffff84166024830152906001600160a01b0389169063a41a01fb9060440160206040518083038186803b15801561065d57600080fd5b505afa158015610671573d6000803e3d6000fd5b505050506040513d601f19601f820116820180604052508101906106959190610b5e565b90506106a188826107d6565b8560016106ae858b610da2565b6106b89190610da2565b815181106106c8576106c8610dea565b60209081029190910101529150806106df81610db9565b915050610607565b508160005b858110156107cb5760405163a41a01fb60e01b81526001600482015262ffffff831660248201526000906001600160a01b038a169063a41a01fb9060440160206040518083038186803b15801561074257600080fd5b505afa158015610756573d6000803e3d6000fd5b505050506040513d601f19601f8201168201806040525081019061077a9190610b5e565b905061078689826107d6565b86610791848b610d49565b61079c906001610d49565b815181106107ac576107ac610dea565b60209081029190910101529150806107c381610db9565b9150506106ec565b505050509392505050565b6040805160608101825260008082526020820181905291810191909152604051630157d2d160e31b815262ffffff8316600482015260009081906001600160a01b03861690630abe968890602401604080518083038186803b15801561083b57600080fd5b505afa15801561084f573d6000803e3d6000fd5b505050506040513d601f19601f820116820180604052508101906108739190610aa5565b6040805160608101825262ffffff9790971687526001600160801b03928316602088015291169085015250919392505050565b6040518060e0016040528060006001600160a01b03168152602001600062ffffff168152602001600061ffff168152602001600081526020016000815260200160008152602001606081525090565b8051801515811461090557600080fd5b919050565b80516001600160801b038116811461090557600080fd5b805161ffff8116811461090557600080fd5b805162ffffff8116811461090557600080fd5b6000602080838503121561095957600080fd5b825167ffffffffffffffff8082111561097157600080fd5b818501915085601f83011261098557600080fd5b81518181111561099757610997610e00565b6109a5848260051b01610d18565b8181528481019250838501600783901b850186018910156109c557600080fd5b60009450845b83811015610a3c57608080838c0312156109e3578687fd5b6109eb610cef565b6109f484610921565b815288840151610a0381610e16565b818a01526040610a148582016108f5565b908201526060610a258582016108f5565b9082015286529487019491909101906001016109cb565b509098975050505050505050565b600080600080600060a08688031215610a6257600080fd5b8535610a6d81610e16565b94506020860135610a7d81610e16565b93506040860135610a8d81610e16565b94979396509394606081013594506080013592915050565b60008060408385031215610ab857600080fd5b610ac18361090a565b9150610acf6020840161090a565b90509250929050565b600080600080600080600060e0888a031215610af357600080fd5b610afc88610921565b9650610b0a60208901610921565b9550610b1860408901610921565b9450610b2660608901610921565b9350610b3460808901610933565b9250610b4260a08901610921565b9150610b5060c08901610933565b905092959891949750929550565b600060208284031215610b7057600080fd5b610b7982610933565b9392505050565b60008060008060808587031215610b9657600080fd5b610b9f85610933565b9350610bad60208601610933565b9250610bbb60408601610933565b9150606085015164ffffffffff81168114610bd557600080fd5b939692955090935050565b600081518084526020808501945080840160005b83811015610c37578151805162ffffff168852838101516001600160801b03908116858a0152604091820151169088015260609096019590820190600101610bf4565b509495945050505050565b60006020808301818452808551808352604092508286019150828160051b87010184880160005b83811015610a3c57888303603f19018552815180516001600160a01b031684528781015162ffffff16888501528681015161ffff1687850152606080820151908501526080808201519085015260a0808201519085015260c09081015160e091850182905290610cdb81860183610be0565b968901969450505090860190600101610c69565b6040516080810167ffffffffffffffff81118282101715610d1257610d12610e00565b60405290565b604051601f8201601f1916810167ffffffffffffffff81118282101715610d4157610d41610e00565b604052919050565b60008219821115610d5c57610d5c610dd4565b500190565b600082610d7e57634e487b7160e01b600052601260045260246000fd5b500490565b6000816000190483118215151615610d9d57610d9d610dd4565b500290565b600082821015610db457610db4610dd4565b500390565b6000600019821415610dcd57610dcd610dd4565b5060010190565b634e487b7160e01b600052601160045260246000fd5b634e487b7160e01b600052603260045260246000fd5b634e487b7160e01b600052604160045260246000fd5b6001600160a01b0381168114610e2b57600080fd5b5056fea26469706673582212204ffd78312e068d60fd4f558055889a1093f51d7f4a606ae47b739cafb660366a64736f6c63430008070033",
  "devdoc": {
    "kind": "dev",
    "methods": {},
    "version": 1
  },
  "userdoc": {
    "kind": "user",
    "methods": {},
    "version": 1
  },
  "storageLayout": {
    "storage": [],
    "types": null
  }
}