{
  "address": "0xbA2aF4Bdeeedb43948bcAbDbD68Eb7904ACc4316",
  "abi": [
    {
      "inputs": [
        {
          "internalType": "contract ILBFactory",
          "name": "factory",
          "type": "address"
        },
        {
          "internalType": "contract IERC20",
          "name": "tokenX",
          "type": "address"
        },
        {
          "internalType": "contract IERC20",
          "name": "tokenY",
          "type": "address"
        },
        {
          "internalType": "uint256",
          "name": "leftBinLength",
          "type": "uint256"
        },
        {
          "internalType": "uint256",
          "name": "rightBinLength",
          "type": "uint256"
        }
      ],
      "name": "getFullState",
      "outputs": [
        {
          "components": [
            {
              "internalType": "contract ILBPair",
              "name": "pair",
              "type": "address"
            },
            {
              "internalType": "address",
              "name": "tokenX",
              "type": "address"
            },
            {
              "internalType": "address",
              "name": "tokenY",
              "type": "address"
            },
            {
              "internalType": "uint24",
              "name": "activeId",
              "type": "uint24"
            },
            {
              "internalType": "uint16",
              "name": "binStep",
              "type": "uint16"
            },
            {
              "internalType": "uint256",
              "name": "reserve0",
              "type": "uint256"
            },
            {
              "internalType": "uint256",
              "name": "reserve1",
              "type": "uint256"
            },
            {
              "internalType": "uint256",
              "name": "totalFee",
              "type": "uint256"
            },
            {
              "components": [
                {
                  "internalType": "uint24",
                  "name": "id",
                  "type": "uint24"
                },
                {
                  "internalType": "uint128",
                  "name": "reserveX",
                  "type": "uint128"
                },
                {
                  "internalType": "uint128",
                  "name": "reserveY",
                  "type": "uint128"
                }
              ],
              "internalType": "struct JoeV2StateMulticall.BinInfo[]",
              "name": "binInfos",
              "type": "tuple[]"
            }
          ],
          "internalType": "struct JoeV2StateMulticall.StateResult[]",
          "name": "states",
          "type": "tuple[]"
        }
      ],
      "stateMutability": "view",
      "type": "function"
    }
  ],
  "transactionHash": "0x3ae5b20f99be318e0f69a7630450f2b9c981ca1bb170fde656bbf1f68d980279",
  "args": [],
  "numDeployments": 1,
  "solcInputHash": "fb20814aeb8a9c47b6c977d65c1032c7",
  "bytecode": "0x608060405234801561001057600080fd5b50610fce806100206000396000f3fe608060405234801561001057600080fd5b506004361061002b5760003560e01c80638b4eb1fc14610030575b600080fd5b61004361003e366004610ba0565b610059565b6040516100509190610d91565b60405180910390f35b604051636622e0d760e01b81526001600160a01b0385811660048301528481166024830152606091600091881690636622e0d79060440160006040518083038186803b1580156100a857600080fd5b505afa1580156100bc573d6000803e3d6000fd5b505050506040513d6000823e601f3d908101601f191682016040526100e49190810190610a78565b90506000805b825181101561013b5782818151811061010557610105610f54565b6020026020010151606001511561011b57610129565b8161012581610f23565b9250505b8061013381610f23565b9150506100ea565b508067ffffffffffffffff81111561015557610155610f6a565b60405190808252806020026020018201604052801561018e57816020015b61017b6109b7565b8152602001906001900390816101735790505b50925060005b82518110156105ef5760008382815181106101b1576101b1610f54565b602002602001015190508060600151156101cb57506105dd565b6000816020015190506000826000015190506000826001600160a01b031663dbe65edc6040518163ffffffff1660e01b815260040160206040518083038186803b15801561021857600080fd5b505afa15801561022c573d6000803e3d6000fd5b505050506040513d601f19601f820116820180604052508101906102509190610cb4565b905061025a6109b7565b6001600160a01b038416808252604080516305e8746d60e01b815290516305e8746d91600480820192602092909190829003018186803b15801561029d57600080fd5b505afa1580156102b1573d6000803e3d6000fd5b505050506040513d601f19601f820116820180604052508101906102d59190610b7c565b81602001906001600160a01b031690816001600160a01b031681525050836001600160a01b031663da10610c6040518163ffffffff1660e01b815260040160206040518083038186803b15801561032b57600080fd5b505afa15801561033f573d6000803e3d6000fd5b505050506040513d601f19601f820116820180604052508101906103639190610b7c565b6001600160a01b0390811660408084019190915262ffffff8416606084015261ffff851660808401528051630240bc6b60e21b8152815192871692630902f1ac92600480840193919291829003018186803b1580156103c157600080fd5b505afa1580156103d5573d6000803e3d6000fd5b505050506040513d601f19601f820116820180604052508101906103f99190610bfb565b6001600160801b0390811660c08401521660a0820152604080516307ca0de360e41b8152905160009182916001600160a01b03881691637ca0de309160048083019260e0929190829003018186803b15801561045457600080fd5b505afa158015610468573d6000803e3d6000fd5b505050506040513d601f19601f8201168201806040525081019061048c9190610c2e565b5050945050505091506000866001600160a01b0316638d7024e56040518163ffffffff1660e01b815260040160806040518083038186803b1580156104d057600080fd5b505afa1580156104e4573d6000803e3d6000fd5b505050506040513d601f19601f820116820180604052508101906105089190610ccf565b505050905060008661ffff168461ffff166105239190610eed565b610532906402540be400610eed565b9050600062ffffff84161561058d57600061055661ffff8a1662ffffff8616610eed565b9050606462ffffff861661056a8380610eed565b6105749190610eed565b61057f906063610eb3565b6105899190610ecb565b9150505b6105978183610eb3565b8660e001818152505050505050506105b0848c8c6105fb565b816101000181905250808987815181106105cc576105cc610f54565b602002602001018190525050505050505b806105e781610f23565b915050610194565b50505095945050505050565b60606106078284610eb3565b610612906001610eb3565b67ffffffffffffffff81111561062a5761062a610f6a565b60405190808252806020026020018201604052801561067557816020015b60408051606081018252600080825260208083018290529282015282526000199092019101816106485790505b5090506000846001600160a01b031663dbe65edc6040518163ffffffff1660e01b815260040160206040518083038186803b1580156106b357600080fd5b505afa1580156106c7573d6000803e3d6000fd5b505050506040513d601f19601f820116820180604052508101906106eb9190610cb4565b90506106f785826108e7565b82858151811061070957610709610f54565b60209081029190910101528060005b858110156107f85760405163a41a01fb60e01b815260006004820181905262ffffff84166024830152906001600160a01b0389169063a41a01fb9060440160206040518083038186803b15801561076e57600080fd5b505afa158015610782573d6000803e3d6000fd5b505050506040513d601f19601f820116820180604052508101906107a69190610cb4565b90506107b288826108e7565b8560016107bf858b610f0c565b6107c99190610f0c565b815181106107d9576107d9610f54565b60209081029190910101529150806107f081610f23565b915050610718565b508160005b858110156108dc5760405163a41a01fb60e01b81526001600482015262ffffff831660248201526000906001600160a01b038a169063a41a01fb9060440160206040518083038186803b15801561085357600080fd5b505afa158015610867573d6000803e3d6000fd5b505050506040513d601f19601f8201168201806040525081019061088b9190610cb4565b905061089789826108e7565b866108a2848b610eb3565b6108ad906001610eb3565b815181106108bd576108bd610f54565b60209081029190910101529150806108d481610f23565b9150506107fd565b505050509392505050565b6040805160608101825260008082526020820181905291810191909152604051630157d2d160e31b815262ffffff8316600482015260009081906001600160a01b03861690630abe968890602401604080518083038186803b15801561094c57600080fd5b505afa158015610960573d6000803e3d6000fd5b505050506040513d601f19601f820116820180604052508101906109849190610bfb565b6040805160608101825262ffffff9790971687526001600160801b03928316602088015291169085015250919392505050565b60405180610120016040528060006001600160a01b0316815260200160006001600160a01b0316815260200160006001600160a01b03168152602001600062ffffff168152602001600061ffff168152602001600081526020016000815260200160008152602001606081525090565b80518015158114610a3757600080fd5b919050565b80516001600160801b0381168114610a3757600080fd5b805161ffff81168114610a3757600080fd5b805162ffffff81168114610a3757600080fd5b60006020808385031215610a8b57600080fd5b825167ffffffffffffffff80821115610aa357600080fd5b818501915085601f830112610ab757600080fd5b815181811115610ac957610ac9610f6a565b610ad7848260051b01610e82565b8181528481019250838501600783901b85018601891015610af757600080fd5b60009450845b83811015610b6e57608080838c031215610b15578687fd5b610b1d610e59565b610b2684610a53565b815288840151610b3581610f80565b818a01526040610b46858201610a27565b908201526060610b57858201610a27565b908201528652948701949190910190600101610afd565b509098975050505050505050565b600060208284031215610b8e57600080fd5b8151610b9981610f80565b9392505050565b600080600080600060a08688031215610bb857600080fd5b8535610bc381610f80565b94506020860135610bd381610f80565b93506040860135610be381610f80565b94979396509394606081013594506080013592915050565b60008060408385031215610c0e57600080fd5b610c1783610a3c565b9150610c2560208401610a3c565b90509250929050565b600080600080600080600060e0888a031215610c4957600080fd5b610c5288610a53565b9650610c6060208901610a53565b9550610c6e60408901610a53565b9450610c7c60608901610a53565b9350610c8a60808901610a65565b9250610c9860a08901610a53565b9150610ca660c08901610a65565b905092959891949750929550565b600060208284031215610cc657600080fd5b610b9982610a65565b60008060008060808587031215610ce557600080fd5b610cee85610a65565b9350610cfc60208601610a65565b9250610d0a60408601610a65565b9150606085015164ffffffffff81168114610d2457600080fd5b939692955090935050565b600081518084526020808501945080840160005b83811015610d86578151805162ffffff168852838101516001600160801b03908116858a0152604091820151169088015260609096019590820190600101610d43565b509495945050505050565b60006020808301818452808551808352604092508286019150828160051b87010184880160005b83811015610b6e57603f19898403018552815180516001600160a01b0390811685528882015181168986015287820151168785015260608082015162ffffff169085015260808082015161ffff169085015260a0808201519085015260c0808201519085015260e080820151908501526101009081015161012091850182905290610e4581860183610d2f565b968901969450505090860190600101610db8565b6040516080810167ffffffffffffffff81118282101715610e7c57610e7c610f6a565b60405290565b604051601f8201601f1916810167ffffffffffffffff81118282101715610eab57610eab610f6a565b604052919050565b60008219821115610ec657610ec6610f3e565b500190565b600082610ee857634e487b7160e01b600052601260045260246000fd5b500490565b6000816000190483118215151615610f0757610f07610f3e565b500290565b600082821015610f1e57610f1e610f3e565b500390565b6000600019821415610f3757610f37610f3e565b5060010190565b634e487b7160e01b600052601160045260246000fd5b634e487b7160e01b600052603260045260246000fd5b634e487b7160e01b600052604160045260246000fd5b6001600160a01b0381168114610f9557600080fd5b5056fea264697066735822122033e69c570bada040eb2fd55a301cbc6870721d3d4fb4894792e83e1b892a3d1864736f6c63430008070033",
  "devdoc": {
    "kind": "dev",
    "methods": {},
    "version": 1
  },
  "userdoc": {
    "kind": "user",
    "methods": {},
    "version": 1
  },
  "storageLayout": {
    "storage": [],
    "types": null
  }
}