{
  "address": "0xb0Fa056fFFb74c0FB215F86D691c94Ed45b686Aa",
  "abi": [
    {
      "inputs": [],
      "name": "CodeAlreadyExists",
      "type": "error"
    },
    {
      "inputs": [
        {
          "internalType": "bytes32",
          "name": "code",
          "type": "bytes32"
        }
      ],
      "name": "InvalidCode",
      "type": "error"
    },
    {
      "inputs": [],
      "name": "NotCodeOwner",
      "type": "error"
    },
    {
      "anonymous": false,
      "inputs": [
        {
          "indexed": false,
          "internalType": "address",
          "name": "account",
          "type": "address"
        },
        {
          "indexed": false,
          "internalType": "bytes32",
          "name": "code",
          "type": "bytes32"
        }
      ],
      "name": "RegisterCode",
      "type": "event"
    },
    {
      "anonymous": false,
      "inputs": [
        {
          "indexed": false,
          "internalType": "address",
          "name": "account",
          "type": "address"
        },
        {
          "indexed": false,
          "internalType": "address",
          "name": "newAccount",
          "type": "address"
        },
        {
          "indexed": false,
          "internalType": "bytes32",
          "name": "code",
          "type": "bytes32"
        }
      ],
      "name": "SetCodeOwner",
      "type": "event"
    },
    {
      "anonymous": false,
      "inputs": [
        {
          "indexed": false,
          "internalType": "address",
          "name": "account",
          "type": "address"
        },
        {
          "indexed": false,
          "internalType": "bytes32",
          "name": "code",
          "type": "bytes32"
        }
      ],
      "name": "SetReferralCode",
      "type": "event"
    },
    {
      "inputs": [
        {
          "internalType": "bytes32",
          "name": "",
          "type": "bytes32"
        }
      ],
      "name": "codeOwners",
      "outputs": [
        {
          "internalType": "address",
          "name": "",
          "type": "address"
        }
      ],
      "stateMutability": "view",
      "type": "function"
    },
    {
      "inputs": [
        {
          "internalType": "address",
          "name": "_account",
          "type": "address"
        }
      ],
      "name": "getOwnedCodes",
      "outputs": [
        {
          "internalType": "bytes32[]",
          "name": "",
          "type": "bytes32[]"
        }
      ],
      "stateMutability": "view",
      "type": "function"
    },
    {
      "inputs": [
        {
          "internalType": "address",
          "name": "_account",
          "type": "address"
        }
      ],
      "name": "getReferralInfo",
      "outputs": [
        {
          "internalType": "bytes32",
          "name": "",
          "type": "bytes32"
        },
        {
          "internalType": "address",
          "name": "",
          "type": "address"
        }
      ],
      "stateMutability": "view",
      "type": "function"
    },
    {
      "inputs": [
        {
          "internalType": "address",
          "name": "",
          "type": "address"
        }
      ],
      "name": "referralCodes",
      "outputs": [
        {
          "internalType": "bytes32",
          "name": "",
          "type": "bytes32"
        }
      ],
      "stateMutability": "view",
      "type": "function"
    },
    {
      "inputs": [
        {
          "internalType": "bytes32",
          "name": "_code",
          "type": "bytes32"
        }
      ],
      "name": "registerCode",
      "outputs": [],
      "stateMutability": "nonpayable",
      "type": "function"
    },
    {
      "inputs": [
        {
          "internalType": "bytes32",
          "name": "_code",
          "type": "bytes32"
        },
        {
          "internalType": "address",
          "name": "_newAccount",
          "type": "address"
        }
      ],
      "name": "setCodeOwner",
      "outputs": [],
      "stateMutability": "nonpayable",
      "type": "function"
    },
    {
      "inputs": [
        {
          "internalType": "bytes32",
          "name": "_code",
          "type": "bytes32"
        }
      ],
      "name": "setReferralCodeByUser",
      "outputs": [],
      "stateMutability": "nonpayable",
      "type": "function"
    }
  ],
  "transactionHash": "0x55ac58dca15bfa59c713ed77d44bf3e4b4bd758d8cc9cdd1ce277201045ca2a4",
  "args": [],
  "numDeployments": 1,
  "solcInputHash": "e7d32ad761bf66c0a571fdd2cd61e3b3",
  "bytecode": "0x608060405234801561001057600080fd5b5061073a806100206000396000f3fe608060405234801561001057600080fd5b506004361061007d5760003560e01c806336def2c81161005b57806336def2c8146100ec5780639534dd3e146100ff578063c8b3c4601461012d578063ed8431341461016e57600080fd5b8063170018fe1461008257806321874ae2146100975780632da116b2146100cc575b600080fd5b61009561009036600461062a565b610181565b005b6100aa6100a536600461060f565b61018e565b604080519283526001600160a01b039091166020830152015b60405180910390f35b6100df6100da36600461060f565b6101d4565b6040516100c3919061066f565b6100956100fa36600461062a565b6101fe565b61011f61010d36600461060f565b60016020526000908152604090205481565b6040519081526020016100c3565b61015661013b36600461062a565b6000602081905290815260409020546001600160a01b031681565b6040516001600160a01b0390911681526020016100c3565b61009561017c366004610643565b6102cc565b61018b33826103d3565b50565b6001600160a01b03811660009081526001602052604081205481908181156101ca57506000818152602081905260409020546001600160a01b03165b9094909350915050565b6001600160a01b03811660009081526002602052604090206060906101f89061042b565b92915050565b806102245760405163e33ab65360e01b8152600481018290526024015b60405180910390fd5b6000818152602081905260409020546001600160a01b03161561025a57604051636b3d055d60e11b815260040160405180910390fd5b60008181526020818152604080832080546001600160a01b0319163390811790915583526002909152902061028f9082610436565b5060408051338152602081018390527f04f82286a2a3b2ee5c8555de8304dfe2ea70991613213184b73a9e408d2d8029910160405180910390a150565b816102ed5760405163e33ab65360e01b81526004810183905260240161021b565b6000828152602081905260409020546001600160a01b031633811461032557604051635b774fb360e01b815260040160405180910390fd5b60008381526020818152604080832080546001600160a01b0319166001600160a01b038716179055338352600290915290206103619084610449565b506001600160a01b03821660009081526002602052604090206103849084610436565b50604080513381526001600160a01b03841660208201529081018490527f5640856798d41ce9ca0a109b54c20a06eb99ba9c36ab4547115dafb8473cf3979060600160405180910390a1505050565b6001600160a01b038216600081815260016020908152604091829020849055815192835282018390527f60750994fdf9995c19bee1ac3f38a6fbf271ecd405e8bd0d55c99f7f14f86e0f910160405180910390a15050565b60606101f882610455565b600061044283836104b1565b9392505050565b60006104428383610500565b6060816000018054806020026020016040519081016040528092919081815260200182805480156104a557602002820191906000526020600020905b815481526020019060010190808311610491575b50505050509050919050565b60008181526001830160205260408120546104f8575081546001818101845560008481526020808220909301849055845484825282860190935260409020919091556101f8565b5060006101f8565b600081815260018301602052604081205480156105e95760006105246001836106b3565b8554909150600090610538906001906106b3565b905081811461059d576000866000018281548110610558576105586106ee565b906000526020600020015490508087600001848154811061057b5761057b6106ee565b6000918252602080832090910192909255918252600188019052604090208390555b85548690806105ae576105ae6106d8565b6001900381819060005260206000200160009055905585600101600086815260200190815260200160002060009055600193505050506101f8565b60009150506101f8565b80356001600160a01b038116811461060a57600080fd5b919050565b60006020828403121561062157600080fd5b610442826105f3565b60006020828403121561063c57600080fd5b5035919050565b6000806040838503121561065657600080fd5b82359150610666602084016105f3565b90509250929050565b6020808252825182820181905260009190848201906040850190845b818110156106a75783518352928401929184019160010161068b565b50909695505050505050565b6000828210156106d357634e487b7160e01b600052601160045260246000fd5b500390565b634e487b7160e01b600052603160045260246000fd5b634e487b7160e01b600052603260045260246000fdfea2646970667358221220ae81b98e48a2d389e496d297b2f0f10f82f7404699c60823b47abcb50bec54e264736f6c63430008070033",
  "devdoc": {
    "kind": "dev",
    "methods": {},
    "version": 1
  },
  "userdoc": {
    "kind": "user",
    "methods": {},
    "version": 1
  },
  "storageLayout": {
    "storage": [
      {
        "astId": 1438,
        "contract": "contracts/referrals/ReferralStorage.sol:ReferralStorage",
        "label": "codeOwners",
        "offset": 0,
        "slot": "0",
        "type": "t_mapping(t_bytes32,t_address)"
      },
      {
        "astId": 1442,
        "contract": "contracts/referrals/ReferralStorage.sol:ReferralStorage",
        "label": "referralCodes",
        "offset": 0,
        "slot": "1",
        "type": "t_mapping(t_address,t_bytes32)"
      },
      {
        "astId": 1447,
        "contract": "contracts/referrals/ReferralStorage.sol:ReferralStorage",
        "label": "_ownedCodes",
        "offset": 0,
        "slot": "2",
        "type": "t_mapping(t_address,t_struct(Bytes32Set)934_storage)"
      }
    ],
    "types": {
      "t_address": {
        "encoding": "inplace",
        "label": "address",
        "numberOfBytes": "20"
      },
      "t_array(t_bytes32)dyn_storage": {
        "base": "t_bytes32",
        "encoding": "dynamic_array",
        "label": "bytes32[]",
        "numberOfBytes": "32"
      },
      "t_bytes32": {
        "encoding": "inplace",
        "label": "bytes32",
        "numberOfBytes": "32"
      },
      "t_mapping(t_address,t_bytes32)": {
        "encoding": "mapping",
        "key": "t_address",
        "label": "mapping(address => bytes32)",
        "numberOfBytes": "32",
        "value": "t_bytes32"
      },
      "t_mapping(t_address,t_struct(Bytes32Set)934_storage)": {
        "encoding": "mapping",
        "key": "t_address",
        "label": "mapping(address => struct EnumerableSet.Bytes32Set)",
        "numberOfBytes": "32",
        "value": "t_struct(Bytes32Set)934_storage"
      },
      "t_mapping(t_bytes32,t_address)": {
        "encoding": "mapping",
        "key": "t_bytes32",
        "label": "mapping(bytes32 => address)",
        "numberOfBytes": "32",
        "value": "t_address"
      },
      "t_mapping(t_bytes32,t_uint256)": {
        "encoding": "mapping",
        "key": "t_bytes32",
        "label": "mapping(bytes32 => uint256)",
        "numberOfBytes": "32",
        "value": "t_uint256"
      },
      "t_struct(Bytes32Set)934_storage": {
        "encoding": "inplace",
        "label": "struct EnumerableSet.Bytes32Set",
        "members": [
          {
            "astId": 933,
            "contract": "contracts/referrals/ReferralStorage.sol:ReferralStorage",
            "label": "_inner",
            "offset": 0,
            "slot": "0",
            "type": "t_struct(Set)740_storage"
          }
        ],
        "numberOfBytes": "64"
      },
      "t_struct(Set)740_storage": {
        "encoding": "inplace",
        "label": "struct EnumerableSet.Set",
        "members": [
          {
            "astId": 735,
            "contract": "contracts/referrals/ReferralStorage.sol:ReferralStorage",
            "label": "_values",
            "offset": 0,
            "slot": "0",
            "type": "t_array(t_bytes32)dyn_storage"
          },
          {
            "astId": 739,
            "contract": "contracts/referrals/ReferralStorage.sol:ReferralStorage",
            "label": "_indexes",
            "offset": 0,
            "slot": "1",
            "type": "t_mapping(t_bytes32,t_uint256)"
          }
        ],
        "numberOfBytes": "64"
      },
      "t_uint256": {
        "encoding": "inplace",
        "label": "uint256",
        "numberOfBytes": "32"
      }
    }
  }
}