{
  "address": "0x6D48a5Ce3815c29Ff1Deea157380e896bdb9f346",
  "abi": [
    {
      "inputs": [
        {
          "internalType": "address",
          "name": "_weth",
          "type": "address"
        }
      ],
      "stateMutability": "nonpayable",
      "type": "constructor"
    },
    {
      "inputs": [],
      "name": "InsufficientAmountIn",
      "type": "error"
    },
    {
      "inputs": [
        {
          "internalType": "address",
          "name": "_pool",
          "type": "address"
        },
        {
          "internalType": "bool",
          "name": "_isNativePool",
          "type": "bool"
        },
        {
          "internalType": "uint8",
          "name": "_tokenInIndex",
          "type": "uint8"
        },
        {
          "internalType": "uint8",
          "name": "_tokenOutIndex",
          "type": "uint8"
        },
        {
          "internalType": "address",
          "name": "_tokenIn",
          "type": "address"
        },
        {
          "internalType": "address",
          "name": "_tokenOut",
          "type": "address"
        },
        {
          "internalType": "address",
          "name": "_to",
          "type": "address"
        }
      ],
      "name": "swap",
      "outputs": [],
      "stateMutability": "nonpayable",
      "type": "function"
    },
    {
      "inputs": [
        {
          "internalType": "address",
          "name": "_pool",
          "type": "address"
        },
        {
          "internalType": "uint8",
          "name": "_tokenInIndex",
          "type": "uint8"
        },
        {
          "internalType": "uint8",
          "name": "_tokenOutIndex",
          "type": "uint8"
        },
        {
          "internalType": "address",
          "name": "_tokenIn",
          "type": "address"
        },
        {
          "internalType": "address",
          "name": "_tokenOut",
          "type": "address"
        },
        {
          "internalType": "address",
          "name": "_to",
          "type": "address"
        }
      ],
      "name": "swapUnderlying",
      "outputs": [],
      "stateMutability": "nonpayable",
      "type": "function"
    },
    {
      "inputs": [],
      "name": "weth",
      "outputs": [
        {
          "internalType": "address",
          "name": "",
          "type": "address"
        }
      ],
      "stateMutability": "view",
      "type": "function"
    },
    {
      "stateMutability": "payable",
      "type": "receive"
    }
  ],
  "transactionHash": "0x45a55b41d23068f55533295aca172c2657c6036f7f68703944ba68c57063df4f",
  "args": [
    "0x82aF49447D8a07e3bd95BD0d56f35241523fBab1"
  ],
  "numDeployments": 1,
  "solcInputHash": "57234885d522063e85d58ac2161f8d5c",
  "bytecode": "0x60a060405234801561001057600080fd5b50604051610cf4380380610cf483398101604081905261002f91610044565b60601b6001600160601b031916608052610074565b60006020828403121561005657600080fd5b81516001600160a01b038116811461006d57600080fd5b9392505050565b60805160601c610c5561009f600039600081816078015281816102c601526103030152610c556000f3fe6080604052600436106100385760003560e01c80630ba1448d146100445780633fc8cef314610066578063cbf45e88146100b657600080fd5b3661003f57005b600080fd5b34801561005057600080fd5b5061006461005f366004610ac3565b6100d6565b005b34801561007257600080fd5b5061009a7f000000000000000000000000000000000000000000000000000000000000000081565b6040516001600160a01b03909116815260200160405180910390f35b3480156100c257600080fd5b506100646100d1366004610a3b565b6102bf565b6040516370a0823160e01b81523060048201528690849084906000906001600160a01b038416906370a082319060240160206040518083038186803b15801561011e57600080fd5b505afa158015610132573d6000803e3d6000fd5b505050506040513d601f19601f820116820180604052508101906101569190610b54565b90508061017657604051636fad977360e11b815260040160405180910390fd5b61018a6001600160a01b0384168583610685565b604051630f1c1f5d60e31b815260ff808b16600483015289166024820152604481018290526000606482015260001960848201526001600160a01b038516906378e0fae89060a401602060405180830381600087803b1580156101ec57600080fd5b505af1158015610200573d6000803e3d6000fd5b505050506040513d601f19601f820116820180604052508101906102249190610b54565b506040516370a0823160e01b81523060048201526102b39086906001600160a01b038516906370a082319060240160206040518083038186803b15801561026a57600080fd5b505afa15801561027e573d6000803e3d6000fd5b505050506040513d601f19601f820116820180604052508101906102a29190610b54565b6001600160a01b038516919061077f565b50505050505050505050565b86838360007f00000000000000000000000000000000000000000000000000000000000000006001600160a01b039081169084161480156102fd5750895b905060007f00000000000000000000000000000000000000000000000000000000000000006001600160a01b0316876001600160a01b031614801561033f57508a5b6040516370a0823160e01b81523060048201529091506000906001600160a01b038616906370a082319060240160206040518083038186803b15801561038457600080fd5b505afa158015610398573d6000803e3d6000fd5b505050506040513d601f19601f820116820180604052508101906103bc9190610b54565b9050806103dc57604051636fad977360e11b815260040160405180910390fd5b82156104dd57604051632e1a7d4d60e01b8152600481018290526001600160a01b038a1690632e1a7d4d90602401600060405180830381600087803b15801561042457600080fd5b505af1158015610438573d6000803e3d6000fd5b50506040516348b4aac360e11b815260ff808f1660048301528d1660248201524760448201526000606482015260001960848201526001600160a01b038916925063916955869150479060a4016020604051808303818588803b15801561049e57600080fd5b505af11580156104b2573d6000803e3d6000fd5b50505050506040513d601f19601f820116820180604052508101906104d79190610b54565b5061058d565b6104f16001600160a01b0386168783610685565b6040516348b4aac360e11b815260ff808d1660048301528b166024820152604481018290526000606482015260001960848201526001600160a01b0387169063916955869060a401602060405180830381600087803b15801561055357600080fd5b505af1158015610567573d6000803e3d6000fd5b505050506040513d601f19601f8201168201806040525081019061058b9190610b54565b505b81156105e857876001600160a01b031663d0e30db0476040518263ffffffff1660e01b81526004016000604051808303818588803b1580156105ce57600080fd5b505af11580156105e2573d6000803e3d6000fd5b50505050505b6040516370a0823160e01b81523060048201526106769088906001600160a01b038716906370a082319060240160206040518083038186803b15801561062d57600080fd5b505afa158015610641573d6000803e3d6000fd5b505050506040513d601f19601f820116820180604052508101906106659190610b54565b6001600160a01b038716919061077f565b50505050505050505050505050565b604051636eb1769f60e11b81523060048201526001600160a01b038381166024830152600091839186169063dd62ed3e9060440160206040518083038186803b1580156106d157600080fd5b505afa1580156106e5573d6000803e3d6000fd5b505050506040513d601f19601f820116820180604052508101906107099190610b54565b6107139190610bbc565b6040516001600160a01b03851660248201526044810182905290915061077990859063095ea7b360e01b906064015b60408051601f198184030181529190526020810180516001600160e01b03166001600160e01b0319909316929092179091526107b4565b50505050565b6040516001600160a01b0383166024820152604481018290526107af90849063a9059cbb60e01b90606401610742565b505050565b6000610809826040518060400160405280602081526020017f5361666545524332303a206c6f772d6c6576656c2063616c6c206661696c6564815250856001600160a01b031661088b9092919063ffffffff16565b8051909150156107af57808060200190518101906108279190610b37565b6107af5760405162461bcd60e51b815260206004820152602a60248201527f5361666545524332303a204552433230206f7065726174696f6e20646964206e6044820152691bdd081cdd58d8d9595960b21b60648201526084015b60405180910390fd5b606061089a84846000856108a4565b90505b9392505050565b6060824710156109055760405162461bcd60e51b815260206004820152602660248201527f416464726573733a20696e73756666696369656e742062616c616e636520666f6044820152651c8818d85b1b60d21b6064820152608401610882565b6001600160a01b0385163b61095c5760405162461bcd60e51b815260206004820152601d60248201527f416464726573733a2063616c6c20746f206e6f6e2d636f6e74726163740000006044820152606401610882565b600080866001600160a01b031685876040516109789190610b6d565b60006040518083038185875af1925050503d80600081146109b5576040519150601f19603f3d011682016040523d82523d6000602084013e6109ba565b606091505b50915091506109ca8282866109d5565b979650505050505050565b606083156109e457508161089d565b8251156109f45782518084602001fd5b8160405162461bcd60e51b81526004016108829190610b89565b80356001600160a01b0381168114610a2557600080fd5b919050565b803560ff81168114610a2557600080fd5b600080600080600080600060e0888a031215610a5657600080fd5b610a5f88610a0e565b96506020880135610a6f81610c0e565b9550610a7d60408901610a2a565b9450610a8b60608901610a2a565b9350610a9960808901610a0e565b9250610aa760a08901610a0e565b9150610ab560c08901610a0e565b905092959891949750929550565b60008060008060008060c08789031215610adc57600080fd5b610ae587610a0e565b9550610af360208801610a2a565b9450610b0160408801610a2a565b9350610b0f60608801610a0e565b9250610b1d60808801610a0e565b9150610b2b60a08801610a0e565b90509295509295509295565b600060208284031215610b4957600080fd5b815161089d81610c0e565b600060208284031215610b6657600080fd5b5051919050565b60008251610b7f818460208701610be2565b9190910192915050565b6020815260008251806020840152610ba8816040850160208701610be2565b601f01601f19169190910160400192915050565b60008219821115610bdd57634e487b7160e01b600052601160045260246000fd5b500190565b60005b83811015610bfd578181015183820152602001610be5565b838111156107795750506000910152565b8015158114610c1c57600080fd5b5056fea264697066735822122044621631e4e3d3d4a3d17a853b202d4c0b0b2d5aa8c3fdd0de7c170bd8bd9d6164736f6c63430008070033",
  "devdoc": {
    "kind": "dev",
    "methods": {},
    "version": 1
  },
  "userdoc": {
    "kind": "user",
    "methods": {},
    "version": 1
  },
  "storageLayout": {
    "storage": [],
    "types": null
  }
}