{
  "address": "0x7B1128E610ae1d461B7B8227f9FBBB39e336c515",
  "abi": [
    {
      "inputs": [
        {
          "internalType": "contract IUniswapV3Factory",
          "name": "factory",
          "type": "address"
        },
        {
          "internalType": "address",
          "name": "tokenIn",
          "type": "address"
        },
        {
          "internalType": "address",
          "name": "tokenOut",
          "type": "address"
        },
        {
          "internalType": "uint24",
          "name": "fee",
          "type": "uint24"
        },
        {
          "internalType": "int16",
          "name": "tickBitmapStart",
          "type": "int16"
        },
        {
          "internalType": "int16",
          "name": "tickBitmapEnd",
          "type": "int16"
        }
      ],
      "name": "getAdditionalBitmapWithTicks",
      "outputs": [
        {
          "components": [
            {
              "internalType": "int16",
              "name": "index",
              "type": "int16"
            },
            {
              "internalType": "uint256",
              "name": "value",
              "type": "uint256"
            }
          ],
          "internalType": "struct IUniswapV3StateMulticall.TickBitMapMappings[]",
          "name": "tickBitmap",
          "type": "tuple[]"
        },
        {
          "components": [
            {
              "internalType": "int24",
              "name": "index",
              "type": "int24"
            },
            {
              "components": [
                {
                  "internalType": "uint128",
                  "name": "liquidityGross",
                  "type": "uint128"
                },
                {
                  "internalType": "int128",
                  "name": "liquidityNet",
                  "type": "int128"
                },
                {
                  "internalType": "int56",
                  "name": "tickCumulativeOutside",
                  "type": "int56"
                },
                {
                  "internalType": "uint160",
                  "name": "secondsPerLiquidityOutsideX128",
                  "type": "uint160"
                },
                {
                  "internalType": "uint32",
                  "name": "secondsOutside",
                  "type": "uint32"
                },
                {
                  "internalType": "bool",
                  "name": "initialized",
                  "type": "bool"
                }
              ],
              "internalType": "struct IUniswapV3StateMulticall.TickInfo",
              "name": "value",
              "type": "tuple"
            }
          ],
          "internalType": "struct IUniswapV3StateMulticall.TickInfoMappings[]",
          "name": "ticks",
          "type": "tuple[]"
        }
      ],
      "stateMutability": "view",
      "type": "function"
    },
    {
      "inputs": [
        {
          "internalType": "contract IUniswapV3Factory",
          "name": "factory",
          "type": "address"
        },
        {
          "internalType": "address",
          "name": "tokenIn",
          "type": "address"
        },
        {
          "internalType": "address",
          "name": "tokenOut",
          "type": "address"
        },
        {
          "internalType": "uint24",
          "name": "fee",
          "type": "uint24"
        },
        {
          "internalType": "int16",
          "name": "tickBitmapStart",
          "type": "int16"
        },
        {
          "internalType": "int16",
          "name": "tickBitmapEnd",
          "type": "int16"
        }
      ],
      "name": "getAdditionalBitmapWithoutTicks",
      "outputs": [
        {
          "components": [
            {
              "internalType": "int16",
              "name": "index",
              "type": "int16"
            },
            {
              "internalType": "uint256",
              "name": "value",
              "type": "uint256"
            }
          ],
          "internalType": "struct IUniswapV3StateMulticall.TickBitMapMappings[]",
          "name": "tickBitmap",
          "type": "tuple[]"
        }
      ],
      "stateMutability": "view",
      "type": "function"
    },
    {
      "inputs": [
        {
          "internalType": "contract IUniswapV3Factory",
          "name": "factory",
          "type": "address"
        },
        {
          "internalType": "address",
          "name": "tokenIn",
          "type": "address"
        },
        {
          "internalType": "address",
          "name": "tokenOut",
          "type": "address"
        },
        {
          "internalType": "uint24",
          "name": "fee",
          "type": "uint24"
        },
        {
          "internalType": "int16",
          "name": "tickBitmapStart",
          "type": "int16"
        },
        {
          "internalType": "int16",
          "name": "tickBitmapEnd",
          "type": "int16"
        }
      ],
      "name": "getFullState",
      "outputs": [
        {
          "components": [
            {
              "internalType": "contract IUniswapV3Pool",
              "name": "pool",
              "type": "address"
            },
            {
              "internalType": "uint256",
              "name": "blockTimestamp",
              "type": "uint256"
            },
            {
              "components": [
                {
                  "internalType": "uint160",
                  "name": "sqrtPriceX96",
                  "type": "uint160"
                },
                {
                  "internalType": "int24",
                  "name": "tick",
                  "type": "int24"
                },
                {
                  "internalType": "uint16",
                  "name": "observationIndex",
                  "type": "uint16"
                },
                {
                  "internalType": "uint16",
                  "name": "observationCardinality",
                  "type": "uint16"
                },
                {
                  "internalType": "uint16",
                  "name": "observationCardinalityNext",
                  "type": "uint16"
                },
                {
                  "internalType": "uint8",
                  "name": "feeProtocol",
                  "type": "uint8"
                },
                {
                  "internalType": "bool",
                  "name": "unlocked",
                  "type": "bool"
                }
              ],
              "internalType": "struct IUniswapV3StateMulticall.Slot0",
              "name": "slot0",
              "type": "tuple"
            },
            {
              "internalType": "uint128",
              "name": "liquidity",
              "type": "uint128"
            },
            {
              "internalType": "int24",
              "name": "tickSpacing",
              "type": "int24"
            },
            {
              "internalType": "uint128",
              "name": "maxLiquidityPerTick",
              "type": "uint128"
            },
            {
              "internalType": "uint256",
              "name": "balance0",
              "type": "uint256"
            },
            {
              "internalType": "uint256",
              "name": "balance1",
              "type": "uint256"
            },
            {
              "components": [
                {
                  "internalType": "uint32",
                  "name": "blockTimestamp",
                  "type": "uint32"
                },
                {
                  "internalType": "int56",
                  "name": "tickCumulative",
                  "type": "int56"
                },
                {
                  "internalType": "uint160",
                  "name": "secondsPerLiquidityCumulativeX128",
                  "type": "uint160"
                },
                {
                  "internalType": "bool",
                  "name": "initialized",
                  "type": "bool"
                }
              ],
              "internalType": "struct IUniswapV3StateMulticall.Observation",
              "name": "observation",
              "type": "tuple"
            },
            {
              "components": [
                {
                  "internalType": "int16",
                  "name": "index",
                  "type": "int16"
                },
                {
                  "internalType": "uint256",
                  "name": "value",
                  "type": "uint256"
                }
              ],
              "internalType": "struct IUniswapV3StateMulticall.TickBitMapMappings[]",
              "name": "tickBitmap",
              "type": "tuple[]"
            },
            {
              "components": [
                {
                  "internalType": "int24",
                  "name": "index",
                  "type": "int24"
                },
                {
                  "components": [
                    {
                      "internalType": "uint128",
                      "name": "liquidityGross",
                      "type": "uint128"
                    },
                    {
                      "internalType": "int128",
                      "name": "liquidityNet",
                      "type": "int128"
                    },
                    {
                      "internalType": "int56",
                      "name": "tickCumulativeOutside",
                      "type": "int56"
                    },
                    {
                      "internalType": "uint160",
                      "name": "secondsPerLiquidityOutsideX128",
                      "type": "uint160"
                    },
                    {
                      "internalType": "uint32",
                      "name": "secondsOutside",
                      "type": "uint32"
                    },
                    {
                      "internalType": "bool",
                      "name": "initialized",
                      "type": "bool"
                    }
                  ],
                  "internalType": "struct IUniswapV3StateMulticall.TickInfo",
                  "name": "value",
                  "type": "tuple"
                }
              ],
              "internalType": "struct IUniswapV3StateMulticall.TickInfoMappings[]",
              "name": "ticks",
              "type": "tuple[]"
            }
          ],
          "internalType": "struct IUniswapV3StateMulticall.StateResult",
          "name": "state",
          "type": "tuple"
        }
      ],
      "stateMutability": "view",
      "type": "function"
    },
    {
      "inputs": [
        {
          "internalType": "contract IUniswapV3Factory",
          "name": "factory",
          "type": "address"
        },
        {
          "internalType": "address",
          "name": "tokenIn",
          "type": "address"
        },
        {
          "internalType": "address",
          "name": "tokenOut",
          "type": "address"
        },
        {
          "internalType": "uint24",
          "name": "fee",
          "type": "uint24"
        },
        {
          "internalType": "int16",
          "name": "leftBitmapAmount",
          "type": "int16"
        },
        {
          "internalType": "int16",
          "name": "rightBitmapAmount",
          "type": "int16"
        }
      ],
      "name": "getFullStateWithRelativeBitmaps",
      "outputs": [
        {
          "components": [
            {
              "internalType": "contract IUniswapV3Pool",
              "name": "pool",
              "type": "address"
            },
            {
              "internalType": "uint256",
              "name": "blockTimestamp",
              "type": "uint256"
            },
            {
              "components": [
                {
                  "internalType": "uint160",
                  "name": "sqrtPriceX96",
                  "type": "uint160"
                },
                {
                  "internalType": "int24",
                  "name": "tick",
                  "type": "int24"
                },
                {
                  "internalType": "uint16",
                  "name": "observationIndex",
                  "type": "uint16"
                },
                {
                  "internalType": "uint16",
                  "name": "observationCardinality",
                  "type": "uint16"
                },
                {
                  "internalType": "uint16",
                  "name": "observationCardinalityNext",
                  "type": "uint16"
                },
                {
                  "internalType": "uint8",
                  "name": "feeProtocol",
                  "type": "uint8"
                },
                {
                  "internalType": "bool",
                  "name": "unlocked",
                  "type": "bool"
                }
              ],
              "internalType": "struct IUniswapV3StateMulticall.Slot0",
              "name": "slot0",
              "type": "tuple"
            },
            {
              "internalType": "uint128",
              "name": "liquidity",
              "type": "uint128"
            },
            {
              "internalType": "int24",
              "name": "tickSpacing",
              "type": "int24"
            },
            {
              "internalType": "uint128",
              "name": "maxLiquidityPerTick",
              "type": "uint128"
            },
            {
              "internalType": "uint256",
              "name": "balance0",
              "type": "uint256"
            },
            {
              "internalType": "uint256",
              "name": "balance1",
              "type": "uint256"
            },
            {
              "components": [
                {
                  "internalType": "uint32",
                  "name": "blockTimestamp",
                  "type": "uint32"
                },
                {
                  "internalType": "int56",
                  "name": "tickCumulative",
                  "type": "int56"
                },
                {
                  "internalType": "uint160",
                  "name": "secondsPerLiquidityCumulativeX128",
                  "type": "uint160"
                },
                {
                  "internalType": "bool",
                  "name": "initialized",
                  "type": "bool"
                }
              ],
              "internalType": "struct IUniswapV3StateMulticall.Observation",
              "name": "observation",
              "type": "tuple"
            },
            {
              "components": [
                {
                  "internalType": "int16",
                  "name": "index",
                  "type": "int16"
                },
                {
                  "internalType": "uint256",
                  "name": "value",
                  "type": "uint256"
                }
              ],
              "internalType": "struct IUniswapV3StateMulticall.TickBitMapMappings[]",
              "name": "tickBitmap",
              "type": "tuple[]"
            },
            {
              "components": [
                {
                  "internalType": "int24",
                  "name": "index",
                  "type": "int24"
                },
                {
                  "components": [
                    {
                      "internalType": "uint128",
                      "name": "liquidityGross",
                      "type": "uint128"
                    },
                    {
                      "internalType": "int128",
                      "name": "liquidityNet",
                      "type": "int128"
                    },
                    {
                      "internalType": "int56",
                      "name": "tickCumulativeOutside",
                      "type": "int56"
                    },
                    {
                      "internalType": "uint160",
                      "name": "secondsPerLiquidityOutsideX128",
                      "type": "uint160"
                    },
                    {
                      "internalType": "uint32",
                      "name": "secondsOutside",
                      "type": "uint32"
                    },
                    {
                      "internalType": "bool",
                      "name": "initialized",
                      "type": "bool"
                    }
                  ],
                  "internalType": "struct IUniswapV3StateMulticall.TickInfo",
                  "name": "value",
                  "type": "tuple"
                }
              ],
              "internalType": "struct IUniswapV3StateMulticall.TickInfoMappings[]",
              "name": "ticks",
              "type": "tuple[]"
            }
          ],
          "internalType": "struct IUniswapV3StateMulticall.StateResult",
          "name": "state",
          "type": "tuple"
        }
      ],
      "stateMutability": "view",
      "type": "function"
    },
    {
      "inputs": [
        {
          "internalType": "contract IUniswapV3Factory",
          "name": "factory",
          "type": "address"
        },
        {
          "internalType": "address",
          "name": "tokenIn",
          "type": "address"
        },
        {
          "internalType": "address",
          "name": "tokenOut",
          "type": "address"
        },
        {
          "internalType": "uint24",
          "name": "fee",
          "type": "uint24"
        },
        {
          "internalType": "int16",
          "name": "tickBitmapStart",
          "type": "int16"
        },
        {
          "internalType": "int16",
          "name": "tickBitmapEnd",
          "type": "int16"
        }
      ],
      "name": "getFullStateWithoutTicks",
      "outputs": [
        {
          "components": [
            {
              "internalType": "contract IUniswapV3Pool",
              "name": "pool",
              "type": "address"
            },
            {
              "internalType": "uint256",
              "name": "blockTimestamp",
              "type": "uint256"
            },
            {
              "components": [
                {
                  "internalType": "uint160",
                  "name": "sqrtPriceX96",
                  "type": "uint160"
                },
                {
                  "internalType": "int24",
                  "name": "tick",
                  "type": "int24"
                },
                {
                  "internalType": "uint16",
                  "name": "observationIndex",
                  "type": "uint16"
                },
                {
                  "internalType": "uint16",
                  "name": "observationCardinality",
                  "type": "uint16"
                },
                {
                  "internalType": "uint16",
                  "name": "observationCardinalityNext",
                  "type": "uint16"
                },
                {
                  "internalType": "uint8",
                  "name": "feeProtocol",
                  "type": "uint8"
                },
                {
                  "internalType": "bool",
                  "name": "unlocked",
                  "type": "bool"
                }
              ],
              "internalType": "struct IUniswapV3StateMulticall.Slot0",
              "name": "slot0",
              "type": "tuple"
            },
            {
              "internalType": "uint128",
              "name": "liquidity",
              "type": "uint128"
            },
            {
              "internalType": "int24",
              "name": "tickSpacing",
              "type": "int24"
            },
            {
              "internalType": "uint128",
              "name": "maxLiquidityPerTick",
              "type": "uint128"
            },
            {
              "internalType": "uint256",
              "name": "balance0",
              "type": "uint256"
            },
            {
              "internalType": "uint256",
              "name": "balance1",
              "type": "uint256"
            },
            {
              "components": [
                {
                  "internalType": "uint32",
                  "name": "blockTimestamp",
                  "type": "uint32"
                },
                {
                  "internalType": "int56",
                  "name": "tickCumulative",
                  "type": "int56"
                },
                {
                  "internalType": "uint160",
                  "name": "secondsPerLiquidityCumulativeX128",
                  "type": "uint160"
                },
                {
                  "internalType": "bool",
                  "name": "initialized",
                  "type": "bool"
                }
              ],
              "internalType": "struct IUniswapV3StateMulticall.Observation",
              "name": "observation",
              "type": "tuple"
            },
            {
              "components": [
                {
                  "internalType": "int16",
                  "name": "index",
                  "type": "int16"
                },
                {
                  "internalType": "uint256",
                  "name": "value",
                  "type": "uint256"
                }
              ],
              "internalType": "struct IUniswapV3StateMulticall.TickBitMapMappings[]",
              "name": "tickBitmap",
              "type": "tuple[]"
            },
            {
              "components": [
                {
                  "internalType": "int24",
                  "name": "index",
                  "type": "int24"
                },
                {
                  "components": [
                    {
                      "internalType": "uint128",
                      "name": "liquidityGross",
                      "type": "uint128"
                    },
                    {
                      "internalType": "int128",
                      "name": "liquidityNet",
                      "type": "int128"
                    },
                    {
                      "internalType": "int56",
                      "name": "tickCumulativeOutside",
                      "type": "int56"
                    },
                    {
                      "internalType": "uint160",
                      "name": "secondsPerLiquidityOutsideX128",
                      "type": "uint160"
                    },
                    {
                      "internalType": "uint32",
                      "name": "secondsOutside",
                      "type": "uint32"
                    },
                    {
                      "internalType": "bool",
                      "name": "initialized",
                      "type": "bool"
                    }
                  ],
                  "internalType": "struct IUniswapV3StateMulticall.TickInfo",
                  "name": "value",
                  "type": "tuple"
                }
              ],
              "internalType": "struct IUniswapV3StateMulticall.TickInfoMappings[]",
              "name": "ticks",
              "type": "tuple[]"
            }
          ],
          "internalType": "struct IUniswapV3StateMulticall.StateResult",
          "name": "state",
          "type": "tuple"
        }
      ],
      "stateMutability": "view",
      "type": "function"
    }
  ],
  "transactionHash": "0xaaf40bf24858f1eb34f61c279037ae6010a0ae990a537cfd4efd421264a3aee1",
  "args": [],
  "numDeployments": 1,
  "solcInputHash": "afca1f4930f345fa3d364dd4c17172a2",
  "bytecode": "0x608060405234801561001057600080fd5b506117cf806100206000396000f3fe608060405234801561001057600080fd5b50600436106100575760003560e01c806318a1c5851461005c5780631d5167f41461008557806346c6c47e146100a6578063db529c65146100b9578063ea086e4f146100d9575b600080fd5b61006f61006a366004611023565b6100ec565b60405161007c91906113fe565b60405180910390f35b610098610093366004611023565b610155565b60405161007c9291906113a2565b61006f6100b4366004611023565b6101a8565b6100cc6100c7366004611023565b6101ef565b60405161007c919061138f565b61006f6100e7366004611023565b610225565b6100f4610ec5565b8260010b8260010b12156101235760405162461bcd60e51b815260040161011a906113c7565b60405180910390fd5b61013187878787878761032b565b90506101458787878785610120015161035f565b6101408201529695505050505050565b6060808360010b8360010b121561017e5760405162461bcd60e51b815260040161011a906113c7565b61018c8888888888886106d7565b915061019b888888888661035f565b9050965096945050505050565b6101b0610ec5565b8260010b8260010b12156101d65760405162461bcd60e51b815260040161011a906113c7565b6101e487878787878761032b565b979650505050505050565b60608260010b8260010b12156102175760405162461bcd60e51b815260040161011a906113c7565b6101e48787878787876106d7565b61022d610ec5565b60008360010b136102785760405162461bcd60e51b815260206004820152601560248201527406c6566744269746d6170416d6f756e74203c3d203605c1b604482015260640161011a565b60008260010b136102c45760405162461bcd60e51b8152602060048201526016602482015275072696768744269746d6170416d6f756e74203c3d20360541b604482015260640161011a565b6102d08787878761090f565b905060006102f882608001518360400151602001516102ef91906115f4565b60020b60081d90565b905061031a8888888861030b89876116c9565b6103158988611571565b6106d7565b610120830152509695505050505050565b610333610ec5565b61033f8787878761090f565b905061034f8787878787876106d7565b6101208201529695505050505050565b6060600061036f87878787610d0b565b90506000805b84518110156103ed57600085828151811061039257610392611755565b602002602001015160200151905060005b6101008110156103d8576001811b8216156103c657836103c28161172f565b9450505b806103d08161172f565b9150506103a3565b505080806103e59061172f565b915050610375565b508067ffffffffffffffff8111156104075761040761176b565b60405190808252806020026020018201604052801561048057816020015b61046d6040805180820182526000808252825160c0810184528181526020818101839052938101829052606081018290526080810182905260a0810191909152909182015290565b8152602001906001900390816104255790505b5092506000826001600160a01b031663d0c93a7c6040518163ffffffff1660e01b815260040160206040518083038186803b1580156104be57600080fd5b505afa1580156104d2573d6000803e3d6000fd5b505050506040513d601f19601f820116820180604052508101906104f691906110a7565b90506000805b86518110156106c957600087828151811061051957610519611755565b602002602001015160200151905060005b6101008110156106b4576001811b8216156106a2576000858260088c878151811061055757610557611755565b60200260200101516000015160010b60020b901b61057591906115b6565b61057f919061163c565b90508089868151811061059457610594611755565b60200260200101516000019060020b908160020b8152505060008986815181106105c0576105c0611755565b602090810291909101810151015160405163f30dba9360e01b8152600284900b60048201529091506001600160a01b038a169063f30dba93906024016101006040518083038186803b15801561061557600080fd5b505afa158015610629573d6000803e3d6000fd5b505050506040513d601f19601f8201168201806040525081019061064d91906110dd565b151560a089015263ffffffff1660808801526001600160a01b03166060870152600690810b900b60408601525050600f90810b900b60208301526001600160801b031681528561069c8161172f565b96505050505b806106ac8161172f565b91505061052a565b505080806106c19061172f565b9150506104fc565b505050505095945050505050565b606060006106e788888888610d0b565b90506000600185900b5b8460010b81136107a75760405163299ce14b60e11b8152600182900b60048201526000906001600160a01b03851690635339c2969060240160206040518083038186803b15801561074157600080fd5b505afa158015610755573d6000803e3d6000fd5b505050506040513d601f19601f820116820180604052508101906107799190611201565b9050806107865750610795565b826107908161172f565b935050505b8061079f8161170f565b9150506106f1565b508067ffffffffffffffff8111156107c1576107c161176b565b60405190808252806020026020018201604052801561080657816020015b60408051808201909152600080825260208201528152602001906001900390816107df5790505b5092506000600186900b5b8560010b81136109015760405163299ce14b60e11b8152600182900b600482015281906000906001600160a01b03871690635339c2969060240160206040518083038186803b15801561086357600080fd5b505afa158015610877573d6000803e3d6000fd5b505050506040513d601f19601f8201168201806040525081019061089b9190611201565b9050806108a95750506108ef565b60405180604001604052808360010b8152602001828152508785815181106108d3576108d3611755565b602002602001018190525083806108e99061172f565b94505050505b806108f98161170f565b915050610811565b505050509695505050505050565b610917610ec5565b600061092586868686610d0b565b6001600160a01b0381168084524260208086019190915260408051630d34328160e11b815290519394509192631a686502926004808201939291829003018186803b15801561097357600080fd5b505afa158015610987573d6000803e3d6000fd5b505050506040513d601f19601f820116820180604052508101906109ab91906110c2565b6001600160801b03166060830152604080516334324e9f60e21b815290516001600160a01b0383169163d0c93a7c916004808301926020929190829003018186803b1580156109f957600080fd5b505afa158015610a0d573d6000803e3d6000fd5b505050506040513d601f19601f82011682018060405250810190610a3191906110a7565b826080019060020b908160020b81525050806001600160a01b03166370cf754a6040518163ffffffff1660e01b815260040160206040518083038186803b158015610a7b57600080fd5b505afa158015610a8f573d6000803e3d6000fd5b505050506040513d601f19601f82011682018060405250810190610ab391906110c2565b8260a001906001600160801b031690816001600160801b031681525050610b4a816001600160a01b0316630dfe16816040518163ffffffff1660e01b815260040160206040518083038186803b158015610b0c57600080fd5b505afa158015610b20573d6000803e3d6000fd5b505050506040513d601f19601f82011682018060405250810190610b449190610fff565b82610df1565b8260c0018181525050610b8f816001600160a01b031663d21220a76040518163ffffffff1660e01b815260040160206040518083038186803b158015610b0c57600080fd5b8260e0018181525050806001600160a01b0316633850c7bd6040518163ffffffff1660e01b815260040160e06040518083038186803b158015610bd157600080fd5b505afa158015610be5573d6000803e3d6000fd5b505050506040513d601f19601f82011682018060405250810190610c099190611171565b6040898101805192151560c084015260ff9390931660a083015261ffff9384166080830152938316606082015293821684840152600294850b90940b60208401526001600160a01b039485169092529151820151915163252c09d760e01b8152911660048201529082169063252c09d79060240160806040518083038186803b158015610c9557600080fd5b505afa158015610ca9573d6000803e3d6000fd5b505050506040513d601f19601f82011682018060405250810190610ccd919061121a565b61010086015190151560608201526001600160a01b039091166040820152600691820b90910b602082015263ffffffff909116905250949350505050565b604051630b4c774160e11b81526001600160a01b038481166004830152838116602483015262ffffff8316604483015260009190861690631698ee829060640160206040518083038186803b158015610d6357600080fd5b505afa158015610d77573d6000803e3d6000fd5b505050506040513d601f19601f82011682018060405250810190610d9b9190610fff565b90506001600160a01b038116610de95760405162461bcd60e51b8152602060048201526013602482015272141bdbdb08191bd95cc81b9bdd08195e1a5cdd606a1b604482015260640161011a565b949350505050565b604080516001600160a01b0383811660248084019190915283518084039091018152604490920183526020820180516001600160e01b03166370a0823160e01b17905291516000928392839291871691610e4b9190611354565b600060405180830381855afa9150503d8060008114610e86576040519150601f19603f3d011682016040523d82523d6000602084013e610e8b565b606091505b5091509150818015610e9f57506020815110155b610ea857600080fd5b80806020019051810190610ebc9190611201565b95945050505050565b604080516101608101825260008082526020808301829052835160e081018552828152908101829052808401829052606081018290526080810182905260a0810182905260c0810191909152909182019081526000602080830182905260408084018390526060808501849052608080860185905260a086018590528251908101835284815292830184905290820183905281019190915260c090910190815260200160608152602001606081525090565b80518015158114610f8757600080fd5b919050565b8035600181900b8114610f8757600080fd5b8051600281900b8114610f8757600080fd5b8051600681900b8114610f8757600080fd5b80516001600160801b0381168114610f8757600080fd5b805161ffff81168114610f8757600080fd5b805163ffffffff81168114610f8757600080fd5b60006020828403121561101157600080fd5b815161101c81611781565b9392505050565b60008060008060008060c0878903121561103c57600080fd5b863561104781611781565b9550602087013561105781611781565b9450604087013561106781611781565b9350606087013562ffffff8116811461107f57600080fd5b925061108d60808801610f8c565b915061109b60a08801610f8c565b90509295509295509295565b6000602082840312156110b957600080fd5b61101c82610f9e565b6000602082840312156110d457600080fd5b61101c82610fc2565b600080600080600080600080610100898b0312156110fa57600080fd5b61110389610fc2565b9750602089015180600f0b811461111957600080fd5b60408a015160608b01519198509650945061113660808a01610fb0565b935060a089015161114681611781565b925061115460c08a01610feb565b915061116260e08a01610f77565b90509295985092959890939650565b600080600080600080600060e0888a03121561118c57600080fd5b875161119781611781565b96506111a560208901610f9e565b95506111b360408901610fd9565b94506111c160608901610fd9565b93506111cf60808901610fd9565b925060a088015160ff811681146111e557600080fd5b91506111f360c08901610f77565b905092959891949750929550565b60006020828403121561121357600080fd5b5051919050565b6000806000806080858703121561123057600080fd5b61123985610feb565b935061124760208601610fb0565b9250604085015161125781611781565b915061126560608601610f77565b905092959194509250565b600081518084526020808501945080840160005b838110156112b1578151805160010b88526020908101519088015260408701965090820190600101611284565b509495945050505050565b600081518084526020808501945080840160005b838110156112b1578151805160020b885283015180516001600160801b03168489015280840151600f0b6040808a019190915281015160060b6060808a01919091528101516001600160a01b03166080808a019190915281015163ffffffff1660a0808a01919091520151151560c088015260e090960195908201906001016112d0565b6000825160005b81811015611375576020818601810151858301520161135b565b81811115611384576000828501525b509190910192915050565b60208152600061101c6020830184611270565b6040815260006113b56040830185611270565b8281036020840152610ebc81856112bc565b6020808252601f908201527f7469636b4269746d6170456e64203c207469636b4269746d6170537461727400604082015260600190565b602081526114186020820183516001600160a01b03169052565b6020820151604082015260006040830151611491606084018260018060a01b038151168252602081015160020b6020830152604081015161ffff8082166040850152806060840151166060850152806080840151166080850152505060ff60a08201511660a083015260c0810151151560c08301525050565b5060608301516101406114ae818501836001600160801b03169052565b608085015191506114c561016085018360020b9052565b60a08501516001600160801b031661018085015260c08501516101a085015260e08501516101c0850152610100850151805163ffffffff166101e0860152602081015160060b61020086015260408101516001600160a01b031661022086015260600151151561024085015261012085015161028061026086018190529092506115536102a0860184611270565b9250818601519150601f19858403018186015250610ebc82826112bc565b60008160010b8360010b6000821282617fff038213811516156115965761159661173f565b82617fff190382128116156115ad576115ad61173f565b50019392505050565b60008160020b8360020b6000821282627fffff038213811516156115dc576115dc61173f565b82627fffff190382128116156115ad576115ad61173f565b60008160020b8360020b8061161957634e487b7160e01b600052601260045260246000fd5b627fffff198214600019821416156116335761163361173f565b90059392505050565b60008160020b8360020b627fffff6000821360008413838304851182821616156116685761166861173f565b627fffff1960008512828116878305871216156116875761168761173f565b600087129250858205871284841616156116a3576116a361173f565b858505871281841616156116b9576116b961173f565b5050509290910295945050505050565b60008160010b8360010b6000811281617fff19018312811516156116ef576116ef61173f565b81617fff0183138116156117055761170561173f565b5090039392505050565b60006001600160ff1b038214156117285761172861173f565b5060010190565b6000600019821415611728576117285b634e487b7160e01b600052601160045260246000fd5b634e487b7160e01b600052603260045260246000fd5b634e487b7160e01b600052604160045260246000fd5b6001600160a01b038116811461179657600080fd5b5056fea26469706673582212200883b25a8ea43f96b630afbbd62f93e1141813cb823f330dfb4b1dac363d69c064736f6c63430008070033",
  "devdoc": {
    "kind": "dev",
    "methods": {},
    "version": 1
  },
  "userdoc": {
    "kind": "user",
    "methods": {},
    "version": 1
  },
  "storageLayout": {
    "storage": [],
    "types": null
  }
}