{
  "address": "0x6A6FC6B4d33E27087410Ff5d5F15995dabDF4Ce7",
  "abi": [
    {
      "inputs": [
        {
          "internalType": "contract IStableSwapDispatcher",
          "name": "_stableSwapDispatcher",
          "type": "address"
        },
        {
          "internalType": "contract ICurveStableDispatcher",
          "name": "_curveStableDispatcher",
          "type": "address"
        },
        {
          "internalType": "contract IFeeSettlement",
          "name": "_feeSettlement",
          "type": "address"
        }
      ],
      "stateMutability": "nonpayable",
      "type": "constructor"
    },
    {
      "inputs": [
        {
          "internalType": "address",
          "name": "pool",
          "type": "address"
        }
      ],
      "name": "InvalidPool",
      "type": "error"
    },
    {
      "inputs": [],
      "name": "MinimalInputBalanceViolation",
      "type": "error"
    },
    {
      "inputs": [],
      "name": "MinimalOutputBalanceViolation",
      "type": "error"
    },
    {
      "inputs": [
        {
          "internalType": "address",
          "name": "addr",
          "type": "address"
        }
      ],
      "name": "UnexpectedAddress",
      "type": "error"
    },
    {
      "inputs": [],
      "name": "UnexpectedAlgebraSwap",
      "type": "error"
    },
    {
      "inputs": [],
      "name": "UnexpectedUniV3Swap",
      "type": "error"
    },
    {
      "inputs": [
        {
          "internalType": "uint8",
          "name": "code",
          "type": "uint8"
        }
      ],
      "name": "UnknownCommandCode",
      "type": "error"
    },
    {
      "inputs": [
        {
          "internalType": "uint8",
          "name": "poolType",
          "type": "uint8"
        }
      ],
      "name": "UnknownPoolType",
      "type": "error"
    },
    {
      "anonymous": false,
      "inputs": [
        {
          "indexed": true,
          "internalType": "address",
          "name": "oldAdmin",
          "type": "address"
        },
        {
          "indexed": true,
          "internalType": "address",
          "name": "newAdmin",
          "type": "address"
        }
      ],
      "name": "AdminChanged",
      "type": "event"
    },
    {
      "anonymous": false,
      "inputs": [
        {
          "indexed": true,
          "internalType": "address",
          "name": "newAdmin",
          "type": "address"
        }
      ],
      "name": "Candidate",
      "type": "event"
    },
    {
      "anonymous": false,
      "inputs": [
        {
          "indexed": false,
          "internalType": "address",
          "name": "account",
          "type": "address"
        }
      ],
      "name": "Paused",
      "type": "event"
    },
    {
      "anonymous": false,
      "inputs": [
        {
          "indexed": false,
          "internalType": "contract ICurveStableDispatcher",
          "name": "curveStableDispatcher",
          "type": "address"
        }
      ],
      "name": "SetCurveStableDispatcher",
      "type": "event"
    },
    {
      "anonymous": false,
      "inputs": [
        {
          "indexed": false,
          "internalType": "contract IFeeSettlement",
          "name": "feeSettlement",
          "type": "address"
        }
      ],
      "name": "SetFeeSettlement",
      "type": "event"
    },
    {
      "anonymous": false,
      "inputs": [
        {
          "indexed": false,
          "internalType": "contract IStableSwapDispatcher",
          "name": "stableSwapDispatcher",
          "type": "address"
        }
      ],
      "name": "SetStableSwapDispatcher",
      "type": "event"
    },
    {
      "anonymous": false,
      "inputs": [
        {
          "indexed": false,
          "internalType": "address",
          "name": "account",
          "type": "address"
        }
      ],
      "name": "Unpaused",
      "type": "event"
    },
    {
      "inputs": [],
      "name": "admin",
      "outputs": [
        {
          "internalType": "address",
          "name": "",
          "type": "address"
        }
      ],
      "stateMutability": "view",
      "type": "function"
    },
    {
      "inputs": [],
      "name": "adminCandidate",
      "outputs": [
        {
          "internalType": "address",
          "name": "",
          "type": "address"
        }
      ],
      "stateMutability": "view",
      "type": "function"
    },
    {
      "inputs": [
        {
          "internalType": "int256",
          "name": "amount0Delta",
          "type": "int256"
        },
        {
          "internalType": "int256",
          "name": "amount1Delta",
          "type": "int256"
        },
        {
          "internalType": "bytes",
          "name": "data",
          "type": "bytes"
        }
      ],
      "name": "algebraSwapCallback",
      "outputs": [],
      "stateMutability": "nonpayable",
      "type": "function"
    },
    {
      "inputs": [],
      "name": "candidateConfirm",
      "outputs": [],
      "stateMutability": "nonpayable",
      "type": "function"
    },
    {
      "inputs": [],
      "name": "curveStableDispatcher",
      "outputs": [
        {
          "internalType": "contract ICurveStableDispatcher",
          "name": "",
          "type": "address"
        }
      ],
      "stateMutability": "view",
      "type": "function"
    },
    {
      "inputs": [],
      "name": "feeSettlement",
      "outputs": [
        {
          "internalType": "contract IFeeSettlement",
          "name": "",
          "type": "address"
        }
      ],
      "stateMutability": "view",
      "type": "function"
    },
    {
      "inputs": [],
      "name": "paused",
      "outputs": [
        {
          "internalType": "bool",
          "name": "",
          "type": "bool"
        }
      ],
      "stateMutability": "view",
      "type": "function"
    },
    {
      "inputs": [
        {
          "internalType": "address",
          "name": "tokenIn",
          "type": "address"
        },
        {
          "internalType": "uint256",
          "name": "amountIn",
          "type": "uint256"
        },
        {
          "internalType": "address",
          "name": "tokenOut",
          "type": "address"
        },
        {
          "internalType": "uint256",
          "name": "amountOutMin",
          "type": "uint256"
        },
        {
          "internalType": "address",
          "name": "to",
          "type": "address"
        },
        {
          "internalType": "bytes",
          "name": "route",
          "type": "bytes"
        }
      ],
      "name": "processRoute",
      "outputs": [
        {
          "internalType": "uint256",
          "name": "amountOut",
          "type": "uint256"
        }
      ],
      "stateMutability": "payable",
      "type": "function"
    },
    {
      "inputs": [
        {
          "internalType": "address",
          "name": "_candidate",
          "type": "address"
        }
      ],
      "name": "setAdminCandidate",
      "outputs": [],
      "stateMutability": "nonpayable",
      "type": "function"
    },
    {
      "inputs": [
        {
          "internalType": "contract ICurveStableDispatcher",
          "name": "_curveStableDispatcher",
          "type": "address"
        }
      ],
      "name": "setCurveStableDispatcher",
      "outputs": [],
      "stateMutability": "nonpayable",
      "type": "function"
    },
    {
      "inputs": [
        {
          "internalType": "contract IFeeSettlement",
          "name": "_feeSettlement",
          "type": "address"
        }
      ],
      "name": "setFeeSettlement",
      "outputs": [],
      "stateMutability": "nonpayable",
      "type": "function"
    },
    {
      "inputs": [
        {
          "internalType": "contract IStableSwapDispatcher",
          "name": "_stableSwapDispatcher",
          "type": "address"
        }
      ],
      "name": "setStableSwapDispatcher",
      "outputs": [],
      "stateMutability": "nonpayable",
      "type": "function"
    },
    {
      "inputs": [],
      "name": "stableSwapDispatcher",
      "outputs": [
        {
          "internalType": "contract IStableSwapDispatcher",
          "name": "",
          "type": "address"
        }
      ],
      "stateMutability": "view",
      "type": "function"
    },
    {
      "inputs": [
        {
          "internalType": "address",
          "name": "transferValueTo",
          "type": "address"
        },
        {
          "internalType": "uint256",
          "name": "amountValueTransfer",
          "type": "uint256"
        },
        {
          "internalType": "address",
          "name": "tokenIn",
          "type": "address"
        },
        {
          "internalType": "uint256",
          "name": "amountIn",
          "type": "uint256"
        },
        {
          "internalType": "address",
          "name": "tokenOut",
          "type": "address"
        },
        {
          "internalType": "uint256",
          "name": "amountOutMin",
          "type": "uint256"
        },
        {
          "internalType": "address",
          "name": "to",
          "type": "address"
        },
        {
          "internalType": "bytes",
          "name": "route",
          "type": "bytes"
        }
      ],
      "name": "transferValueAndprocessRoute",
      "outputs": [
        {
          "internalType": "uint256",
          "name": "amountOut",
          "type": "uint256"
        }
      ],
      "stateMutability": "payable",
      "type": "function"
    },
    {
      "inputs": [
        {
          "internalType": "int256",
          "name": "amount0Delta",
          "type": "int256"
        },
        {
          "internalType": "int256",
          "name": "amount1Delta",
          "type": "int256"
        },
        {
          "internalType": "bytes",
          "name": "data",
          "type": "bytes"
        }
      ],
      "name": "uniswapV3SwapCallback",
      "outputs": [],
      "stateMutability": "nonpayable",
      "type": "function"
    },
    {
      "stateMutability": "payable",
      "type": "receive"
    }
  ],
  "transactionHash": "0xf1a4422d1ce10d258f2757e302564bd0fb1e75df378da24c4b1c57a070e6980c",
  "args": [
    "0x6D48a5Ce3815c29Ff1Deea157380e896bdb9f346",
    "0x1B5a2f88420ff329406D108e641e52E46465F68e",
    "0xAFCCA0f68e0883b797c71525377DE46B2E65AB28"
  ],
  "numDeployments": 1,
  "solcInputHash": "f38c2cd00fbd92ba8e35db13406f0811",
  "bytecode": "0x60806040523480156200001157600080fd5b5060405162002a9b38038062002a9b833981016040819052620000349162000119565b600160008190556002805460ff60a01b19169055600380546001600160a01b038087166001600160a01b0319928316179092556004805486841690831617905560058054928516928216929092179091556006805490911690911790556200009c33620000a5565b50505062000186565b6001546001600160a01b031615620000f75760405162461bcd60e51b815260206004820152601160248201527018591b5a5b88185b1c9958591e481cd95d607a1b604482015260640160405180910390fd5b600180546001600160a01b0319166001600160a01b0392909216919091179055565b6000806000606084860312156200012f57600080fd5b83516200013c816200016d565b60208501519093506200014f816200016d565b604085015190925062000162816200016d565b809150509250925092565b6001600160a01b03811681146200018357600080fd5b50565b61290580620001966000396000f3fe6080604052600436106100ec5760003560e01c806373ce06271161008a578063a81e200b11610059578063a81e200b1461026a578063b34ee91b1461028a578063f851a440146102aa578063fa461e33146102ca57600080fd5b806373ce0627146101f757806377cc4e9a1461021757806393b3774c1461023757806396de7aa01461024a57600080fd5b80633f023230116100c65780633f023230146101785780635c975abb1461018d5780635efc9dcd146101b7578063656745aa146101d757600080fd5b80632646478b146100f85780632c8958f61461011e5780633accfa6c1461014057600080fd5b366100f357005b600080fd5b61010b61010636600461240a565b6102ea565b6040519081526020015b60405180910390f35b34801561012a57600080fd5b5061013e61013936600461258e565b61036f565b005b34801561014c57600080fd5b50600254610160906001600160a01b031681565b6040516001600160a01b039091168152602001610115565b34801561018457600080fd5b5061013e61040d565b34801561019957600080fd5b50600254600160a01b900460ff166040519015158152602001610115565b3480156101c357600080fd5b5061013e6101d23660046122a0565b6104bd565b3480156101e357600080fd5b5061013e6101f23660046122a0565b61053c565b34801561020357600080fd5b50600354610160906001600160a01b031681565b34801561022357600080fd5b5061013e6102323660046122a0565b6105b4565b61010b610245366004612491565b61062c565b34801561025657600080fd5b5061013e6102653660046122a0565b6106c1565b34801561027657600080fd5b50600554610160906001600160a01b031681565b34801561029657600080fd5b50600454610160906001600160a01b031681565b3480156102b657600080fd5b50600154610160906001600160a01b031681565b3480156102d657600080fd5b5061013e6102e536600461258e565b610735565b6000600260005414156103445760405162461bcd60e51b815260206004820152601f60248201527f5265656e7472616e637947756172643a207265656e7472616e742063616c6c0060448201526064015b60405180910390fd5b60026000556103516107b7565b61035f878787878787610806565b6001600055979650505050505050565b6006546001600160a01b0316331461039a57604051635c8868c560e11b815260040160405180910390fd5b600680546001600160a01b031916600117905560006103bb828401846122a0565b905060008086136103cc57846103ce565b855b9050600081136103f157604051635c8868c560e11b815260040160405180910390fd5b6104056001600160a01b0383163383610c51565b505050505050565b6002546001600160a01b031633146104575760405162461bcd60e51b815260206004820152600d60248201526c6e6f742043616e64696461746560981b604482015260640161033b565b6002546001546040516001600160a01b0392831692909116907f7e644d79422f17c01e4894b5f4f588d331ebfa28653d42ae832dc59e38c9798f90600090a360028054600180546001600160a01b03199081166001600160a01b03841617909155169055565b6001546001600160a01b031633146104e75760405162461bcd60e51b815260040161033b90612727565b600580546001600160a01b0319166001600160a01b0383169081179091556040519081527f5b63ecb9cf822eda2eff61a085df526dda34a89520e32c60dd98f6d2718e68df906020015b60405180910390a150565b6001546001600160a01b031633146105665760405162461bcd60e51b815260040161033b90612727565b600480546001600160a01b0319166001600160a01b0383169081179091556040519081527f6c6548cee62112c33dc4b31463a57934b1e1e3fb0edda850ff84868beaea1a4c90602001610531565b6001546001600160a01b031633146105de5760405162461bcd60e51b815260040161033b90612727565b600380546001600160a01b0319166001600160a01b0383169081179091556040519081527f8fbcedcd8235dbaa973a11fd69b709a18f639a45103ddb133a16b046e38dcb2590602001610531565b6000600260005414156106815760405162461bcd60e51b815260206004820152601f60248201527f5265656e7472616e637947756172643a207265656e7472616e742063616c6c00604482015260640161033b565b600260005561068e6107b7565b6106a16001600160a01b038a1689610cb9565b6106af878787878787610806565b60016000559998505050505050505050565b6001546001600160a01b031633146106eb5760405162461bcd60e51b815260040161033b90612727565b600280546001600160a01b0319166001600160a01b0383169081179091556040517f8cc40b9abca4a505a92028908f9d913d621d18112c69412806506f02333f26b490600090a250565b6006546001600160a01b0316331461076057604051630eeada1560e11b815260040160405180910390fd5b600680546001600160a01b03191660011790556000610781828401846122a0565b905060008086136107925784610794565b855b9050600081136103f157604051630eeada1560e11b815260040160405180910390fd5b600254600160a01b900460ff16156108045760405162461bcd60e51b815260206004820152601060248201526f14185d5cd8589b194e881c185d5cd95960821b604482015260640161033b565b565b6000806001600160a01b03881673eeeeeeeeeeeeeeeeeeeeeeeeeeeeeeeeeeeeeeee146108a9576040516370a0823160e01b81523360048201526001600160a01b038916906370a082319060240160206040518083038186803b15801561086c57600080fd5b505afa158015610880573d6000803e3d6000fd5b505050506040513d601f19601f820116820180604052508101906108a49190612551565b6108ab565b475b905060006001600160a01b03871673eeeeeeeeeeeeeeeeeeeeeeeeeeeeeeeeeeeeeeee14610951576040516370a0823160e01b81526001600160a01b0386811660048301528816906370a082319060240160206040518083038186803b15801561091457600080fd5b505afa158015610928573d6000803e3d6000fd5b505050506040513d601f19601f8201168201806040525081019061094c9190612551565b61095d565b846001600160a01b0316315b604080518082019091528581528551860160208201529091505b805160208201511115610a165760006109968280516001018051915290565b90508060ff16600114156109b2576109ad82610d0a565b610a10565b8060ff16600214156109c8576109ad828b610db2565b8060ff16600314156109dd576109ad82610dd2565b8060ff16600414156109f2576109ad82610df7565b604051633e3bf85d60e01b815260ff8216600482015260240161033b565b50610977565b60006001600160a01b038b1673eeeeeeeeeeeeeeeeeeeeeeeeeeeeeeeeeeeeeeee14610ab8576040516370a0823160e01b81523360048201526001600160a01b038c16906370a082319060240160206040518083038186803b158015610a7b57600080fd5b505afa158015610a8f573d6000803e3d6000fd5b505050506040513d601f19601f82011682018060405250810190610ab39190612551565b610aba565b475b905083610ac78b836127ac565b1015610ae657604051631a9bae5760e31b815260040160405180910390fd5b60055460405163ee18077360e01b81526001600160a01b038b81166004830152602482018b905233604483015289811660648301529091169063ee18077390608401600060405180830381600087803b158015610b4257600080fd5b505af1158015610b56573d6000803e3d6000fd5b506000925050506001600160a01b038a1673eeeeeeeeeeeeeeeeeeeeeeeeeeeeeeeeeeeeeeee14610bff576040516370a0823160e01b81526001600160a01b0389811660048301528b16906370a082319060240160206040518083038186803b158015610bc257600080fd5b505afa158015610bd6573d6000803e3d6000fd5b505050506040513d601f19601f82011682018060405250810190610bfa9190612551565b610c0b565b876001600160a01b0316315b9050610c1789856127ac565b811015610c375760405163858a872160e01b815260040160405180910390fd5b610c41848261282d565b9c9b505050505050505050505050565b6040516001600160a01b038316602482015260448101829052610cb490849063a9059cbb60e01b906064015b60408051601f198184030181529190526020810180516001600160e01b03166001600160e01b031990931692909217909152610e18565b505050565b600080600080600085875af1905080610cb45760405162461bcd60e51b815260206004820152601360248201527211551217d514905394d1915497d19052531151606a1b604482015260640161033b565b6000610d1c8280516014018051915290565b6040516370a0823160e01b81523060048201529091506000906001600160a01b038316906370a082319060240160206040518083038186803b158015610d6157600080fd5b505afa158015610d75573d6000803e3d6000fd5b505050506040513d601f19601f82011682018060405250810190610d999190612551565b90508015610da657600019015b610cb483308484610eea565b6000610dc48380516014018051915290565b9050610cb483338385610eea565b47610df3823073eeeeeeeeeeeeeeeeeeeeeeeeeeeeeeeeeeeeeeee84610eea565b5050565b6000610e098280516014018051915290565b9050610df38230836000610f68565b6000610e6d826040518060400160405280602081526020017f5361666545524332303a206c6f772d6c6576656c2063616c6c206661696c6564815250856001600160a01b03166110689092919063ffffffff16565b805190915015610cb45780806020019051810190610e8b9190612536565b610cb45760405162461bcd60e51b815260206004820152602a60248201527f5361666545524332303a204552433230206f7065726174696f6e20646964206e6044820152691bdd081cdd58d8d9595960b21b606482015260840161033b565b6000610efc8580516001018051915290565b905060005b8160ff16811015610405576000610f1e8780516002018051915290565b9050600061ffff610f31818416876127e6565b610f3b91906127c4565b9050610f47818661282d565b9450610f5588888884610f68565b505080610f6190612870565b9050610f01565b6000610f7a8580516001018051915290565b905060ff8116610f9657610f9085858585611081565b50611061565b8060ff1660011415610fb357610fae8585858561134a565b611061565b8060ff1660021415610fcb57610fae8585858561150e565b8060ff1660031415610fe357610fae85858585611667565b8060ff1660041415610ffb57610fae85858585611928565b8060ff166005141561101357610fae85858585611b3d565b8060ff166006141561102b57610fae8585858561134a565b8060ff166007141561104357610fae85858585611db8565b604051634059968560e11b815260ff8216600482015260240161033b565b5050505050565b60606110778484600085612005565b90505b9392505050565b6000806110948680516014018051915290565b905060006110a88780516001018051915290565b905060006110bc8880516014018051915290565b9050600080846001600160a01b0316630902f1ac6040518163ffffffff1660e01b815260040160606040518083038186803b1580156110fa57600080fd5b505afa15801561110e573d6000803e3d6000fd5b505050506040513d601f19601f82011682018060405250810190611132919061260e565b506001600160701b031691506001600160701b031691508160001480611156575080155b1561117f57604051630f4c971b60e21b81526001600160a01b038616600482015260240161033b565b6000808560ff16600114611194578284611197565b83835b91509150886000146111e2576001600160a01b038b163014156111cd576111c86001600160a01b038b16888b610c51565b61126b565b6111c86001600160a01b038b168c898c612136565b6040516370a0823160e01b81526001600160a01b0388811660048301528391908c16906370a082319060240160206040518083038186803b15801561122657600080fd5b505afa15801561123a573d6000803e3d6000fd5b505050506040513d601f19601f8201168201806040525081019061125e9190612551565b611268919061282d565b98505b60006112798a6103e56127e6565b905080611288846103e86127e6565b61129291906127ac565b61129c83836127e6565b6112a691906127c4565b98506000808860ff166001146112be578a60006112c2565b60008b5b6040805160008152602081019182905263022c0d9f60e01b90915291935091506001600160a01b038b169063022c0d9f9061130690859085908d906024810161274a565b600060405180830381600087803b15801561132057600080fd5b505af1158015611334573d6000803e3d6000fd5b5050505050505050505050505050949350505050565b600061135c8580516014018051915290565b90506000806113718780516001018051915290565b60ff1611905060006113898780516014018051915290565b90506001600160a01b03861630146113e4576001600160a01b03861633146113cf57604051630336a30160e11b81526001600160a01b038716600482015260240161033b565b6113e46001600160a01b038616333087612136565b600680546001600160a01b0319166001600160a01b03851690811790915563128acb08828487816114335761142e600173fffd8963efd1fc6a506488495d951d5263988d26612805565b611443565b6114436401000276a36001612781565b604080516001600160a01b038d166020820152016040516020818303038152906040526040518663ffffffff1660e01b81526004016114869594939291906126d9565b6040805180830381600087803b15801561149f57600080fd5b505af11580156114b3573d6000803e3d6000fd5b505050506040513d601f19601f820116820180604052508101906114d7919061256a565b50506006546001600160a01b031660011461150557604051630eeada1560e11b815260040160405180910390fd5b50505050505050565b60006115208580516001018051915290565b905060006115348680516014018051915290565b9050600180831614156115d45760006115538780516014018051915290565b9050806001600160a01b031663d0e30db0856040518263ffffffff1660e01b81526004016000604051808303818588803b15801561159057600080fd5b505af11580156115a4573d6000803e3d6000fd5b505050506001600160a01b038316301490506115ce576115ce6001600160a01b0382168386610c51565b50610405565b6001600160a01b03851630146115f9576115f96001600160a01b038516863086612136565b604051632e1a7d4d60e01b8152600481018490526001600160a01b03851690632e1a7d4d90602401600060405180830381600087803b15801561163b57600080fd5b505af115801561164f573d6000803e3d6000fd5b50610405925050506001600160a01b03821647610cb9565b60006116798580516001018051915290565b9050600061168d8680516014018051915290565b86516020808201805190920101885290915083156116f1576001600160a01b0386163014156116d5576003546116d0906001600160a01b03878116911686610c51565b611771565b6003546116d0906001600160a01b038781169189911687612136565b6003546040516370a0823160e01b81526001600160a01b039182166004820152908616906370a082319060240160206040518083038186803b15801561173657600080fd5b505afa15801561174a573d6000803e3d6000fd5b505050506040513d601f19601f8201168201806040525081019061176e9190612551565b93505b8260ff1660011415611835576000806000808480602001905181019061179791906123cd565b600354604051630ba1448d60e01b81526001600160a01b03808716600483015260ff8087166024840152851660448301528f8116606483015280841660848301528c811660a483015295995093975091955093509190911690630ba1448d9060c4015b600060405180830381600087803b15801561181457600080fd5b505af1158015611828573d6000803e3d6000fd5b5050505050505050611505565b6000806000806000858060200190518101906118519190612328565b94509450945094509450600360009054906101000a90046001600160a01b03166001600160a01b031663cbf45e88868686868f878e6040518863ffffffff1660e01b81526004016118e897969594939291906001600160a01b039788168152951515602087015260ff94851660408701529290931660608501528416608084015290831660a083015290911660c082015260e00190565b600060405180830381600087803b15801561190257600080fd5b505af1158015611916573d6000803e3d6000fd5b50505050505050505050505050505050565b600061193a8580516014018051915290565b9050600061194e8680516014018051915290565b905060006119628780516014018051915290565b905083156119a9576001600160a01b0386163014156119945761198f6001600160a01b0386168486610c51565b611aa8565b61198f6001600160a01b038616878587612136565b60405163523fba7f60e01b81526001600160a01b03868116600483015284169063523fba7f9060240160206040518083038186803b1580156119ea57600080fd5b505afa1580156119fe573d6000803e3d6000fd5b505050506040513d601f19601f82011682018060405250810190611a229190612551565b6040516370a0823160e01b81526001600160a01b0385811660048301528716906370a082319060240160206040518083038186803b158015611a6357600080fd5b505afa158015611a77573d6000803e3d6000fd5b505050506040513d601f19601f82011682018060405250810190611a9b9190612551565b611aa5919061282d565b93505b604051634998b10960e11b81526001600160a01b03868116600483015283811660248301528281166044830152841690639331621290606401602060405180830381600087803b158015611afb57600080fd5b505af1158015611b0f573d6000803e3d6000fd5b505050506040513d601f19601f82011682018060405250810190611b339190612551565b5050505050505050565b6000611b4f8580516014018051915290565b9050600080611b648780516001018051915290565b60ff161190506000611b7c8780516014018051915290565b9050600080846001600160a01b0316630902f1ac6040518163ffffffff1660e01b8152600401604080518083038186803b158015611bb957600080fd5b505afa158015611bcd573d6000803e3d6000fd5b505050506040513d601f19601f82011682018060405250810190611bf1919061265e565b91509150816001600160801b031660001480611c1457506001600160801b038116155b15611c3d57604051630f4c971b60e21b81526001600160a01b038616600482015260240161033b565b600084611c4b578183611c4e565b82825b506001600160801b031690508615611c9f576001600160a01b038916301415611c8a57611c856001600160a01b0389168789610c51565b611d28565b611c856001600160a01b0389168a888a612136565b6040516370a0823160e01b81526001600160a01b0387811660048301528291908a16906370a082319060240160206040518083038186803b158015611ce357600080fd5b505afa158015611cf7573d6000803e3d6000fd5b505050506040513d601f19601f82011682018060405250810190611d1b9190612551565b611d25919061282d565b96505b60405163029e02cd60e51b815285151560048201526001600160a01b0385811660248301528716906353c059a090604401602060405180830381600087803b158015611d7357600080fd5b505af1158015611d87573d6000803e3d6000fd5b505050506040513d601f19601f82011682018060405250810190611dab9190612551565b5050505050505050505050565b6000611dca8580516001018051915290565b90506000611dde8680516014018051915290565b8651602080820180519092010188529091508315611e42576001600160a01b038616301415611e2657600454611e21906001600160a01b03878116911686610c51565b611ec4565b600454611e21906001600160a01b038781169189911687612136565b600480546040516370a0823160e01b81526001600160a01b03918216928101929092528616906370a082319060240160206040518083038186803b158015611e8957600080fd5b505afa158015611e9d573d6000803e3d6000fd5b505050506040513d601f19601f82011682018060405250810190611ec19190612551565b93505b8260ff1660011415611f525760008060008084806020019051810190611eea9190612375565b60048054604051635f1766e760e11b81526001600160a01b0380881693820193909352600f86810b602483015285900b60448201528f8316606482015282841660848201528c831660a48201529599509397509195509350169063be2ecdce9060c4016117fa565b600080600080600085806020019051810190611f6e91906122bd565b94509450945094509450600460009054906101000a90046001600160a01b03166001600160a01b0316631e7603e6868686868f878e6040518863ffffffff1660e01b81526004016118e897969594939291906001600160a01b0397881681529515156020870152600f94850b60408701529290930b60608501528416608084015290831660a083015290911660c082015260e00190565b6060824710156120665760405162461bcd60e51b815260206004820152602660248201527f416464726573733a20696e73756666696369656e742062616c616e636520666f6044820152651c8818d85b1b60d21b606482015260840161033b565b6001600160a01b0385163b6120bd5760405162461bcd60e51b815260206004820152601d60248201527f416464726573733a2063616c6c20746f206e6f6e2d636f6e7472616374000000604482015260640161033b565b600080866001600160a01b031685876040516120d991906126bd565b60006040518083038185875af1925050503d8060008114612116576040519150601f19603f3d011682016040523d82523d6000602084013e61211b565b606091505b509150915061212b828286612174565b979650505050505050565b6040516001600160a01b038085166024830152831660448201526064810182905261216e9085906323b872dd60e01b90608401610c7d565b50505050565b6060831561218357508161107a565b8251156121935782518084602001fd5b8160405162461bcd60e51b815260040161033b9190612714565b805180151581146121bd57600080fd5b919050565b600082601f8301126121d357600080fd5b813567ffffffffffffffff808211156121ee576121ee6128a1565b604051601f8301601f19908116603f01168101908282118183101715612216576122166128a1565b8160405283815286602085880101111561222f57600080fd5b836020870160208301376000602085830101528094505050505092915050565b8051600f81900b81146121bd57600080fd5b80516001600160701b03811681146121bd57600080fd5b80516001600160801b03811681146121bd57600080fd5b805160ff811681146121bd57600080fd5b6000602082840312156122b257600080fd5b813561107a816128b7565b600080600080600060a086880312156122d557600080fd5b85516122e0816128b7565b94506122ee602087016121ad565b93506122fc6040870161224f565b925061230a6060870161224f565b9150608086015161231a816128b7565b809150509295509295909350565b600080600080600060a0868803121561234057600080fd5b855161234b816128b7565b9450612359602087016121ad565b93506123676040870161228f565b925061230a6060870161228f565b6000806000806080858703121561238b57600080fd5b8451612396816128b7565b93506123a46020860161224f565b92506123b26040860161224f565b915060608501516123c2816128b7565b939692955090935050565b600080600080608085870312156123e357600080fd5b84516123ee816128b7565b93506123fc6020860161228f565b92506123b26040860161228f565b60008060008060008060c0878903121561242357600080fd5b863561242e816128b7565b9550602087013594506040870135612445816128b7565b935060608701359250608087013561245c816128b7565b915060a087013567ffffffffffffffff81111561247857600080fd5b61248489828a016121c2565b9150509295509295509295565b600080600080600080600080610100898b0312156124ae57600080fd5b88356124b9816128b7565b97506020890135965060408901356124d0816128b7565b95506060890135945060808901356124e7816128b7565b935060a0890135925060c08901356124fe816128b7565b915060e089013567ffffffffffffffff81111561251a57600080fd5b6125268b828c016121c2565b9150509295985092959890939650565b60006020828403121561254857600080fd5b61107a826121ad565b60006020828403121561256357600080fd5b5051919050565b6000806040838503121561257d57600080fd5b505080516020909101519092909150565b600080600080606085870312156125a457600080fd5b8435935060208501359250604085013567ffffffffffffffff808211156125ca57600080fd5b818701915087601f8301126125de57600080fd5b8135818111156125ed57600080fd5b8860208285010111156125ff57600080fd5b95989497505060200194505050565b60008060006060848603121561262357600080fd5b61262c84612261565b925061263a60208501612261565b9150604084015163ffffffff8116811461265357600080fd5b809150509250925092565b6000806040838503121561267157600080fd5b61267a83612278565b915061268860208401612278565b90509250929050565b600081518084526126a9816020860160208601612844565b601f01601f19169290920160200192915050565b600082516126cf818460208701612844565b9190910192915050565b6001600160a01b0386811682528515156020830152604082018590528316606082015260a06080820181905260009061212b90830184612691565b60208152600061107a6020830184612691565b6020808252600990820152683737ba1030b236b4b760b91b604082015260600190565b84815283602082015260018060a01b03831660408201526080606082015260006127776080830184612691565b9695505050505050565b60006001600160a01b038281168482168083038211156127a3576127a361288b565b01949350505050565b600082198211156127bf576127bf61288b565b500190565b6000826127e157634e487b7160e01b600052601260045260246000fd5b500490565b60008160001904831182151516156128005761280061288b565b500290565b60006001600160a01b03838116908316818110156128255761282561288b565b039392505050565b60008282101561283f5761283f61288b565b500390565b60005b8381101561285f578181015183820152602001612847565b8381111561216e5750506000910152565b60006000198214156128845761288461288b565b5060010190565b634e487b7160e01b600052601160045260246000fd5b634e487b7160e01b600052604160045260246000fd5b6001600160a01b03811681146128cc57600080fd5b5056fea2646970667358221220c7033b57a2370dec5ae58096dcb95eb925704bb15bd06f15c360d67caf820ed264736f6c63430008070033",
  "devdoc": {
    "kind": "dev",
    "methods": {
      "algebraSwapCallback(int256,int256,bytes)": {
        "details": "In the implementation you must pay the pool tokens owed for the swap. The caller of this method must be checked to be an AlgebraPool deployed by the canonical AlgebraFactory. amount0Delta and amount1Delta can both be 0 if no tokens were swapped.",
        "params": {
          "amount0Delta": "The amount of token0 that was sent (negative) or must be received (positive) by the pool by the end of the swap. If positive, the callback must send that amount of token0 to the pool.",
          "amount1Delta": "The amount of token1 that was sent (negative) or must be received (positive) by the pool by the end of the swap. If positive, the callback must send that amount of token1 to the pool.",
          "data": "Any data passed through by the caller via the IAlgebraPoolActions#swap call"
        }
      },
      "paused()": {
        "details": "Returns true if the contract is paused, and false otherwise."
      },
      "processRoute(address,uint256,address,uint256,address,bytes)": {
        "params": {
          "amountIn": "Amount of the input token",
          "amountOutMin": "Minimum amount of the output token",
          "route": "The encoded route to execute with",
          "to": "Receiver address",
          "tokenIn": "Address of the input token",
          "tokenOut": "Address of the output token"
        },
        "returns": {
          "amountOut": "Actual amount of the output token"
        }
      },
      "setCurveStableDispatcher(address)": {
        "params": {
          "_curveStableDispatcher": "CurveStableDispatcher address"
        }
      },
      "setFeeSettlement(address)": {
        "params": {
          "_feeSettlement": "FeeSettlement address"
        }
      },
      "setStableSwapDispatcher(address)": {
        "params": {
          "_stableSwapDispatcher": "StableSwapDispatcher address"
        }
      },
      "uniswapV3SwapCallback(int256,int256,bytes)": {
        "details": "In the implementation you must pay the pool tokens owed for the swap. The caller of this method must be checked to be a UniswapV3Pool deployed by the canonical UniswapV3Factory. amount0Delta and amount1Delta can both be 0 if no tokens were swapped.",
        "params": {
          "amount0Delta": "The amount of token0 that was sent (negative) or must be received (positive) by the pool by the end of the swap. If positive, the callback must send that amount of token0 to the pool.",
          "amount1Delta": "The amount of token1 that was sent (negative) or must be received (positive) by the pool by the end of the swap. If positive, the callback must send that amount of token1 to the pool.",
          "data": "Any data passed through by the caller via the IUniswapV3PoolActions#swap call"
        }
      }
    },
    "version": 1
  },
  "userdoc": {
    "kind": "user",
    "methods": {
      "algebraSwapCallback(int256,int256,bytes)": {
        "notice": "Called to `msg.sender` after executing a swap via IAlgebraPool#swap."
      },
      "processRoute(address,uint256,address,uint256,address,bytes)": {
        "notice": "Decodes and executes the given route"
      },
      "setCurveStableDispatcher(address)": {
        "notice": "Set CurveStableDispatcher by admin"
      },
      "setFeeSettlement(address)": {
        "notice": "Set FeeSettlement by admin"
      },
      "setStableSwapDispatcher(address)": {
        "notice": "Set StableSwapDispatcher by admin"
      },
      "uniswapV3SwapCallback(int256,int256,bytes)": {
        "notice": "Called to `msg.sender` after executing a swap via IUniswapV3Pool#swap."
      }
    },
    "version": 1
  },
  "storageLayout": {
    "storage": [
      {
        "astId": 118,
        "contract": "contracts/universal-router/UniversalRouter2.sol:UniversalRouter2",
        "label": "_status",
        "offset": 0,
        "slot": "0",
        "type": "t_uint256"
      },
      {
        "astId": 990,
        "contract": "contracts/universal-router/UniversalRouter2.sol:UniversalRouter2",
        "label": "admin",
        "offset": 0,
        "slot": "1",
        "type": "t_address"
      },
      {
        "astId": 992,
        "contract": "contracts/universal-router/UniversalRouter2.sol:UniversalRouter2",
        "label": "adminCandidate",
        "offset": 0,
        "slot": "2",
        "type": "t_address"
      },
      {
        "astId": 17,
        "contract": "contracts/universal-router/UniversalRouter2.sol:UniversalRouter2",
        "label": "_paused",
        "offset": 20,
        "slot": "2",
        "type": "t_bool"
      },
      {
        "astId": 2140,
        "contract": "contracts/universal-router/UniversalRouter2.sol:UniversalRouter2",
        "label": "stableSwapDispatcher",
        "offset": 0,
        "slot": "3",
        "type": "t_contract(IStableSwapDispatcher)4058"
      },
      {
        "astId": 2143,
        "contract": "contracts/universal-router/UniversalRouter2.sol:UniversalRouter2",
        "label": "curveStableDispatcher",
        "offset": 0,
        "slot": "4",
        "type": "t_contract(ICurveStableDispatcher)4546"
      },
      {
        "astId": 2146,
        "contract": "contracts/universal-router/UniversalRouter2.sol:UniversalRouter2",
        "label": "feeSettlement",
        "offset": 0,
        "slot": "5",
        "type": "t_contract(IFeeSettlement)4023"
      },
      {
        "astId": 2148,
        "contract": "contracts/universal-router/UniversalRouter2.sol:UniversalRouter2",
        "label": "lastCalledPool",
        "offset": 0,
        "slot": "6",
        "type": "t_address"
      }
    ],
    "types": {
      "t_address": {
        "encoding": "inplace",
        "label": "address",
        "numberOfBytes": "20"
      },
      "t_bool": {
        "encoding": "inplace",
        "label": "bool",
        "numberOfBytes": "1"
      },
      "t_contract(ICurveStableDispatcher)4546": {
        "encoding": "inplace",
        "label": "contract ICurveStableDispatcher",
        "numberOfBytes": "20"
      },
      "t_contract(IFeeSettlement)4023": {
        "encoding": "inplace",
        "label": "contract IFeeSettlement",
        "numberOfBytes": "20"
      },
      "t_contract(IStableSwapDispatcher)4058": {
        "encoding": "inplace",
        "label": "contract IStableSwapDispatcher",
        "numberOfBytes": "20"
      },
      "t_uint256": {
        "encoding": "inplace",
        "label": "uint256",
        "numberOfBytes": "32"
      }
    }
  }
}