{
  "address": "0x624303A1B8244ca766458B127c3C70B753891c39",
  "abi": [
    {
      "inputs": [
        {
          "internalType": "contract IStableSwapDispatcher",
          "name": "_stableSwapDispatcher",
          "type": "address"
        },
        {
          "internalType": "contract IFeeSettlement",
          "name": "_feeSettlement",
          "type": "address"
        }
      ],
      "stateMutability": "nonpayable",
      "type": "constructor"
    },
    {
      "inputs": [
        {
          "internalType": "address",
          "name": "pool",
          "type": "address"
        }
      ],
      "name": "InvalidPool",
      "type": "error"
    },
    {
      "inputs": [],
      "name": "MinimalInputBalanceViolation",
      "type": "error"
    },
    {
      "inputs": [],
      "name": "MinimalOutputBalanceViolation",
      "type": "error"
    },
    {
      "inputs": [
        {
          "internalType": "address",
          "name": "addr",
          "type": "address"
        }
      ],
      "name": "UnexpectedAddress",
      "type": "error"
    },
    {
      "inputs": [],
      "name": "UnexpectedUniV3Swap",
      "type": "error"
    },
    {
      "inputs": [
        {
          "internalType": "uint8",
          "name": "code",
          "type": "uint8"
        }
      ],
      "name": "UnknownCommandCode",
      "type": "error"
    },
    {
      "inputs": [
        {
          "internalType": "uint8",
          "name": "poolType",
          "type": "uint8"
        }
      ],
      "name": "UnknownPoolType",
      "type": "error"
    },
    {
      "anonymous": false,
      "inputs": [
        {
          "indexed": true,
          "internalType": "address",
          "name": "oldAdmin",
          "type": "address"
        },
        {
          "indexed": true,
          "internalType": "address",
          "name": "newAdmin",
          "type": "address"
        }
      ],
      "name": "AdminChanged",
      "type": "event"
    },
    {
      "anonymous": false,
      "inputs": [
        {
          "indexed": true,
          "internalType": "address",
          "name": "newAdmin",
          "type": "address"
        }
      ],
      "name": "Candidate",
      "type": "event"
    },
    {
      "anonymous": false,
      "inputs": [
        {
          "indexed": false,
          "internalType": "contract IFeeSettlement",
          "name": "feeSettlement",
          "type": "address"
        }
      ],
      "name": "SetFeeSettlement",
      "type": "event"
    },
    {
      "anonymous": false,
      "inputs": [
        {
          "indexed": false,
          "internalType": "contract IStableSwapDispatcher",
          "name": "stableSwapDispatcher",
          "type": "address"
        }
      ],
      "name": "SetStableSwapDispatcher",
      "type": "event"
    },
    {
      "inputs": [],
      "name": "admin",
      "outputs": [
        {
          "internalType": "address",
          "name": "",
          "type": "address"
        }
      ],
      "stateMutability": "view",
      "type": "function"
    },
    {
      "inputs": [],
      "name": "adminCandidate",
      "outputs": [
        {
          "internalType": "address",
          "name": "",
          "type": "address"
        }
      ],
      "stateMutability": "view",
      "type": "function"
    },
    {
      "inputs": [],
      "name": "candidateConfirm",
      "outputs": [],
      "stateMutability": "nonpayable",
      "type": "function"
    },
    {
      "inputs": [],
      "name": "feeSettlement",
      "outputs": [
        {
          "internalType": "contract IFeeSettlement",
          "name": "",
          "type": "address"
        }
      ],
      "stateMutability": "view",
      "type": "function"
    },
    {
      "inputs": [
        {
          "internalType": "address",
          "name": "tokenIn",
          "type": "address"
        },
        {
          "internalType": "uint256",
          "name": "amountIn",
          "type": "uint256"
        },
        {
          "internalType": "address",
          "name": "tokenOut",
          "type": "address"
        },
        {
          "internalType": "uint256",
          "name": "amountOutMin",
          "type": "uint256"
        },
        {
          "internalType": "address",
          "name": "to",
          "type": "address"
        },
        {
          "internalType": "bytes",
          "name": "route",
          "type": "bytes"
        }
      ],
      "name": "processRoute",
      "outputs": [
        {
          "internalType": "uint256",
          "name": "amountOut",
          "type": "uint256"
        }
      ],
      "stateMutability": "payable",
      "type": "function"
    },
    {
      "inputs": [
        {
          "internalType": "address",
          "name": "_candidate",
          "type": "address"
        }
      ],
      "name": "setAdminCandidate",
      "outputs": [],
      "stateMutability": "nonpayable",
      "type": "function"
    },
    {
      "inputs": [
        {
          "internalType": "contract IFeeSettlement",
          "name": "_feeSettlement",
          "type": "address"
        }
      ],
      "name": "setFeeSettlement",
      "outputs": [],
      "stateMutability": "nonpayable",
      "type": "function"
    },
    {
      "inputs": [
        {
          "internalType": "contract IStableSwapDispatcher",
          "name": "_stableSwapDispatcher",
          "type": "address"
        }
      ],
      "name": "setStableSwapDispatcher",
      "outputs": [],
      "stateMutability": "nonpayable",
      "type": "function"
    },
    {
      "inputs": [],
      "name": "stableSwapDispatcher",
      "outputs": [
        {
          "internalType": "contract IStableSwapDispatcher",
          "name": "",
          "type": "address"
        }
      ],
      "stateMutability": "view",
      "type": "function"
    },
    {
      "inputs": [
        {
          "internalType": "address",
          "name": "transferValueTo",
          "type": "address"
        },
        {
          "internalType": "uint256",
          "name": "amountValueTransfer",
          "type": "uint256"
        },
        {
          "internalType": "address",
          "name": "tokenIn",
          "type": "address"
        },
        {
          "internalType": "uint256",
          "name": "amountIn",
          "type": "uint256"
        },
        {
          "internalType": "address",
          "name": "tokenOut",
          "type": "address"
        },
        {
          "internalType": "uint256",
          "name": "amountOutMin",
          "type": "uint256"
        },
        {
          "internalType": "address",
          "name": "to",
          "type": "address"
        },
        {
          "internalType": "bytes",
          "name": "route",
          "type": "bytes"
        }
      ],
      "name": "transferValueAndprocessRoute",
      "outputs": [
        {
          "internalType": "uint256",
          "name": "amountOut",
          "type": "uint256"
        }
      ],
      "stateMutability": "payable",
      "type": "function"
    },
    {
      "inputs": [
        {
          "internalType": "int256",
          "name": "amount0Delta",
          "type": "int256"
        },
        {
          "internalType": "int256",
          "name": "amount1Delta",
          "type": "int256"
        },
        {
          "internalType": "bytes",
          "name": "data",
          "type": "bytes"
        }
      ],
      "name": "uniswapV3SwapCallback",
      "outputs": [],
      "stateMutability": "nonpayable",
      "type": "function"
    },
    {
      "stateMutability": "payable",
      "type": "receive"
    }
  ],
  "transactionHash": "0x3e779d32d0df61e5f7751da0ca6d531d3a5c3f1a31035e894bbade11e13fff3a",
  "args": [
    "0x6D48a5Ce3815c29Ff1Deea157380e896bdb9f346",
    "0xd900a76A67C92eBCD70054daD1Fc1b62B487CAfA"
  ],
  "numDeployments": 1,
  "solcInputHash": "d25506350cd15abe9fb3d7cab623d1df",
  "bytecode": "0x60806040523480156200001157600080fd5b5060405162002247380380620022478339810160408190526200003491620000fe565b60016000819055600380546001600160a01b038086166001600160a01b031992831617909255600480549285169282169290921790915560058054909116909117905562000082336200008a565b505062000156565b6001546001600160a01b031615620000dc5760405162461bcd60e51b815260206004820152601160248201527018591b5a5b88185b1c9958591e481cd95d607a1b604482015260640160405180910390fd5b600180546001600160a01b0319166001600160a01b0392909216919091179055565b600080604083850312156200011257600080fd5b82516200011f816200013d565b602084015190925062000132816200013d565b809150509250929050565b6001600160a01b03811681146200015357600080fd5b50565b6120e180620001666000396000f3fe6080604052600436106100a05760003560e01c806377cc4e9a1161006457806377cc4e9a1461016157806393b3774c1461018157806396de7aa014610194578063a81e200b146101b4578063f851a440146101d4578063fa461e33146101f457600080fd5b80632646478b146100ac5780633accfa6c146100d25780633f0232301461010a5780635efc9dcd1461012157806373ce06271461014157600080fd5b366100a757005b600080fd5b6100bf6100ba366004611c19565b610214565b6040519081526020015b60405180910390f35b3480156100de57600080fd5b506002546100f2906001600160a01b031681565b6040516001600160a01b0390911681526020016100c9565b34801561011657600080fd5b5061011f610291565b005b34801561012d57600080fd5b5061011f61013c366004611b39565b610341565b34801561014d57600080fd5b506003546100f2906001600160a01b031681565b34801561016d57600080fd5b5061011f61017c366004611b39565b6103c0565b6100bf61018f366004611ca0565b610438565b3480156101a057600080fd5b5061011f6101af366004611b39565b6104c5565b3480156101c057600080fd5b506004546100f2906001600160a01b031681565b3480156101e057600080fd5b506001546100f2906001600160a01b031681565b34801561020057600080fd5b5061011f61020f366004611d84565b610539565b60006002600054141561026e5760405162461bcd60e51b815260206004820152601f60248201527f5265656e7472616e637947756172643a207265656e7472616e742063616c6c0060448201526064015b60405180910390fd5b60026000556102818787878787876105d7565b6001600055979650505050505050565b6002546001600160a01b031633146102db5760405162461bcd60e51b815260206004820152600d60248201526c6e6f742043616e64696461746560981b6044820152606401610265565b6002546001546040516001600160a01b0392831692909116907f7e644d79422f17c01e4894b5f4f588d331ebfa28653d42ae832dc59e38c9798f90600090a360028054600180546001600160a01b03199081166001600160a01b03841617909155169055565b6001546001600160a01b0316331461036b5760405162461bcd60e51b815260040161026590611f03565b600480546001600160a01b0319166001600160a01b0383169081179091556040519081527f5b63ecb9cf822eda2eff61a085df526dda34a89520e32c60dd98f6d2718e68df906020015b60405180910390a150565b6001546001600160a01b031633146103ea5760405162461bcd60e51b815260040161026590611f03565b600380546001600160a01b0319166001600160a01b0383169081179091556040519081527f8fbcedcd8235dbaa973a11fd69b709a18f639a45103ddb133a16b046e38dcb25906020016103b5565b60006002600054141561048d5760405162461bcd60e51b815260206004820152601f60248201527f5265656e7472616e637947756172643a207265656e7472616e742063616c6c006044820152606401610265565b60026000556104a56001600160a01b038a1689610a24565b6104b38787878787876105d7565b60016000559998505050505050505050565b6001546001600160a01b031633146104ef5760405162461bcd60e51b815260040161026590611f03565b600280546001600160a01b0319166001600160a01b0383169081179091556040517f8cc40b9abca4a505a92028908f9d913d621d18112c69412806506f02333f26b490600090a250565b6005546001600160a01b0316331461056457604051630eeada1560e11b815260040160405180910390fd5b600580546001600160a01b0319166001179055600061058582840184611b39565b905060008086136105965784610598565b855b9050600081136105bb57604051630eeada1560e11b815260040160405180910390fd5b6105cf6001600160a01b0383163383610a7a565b505050505050565b6000806001600160a01b03881673eeeeeeeeeeeeeeeeeeeeeeeeeeeeeeeeeeeeeeee1461067a576040516370a0823160e01b81523360048201526001600160a01b038916906370a082319060240160206040518083038186803b15801561063d57600080fd5b505afa158015610651573d6000803e3d6000fd5b505050506040513d601f19601f820116820180604052508101906106759190611e54565b61067c565b475b905060006001600160a01b03871673eeeeeeeeeeeeeeeeeeeeeeeeeeeeeeeeeeeeeeee14610722576040516370a0823160e01b81526001600160a01b0386811660048301528816906370a082319060240160206040518083038186803b1580156106e557600080fd5b505afa1580156106f9573d6000803e3d6000fd5b505050506040513d601f19601f8201168201806040525081019061071d9190611e54565b61072e565b846001600160a01b0316315b604080518082019091528581528551860160208201529091505b8051602082015111156107e75760006107678280516001018051915290565b90508060ff16600114156107835761077e82610add565b6107e1565b8060ff16600214156107995761077e828b610b85565b8060ff16600314156107ae5761077e82610ba5565b8060ff16600414156107c35761077e82610bca565b604051633e3bf85d60e01b815260ff82166004820152602401610265565b50610748565b60006001600160a01b038b1673eeeeeeeeeeeeeeeeeeeeeeeeeeeeeeeeeeeeeeee14610889576040516370a0823160e01b81523360048201526001600160a01b038c16906370a082319060240160206040518083038186803b15801561084c57600080fd5b505afa158015610860573d6000803e3d6000fd5b505050506040513d601f19601f820116820180604052508101906108849190611e54565b61088b565b475b9050836108988b83611f88565b10156108b757604051631a9bae5760e31b815260040160405180910390fd5b6004805460405163ee18077360e01b81526001600160a01b038c811693820193909352602481018b9052336044820152898316606482015291169063ee18077390608401600060405180830381600087803b15801561091557600080fd5b505af1158015610929573d6000803e3d6000fd5b506000925050506001600160a01b038a1673eeeeeeeeeeeeeeeeeeeeeeeeeeeeeeeeeeeeeeee146109d2576040516370a0823160e01b81526001600160a01b0389811660048301528b16906370a082319060240160206040518083038186803b15801561099557600080fd5b505afa1580156109a9573d6000803e3d6000fd5b505050506040513d601f19601f820116820180604052508101906109cd9190611e54565b6109de565b876001600160a01b0316315b90506109ea8985611f88565b811015610a0a5760405163858a872160e01b815260040160405180910390fd5b610a148482612009565b9c9b505050505050505050505050565b600080600080600085875af1905080610a755760405162461bcd60e51b815260206004820152601360248201527211551217d514905394d1915497d19052531151606a1b6044820152606401610265565b505050565b6040516001600160a01b038316602482015260448101829052610a7590849063a9059cbb60e01b906064015b60408051601f198184030181529190526020810180516001600160e01b03166001600160e01b031990931692909217909152610beb565b6000610aef8280516014018051915290565b6040516370a0823160e01b81523060048201529091506000906001600160a01b038316906370a082319060240160206040518083038186803b158015610b3457600080fd5b505afa158015610b48573d6000803e3d6000fd5b505050506040513d601f19601f82011682018060405250810190610b6c9190611e54565b90508015610b7957600019015b610a7583308484610cbd565b6000610b978380516014018051915290565b9050610a7583338385610cbd565b47610bc6823073eeeeeeeeeeeeeeeeeeeeeeeeeeeeeeeeeeeeeeee84610cbd565b5050565b6000610bdc8280516014018051915290565b9050610bc68230836000610d3b565b6000610c40826040518060400160405280602081526020017f5361666545524332303a206c6f772d6c6576656c2063616c6c206661696c6564815250856001600160a01b0316610df39092919063ffffffff16565b805190915015610a755780806020019051810190610c5e9190611d45565b610a755760405162461bcd60e51b815260206004820152602a60248201527f5361666545524332303a204552433230206f7065726174696f6e20646964206e6044820152691bdd081cdd58d8d9595960b21b6064820152608401610265565b6000610ccf8580516001018051915290565b905060005b8160ff168110156105cf576000610cf18780516002018051915290565b9050600061ffff610d0481841687611fc2565b610d0e9190611fa0565b9050610d1a8186612009565b9450610d2888888884610d3b565b505080610d349061204c565b9050610cd4565b6000610d4d8580516001018051915290565b905060ff8116610d6957610d6385858585610e0c565b50610dec565b8060ff1660011415610d8657610d81858585856110d5565b610dec565b8060ff1660021415610d9e57610d8185858585611299565b8060ff1660031415610db657610d81858585856113f2565b8060ff1660041415610dce57610d81858585856116b2565b604051634059968560e11b815260ff82166004820152602401610265565b5050505050565b6060610e0284846000856118c7565b90505b9392505050565b600080610e1f8680516014018051915290565b90506000610e338780516001018051915290565b90506000610e478880516014018051915290565b9050600080846001600160a01b0316630902f1ac6040518163ffffffff1660e01b815260040160606040518083038186803b158015610e8557600080fd5b505afa158015610e99573d6000803e3d6000fd5b505050506040513d601f19601f82011682018060405250810190610ebd9190611e04565b506001600160701b031691506001600160701b031691508160001480610ee1575080155b15610f0a57604051630f4c971b60e21b81526001600160a01b0386166004820152602401610265565b6000808560ff16600114610f1f578284610f22565b83835b9150915088600014610f6d576001600160a01b038b16301415610f5857610f536001600160a01b038b16888b610a7a565b610ff6565b610f536001600160a01b038b168c898c6119f8565b6040516370a0823160e01b81526001600160a01b0388811660048301528391908c16906370a082319060240160206040518083038186803b158015610fb157600080fd5b505afa158015610fc5573d6000803e3d6000fd5b505050506040513d601f19601f82011682018060405250810190610fe99190611e54565b610ff39190612009565b98505b60006110048a6103e5611fc2565b905080611013846103e8611fc2565b61101d9190611f88565b6110278383611fc2565b6110319190611fa0565b98506000808860ff16600114611049578a600061104d565b60008b5b6040805160008152602081019182905263022c0d9f60e01b90915291935091506001600160a01b038b169063022c0d9f9061109190859085908d9060248101611f26565b600060405180830381600087803b1580156110ab57600080fd5b505af11580156110bf573d6000803e3d6000fd5b5050505050505050505050505050949350505050565b60006110e78580516014018051915290565b90506000806110fc8780516001018051915290565b60ff1611905060006111148780516014018051915290565b90506001600160a01b038616301461116f576001600160a01b038616331461115a57604051630336a30160e11b81526001600160a01b0387166004820152602401610265565b61116f6001600160a01b0386163330876119f8565b600580546001600160a01b0319166001600160a01b03851690811790915563128acb08828487816111be576111b9600173fffd8963efd1fc6a506488495d951d5263988d26611fe1565b6111ce565b6111ce6401000276a36001611f5d565b604080516001600160a01b038d166020820152016040516020818303038152906040526040518663ffffffff1660e01b8152600401611211959493929190611eb5565b6040805180830381600087803b15801561122a57600080fd5b505af115801561123e573d6000803e3d6000fd5b505050506040513d601f19601f820116820180604052508101906112629190611d60565b50506005546001600160a01b031660011461129057604051630eeada1560e11b815260040160405180910390fd5b50505050505050565b60006112ab8580516001018051915290565b905060006112bf8680516014018051915290565b90506001808316141561135f5760006112de8780516014018051915290565b9050806001600160a01b031663d0e30db0856040518263ffffffff1660e01b81526004016000604051808303818588803b15801561131b57600080fd5b505af115801561132f573d6000803e3d6000fd5b505050506001600160a01b03831630149050611359576113596001600160a01b0382168386610a7a565b506105cf565b6001600160a01b0385163014611384576113846001600160a01b0385168630866119f8565b604051632e1a7d4d60e01b8152600481018490526001600160a01b03851690632e1a7d4d90602401600060405180830381600087803b1580156113c657600080fd5b505af11580156113da573d6000803e3d6000fd5b506105cf925050506001600160a01b03821647610a24565b60006114048580516001018051915290565b905060006114188680516014018051915290565b865160208082018051909201018852909150831561147c576001600160a01b0386163014156114605760035461145b906001600160a01b03878116911686610a7a565b6114fc565b60035461145b906001600160a01b0387811691899116876119f8565b6003546040516370a0823160e01b81526001600160a01b039182166004820152908616906370a082319060240160206040518083038186803b1580156114c157600080fd5b505afa1580156114d5573d6000803e3d6000fd5b505050506040513d601f19601f820116820180604052508101906114f99190611e54565b93505b8260ff16600114156115bf57600080600080848060200190518101906115229190611bc1565b600354604051630ba1448d60e01b81526001600160a01b03808716600483015260ff8087166024840152851660448301528f8116606483015280841660848301528c811660a483015295995093975091955093509190911690630ba1448d9060c401600060405180830381600087803b15801561159e57600080fd5b505af11580156115b2573d6000803e3d6000fd5b5050505050505050611290565b6000806000806000858060200190518101906115db9190611b56565b94509450945094509450600360009054906101000a90046001600160a01b03166001600160a01b031663cbf45e88868686868f878e6040518863ffffffff1660e01b815260040161167297969594939291906001600160a01b039788168152951515602087015260ff94851660408701529290931660608501528416608084015290831660a083015290911660c082015260e00190565b600060405180830381600087803b15801561168c57600080fd5b505af11580156116a0573d6000803e3d6000fd5b50505050505050505050505050505050565b60006116c48580516014018051915290565b905060006116d88680516014018051915290565b905060006116ec8780516014018051915290565b90508315611733576001600160a01b03861630141561171e576117196001600160a01b0386168486610a7a565b611832565b6117196001600160a01b0386168785876119f8565b60405163523fba7f60e01b81526001600160a01b03868116600483015284169063523fba7f9060240160206040518083038186803b15801561177457600080fd5b505afa158015611788573d6000803e3d6000fd5b505050506040513d601f19601f820116820180604052508101906117ac9190611e54565b6040516370a0823160e01b81526001600160a01b0385811660048301528716906370a082319060240160206040518083038186803b1580156117ed57600080fd5b505afa158015611801573d6000803e3d6000fd5b505050506040513d601f19601f820116820180604052508101906118259190611e54565b61182f9190612009565b93505b604051634998b10960e11b81526001600160a01b03868116600483015283811660248301528281166044830152841690639331621290606401602060405180830381600087803b15801561188557600080fd5b505af1158015611899573d6000803e3d6000fd5b505050506040513d601f19601f820116820180604052508101906118bd9190611e54565b5050505050505050565b6060824710156119285760405162461bcd60e51b815260206004820152602660248201527f416464726573733a20696e73756666696369656e742062616c616e636520666f6044820152651c8818d85b1b60d21b6064820152608401610265565b6001600160a01b0385163b61197f5760405162461bcd60e51b815260206004820152601d60248201527f416464726573733a2063616c6c20746f206e6f6e2d636f6e74726163740000006044820152606401610265565b600080866001600160a01b0316858760405161199b9190611e99565b60006040518083038185875af1925050503d80600081146119d8576040519150601f19603f3d011682016040523d82523d6000602084013e6119dd565b606091505b50915091506119ed828286611a36565b979650505050505050565b6040516001600160a01b0380851660248301528316604482015260648101829052611a309085906323b872dd60e01b90608401610aa6565b50505050565b60608315611a45575081610e05565b825115611a555782518084602001fd5b8160405162461bcd60e51b81526004016102659190611ef0565b80518015158114611a7f57600080fd5b919050565b600082601f830112611a9557600080fd5b813567ffffffffffffffff80821115611ab057611ab061207d565b604051601f8301601f19908116603f01168101908282118183101715611ad857611ad861207d565b81604052838152866020858801011115611af157600080fd5b836020870160208301376000602085830101528094505050505092915050565b80516001600160701b0381168114611a7f57600080fd5b805160ff81168114611a7f57600080fd5b600060208284031215611b4b57600080fd5b8135610e0581612093565b600080600080600060a08688031215611b6e57600080fd5b8551611b7981612093565b9450611b8760208701611a6f565b9350611b9560408701611b28565b9250611ba360608701611b28565b91506080860151611bb381612093565b809150509295509295909350565b60008060008060808587031215611bd757600080fd5b8451611be281612093565b9350611bf060208601611b28565b9250611bfe60408601611b28565b91506060850151611c0e81612093565b939692955090935050565b60008060008060008060c08789031215611c3257600080fd5b8635611c3d81612093565b9550602087013594506040870135611c5481612093565b9350606087013592506080870135611c6b81612093565b915060a087013567ffffffffffffffff811115611c8757600080fd5b611c9389828a01611a84565b9150509295509295509295565b600080600080600080600080610100898b031215611cbd57600080fd5b8835611cc881612093565b9750602089013596506040890135611cdf81612093565b9550606089013594506080890135611cf681612093565b935060a0890135925060c0890135611d0d81612093565b915060e089013567ffffffffffffffff811115611d2957600080fd5b611d358b828c01611a84565b9150509295985092959890939650565b600060208284031215611d5757600080fd5b610e0582611a6f565b60008060408385031215611d7357600080fd5b505080516020909101519092909150565b60008060008060608587031215611d9a57600080fd5b8435935060208501359250604085013567ffffffffffffffff80821115611dc057600080fd5b818701915087601f830112611dd457600080fd5b813581811115611de357600080fd5b886020828501011115611df557600080fd5b95989497505060200194505050565b600080600060608486031215611e1957600080fd5b611e2284611b11565b9250611e3060208501611b11565b9150604084015163ffffffff81168114611e4957600080fd5b809150509250925092565b600060208284031215611e6657600080fd5b5051919050565b60008151808452611e85816020860160208601612020565b601f01601f19169290920160200192915050565b60008251611eab818460208701612020565b9190910192915050565b6001600160a01b0386811682528515156020830152604082018590528316606082015260a0608082018190526000906119ed90830184611e6d565b602081526000610e056020830184611e6d565b6020808252600990820152683737ba1030b236b4b760b91b604082015260600190565b84815283602082015260018060a01b0383166040820152608060608201526000611f536080830184611e6d565b9695505050505050565b60006001600160a01b03828116848216808303821115611f7f57611f7f612067565b01949350505050565b60008219821115611f9b57611f9b612067565b500190565b600082611fbd57634e487b7160e01b600052601260045260246000fd5b500490565b6000816000190483118215151615611fdc57611fdc612067565b500290565b60006001600160a01b038381169083168181101561200157612001612067565b039392505050565b60008282101561201b5761201b612067565b500390565b60005b8381101561203b578181015183820152602001612023565b83811115611a305750506000910152565b600060001982141561206057612060612067565b5060010190565b634e487b7160e01b600052601160045260246000fd5b634e487b7160e01b600052604160045260246000fd5b6001600160a01b03811681146120a857600080fd5b5056fea2646970667358221220aaf5dde25632672b2134d51160e41bf2e2baa8ed42d6c0ed6ea1303822c4f25164736f6c63430008070033",
  "devdoc": {
    "kind": "dev",
    "methods": {
      "processRoute(address,uint256,address,uint256,address,bytes)": {
        "params": {
          "amountIn": "Amount of the input token",
          "amountOutMin": "Minimum amount of the output token",
          "route": "The encoded route to execute with",
          "to": "Receiver address",
          "tokenIn": "Address of the input token",
          "tokenOut": "Address of the output token"
        },
        "returns": {
          "amountOut": "Actual amount of the output token"
        }
      },
      "setFeeSettlement(address)": {
        "params": {
          "_feeSettlement": "FeeSettlement address"
        }
      },
      "setStableSwapDispatcher(address)": {
        "params": {
          "_stableSwapDispatcher": "StableSwapDispatcher address"
        }
      },
      "uniswapV3SwapCallback(int256,int256,bytes)": {
        "details": "In the implementation you must pay the pool tokens owed for the swap. The caller of this method must be checked to be a UniswapV3Pool deployed by the canonical UniswapV3Factory. amount0Delta and amount1Delta can both be 0 if no tokens were swapped.",
        "params": {
          "amount0Delta": "The amount of token0 that was sent (negative) or must be received (positive) by the pool by the end of the swap. If positive, the callback must send that amount of token0 to the pool.",
          "amount1Delta": "The amount of token1 that was sent (negative) or must be received (positive) by the pool by the end of the swap. If positive, the callback must send that amount of token1 to the pool.",
          "data": "Any data passed through by the caller via the IUniswapV3PoolActions#swap call"
        }
      }
    },
    "version": 1
  },
  "userdoc": {
    "kind": "user",
    "methods": {
      "processRoute(address,uint256,address,uint256,address,bytes)": {
        "notice": "Decodes and executes the given route"
      },
      "setFeeSettlement(address)": {
        "notice": "Set FeeSettlement by admin"
      },
      "setStableSwapDispatcher(address)": {
        "notice": "Set StableSwapDispatcher by admin"
      },
      "uniswapV3SwapCallback(int256,int256,bytes)": {
        "notice": "Called to `msg.sender` after executing a swap via IUniswapV3Pool#swap."
      }
    },
    "version": 1
  },
  "storageLayout": {
    "storage": [
      {
        "astId": 10,
        "contract": "contracts/universal-router/UniversalRouter2.sol:UniversalRouter2",
        "label": "_status",
        "offset": 0,
        "slot": "0",
        "type": "t_uint256"
      },
      {
        "astId": 860,
        "contract": "contracts/universal-router/UniversalRouter2.sol:UniversalRouter2",
        "label": "admin",
        "offset": 0,
        "slot": "1",
        "type": "t_address"
      },
      {
        "astId": 862,
        "contract": "contracts/universal-router/UniversalRouter2.sol:UniversalRouter2",
        "label": "adminCandidate",
        "offset": 0,
        "slot": "2",
        "type": "t_address"
      },
      {
        "astId": 1098,
        "contract": "contracts/universal-router/UniversalRouter2.sol:UniversalRouter2",
        "label": "stableSwapDispatcher",
        "offset": 0,
        "slot": "3",
        "type": "t_contract(IStableSwapDispatcher)2434"
      },
      {
        "astId": 1101,
        "contract": "contracts/universal-router/UniversalRouter2.sol:UniversalRouter2",
        "label": "feeSettlement",
        "offset": 0,
        "slot": "4",
        "type": "t_contract(IFeeSettlement)2399"
      },
      {
        "astId": 1103,
        "contract": "contracts/universal-router/UniversalRouter2.sol:UniversalRouter2",
        "label": "lastCalledPool",
        "offset": 0,
        "slot": "5",
        "type": "t_address"
      }
    ],
    "types": {
      "t_address": {
        "encoding": "inplace",
        "label": "address",
        "numberOfBytes": "20"
      },
      "t_contract(IFeeSettlement)2399": {
        "encoding": "inplace",
        "label": "contract IFeeSettlement",
        "numberOfBytes": "20"
      },
      "t_contract(IStableSwapDispatcher)2434": {
        "encoding": "inplace",
        "label": "contract IStableSwapDispatcher",
        "numberOfBytes": "20"
      },
      "t_uint256": {
        "encoding": "inplace",
        "label": "uint256",
        "numberOfBytes": "32"
      }
    }
  }
}