{
  "address": "0xfdF27D5FB1F70654aA4A079656C1DaC1c543A2A0",
  "abi": [
    {
      "inputs": [
        {
          "internalType": "contract IStableSwapDispatcher",
          "name": "_stableSwapDispatcher",
          "type": "address"
        },
        {
          "internalType": "contract IFeeSettlement",
          "name": "_feeSettlement",
          "type": "address"
        }
      ],
      "stateMutability": "nonpayable",
      "type": "constructor"
    },
    {
      "inputs": [
        {
          "internalType": "address",
          "name": "pool",
          "type": "address"
        }
      ],
      "name": "InvalidPool",
      "type": "error"
    },
    {
      "inputs": [],
      "name": "MinimalInputBalanceViolation",
      "type": "error"
    },
    {
      "inputs": [],
      "name": "MinimalOutputBalanceViolation",
      "type": "error"
    },
    {
      "inputs": [],
      "name": "UnexpectedUniV3Swap",
      "type": "error"
    },
    {
      "inputs": [
        {
          "internalType": "uint8",
          "name": "code",
          "type": "uint8"
        }
      ],
      "name": "UnknownCommandCode",
      "type": "error"
    },
    {
      "inputs": [
        {
          "internalType": "uint8",
          "name": "poolType",
          "type": "uint8"
        }
      ],
      "name": "UnknownPoolType",
      "type": "error"
    },
    {
      "anonymous": false,
      "inputs": [
        {
          "indexed": true,
          "internalType": "address",
          "name": "oldAdmin",
          "type": "address"
        },
        {
          "indexed": true,
          "internalType": "address",
          "name": "newAdmin",
          "type": "address"
        }
      ],
      "name": "AdminChanged",
      "type": "event"
    },
    {
      "anonymous": false,
      "inputs": [
        {
          "indexed": true,
          "internalType": "address",
          "name": "newAdmin",
          "type": "address"
        }
      ],
      "name": "Candidate",
      "type": "event"
    },
    {
      "anonymous": false,
      "inputs": [
        {
          "indexed": false,
          "internalType": "contract IFeeSettlement",
          "name": "feeSettlement",
          "type": "address"
        }
      ],
      "name": "SetFeeSettlement",
      "type": "event"
    },
    {
      "anonymous": false,
      "inputs": [
        {
          "indexed": false,
          "internalType": "contract IStableSwapDispatcher",
          "name": "stableSwapDispatcher",
          "type": "address"
        }
      ],
      "name": "SetStableSwapDispatcher",
      "type": "event"
    },
    {
      "inputs": [],
      "name": "admin",
      "outputs": [
        {
          "internalType": "address",
          "name": "",
          "type": "address"
        }
      ],
      "stateMutability": "view",
      "type": "function"
    },
    {
      "inputs": [],
      "name": "adminCandidate",
      "outputs": [
        {
          "internalType": "address",
          "name": "",
          "type": "address"
        }
      ],
      "stateMutability": "view",
      "type": "function"
    },
    {
      "inputs": [],
      "name": "candidateConfirm",
      "outputs": [],
      "stateMutability": "nonpayable",
      "type": "function"
    },
    {
      "inputs": [],
      "name": "feeSettlement",
      "outputs": [
        {
          "internalType": "contract IFeeSettlement",
          "name": "",
          "type": "address"
        }
      ],
      "stateMutability": "view",
      "type": "function"
    },
    {
      "inputs": [
        {
          "internalType": "address",
          "name": "tokenIn",
          "type": "address"
        },
        {
          "internalType": "uint256",
          "name": "amountIn",
          "type": "uint256"
        },
        {
          "internalType": "address",
          "name": "tokenOut",
          "type": "address"
        },
        {
          "internalType": "uint256",
          "name": "amountOutMin",
          "type": "uint256"
        },
        {
          "internalType": "address",
          "name": "to",
          "type": "address"
        },
        {
          "internalType": "bytes",
          "name": "route",
          "type": "bytes"
        }
      ],
      "name": "processRoute",
      "outputs": [
        {
          "internalType": "uint256",
          "name": "amountOut",
          "type": "uint256"
        }
      ],
      "stateMutability": "payable",
      "type": "function"
    },
    {
      "inputs": [
        {
          "internalType": "address",
          "name": "_candidate",
          "type": "address"
        }
      ],
      "name": "setAdminCandidate",
      "outputs": [],
      "stateMutability": "nonpayable",
      "type": "function"
    },
    {
      "inputs": [
        {
          "internalType": "contract IFeeSettlement",
          "name": "_feeSettlement",
          "type": "address"
        }
      ],
      "name": "setFeeSettlement",
      "outputs": [],
      "stateMutability": "nonpayable",
      "type": "function"
    },
    {
      "inputs": [
        {
          "internalType": "contract IStableSwapDispatcher",
          "name": "_stableSwapDispatcher",
          "type": "address"
        }
      ],
      "name": "setStableSwapDispatcher",
      "outputs": [],
      "stateMutability": "nonpayable",
      "type": "function"
    },
    {
      "inputs": [],
      "name": "stableSwapDispatcher",
      "outputs": [
        {
          "internalType": "contract IStableSwapDispatcher",
          "name": "",
          "type": "address"
        }
      ],
      "stateMutability": "view",
      "type": "function"
    },
    {
      "inputs": [
        {
          "internalType": "address",
          "name": "transferValueTo",
          "type": "address"
        },
        {
          "internalType": "uint256",
          "name": "amountValueTransfer",
          "type": "uint256"
        },
        {
          "internalType": "address",
          "name": "tokenIn",
          "type": "address"
        },
        {
          "internalType": "uint256",
          "name": "amountIn",
          "type": "uint256"
        },
        {
          "internalType": "address",
          "name": "tokenOut",
          "type": "address"
        },
        {
          "internalType": "uint256",
          "name": "amountOutMin",
          "type": "uint256"
        },
        {
          "internalType": "address",
          "name": "to",
          "type": "address"
        },
        {
          "internalType": "bytes",
          "name": "route",
          "type": "bytes"
        }
      ],
      "name": "transferValueAndprocessRoute",
      "outputs": [
        {
          "internalType": "uint256",
          "name": "amountOut",
          "type": "uint256"
        }
      ],
      "stateMutability": "payable",
      "type": "function"
    },
    {
      "inputs": [
        {
          "internalType": "int256",
          "name": "amount0Delta",
          "type": "int256"
        },
        {
          "internalType": "int256",
          "name": "amount1Delta",
          "type": "int256"
        },
        {
          "internalType": "bytes",
          "name": "data",
          "type": "bytes"
        }
      ],
      "name": "uniswapV3SwapCallback",
      "outputs": [],
      "stateMutability": "nonpayable",
      "type": "function"
    },
    {
      "stateMutability": "payable",
      "type": "receive"
    }
  ],
  "transactionHash": "0xd2f86acf98efa673f4d2ae4a0ccb1f006e991207df3e455da9b34a353ce9a075",
  "args": [
    "0x6D48a5Ce3815c29Ff1Deea157380e896bdb9f346",
    "0xd900a76A67C92eBCD70054daD1Fc1b62B487CAfA"
  ],
  "numDeployments": 1,
  "solcInputHash": "6dfd0d169fe211adde2c8393aea423a4",
  "bytecode": "0x60806040523480156200001157600080fd5b5060405162002261380380620022618339810160408190526200003491620000fe565b60016000819055600380546001600160a01b038086166001600160a01b031992831617909255600480549285169282169290921790915560058054909116909117905562000082336200008a565b505062000156565b6001546001600160a01b031615620000dc5760405162461bcd60e51b815260206004820152601160248201527018591b5a5b88185b1c9958591e481cd95d607a1b604482015260640160405180910390fd5b600180546001600160a01b0319166001600160a01b0392909216919091179055565b600080604083850312156200011257600080fd5b82516200011f816200013d565b602084015190925062000132816200013d565b809150509250929050565b6001600160a01b03811681146200015357600080fd5b50565b6120fb80620001666000396000f3fe6080604052600436106100a05760003560e01c806377cc4e9a1161006457806377cc4e9a1461016157806393b3774c1461018157806396de7aa014610194578063a81e200b146101b4578063f851a440146101d4578063fa461e33146101f457600080fd5b80632646478b146100ac5780633accfa6c146100d25780633f0232301461010a5780635efc9dcd1461012157806373ce06271461014157600080fd5b366100a757005b600080fd5b6100bf6100ba366004611c33565b610214565b6040519081526020015b60405180910390f35b3480156100de57600080fd5b506002546100f2906001600160a01b031681565b6040516001600160a01b0390911681526020016100c9565b34801561011657600080fd5b5061011f610291565b005b34801561012d57600080fd5b5061011f61013c366004611b1a565b610341565b34801561014d57600080fd5b506003546100f2906001600160a01b031681565b34801561016d57600080fd5b5061011f61017c366004611b1a565b6103c0565b6100bf61018f366004611cba565b610438565b3480156101a057600080fd5b5061011f6101af366004611b1a565b6104c5565b3480156101c057600080fd5b506004546100f2906001600160a01b031681565b3480156101e057600080fd5b506001546100f2906001600160a01b031681565b34801561020057600080fd5b5061011f61020f366004611d9e565b610539565b60006002600054141561026e5760405162461bcd60e51b815260206004820152601f60248201527f5265656e7472616e637947756172643a207265656e7472616e742063616c6c0060448201526064015b60405180910390fd5b6002600055610281878787878787610606565b6001600055979650505050505050565b6002546001600160a01b031633146102db5760405162461bcd60e51b815260206004820152600d60248201526c6e6f742043616e64696461746560981b6044820152606401610265565b6002546001546040516001600160a01b0392831692909116907f7e644d79422f17c01e4894b5f4f588d331ebfa28653d42ae832dc59e38c9798f90600090a360028054600180546001600160a01b03199081166001600160a01b03841617909155169055565b6001546001600160a01b0316331461036b5760405162461bcd60e51b815260040161026590611f1d565b600480546001600160a01b0319166001600160a01b0383169081179091556040519081527f5b63ecb9cf822eda2eff61a085df526dda34a89520e32c60dd98f6d2718e68df906020015b60405180910390a150565b6001546001600160a01b031633146103ea5760405162461bcd60e51b815260040161026590611f1d565b600380546001600160a01b0319166001600160a01b0383169081179091556040519081527f8fbcedcd8235dbaa973a11fd69b709a18f639a45103ddb133a16b046e38dcb25906020016103b5565b60006002600054141561048d5760405162461bcd60e51b815260206004820152601f60248201527f5265656e7472616e637947756172643a207265656e7472616e742063616c6c006044820152606401610265565b60026000556104a56001600160a01b038a1689610a53565b6104b3878787878787610606565b60016000559998505050505050505050565b6001546001600160a01b031633146104ef5760405162461bcd60e51b815260040161026590611f1d565b600280546001600160a01b0319166001600160a01b0383169081179091556040517f8cc40b9abca4a505a92028908f9d913d621d18112c69412806506f02333f26b490600090a250565b6005546001600160a01b0316331461056457604051630eeada1560e11b815260040160405180910390fd5b600580546001600160a01b031916600117905560008061058683850185611b37565b915091506000808713610599578561059b565b865b9050600081136105be57604051630eeada1560e11b815260040160405180910390fd5b6001600160a01b0382163014156105e8576105e36001600160a01b0384163383610aa9565b6105fd565b6105fd6001600160a01b038416833384610b0c565b50505050505050565b6000806001600160a01b03881673eeeeeeeeeeeeeeeeeeeeeeeeeeeeeeeeeeeeeeee146106a9576040516370a0823160e01b81523360048201526001600160a01b038916906370a082319060240160206040518083038186803b15801561066c57600080fd5b505afa158015610680573d6000803e3d6000fd5b505050506040513d601f19601f820116820180604052508101906106a49190611e6e565b6106ab565b475b905060006001600160a01b03871673eeeeeeeeeeeeeeeeeeeeeeeeeeeeeeeeeeeeeeee14610751576040516370a0823160e01b81526001600160a01b0386811660048301528816906370a082319060240160206040518083038186803b15801561071457600080fd5b505afa158015610728573d6000803e3d6000fd5b505050506040513d601f19601f8201168201806040525081019061074c9190611e6e565b61075d565b846001600160a01b0316315b604080518082019091528581528551860160208201529091505b8051602082015111156108165760006107968280516001018051915290565b90508060ff16600114156107b2576107ad82610b4a565b610810565b8060ff16600214156107c8576107ad828b610bf2565b8060ff16600314156107dd576107ad82610c12565b8060ff16600414156107f2576107ad82610c37565b604051633e3bf85d60e01b815260ff82166004820152602401610265565b50610777565b60006001600160a01b038b1673eeeeeeeeeeeeeeeeeeeeeeeeeeeeeeeeeeeeeeee146108b8576040516370a0823160e01b81523360048201526001600160a01b038c16906370a082319060240160206040518083038186803b15801561087b57600080fd5b505afa15801561088f573d6000803e3d6000fd5b505050506040513d601f19601f820116820180604052508101906108b39190611e6e565b6108ba565b475b9050836108c78b83611fa2565b10156108e657604051631a9bae5760e31b815260040160405180910390fd5b6004805460405163ee18077360e01b81526001600160a01b038c811693820193909352602481018b9052336044820152898316606482015291169063ee18077390608401600060405180830381600087803b15801561094457600080fd5b505af1158015610958573d6000803e3d6000fd5b506000925050506001600160a01b038a1673eeeeeeeeeeeeeeeeeeeeeeeeeeeeeeeeeeeeeeee14610a01576040516370a0823160e01b81526001600160a01b0389811660048301528b16906370a082319060240160206040518083038186803b1580156109c457600080fd5b505afa1580156109d8573d6000803e3d6000fd5b505050506040513d601f19601f820116820180604052508101906109fc9190611e6e565b610a0d565b876001600160a01b0316315b9050610a198985611fa2565b811015610a395760405163858a872160e01b815260040160405180910390fd5b610a438482612023565b9c9b505050505050505050505050565b600080600080600085875af1905080610aa45760405162461bcd60e51b815260206004820152601360248201527211551217d514905394d1915497d19052531151606a1b6044820152606401610265565b505050565b6040516001600160a01b038316602482015260448101829052610aa490849063a9059cbb60e01b906064015b60408051601f198184030181529190526020810180516001600160e01b03166001600160e01b031990931692909217909152610c58565b6040516001600160a01b0380851660248301528316604482015260648101829052610b449085906323b872dd60e01b90608401610ad5565b50505050565b6000610b5c8280516014018051915290565b6040516370a0823160e01b81523060048201529091506000906001600160a01b038316906370a082319060240160206040518083038186803b158015610ba157600080fd5b505afa158015610bb5573d6000803e3d6000fd5b505050506040513d601f19601f82011682018060405250810190610bd99190611e6e565b90508015610be657600019015b610aa483308484610d2a565b6000610c048380516014018051915290565b9050610aa483338385610d2a565b47610c33823073eeeeeeeeeeeeeeeeeeeeeeeeeeeeeeeeeeeeeeee84610d2a565b5050565b6000610c498280516014018051915290565b9050610c338230836000610db0565b6000610cad826040518060400160405280602081526020017f5361666545524332303a206c6f772d6c6576656c2063616c6c206661696c6564815250856001600160a01b0316610e689092919063ffffffff16565b805190915015610aa45780806020019051810190610ccb9190611d5f565b610aa45760405162461bcd60e51b815260206004820152602a60248201527f5361666545524332303a204552433230206f7065726174696f6e20646964206e6044820152691bdd081cdd58d8d9595960b21b6064820152608401610265565b6000610d3c8580516001018051915290565b905060005b8160ff16811015610da8576000610d5e8780516002018051915290565b9050600061ffff610d7181841687611fdc565b610d7b9190611fba565b9050610d878186612023565b9450610d9588888884610db0565b505080610da190612066565b9050610d41565b505050505050565b6000610dc28580516001018051915290565b905060ff8116610dde57610dd885858585610e81565b50610e61565b8060ff1660011415610dfb57610df68585858561114a565b610e61565b8060ff1660021415610e1357610df6858585856112b8565b8060ff1660031415610e2b57610df685858585611411565b8060ff1660041415610e4357610df6858585856116d1565b604051634059968560e11b815260ff82166004820152602401610265565b5050505050565b6060610e7784846000856118e6565b90505b9392505050565b600080610e948680516014018051915290565b90506000610ea88780516001018051915290565b90506000610ebc8880516014018051915290565b9050600080846001600160a01b0316630902f1ac6040518163ffffffff1660e01b815260040160606040518083038186803b158015610efa57600080fd5b505afa158015610f0e573d6000803e3d6000fd5b505050506040513d601f19601f82011682018060405250810190610f329190611e1e565b506001600160701b031691506001600160701b031691508160001480610f56575080155b15610f7f57604051630f4c971b60e21b81526001600160a01b0386166004820152602401610265565b6000808560ff16600114610f94578284610f97565b83835b9150915088600014610fe2576001600160a01b038b16301415610fcd57610fc86001600160a01b038b16888b610aa9565b61106b565b610fc86001600160a01b038b168c898c610b0c565b6040516370a0823160e01b81526001600160a01b0388811660048301528391908c16906370a082319060240160206040518083038186803b15801561102657600080fd5b505afa15801561103a573d6000803e3d6000fd5b505050506040513d601f19601f8201168201806040525081019061105e9190611e6e565b6110689190612023565b98505b60006110798a6103e5611fdc565b905080611088846103e8611fdc565b6110929190611fa2565b61109c8383611fdc565b6110a69190611fba565b98506000808860ff166001146110be578a60006110c2565b60008b5b6040805160008152602081019182905263022c0d9f60e01b90915291935091506001600160a01b038b169063022c0d9f9061110690859085908d9060248101611f40565b600060405180830381600087803b15801561112057600080fd5b505af1158015611134573d6000803e3d6000fd5b5050505050505050505050505050949350505050565b600061115c8580516014018051915290565b90506000806111718780516001018051915290565b60ff1611905060006111898780516014018051915290565b600580546001600160a01b0319166001600160a01b03861690811790915590915063128acb08828487816111db576111d6600173fffd8963efd1fc6a506488495d951d5263988d26611ffb565b6111eb565b6111eb6401000276a36001611f77565b604080516001600160a01b038d811660208301528e168183015281518082038301815260608201928390526001600160e01b031960e089901b16909252611239959493929190606401611ecf565b6040805180830381600087803b15801561125257600080fd5b505af1158015611266573d6000803e3d6000fd5b505050506040513d601f19601f8201168201806040525081019061128a9190611d7a565b50506005546001600160a01b03166001146105fd57604051630eeada1560e11b815260040160405180910390fd5b60006112ca8580516001018051915290565b905060006112de8680516014018051915290565b90506001808316141561137e5760006112fd8780516014018051915290565b9050806001600160a01b031663d0e30db0856040518263ffffffff1660e01b81526004016000604051808303818588803b15801561133a57600080fd5b505af115801561134e573d6000803e3d6000fd5b505050506001600160a01b03831630149050611378576113786001600160a01b0382168386610aa9565b50610da8565b6001600160a01b03851630146113a3576113a36001600160a01b038516863086610b0c565b604051632e1a7d4d60e01b8152600481018490526001600160a01b03851690632e1a7d4d90602401600060405180830381600087803b1580156113e557600080fd5b505af11580156113f9573d6000803e3d6000fd5b50610da8925050506001600160a01b03821647610a53565b60006114238580516001018051915290565b905060006114378680516014018051915290565b865160208082018051909201018852909150831561149b576001600160a01b03861630141561147f5760035461147a906001600160a01b03878116911686610aa9565b61151b565b60035461147a906001600160a01b038781169189911687610b0c565b6003546040516370a0823160e01b81526001600160a01b039182166004820152908616906370a082319060240160206040518083038186803b1580156114e057600080fd5b505afa1580156114f4573d6000803e3d6000fd5b505050506040513d601f19601f820116820180604052508101906115189190611e6e565b93505b8260ff16600114156115de57600080600080848060200190518101906115419190611bdb565b600354604051630ba1448d60e01b81526001600160a01b03808716600483015260ff8087166024840152851660448301528f8116606483015280841660848301528c811660a483015295995093975091955093509190911690630ba1448d9060c401600060405180830381600087803b1580156115bd57600080fd5b505af11580156115d1573d6000803e3d6000fd5b50505050505050506105fd565b6000806000806000858060200190518101906115fa9190611b70565b94509450945094509450600360009054906101000a90046001600160a01b03166001600160a01b031663cbf45e88868686868f878e6040518863ffffffff1660e01b815260040161169197969594939291906001600160a01b039788168152951515602087015260ff94851660408701529290931660608501528416608084015290831660a083015290911660c082015260e00190565b600060405180830381600087803b1580156116ab57600080fd5b505af11580156116bf573d6000803e3d6000fd5b50505050505050505050505050505050565b60006116e38580516014018051915290565b905060006116f78680516014018051915290565b9050600061170b8780516014018051915290565b90508315611752576001600160a01b03861630141561173d576117386001600160a01b0386168486610aa9565b611851565b6117386001600160a01b038616878587610b0c565b60405163523fba7f60e01b81526001600160a01b03868116600483015284169063523fba7f9060240160206040518083038186803b15801561179357600080fd5b505afa1580156117a7573d6000803e3d6000fd5b505050506040513d601f19601f820116820180604052508101906117cb9190611e6e565b6040516370a0823160e01b81526001600160a01b0385811660048301528716906370a082319060240160206040518083038186803b15801561180c57600080fd5b505afa158015611820573d6000803e3d6000fd5b505050506040513d601f19601f820116820180604052508101906118449190611e6e565b61184e9190612023565b93505b604051634998b10960e11b81526001600160a01b03868116600483015283811660248301528281166044830152841690639331621290606401602060405180830381600087803b1580156118a457600080fd5b505af11580156118b8573d6000803e3d6000fd5b505050506040513d601f19601f820116820180604052508101906118dc9190611e6e565b5050505050505050565b6060824710156119475760405162461bcd60e51b815260206004820152602660248201527f416464726573733a20696e73756666696369656e742062616c616e636520666f6044820152651c8818d85b1b60d21b6064820152608401610265565b6001600160a01b0385163b61199e5760405162461bcd60e51b815260206004820152601d60248201527f416464726573733a2063616c6c20746f206e6f6e2d636f6e74726163740000006044820152606401610265565b600080866001600160a01b031685876040516119ba9190611eb3565b60006040518083038185875af1925050503d80600081146119f7576040519150601f19603f3d011682016040523d82523d6000602084013e6119fc565b606091505b5091509150611a0c828286611a17565b979650505050505050565b60608315611a26575081610e7a565b825115611a365782518084602001fd5b8160405162461bcd60e51b81526004016102659190611f0a565b80518015158114611a6057600080fd5b919050565b600082601f830112611a7657600080fd5b813567ffffffffffffffff80821115611a9157611a91612097565b604051601f8301601f19908116603f01168101908282118183101715611ab957611ab9612097565b81604052838152866020858801011115611ad257600080fd5b836020870160208301376000602085830101528094505050505092915050565b80516001600160701b0381168114611a6057600080fd5b805160ff81168114611a6057600080fd5b600060208284031215611b2c57600080fd5b8135610e7a816120ad565b60008060408385031215611b4a57600080fd5b8235611b55816120ad565b91506020830135611b65816120ad565b809150509250929050565b600080600080600060a08688031215611b8857600080fd5b8551611b93816120ad565b9450611ba160208701611a50565b9350611baf60408701611b09565b9250611bbd60608701611b09565b91506080860151611bcd816120ad565b809150509295509295909350565b60008060008060808587031215611bf157600080fd5b8451611bfc816120ad565b9350611c0a60208601611b09565b9250611c1860408601611b09565b91506060850151611c28816120ad565b939692955090935050565b60008060008060008060c08789031215611c4c57600080fd5b8635611c57816120ad565b9550602087013594506040870135611c6e816120ad565b9350606087013592506080870135611c85816120ad565b915060a087013567ffffffffffffffff811115611ca157600080fd5b611cad89828a01611a65565b9150509295509295509295565b600080600080600080600080610100898b031215611cd757600080fd5b8835611ce2816120ad565b9750602089013596506040890135611cf9816120ad565b9550606089013594506080890135611d10816120ad565b935060a0890135925060c0890135611d27816120ad565b915060e089013567ffffffffffffffff811115611d4357600080fd5b611d4f8b828c01611a65565b9150509295985092959890939650565b600060208284031215611d7157600080fd5b610e7a82611a50565b60008060408385031215611d8d57600080fd5b505080516020909101519092909150565b60008060008060608587031215611db457600080fd5b8435935060208501359250604085013567ffffffffffffffff80821115611dda57600080fd5b818701915087601f830112611dee57600080fd5b813581811115611dfd57600080fd5b886020828501011115611e0f57600080fd5b95989497505060200194505050565b600080600060608486031215611e3357600080fd5b611e3c84611af2565b9250611e4a60208501611af2565b9150604084015163ffffffff81168114611e6357600080fd5b809150509250925092565b600060208284031215611e8057600080fd5b5051919050565b60008151808452611e9f81602086016020860161203a565b601f01601f19169290920160200192915050565b60008251611ec581846020870161203a565b9190910192915050565b6001600160a01b0386811682528515156020830152604082018590528316606082015260a060808201819052600090611a0c90830184611e87565b602081526000610e7a6020830184611e87565b6020808252600990820152683737ba1030b236b4b760b91b604082015260600190565b84815283602082015260018060a01b0383166040820152608060608201526000611f6d6080830184611e87565b9695505050505050565b60006001600160a01b03828116848216808303821115611f9957611f99612081565b01949350505050565b60008219821115611fb557611fb5612081565b500190565b600082611fd757634e487b7160e01b600052601260045260246000fd5b500490565b6000816000190483118215151615611ff657611ff6612081565b500290565b60006001600160a01b038381169083168181101561201b5761201b612081565b039392505050565b60008282101561203557612035612081565b500390565b60005b8381101561205557818101518382015260200161203d565b83811115610b445750506000910152565b600060001982141561207a5761207a612081565b5060010190565b634e487b7160e01b600052601160045260246000fd5b634e487b7160e01b600052604160045260246000fd5b6001600160a01b03811681146120c257600080fd5b5056fea26469706673582212208bb3fb2e783c345f0198ca35211004acd411a8ab7ecc4e9b0b73554443229ede64736f6c63430008070033",
  "devdoc": {
    "kind": "dev",
    "methods": {
      "processRoute(address,uint256,address,uint256,address,bytes)": {
        "params": {
          "amountIn": "Amount of the input token",
          "amountOutMin": "Minimum amount of the output token",
          "route": "The encoded route to execute with",
          "to": "Receiver address",
          "tokenIn": "Address of the input token",
          "tokenOut": "Address of the output token"
        },
        "returns": {
          "amountOut": "Actual amount of the output token"
        }
      },
      "setFeeSettlement(address)": {
        "params": {
          "_feeSettlement": "FeeSettlement address"
        }
      },
      "setStableSwapDispatcher(address)": {
        "params": {
          "_stableSwapDispatcher": "StableSwapDispatcher address"
        }
      },
      "uniswapV3SwapCallback(int256,int256,bytes)": {
        "details": "In the implementation you must pay the pool tokens owed for the swap. The caller of this method must be checked to be a UniswapV3Pool deployed by the canonical UniswapV3Factory. amount0Delta and amount1Delta can both be 0 if no tokens were swapped.",
        "params": {
          "amount0Delta": "The amount of token0 that was sent (negative) or must be received (positive) by the pool by the end of the swap. If positive, the callback must send that amount of token0 to the pool.",
          "amount1Delta": "The amount of token1 that was sent (negative) or must be received (positive) by the pool by the end of the swap. If positive, the callback must send that amount of token1 to the pool.",
          "data": "Any data passed through by the caller via the IUniswapV3PoolActions#swap call"
        }
      }
    },
    "version": 1
  },
  "userdoc": {
    "kind": "user",
    "methods": {
      "processRoute(address,uint256,address,uint256,address,bytes)": {
        "notice": "Decodes and executes the given route"
      },
      "setFeeSettlement(address)": {
        "notice": "Set FeeSettlement by admin"
      },
      "setStableSwapDispatcher(address)": {
        "notice": "Set StableSwapDispatcher by admin"
      },
      "uniswapV3SwapCallback(int256,int256,bytes)": {
        "notice": "Called to `msg.sender` after executing a swap via IUniswapV3Pool#swap."
      }
    },
    "version": 1
  },
  "storageLayout": {
    "storage": [
      {
        "astId": 10,
        "contract": "contracts/universal-router/UniversalRouter2.sol:UniversalRouter2",
        "label": "_status",
        "offset": 0,
        "slot": "0",
        "type": "t_uint256"
      },
      {
        "astId": 860,
        "contract": "contracts/universal-router/UniversalRouter2.sol:UniversalRouter2",
        "label": "admin",
        "offset": 0,
        "slot": "1",
        "type": "t_address"
      },
      {
        "astId": 862,
        "contract": "contracts/universal-router/UniversalRouter2.sol:UniversalRouter2",
        "label": "adminCandidate",
        "offset": 0,
        "slot": "2",
        "type": "t_address"
      },
      {
        "astId": 1968,
        "contract": "contracts/universal-router/UniversalRouter2.sol:UniversalRouter2",
        "label": "stableSwapDispatcher",
        "offset": 0,
        "slot": "3",
        "type": "t_contract(IStableSwapDispatcher)3297"
      },
      {
        "astId": 1971,
        "contract": "contracts/universal-router/UniversalRouter2.sol:UniversalRouter2",
        "label": "feeSettlement",
        "offset": 0,
        "slot": "4",
        "type": "t_contract(IFeeSettlement)3262"
      },
      {
        "astId": 1973,
        "contract": "contracts/universal-router/UniversalRouter2.sol:UniversalRouter2",
        "label": "lastCalledPool",
        "offset": 0,
        "slot": "5",
        "type": "t_address"
      }
    ],
    "types": {
      "t_address": {
        "encoding": "inplace",
        "label": "address",
        "numberOfBytes": "20"
      },
      "t_contract(IFeeSettlement)3262": {
        "encoding": "inplace",
        "label": "contract IFeeSettlement",
        "numberOfBytes": "20"
      },
      "t_contract(IStableSwapDispatcher)3297": {
        "encoding": "inplace",
        "label": "contract IStableSwapDispatcher",
        "numberOfBytes": "20"
      },
      "t_uint256": {
        "encoding": "inplace",
        "label": "uint256",
        "numberOfBytes": "32"
      }
    }
  }
}